:020000040800F2
:10000000C8050020E51B0008AD1A0008AF1A00085B
:10001000B11A0008B31A0008B51A00080000000061
:10002000000000000000000000000000B71A0008F7
:10003000B91A000800000000BB1A0008BD1A000829
:100040000D1C0008111C0008151C0008191C0008D4
:100050001D1C0008211C0008251C0008291C000884
:100060002D1C0008311C0008351C0008391C000834
:100070003D1C0008411C0008451C0008C11A00086E
:10008000491C00084D1C0008511C0008000000001D
:10009000000000000000000000000000551C0008E7
:1000A000591C00085D1C0008611C0008651C000844
:1000B000691C00086D1C0008711C0008751C0008F4
:1000C000791C00087D1C0008811C0008C71A000864
:1000D000851C0008891C00088D1C00080000000019
:1000E000911C0008951C0008991C000800000000E5
:1000F0000000000000000000000000009D1C00083F
:1001000000000000A11C0008A51C0008A91C000894
:1001100000000000000000000000000000000000DF
:10012000AD1C0008B11C0008CD1A0008B51C000861
:10013000B91C0008000000000000000000000000E2
:10014000000000000000000000000000BD1C0008CE
:10015000C11C0008C51C0008C91C0008CD1C0008F3
:10016000D11C0008D51C00080000000000000000A1
:10017000000000000000000000000000000000007F
:1001800000000000D91C0008000000000000000072
:10019000DD1C0008E11C000838B5040001D1012075
:1001A00032BD606A28B900F0F2F805D00021E161A3
:1001B00002E00020206160610020A06204F150058F
:1001C000687820B900212970204600F076FA0220D4
:1001D000687000F09BF96068A168E26800F48270C2
:1001E00001F404410843217C02F400621043227DA3
:1001F00001F002010843A16902F001021043227FCD
:1002000001F40071084394F8201002F03802104302
:10021000A26A01F080010843216802F400521043F1
:100220000860A06994F824102268000C00F0040013
:1002300001F01001084350602068C16921F4006199
:10024000C161002068600121697032BD2DE9F84369
:10025000054605F15007002638780C469146984629
:10026000012808BF022000F090800120387000F0C3
:10027000CBFA7978012918BF022640F08380002C40
:1002800018BFB9F1000F79D00321797000237B608A
:100290002C63A5F83490A5F836900021A963AB87AC
:1002A000E9876B642964AB68B3F5004F09D129680D
:1002B0000B6823F040030B6029680C6844F4804409
:1002C0000C6029680B685C0603D40B6843F040039C
:1002D0000B604446E968B1F5006F696821D10029D7
:1002E00018BFB9F1010F00F075F8804604E0296BE2
:1002F0000A88C26000F04FF8E88E002833D02868E2
:1003000081688A07F3D400F07FFAA0EB0800A042CE
:1003100004D314F1010FEFD0032631E0002CEBD110
:10032000FAE7002918BFB9F1010F00F047F880463D
:1003300006E0296B0A780273286B411C00F02DF847
:10034000E88E80B1286881688A07F2D400F05CFAF0
:10035000A0EB0800A04203D314F1010FF0D0DBE7BB
:10036000002CEDD1D8E742462146284600F034F96A
:1003700008B12020786000F015F808B1012601E0EE
:1003800001207870002139703046BDE8F283606842
:10039000B0F5827F7047286B811C2963E88E411E6F
:1003A000E9867047A86838B9002100912968CA68B1
:1003B000009289680091009A7868704709D1296B8A
:1003C0002B680A781A73296B4A1C2A63E98E4A1E25
:1003D000EA86704709D1296B2B680A88DA60296B95
:1003E0008A1C2A63E98E4A1EEA8670477CB5044659
:1003F00022685168936803F04100012806D148063D
:1004000004D5216C2046BDE87C400847980706D5F6
:100410000D0604D5616C2046BDE87C40084713F406
:10042000B07F64D0880662D55D060ED594F8510081
:1004300003284FD0606D40F00400606500250095F2
:10044000D66800969568009500989D060ED5606D5B
:1004500040F00100606500250095926800922068D8
:100460000568024625F0400515600098DA0509D5B3
:10047000606D40F00800606500220092206882688C
:100480000092009B606D90B32068426822F0E00209
:100490004260012011F0030F84F8510022D020683F
:1004A0000FF24D054168890889004160E06C28B170
:1004B0000565E06C00F025FA00F022F8A06CB0B100
:1004C0000565A06C00F01DFA88B1606D40F0400039
:1004D000606573BD00200090D16800919268009221
:1004E000009873BD2046BDE8764000F015BB73BD93
:1004F000806B0021C1870022C28600F00DBB000086
:1005000018B1606D40F04000606570472068016878
:1005100021F04001016070472DE9F843089C054631
:100520000E4690461F4600F06FF9381A241800F066
:100530006BF98146444801684901090D6143009106
:1005400005E0009800B900240098401E009028683B
:1005500081683140B1420CBF01200020404532D0BB
:1005600017F1010FF3D000F04FF9A0EB0900A04202
:1005700001D2002CE5D12868416821F0E0014160FA
:100580006868B0F5827F08D1A868B0F5004F18BF41
:10059000B0F5806F01D100F019F8A86AB0F5005FDE
:1005A00009D12868016821F40051016028680268B7
:1005B00042F40052026005F1500001214170002216
:1005C0000270032000E00020BDE8F2832868016883
:1005D00021F04001016070477CB50D461646044687
:1005E00000962B4601220221FFF796FFB8B9164864
:1005F000164B01681822B1FBF2F2B2FBF3F34FF491
:100600007A70434300936168B1F5827F0AD1009606
:100610002B46002280212046FFF77EFF58B100F0D4
:100620000CF876BD009830B10098401E009021680B
:1006300088680106F6D4002076BD606D40F0200089
:1006400060650320704700000C00002040420F004E
:1006500080B56348634901604FF48272426018219B
:100660000222026100F015F800F01BF800B120E052
:1006700001BD80B55C485D4901604FF48272102174
:10068000426000F006F8036100F00BF800B110E0E2
:1006900001BDC16100234FF400720A218360C36071
:1006A000704743618261036243628362C162FFF704
:1006B00073BDBDE8014000F0C7BA70B586B004460E
:1006C0001422002101A800F0C1FA2168454A484ED1
:1006D000484891424FF480653AD100210091426927
:1006E00042F4805242610022416901F4805100913C
:1006F00000990092A021036843F0010303600222E5
:10070000006800F00100009000983B4800F05CF8A1
:100710003A4830604FF0806100204022F060706104
:10072000B061F061306270627160B2603561304614
:1007300000F070F808B100F087FAA664B4630022F4
:100740000021232000F0A6FA232000F0C1FA39E0AE
:10075000264A914236D100210091026942F480423A
:1007600002610022016901F4804100910099009228
:100770004FF42041036843F0020303600222006843
:1007800000F00200009000981D4800F01DF81D4880
:1007900030663567402006F184050021B066716639
:1007A000F1667167B167F167C6F88010296006F1DC
:1007B000600000F02FF808B100F046FA06F1600082
:1007C000A0646C6106B070BD01910292002103919A
:1007D000032205210591049201A900F0A3BA0000AB
:1007E000D0000020003001402801002000380040E7
:1007F00010000020303802400000024040640240F7
:10080000000402407060024001484068704700BF29
:100810000000002070B50446FFF7F6FF06460CB94D
:10082000012070BD04F13405022068700021297098
:100830002068026852085200026022681068C107EE
:100840000AD5FFF7E1FF801B0628F6D32020286297
:1008500003216970032070BD1368DFF854026168DA
:100860000340A0680B43E168034320690B436169BF
:100870000343A0690B43E1690343206A0B43616AA8
:100880000343042903D1E16A206B0B430343136044
:1008900023685A69606AD208042840EAC2020AD171
:1008A000A66AE16A324331B1A06988B9002E18BF47
:1008B000022E1FD016D35A61204600F015F9A96AFE
:1008C0003F228A408260002028620121697070BD49
:1008D000B0F5005F0AD1032EEDD8DFE806F00D0B6E
:1008E0000D03E8E7B1F1C07FE5D105E0022E03D9A1
:1008F000F61EE0D1C801DED54021296201206870D2
:1009000070BD90F83510022903D080224265012085
:100910007047052180F835100068026852085200BF
:100920000260002070472DE9FC41044604F13406C2
:100930000020604900904FF41650776A0A683D68BD
:10094000B2FBF0F8B06A082100F0B7F80ED02068CA
:10095000026853070AD5026822F004020260B06AF6
:100960008140B960316A41F001013162B06A25FA13
:1009700000F1CA070BD521684A69110607D5012283
:1009800002FA00F0B860306A40F0020030620421E0
:1009900000F092F808D021680A68930704D5B8607F
:1009A000306A40F004003062102100F085F81BD05E
:1009B00021680A68130717D5B860206801684A03E0
:1009C00007D5006801030BD5716969B120468847D6
:1009D0000AE00168CA0503D4016821F0080101603A
:1009E000F16809B120468847B06A202100F065F817
:1009F0003FD021680A68D3063BD5B860206871787B
:100A000005291CD1026822F01602026000F059F894
:100A1000F068002804BF7069002801D000F05DF87C
:100A20003F22B06A8240BA60012171700020F169F2
:100A30003070002939D02046BDE8FC4108470168E4
:100A40004A0307D5006801030FD4316989B12046F4
:100A500088470EE00168CA0507D4016821F010013B
:100A600001600120707000213170B16809B1204629
:100A70008847306AC8B1306AC10710D50520707048
:100A800000F025F80098401C8045009003D32068B2
:100A90000168CA07F6D40120707000213170B16975
:100AA00019B12046BDE8FC410847BDE8F3810000CC
:100AB0003F8010F00C000020B06A01FA00F00542FF
:100AC00070472068416921F08001416170472068CA
:100AD000016849084900016070472068016821F0F9
:100AE000080101607047000030B50146182308680E
:100AF00007A400F0FF02103AB2FBF3F2800AA55CF3
:100B0000CD658002042A28BF001D886530BD000025
:100B1000000610160006101670470EE002684368C3
:100B2000024408305FEAC37C44BF4B445B1E52F86A
:100B300004CB43F804CB091FF9D150F8041B00295A
:100B4000ECD17047E0B500F0E5F900F024F800F0D2
:100B5000FBF900F06BFAFFF77BFDFFF78AFD00F071
:100B600091FA34483449009010220191ADF80820E0
:100B7000684607C800F0F6FA6B4693E8070000F0F5
:100B800038FB4FF4FA7000F061FB4FF400512B4832
:100B900000F0A8F9F5E780B592B03022002106A850
:100BA00000F054F81422002101A800F04FF80020B2
:100BB00000904FF480332248016841F08051016079
:100BC0000021006800F08050009000981D480091BE
:100BD000026842F4404202600122006800F4404092
:100BE000009006A80099069202214FF480020C9111
:100BF0000D920C2160220E910F9202210422079384
:100C00001091119200F036FB08B100F01DF802219E
:100C100002910F204FF48051019000220491039221
:100C20000592032101A800F0B5FC08B100F00CF812
:100C300013B000BDD00000200000024000080240B8
:100C4000403802400070004072B6FEE710B504461E
:100C500010460A460146204600F042FD204610BDDF
:100C60000901020002D4284881547047274B02F042
:100C70000F021A4402F8041C7047254B19684FF6FE
:100C8000FF020002114000F4E060084321490843DC
:100C90001860704770B51E4B1C68C4F30223012412
:100CA000C3F10705052D2EBF0F2504FA05F56D1EAE
:100CB0001E1D072E34BF0023DB1E2940994004FA75
:100CC00003F3BDE870405B1E1A401143C8E7000003
:100CD000010007D4012200F01F010F4B8A40400998
:100CE00043F820207047401EB0F1807F01D30120DF
:100CF00070470A490A4A48600023F02010708B6050
:100D0000072008600020704700E400E018ED00E0D4
:100D10000CED00E00000FA0500E100E010E000E06A
:100D200023ED00E02DE9F84F0D4600267149724A87
:100D30000F23044601202F68B04000EA07088045D1
:100D400040F0C6804FEA460C032707FA0CF76FEA1B
:100D5000070E6F6807F00309B9F1010F1CBF07F018
:100D60000307022F12D1A768D5F80C900EEA0707E7
:100D700009FA0CF949EA0707A760676827EA000043
:100D80006F68C7F30017B74038436060B0002F7931
:100D900007F00307032F21D0E768D5F808900EEA83
:100DA000070709FA0CF949EA0707E7602F7907F006
:100DB0000307022F12D1F70804EB870700F01C0984
:100DC000D7F820A003FA09FB2AEA0B0AD5F810B0DD
:100DD0000BFA09F949EA0A09C7F8209027680EEAD0
:100DE000070E2F7907F0030707FA0CF747EA0E0CF6
:100DF000C4F800C06F6817F4403F69D04FF0000E90
:100E0000CDF800E04FEA960C176847F4804717606A
:100E100000F00C00D2F800E0384F0EF4804ECDF810
:100E200000E0DDF800E057F82C7003FA00FE27EA36
:100E30000E0E334FBC4208BF002713D0314FBC42C7
:100E400008BF01270ED0304FBC4208BF022709D08F
:100E50002E4FBC4208BF032704D02D4FBC420CBF0D
:100E60000427072707FA00F040EA0E00DFF88CE0BD
:100E70004EF82C006FEA0800D1F808C06F6800EA4D
:100E80000C0CFF0248BF48EA0C0CC1F808C0D1F8AE
:100E90000CC06F6800EA0C0CBF0248BF48EA0C0C9B
:100EA000C1F80CC0D1F804C06F6800EA0C0CBF0395
:100EB00048BF48EA0C0CC1F804C0D1F800C000EAF1
:100EC0000C0C6868C00348BF48EA0C0CC1F800C0AD
:100ED000761C0F2E7FF62EAFBDE8F18F02B9090404
:100EE00081617047426901EA0203914341EA03418B
:100EF00081617047003C014044380240083801409D
:100F0000000002400004024000080240000C0240C1
:100F10000010024080B50B48016841F40071016087
:100F2000026842F480620260016841F480710160ED
:100F30000320FFF7A2FE0F2000F006FC00F024FCC7
:100F4000002002BD003C024070B586B01422002192
:100F500001A8FFF77BFE00212C482D4E2D4C2E4D75
:100F60000091026842F0040202600022016801F070
:100F70000401009100990092036843F0800303602C
:100F8000016801F08001009100990092036843F02C
:100F900001030360016801F00101009100990092D2
:100FA0000122036843F0020303604FF4005100681C
:100FB00000F00200009000983046FFF78FFF0022FB
:100FC00010212046FFF78AFF00224FF48051284667
:100FD000FFF784FF0122029203924FF40051019126
:100FE0000022049201A93046FFF79CFE102100F078
:100FF00015F82046FFF796FE4FF4805100F00EF8EA
:101000002846FFF78FFE06B070BD00003038024062
:101010000008024000000240000402400191012249
:10102000002103910491029201A9704780B500202C
:1010300000901348016841F400110160026802F455
:10104000001200920022009900920021036843F4EC
:1010500080030360006800F48000009000980F2077
:10106000FFF718FE0F20FFF733FE002200213A2081
:10107000FFF710FEBDE802403A20FFF729BE00BF8F
:101080003038024080B52448244901604FF4E132F1
:1010900000230C2142608360C3600361416183616E
:1010A000C36100F08DFB18B1BDE80140FFF7CCBD76
:1010B00001BD10B586B004461422002101A8FFF737
:1010C000C5FD21681548814224D1002214480092B0
:1010D000416941F010014161416901F01001009145
:1010E000009900924FF4C061036843F0010303606C
:1010F0000222006800F00100009000980948019168
:10110000029200210391032207210591049201A973
:10111000FFF708FE06B010BD80010020001001405E
:10112000303802400000024037B582B00C460898C3
:10113000BDF810508DF801008DF8003000222946CE
:101140002046FFF7CBFE1023022269460448FFF732
:101150007DF8012229462046FFF7C0FE05B030BDCC
:10116000D00000201FB582B0002400940923FFF7AF
:10117000DBFF02A807C8032400940A23FFF7D4FF6B
:101180000720009002A907C90B23FFF7CDFF01201C
:10119000009002A907C90C23FFF7C6FF00200090AA
:1011A00002A907C90F23FFF7BFFF06B010BD38B56E
:1011B00084B001AD002485E80700002300F013F897
:1011C000E0B20828F9DB05B030BD38B584B001AD18
:1011D000002485E80700FF2300F005F8E0B20828A6
:1011E000F9DB05B030BD95E807000093641CE3B25D
:1011F0009AE717B581B0FFF7E8FF00F023F801A8E0
:1012000007C8FFF7D4FF00F01DF8002407E030B155
:101210000020009001A907C9E3B2FFF785FFFF2076
:10122000009001A907C9641CE3B2FFF77DFF00F03D
:1012300009F8E0B20828EADB01A807C804B0BDE855
:101240001040B4E74FF4FA7000F000B838B5044627
:10125000FFF7DAFA14F1010F054602D004480178CD
:101260006418FFF7D1FA401BA042FAD331BD00BF8A
:10127000000000202DE9F843040016D02078DFF8A4
:101280000463C10713D5B06800F00C00042807D030
:10129000B06800F00C0008283DD1706841023AD5D2
:1012A0003068810303D56068002800F065812078EC
:1012B000B54F810719D5B06810F00C0F07D0B06892
:1012C00000F00C0008285BD17068410258D43068E7
:1012D000810703D5E068012840F04E81316820691C
:1012E00021F0F80141EAC00131602178080779D581
:1012F0006069A649002868D001220A60FFF784FAD5
:101300000546706F81076DD4FFF77EFA401B0228F7
:10131000F7D9032033E16068B0F5803F04D130682D
:1013200040F48030306011E0B0F5A02F306806D175
:1013300040F480203060316841F4803105E020F4D1
:1013400080303060316821F480213160606858B1AC
:10135000FFF75AFA054630688103A8D4FFF754FA1C
:10136000401B6528F7D3D4E7FFF74EFA05463068EF
:1013700081039CD5FFF748FA401B6528F7D3C8E7DF
:10138000E068A8B101213960FFF73EFA05463068F0
:10139000810705D4FFF738FA401B0228F7D9B8E7D0
:1013A0003068216920F0F80040EAC10030609CE715
:1013B0003860FFF729FA05463168880795D5FFF7A9
:1013C00023FA401B0228F7D9A3E70860FFF71CFAAD
:1013D0000546706F810705D5FFF716FA401B0228F6
:1013E000F7D996E72078410760D5306C0025C10019
:1013F0000BD4002000900125316C41F08051316404
:10140000306C00F0805000900098DFF88481D8F8AC
:101410000000C10513D4D8F8000040F48070C8F86B
:101420000000FFF7F1F98146D8F80000C10506D4A5
:10143000FFF7EAF9A0EB09000228F5D969E7A068EF
:10144000012805D00528306F06D140F00400306730
:10145000306F40F0010005E0400840003067306F19
:1014600020F00400306741F28938A06860B1FFF7CE
:10147000CBF98146306F810713D4FFF7C5F9A0EB94
:1014800009004045F6D344E7FFF7BEF98146306FC7
:10149000810706D5FFF7B8F9A0EB09004045F6D360
:1014A00037E71DB1306C20F080503064A06900280F
:1014B00064D0B16801F00C0108293AD002282AD181
:1014C00000203866FFF7A0F905463068810105D590
:1014D000FFF79AF9401B0228F7D91AE7E069216A59
:1014E000626A0843A16A490840EA8210491E40EA3C
:1014F0000140E16A40EA0160706001203866FFF750
:1015000083F904463068810138D4FFF77DF9001B68
:101510000228F7D9FDE600203866FFF775F9044682
:10152000306881012AD5FFF76FF9001B0228F7D92F
:10153000EFE6012820D07068E26900F48001914252
:1015400002BF00F03F01226A914201BF47F6C0711D
:101550000140626AB1EB821F0ED1A26A00F44031F1
:1015600001F580315208B1EB024F02BF00F070600C
:10157000E16AB0EB016F01D0012000E00020BDE87E
:10158000F28300BF0038024000004742800E47420D
:10159000007000402DE9F04104000F4654D0494E40
:1015A000306800F00700B84202D200F073F84BD167
:1015B0002068454D810712D5400703D5A96841F43D
:1015C000E051A9602078010703D5A86840F4604085
:1015D000A860A968A06821F0F0010143A960217802
:1015E000C80729D56068012802D129688A0305E067
:1015F000022818BF032803D129688A0103D423E0F5
:1016000029688A0720D5A968890840EA8100A8606E
:10161000FFF7FAF88046A868616800F00C00B0EBAC
:10162000810F09D0FFF7F0F8A0EB080041F28931F3
:101630008842F0D303202BE0306800F00700874297
:1016400004D200F027F801D0012021E020784107E2
:1016500005D5AA68E06822F4E0520243AA60217826
:10166000080706D5A968206921F4604141EAC00154
:10167000A96000F049F9AA681449154BC2F3031296
:10168000895CC84018601348006800F05DF80020CD
:10169000BDE8F0813770316801F00701B942704749
:1016A0000B480D4A006813680C49C3F3822206E018
:1016B0000748094A006813680849C3F34232895C45
:1016C000C8407047003C024000380240701B0008D0
:1016D0000C0000200800002008380240041C00080C
:1016E00062F30F2262F31F42401810F0030308D088
:1016F000C91A1FD3DB0748BF00F8012D28BF20F807
:10170000022D130030B414461546103928BF20E9C5
:101710003C00FAD8490728BF20E90C0048BF40F830
:10172000042D890028BF20F8022D48BF00F8012DA4
:1017300030BC7047C91818BF00F8012DCB0728BF6F
:1017400000F8012D7047000038B50D4D0D4B2A787B
:1017500004464FF47A711868B1FBF2F2B0FBF2F074
:10176000FFF7C1FA50B9102C08D2002221464FF0E1
:10177000FF30FFF78FFAAC60002032BD012032BD90
:10178000000000200C00002081B00020009000220A
:101790000A48416841F480414160416801F4804158
:1017A000009100990092036843F080530360006841
:1017B00000F080500090009801B07047403802401F
:1017C00038B5040001D1012032BD00F01BF808B982
:1017D00000F01CF800F01FF800F027F8FFE7416167
:1017E00000F001F832BD2068C16841F40051C160C9
:1017F00000206860202169702020A87000216163AA
:101800000020704704F14005687870470021297076
:101810002046FFF74EBC242068702068C16821F480
:101820000051C160204600F00AB82068016921F427
:10183000904101612068416921F02A01704770B52B
:10184000044622681169E06821F4405101431161A6
:10185000D3682748A168034020690B4361690343AB
:10186000E0690B430343D3605169A06921F44071DF
:10187000014351611F498A421CBF1F48824202D165
:10188000FFF716FF01E0FFF70BFF62682568E469C8
:101890001921B4F5004FA1FB00016FF0630612D1CE
:1018A000D30F520000F060F800F028F8F60032364E
:1018B0006420B6FBF0F0420002F4F87202EB011271
:1018C00000F0070010E0930F920000F04DF800F0D8
:1018D00015F8360132366420B6FBF0F000F0F00265
:1018E00002EB011200F00F008018A86070BD00002C
:1018F000F369FFFF00100140001401406421B0FBB8
:10190000F1F106FB0106704730B5144C606800F039
:101910000C00042802D0082802D01DE0104830BD79
:10192000226820680023410202F03F0204D52568A6
:101930000B49C5F3881003E020680A49C0F38810FA
:10194000A1FB000100F010F82168C1F30141491C1E
:101950004900B0FBF1F030BD024830BD0438024010
:1019600040787D010024F400D3BBD9B1B2F5803FAB
:101970005BD2022A1ED98C46B1FBF2F102FB11C3E5
:101980001B0443EA1043B3FBF2FC02FB1C3380B29E
:1019900040EA0343B3FBF2F002FB103240EA0C4092
:1019A00000237047022A05D98446B0FBF2F002FBFF
:1019B00010C270474AB105D100F0010249085FEA40
:1019C0003000704700220023704700F051B80B0030
:1019D0000200002100207047F7D300220023704747
:1019E000904271EB030CF2D370B5B1FA81F4B3FA03
:1019F00083F52C1BA340C4F1200532FA05F63343CE
:101A0000A2405FF00046E64002E05B085FEA320277
:101A1000841A71EB030524BF204629467641F4D38E
:101A200002000B003000002170BD70B5B1FA81F4E6
:101A3000B2FA82F5C4F120046419B4F12006DAD3B5
:101A4000B2405FF00044F440002502E052085FEA33
:101A50003303C61A71EB020E24BF3046714664414F
:101A60006D41F3D302000B002000290070BD00007F
:101A7000704730B4002512E050F8042BD30744BF60
:101A80004A44521E091F042942F8045BFAD2134645
:101A90008C0744BF15809B1CC90748BF1D7050F8B8
:101AA000041B0029E8D130BC70470000FEE7FEE7C8
:101AB000FEE7FEE7FEE770477047704700F010B89A
:101AC0000448FEF730BF0448FEF790BC0348FEF719
:101AD0002ABF000070000020D0000020100000206D
:101AE0000248416802788A1842607047000000206E
:101AF00010B5074979441831064C7C44163404E08B
:101B00000A68081D114488470146A142F8D110BD5A
:101B10002C0000004C0000004EF68851CEF200016F
:101B2000086840F470000860BFF34F8FBFF36F8FF9
:101B30004FF00170E1EE100A7047000037FFFFFF21
:101B4000B80100001000002000000000CFEFFFFFF0
:101B500010000000A00000000000002000000000B5
:101B60000248016841F470010160704788ED00E0AF
:101B7000000000000000000001020304060708093D
:101B800000F00DF8002801D0FFF7B2FFAFF300809E
:101B90000020AFF30080FEF7D5FF00F002F801202F
:101BA000704700F001B800000746384600F002F820
:101BB000FBE7000080B5AFF30080024A1100182057
:101BC000ABBEFBE7260002000548014603B46846A9
:101BD00080F30988AFF30080FFF79EFFFFF7D0FF87
:101BE000A5EDF5FE0148804701480047611B00084C
:101BF000C91B0008010000000000000010000000E8
:101C00000024F4000000000001020304FFF7FEBFFF
:101C1000FFF7FEBFFFF7FEBFFFF7FEBFFFF7FEBFF8
:101C2000FFF7FEBFFFF7FEBFFFF7FEBFFFF7FEBFE8
:101C3000FFF7FEBFFFF7FEBFFFF7FEBFFFF7FEBFD8
:101C4000FFF7FEBFFFF7FEBFFFF7FEBFFFF7FEBFC8
:101C5000FFF7FEBFFFF7FEBFFFF7FEBFFFF7FEBFB8
:101C6000FFF7FEBFFFF7FEBFFFF7FEBFFFF7FEBFA8
:101C7000FFF7FEBFFFF7FEBFFFF7FEBFFFF7FEBF98
:101C8000FFF7FEBFFFF7FEBFFFF7FEBFFFF7FEBF88
:101C9000FFF7FEBFFFF7FEBFFFF7FEBFFFF7FEBF78
:101CA000FFF7FEBFFFF7FEBFFFF7FEBFFFF7FEBF68
:101CB000FFF7FEBFFFF7FEBFFFF7FEBFFFF7FEBF58
:101CC000FFF7FEBFFFF7FEBFFFF7FEBFFFF7FEBF48
:101CD000FFF7FEBFFFF7FEBFFFF7FEBFFFF7FEBF38
:041CE000FFF7FEBF4D
:0400000508001BC90B
:00000001FF
