:020000040800F2
:10000000A81900205D680008296700082B67000810
:100010002D6700082F670008316700080000000006
:10002000000000000000000000000000336700082E
:1000300035670008000000003767000839670008CE
:1000400075680008796800087D6800088168000804
:1000500085680008896800088D68000891680008B4
:1000600095680008996800089D680008A168000864
:10007000A5680008A9680008AD680008B168000814
:10008000B5680008B9680008BD680008C1680008C4
:100090003D670008C5680008C9680008CD68000809
:1000A000D1680008D5680008D9680008DD68000834
:1000B000E1680008E5680008E9680008ED680008E4
:1000C000F1680008F5680008F9680008436700084F
:1000D00049670008FD680008016900080569000813
:1000E000096900080D6900081169000840F0200046
:1000F00070472DE9F14FB0B0924604910DF14201E5
:100100003A9A2B9199464A7000200AE01AF8011B8E
:100110000498309A90470028049000F031860D989A
:10012000401C0D909AF8000050B12528EED1002116
:1001300000220791089209910A920B910C9204E017
:100140000D9800F01FBE41F001011AF8010F2028A0
:10015000F9D023280CD02B2804D02D2805D0302806
:1001600009D00BE041F00201EFE741F00401ECE7B8
:1001700041F00801E9E741F01001E6E72A280FD134
:10018000D9F8002052F8040BC9F8002000280F907D
:1001900003D540420F9041F004010AF1010A14E036
:1001A0000F92DFF8E83B0AE00F98984205DA00EB7F
:1001B000800402EB4402303A0F920AF1010A9AF8E5
:1001C0000020A2F130000A28EED39AF800002E2871
:1001D00003D04FF0FF320E9229E01AF8010F2A28BF
:1001E00009D1D9F8000050F8042BC9F800000E928C
:1001F0000AF1010A1BE02D280CBF0AF1010A0020B8
:1002000000220E92DFF8844B0BE040B90E9AA24216
:1002100005DA02EB820503EB4503303B0E930AF14E
:10022000010A9AF80030A3F130020A2AEDD3ADF8A2
:1002300040100FF65C309AF8001000F0EBFE08B1A9
:100240001AF8010B8DF842009DF84200682805D18C
:100250009AF8000068280CD1622106E06C2804BFDF
:100260009AF800006C2804D171218DF842100AF12F
:10027000010A12A806901AF801BBBBF125012CD087
:100280001C3900F09481091F022940F29081133932
:1002900000F0A884093900F08A81891E00F03D85AC
:1002A000491E00F0EA84491E022940F28081091F9C
:1002B00000F0E384491F00F0EF80491E00F09284B3
:1002C000491E00F0D780C91E0CD0891E00F08A8418
:1002D000C91E00F0878400F02BBD01220792252162
:1002E00000F023BDD9F8000050F8044BC9F8000015
:1002F000002C059440F0AB802B994878002800F042
:10030000A1804FF0FF340FF6902000F08FFE201AEE
:1003100040F0368500F018BD01236A4602A9304638
:1003200000F0FEFD002840F02B856D1EF4D13096C4
:10033000079D12AF75B1309E17F8011B0498B047A6
:100340000028049000F01C850D98401C6D1E0D9037
:10035000F2D130960A9D3021002D8DF800100CDD71
:10036000309E01236A4602A9304600F0D9FD0028DC
:1003700040F006856D1EF4D13096059F089D75B13D
:10038000309E17F8011B0498B0470028049000F035
:10039000F7840D98401C6D1E0D90F2D130960B9D88
:1003A0003021002D8DF800100CDD309E01236A46AF
:1003B00002A9304600F0B4FD002840F0E1846D1E33
:1003C000F4D1309605980899099D471875B1309E6B
:1003D00017F8011B0498B0470028049000F0D0845F
:1003E0000D98401C6D1E0D90F2D130960C9D302161
:1003F000002D8DF800100CDD309E01236A4602A905
:10040000304600F08DFD002840F0BA846D1EF4D116
:1004100030969DF8400041077FF584AE2020002CE7
:100420008DF800007FF77EAE309D01236A4602A959
:10043000284600F075FD002840F0A284641EF4D127
:1004400030956FE60FF63830059000F07DBC0E9DBC
:10045000002D04D5204600F009FE044607E02A4698
:10046000204600F01FFE002814BF041B2C460894F1
:1004700000F06ABCD9F8001051F8040BC9F800105C
:1004800020F00004002121F0FF35CDE9024512AB38
:100490000593782100F03DBC2B99487820B14FF0AE
:1004A000FF340FF6AC2030E79DF84200622860D0A0
:1004B000682817D06A283FD06C2806D0712847D00A
:1004C00074282CD07A281DD062E0D9F8001051F899
:1004D000040BC9F80010002866D14FF0FF340FF666
:1004E000882012E7D9F8001051F8040BC9F8001061
:1004F00020B94FF0FF340FF6702006E70D99018008
:1005000000F022BCD9F8001051F8040BC9F8001013
:10051000002849D14FF0FF340FF64C20F5E6D9F80A
:10052000001051F8040BC9F8001000283CD14FF01E
:10053000FF340FF63420E8E6D9F8001051F8040B28
:10054000C9F8001080B94FF0FF340FF61C20DCE62C
:10055000D9F8001051F8040BC9F8001020B94FF079
:10056000FF340FF60420D0E60D9AD317C0E900231C
:10057000EAE3D9F8001051F8040BC9F8001020B9CB
:100580004FF0FF340FF6E010BFE60D990170DBE38A
:10059000D9F8001051F8040BC9F8001020B94FF039
:1005A000FF340FF6C410B0E60D990160CCE39DF85E
:1005B00042004C2807BFD9F80010CB1DD9F8000025
:1005C000C31D23F00703C9F80030D3E90001083345
:1005D000C9F80030CDE90201C80F02D007982D21DB
:1005E0000AE0BDF84000810702D507982B2103E0FF
:1005F000C00705D50798202112AB1954401C07905D
:1006000012A80799DDE9024543184BF02000612844
:10061000059321AE0BD00E98002802D506200E902F
:1006200005E001BF4BF02000672801210E91DDE9B4
:1006300002014F007F1517F1010F0DD108030BD0F8
:10064000ABF1610203201A2A089002D20FF634118E
:100650000FE00FF634110CE017F1010F0ED1090372
:100660000CD1ABF1610203201A2A08901CD30FF6BB
:1006700020110322184600F041FD65E3DDE9020187
:100680006A4600F047FDCDE902014BF020006128E9
:1006900011D1059830210170821C0592BBF1610FC8
:1006A0000CBF7821582102E00FF6E001E1E741702C
:1006B0000798801C0790DDE9020120F0000231F06C
:1006C000004308BF002A02D10025002445E14BF079
:1006D0002008B8F1610F40F095800E98002847BFC0
:1006E00021210191401C0190019F7F1C2046294639
:1006F00000220023DDE9024500F044FD38BF85F00B
:10070000004500998DF88420091F002F00910DF1FC
:10071000850034DD0646204629460022002300F0ED
:100720004BFD2BD21C2200F061FD04460D4600F06B
:10073000FBFDFF1F002F804609DD00F011FE024681
:100740000B462046294600F0DBFE04460D46F01D10
:100750000721B8F1000F0CDD491E5EBF08F00F0243
:1007600000F8012D4FEA2818F3D502E0002200F826
:10077000012D491EFAD5C61D002FCCDC30460DF1E7
:100780008501401A01990DF1850605468842C8BFCA
:100790000D46002D2FD4854206DA0DF18500415D0E
:1007A0000829A8BF0F2000DA0020294621AA0A4400
:1007B00000E06D1E12F80139491E8342F9D00F285E
:1007C00004D10DF18500425C521C4254002904D52D
:1007D0000098001D21AE6D1C0090681E0BD43118CE
:1007E0000A783032D3B23A2BA4BF5A443A3A401E68
:1007F00001F80129F4D50E98002840F1AD80691E5A
:100800000E91A9E00099DFF8082747F2975041437D
:1008100091FBF2F2009225F00045C2F10702002A96
:1008200004DD2046294600F04FFB0BE05242002039
:10083000DFF8E01600F048FB02460B46204629464A
:1008400000F0D0FE04460D46B8F1660F06BF009FCB
:100850000A3706270E983F18142FC8BF14273020D8
:100860008DF884000DF1850000E03046002F35DD65
:1008700006462046294600F0D9FF01460A4606F101
:10088000080304200A26B2FBF6F606EB860EA2EB5E
:100890004E02303203F8012C0A22B6FBF2F202EBD0
:1008A000820EA6EB4E063036401E03F8026DE9D1EB
:1008B000083F002F03F10806D7DD084600F0C8FF07
:1008C00002460B462046294600F01AFE0022DFF8B9
:1008D000483600F0CBFF04460D46CAE70DF185010E
:1008E000401A0DF1850604E00099491E401E009152
:1008F000761C31783029F7D0B8F1660F02D1009913
:10090000491C04E0B8F1650F0CBF012100210E9DC8
:100910004D19A842B8BF451E002D1DD4854204DAEA
:10092000705D3428C8BF392000DC30202946721E93
:10093000531800E06D1E13F80149491E8442F9D096
:10094000392802D1705C401C7054002904D50098ED
:10095000401C16466D1C0090009C01F05DF8406A3A
:100960000778DDF8388028B2002802DC01250FF274
:1009700024664BF02000662808BF641C16D0672848
:1009800046D120B210F1040F48DB404546DA9DF80D
:100990004000641C010703D428B24045D8BF8046FC
:1009A00020B2B8EB000848BF4FF000080FFA84FBF4
:1009B000BBF1000F00F3B5800898411C089130226C
:1009C00005990A54B8F1000F03DC9DF840000107B7
:1009D00004D50898411C089105990F5418EB0B0F8A
:1009E000B8BFC8F1000424B26042A0442AB20B9000
:1009F0009045B8BF4546059B08982DB209952A46F3
:100A00003146184400F07AFBA8EB05000C90D2E0C8
:100A1000BBF1610F17D14FF0700B19E028B24045C0
:100A200004DA9DF840100A0758BF8046B8F1010863
:100A300048BF4FF00008BBF1670F14BF4FF0450BE4
:100A40004FF0650B04E0BBF1410F08BF4FF0500BB6
:100A50000898411C0891B8F1000F059916F8012B70
:100A60000A5403DC9DF8400001071AD50898411C80
:100A70000891B8F1000F05990F5412DD6D1E28B2D0
:100A80008045B8BF45460598089B2AB231461844B0
:100A900000F034FB08992DB269180891A8EB050005
:100AA0000B9005980899084421B2002980F800B0FD
:100AB00003D42B224270821C04E02D2242700C468B
:100AC000821C644200212CAB20460AE004460A2026
:100AD00094FBF0F000EB8005A4EB450403F8014B18
:100AE000491C00B20028F1DC012906DC4BF0200093
:100AF000652804BF302002F8010B00292CAB08D177
:100B0000302002F8010B06E0491E585C303002F834
:100B1000010B0029F8DC059908980844121A09927B
:100B200049E028B221B288421CDA0598089B2AB213
:100B30003146184400F0E2FA08992DB2691808917C
:100B4000ABEB0500B8F1000F0B9003DC9DF8400003
:100B5000020704D5059847540999491C0991CDF815
:100B6000308028E00598089B22B23146184400F0F6
:100B7000C5FA08982D1B5844B8F1000F089003DC03
:100B80009DF840100A0703D5411C089105990F54A0
:100B900028B28045B8BF45460598089B2AB206EBA7
:100BA0000B01184400F0AAFA08982DB228180890F2
:100BB000A8EB05000B909DF8400000F014001028F1
:100BC00040F0C280079A08990B988A1809998218F0
:100BD0000C988A1882180F98824280F2B580821A87
:100BE0000A92B1E09DF84200622808D068280ED031
:100BF0006A2814D06C281FD0712810D01CE0D9F8B6
:100C0000001051F8040BC9F80010C0B21AE0D9F86E
:100C1000001051F8040BC9F8001080B212E0D9F8A6
:100C20000000C21D22F00702C9F80020D2E900012D
:100C30000832C9F8002006E0D9F8001051F8040B7A
:100C4000C9F800100021CDE902019DF8400001071C
:100C50005AD5DDE90223002B08BF002A54D04BF0FF
:100C60002000782850D1079812A930220A54401C3D
:100C7000431C079301F800B046E09DF8420062284B
:100C800008D068280ED06A2814D06C281FD071288C
:100C900010D01CE0D9F8001051F8040BC9F800106E
:100CA00040B21AE0D9F8001051F8040BC9F800104E
:100CB00000B212E0D9F80000C21D22F00702C9F804
:100CC0000020D2E900010832C9F8002006E0D9F876
:100CD000001051F8040BC9F80010C117CDE902014A
:100CE000002902D507982D210AE0BDF840008107B0
:100CF00002D507982B2103E0C00705D507982021CE
:100D000012AA1154401C079012A80799014405919A
:100D1000594602A800F04EF816E001200790D9F8D5
:100D2000000050F8041BC9F800008DF848100BE0D3
:100D300001212522BBF1000F07918DF8482003D037
:100D4000022207928DF849B00F9A07980A990C9CD5
:100D5000121A0898521A0B99121A0998521A121A52
:100D60009DF84000141B41073FF5E2AA2020002C0B
:100D70008DF800007FF7DCAA309E2546FFF7CCBA3D
:100D80004FF0FF3031B0BDE8F08F0000CBCCCC0C81
:100D9000686A6C747A4C00007072696E74665F7376
:100DA0003A2062616420257320617267756D656EFB
:100DB000740000002DE9FC4707468A463C6950460E
:100DC0006F2808BF082505D0FFF790F9782814BFD1
:100DD0000A251025D7E900013C2680468946BAF14C
:100DE000640F18BFBAF1690F05D1002903D5D8F1F6
:100DF000000869EB4909B9F1000F08BFB8F1000F0D
:100E00000CD1386B50B9082D3AD197F8380001074A
:100E100036D530223B2684F83B2031E08DF800A007
:100E2000404649462A46EB1700F0FAFD3032D0B270
:100E3000761E3A2801960EDAA255404649462A46C1
:100E4000EB1700F0EDFD80465FEA010908BFB8F13D
:100E5000000F05D108E09DF800001218513AEBE7A9
:100E6000F868A1198842DBD3082D09D197F838001A
:100E7000010705D5A05D302802D0761E3020A05590
:100E8000C6F13C02BA61A119F960386B824208DAF6
:100E9000821A3A624FF6EF70398F01403987BDE808
:100EA000F38700280ED597F8380000F014001028BA
:100EB00008D17B6B7969386A5B1A1B1A9A1A002A67
:100EC000C8BF3A62BDE8F3872DE9D04306460F4616
:100ED00014464FF00008DFF8449012E0E00707D511
:100EE00042464B463046394600F0C0FC06460F46A7
:100EF0004046494642464B4600F0B8FC64108046E6
:100F00008946002CEAD130463946BDE8D08300003E
:100F1000A08601000000F03F84D7974100002440E4
:100F2000F8B505460E4617461C4600205CB117F87A
:100F3000011BB068A847B06030B1F06A401CF06295
:100F40000020641EF3D1F2BD4FF0FF30F2BD00006F
:100F50007072696E74665F733A20256E20646973DF
:100F6000616C6C6F776564007072696E74663A20AC
:100F700062616420256E20617267756D656E740014
:100F8000000000006E616E004E414E00696E66000A
:100F9000494E46003000F0B40246106895681318B8
:100FA000506803EB5004C00748BF4D44A3422DD006
:100FB00013F8016B16F0030004BF13F8010BC01CFB
:100FC00031090F2907D113F8011B0F3103E013F882
:100FD000017B05F8017B401EF9D10029E6D013F80A
:100FE000010BC6F38106032E08BF13F8016B00EB5B
:100FF0000620404228440026B71E8F421EBF10F82C
:10100000017B05F8017B761CF6D1CFE7F0BC02F13D
:101010000C007047C9B202788A421AB11CBF10F89E
:10102000012FF9E718BF002070472E0080B500B9E6
:1010300006A005490B681BB122220021984701E058
:1010400000F006FE222002BDA0150020636F6E7323
:10105000747261696E742068616E646C65723A20A6
:10106000626164206D6573736167650000F101035F
:10107000810704D010F8011B820781B1FAD1026800
:10108000A2F10131914311F0803104BF50F8042FD7
:10109000F6E709BAB1FA81F100EBD100401CC01AA1
:1010A00070470000C9B2830706D0521E22D310F841
:1010B000013B9942F7D11FE0083A13D302F1040231
:1010C00041EA012141EA014150F8043B121F21BFCE
:1010D0004B40A3F1013C2CEA030C1CF0803FF3D001
:1010E000C9B2001F083210F8013B521E28BF91EA16
:1010F000030FF8D818BF0120401E70474AB1000006
:1011000011F8013B521E00F8013B1CBF11F8013BD6
:10111000F8E7704710B5144600F002F8226010BDE1
:10112000C1F30A5343B14A0012F5001F28D2A3F2BB
:10113000FE32A1EB0251704750EA410C20D001F081
:10114000004C31EA0C01B1FA81F204BFB0FA80F32D
:10115000D2180B3AB2F120032CBF00FA03F19140F0
:1011600041EA0C013EBFC2F1200C20FA0CF31943F6
:101170009040524240F2FD33D21A01EB03517047C6
:101180000022704741EA030C50EA4C0C52EA0C0C66
:101190004FF4001C09D307D01CEB410F9CBF1CEB84
:1011A000430F8B4208BF824270471CEB430FFBD8B2
:1011B000994208BF9042704741EA030C50EA4C0C38
:1011C00052EA0C0C4FF4001C09D307D01CEB410F62
:1011D0009CBF1CEB430F994208BF904270471CEB29
:1011E000410FFBD88B4208BF82427047124254D451
:1011F00040F2FF7C1CEA11530FD0634531D09B189D
:1012000063453CBF01EB0251704701F0004141EAE8
:101210000C510020AFF30080704750EA410320D00A
:1012200001F0004C91EA0C011CD0B1FA81F30B3BA8
:101230009A420DD9D21A994051EA0C01C3F1200CFF
:1012400020FA0CFC61449840531C40F2FF7CD7E725
:10125000914041EA0C01C2F1200C20FA0CF3194331
:1012600090407047B0FA80F31533202BE0D3202A4A
:10127000EED3203A203B9A4209D9D21A00FA03F160
:1012800041EA0C010020531C40F2FF7CB8E700FA51
:1012900002F141EA0C0100207047524240F2FF7C0B
:1012A0001CEA11530DD06345DBD0B2EB030C3CBFFD
:1012B000A1EB025170470CF1010221EA035141F404
:1012C000801150EA410CCCD001F0004C352A27DCCB
:1012D00030B481EA0C01B2F1200309DAC2F1200333
:1012E000044601FA03F5D0402843D1409C400CE06D
:1012F000C3F12002450020FA03F418BF44F00104B2
:1013000021FA03F091400C43002174F1004550F1A3
:10131000000051EB0C01244230BC7FF47BAF7047DE
:101320006146002076E70000C1F30A5340F21E42F6
:10133000D31A0CDDCA0283F3070342EA505242F08B
:101340000042DA4002EBE17282EAE17070476FEA34
:10135000E17203F2E13008B182F000407047000012
:1013600010F0004160B148BF4042B0FA80F29040B6
:10137000D21CC2F5846241EA025202EBD021400540
:101380007047000070B491EA030F4FF0004540F140
:10139000BF806B40841A71EB030604D26E40001BC1
:1013A000B141121973414FF4001C1CEB410F34BFC3
:1013B0007CEB430683E00C0DA4EB1356362E00F3B2
:1013C0007C80012E45EAC32341DC43EA525312BF1D
:1013D000D20292025B08240545EAC12141EA50513C
:1013E000D2EBC020994125D407D1B0FA80F610FA8B
:1013F00006F162D00020203608E0B1FA81F6B14053
:10140000C6F1200220FA02F21143B0404FEAF47410
:10141000B4EB465434F001064FEA74040AD8D6F50A
:101420000016760D04F00044F04061FA06F25040D8
:10143000F1404840C00A40EA415021F0004128BF35
:101440005FEA500550F1000044EBD12135E0DB0AA2
:1014500045EAC121C90AB6F120050EDD42EA024281
:10146000120CC5F1200603FA06F6EB4042EA060527
:101470006D42984161F100010DE062FA06F5F2401B
:10148000554063FA06FC82EA0C02F3405A406D4272
:10149000904161EB030111F4801F05D1641E6205C8
:1014A00002D06D004041494121F48011430875F19B
:1014B000004350F1000041EB045170BC70471CEB3D
:1014C000410F15D223F0004352EA43060BD04FEAF6
:1014D0004C0CBCEB410F04D80C0D661E342EB7DD4E
:1014E000EBE7801A994150EA410608BF0021E4E782
:1014F00008BF1CEB430F28BF6FF00001DDE70000C1
:1015000070B491EA030F4FF000457FF543AF6B4095
:10151000841A71EB030603D2001BB1411219734107
:101520004FF4001C1CEB410F34BF7CEB430442E042
:101530000C0DA4EB1356352E4FDC45EAC323DB0A12
:1015400045EAC121C912B6F120050DDD63FA05F6A1
:10155000EB4086EA0305124218BF45F00105C018AA
:1015600051F100010CD213E062FA06F5F240554049
:10157000F3415A40B340F3405A408018594107D3D1
:1015800049085FEA30005FEA350528BF45F00105EC
:1015900001F58011420875F1004250F1000041EB65
:1015A00004514E0016F5001F70BC38BF7047002074
:1015B000090D090570471CEB410F10D252EA430692
:1015C0000BD0BCEB410F05D80C0DAB43661E342E7F
:1015D000B6DD02E0AB438018594170BC704770BC67
:1015E00070470000F0B540F2FF7581EA030C0CF083
:1015F000004C15EA11541DBF15EA1357AC42AF4217
:10160000E5E0BC41C1F31301C3F31303801A994110
:1016100043F4801304D2641E0018494180185941D4
:10162000C90241EA5051B1FBF3F603FB1611A2FBCC
:101630000675D7EBC020A94102D2761E8018594109
:10164000C90241EA5051B1FBF3FE03FB1E11A2FB9C
:101650000E75D7EBC020A94103D2AEF1010E801860
:101660005941890241EA9051760546EA8E2EB1FB36
:10167000F3F603FB1611A2FB0675D7EB8020A941F8
:1016800002D2761E80185941C90241EA50514EEAF1
:10169000060EB1FBF3F603FB1611A2FB0675D7EBA2
:1016A000C020A94102D2761E80185941C90241EAE0
:1016B0005051B1FBF3F703FB1711A2FB0735D3EB36
:1016C000C020A94167F100070CBF004247F00107A5
:1016D00066F3D5274FEA1E31B80814F5806412DD91
:1016E000BD0775F1004250EB0E5051EB045111F55E
:1016F000801F5CBF41EA0C01F0BD4CF07F6141F0FE
:10170000E0410020F0BDBD076D0840EA0E5041F4F5
:101710008011D4F10104B4F120060ADAC4F12006E4
:101720000200E04001FA06F3E1401843B2401543DD
:101730000EE0342C13DCC6F1200445EA40056D08A8
:1017400020FA06F2154321FA06F0A1400D430021CC
:1017500075F1004250F1000051EB0C01F0BD00208A
:101760005FEA0C01F0BDCFB992185B41B3FA83F781
:1017700004BFB2FA82F6BF190B3FB7F120062FBFA4
:1017800002FA06F3BB40C7F1200622FA06F638BF7C
:101790003343BA401CB1E419641E33E77F4231F091
:1017A0000041B1FA81F404BFB0FA80F6A4190B3CF1
:1017B000B4F120062FBF00FA06F1A140C4F12006C3
:1017C00020FA06F638BF3143A0403C1B1AE7AC4272
:1017D0001ABF05EA1357AF4212E050EA41061CBF98
:1017E00052EA4306BFE750EA4107304661461CBF54
:1017F00041EA0551F0BD52EA430C08BFC143F0BDB8
:1018000000204FF4001616EB410F98BF16EB430F64
:1018100008BF16EB410F24BFC14305E016EB430F91
:101820000CBF61464CEA0551F0BD0000400D40F28E
:101830001E4C40EAC120BCEB115C40F0004003D4D8
:101840008CF30701C84070476FEAE17070470000F1
:1018500050B1B0FA80F18840C91CC1F58461090516
:1018600001EBD021400570470146704730B540F28A
:10187000FF7C1CEA11541DBF1CEA135564456545E5
:101880003FE0641981EA030C6FF35F530CF0004CE6
:1018900043F48013C90241F0004141EA505EC502A1
:1018A0001100A5FB020200284FF00000EEFB012012
:1018B0004FF00001E3FB052118BF42F00102401880
:1018C00000214941E3FB0E01A4F580640D0302D21F
:1018D00092184041494154F1010470DD450872F10C
:1018E000004250F1000051EB0451A1F5801102D4E7
:1018F00041EA0C0130BD40F2FF7E4CEA0E5100205F
:1019000030BD0CEA1355644518BF654581EA030CE8
:101910000CF0004C41D050EA410E1CBF52EA430E7D
:1019200002E06146002030BD24422C441BD15FEA16
:10193000050EF6D0090302BF01460020AEF1140ED9
:10194000B1FA81F5AEEB050401FA05FE0C35C5F1DF
:10195000200100FA05F5C8404EEA000E6FF35F5310
:1019600043F480139CE733F00043B3FA83F504BFDC
:10197000B2FA82FE75440B3D641BB5F1200E2FBFF9
:1019800002FA0EF3AB40C5F1200E22FA0EFE38BF6C
:1019900043EA0E03AA40641C7CE750EA410E14BFE0
:1019A00052EA430E6FF000014FF4001515EB430FA0
:1019B0008EBF194615EB410F9DE7B4D830BDD4F169
:1019C0000104B4F120050FDAC4F12005520828BF44
:1019D00042F0010210FA05FE01FA05F57244E2BF79
:1019E000E0402843E1400FE0352C9ADCC5F12004AB
:1019F00052EA400220FA05F218BF42F0010231FA21
:101A000005F0A1400A43002172F1004250F10000AC
:101A100051EB0C0130BD00000048704790010020E0
:101A2000BBBBE1B1B2F5803F80F07E80022A1ED9B7
:101A30008C46B1FBF2F102FB11C31B0443EA1043D5
:101A4000B3FBF2FC02FB1C3380B240EA0343B3FB5E
:101A5000F2F002FB103240EA0C4000237047022AE9
:101A600005D98446B0FBF2F002FB10C270474AB1C0
:101A700005D100F0010249085FEA300070470022FA
:101A80000023704700F0E8B80B000200002100209E
:101A90007047904271EB030CF6D3B3F5803F2FD221
:101AA000F0B5B3FA83F7B1FA81F4A7F10F0E3D1B3D
:101AB0005340CEF1200602FA0EF2F3415340B5F145
:101AC0000F0746D80F3C2C444140C4F12006A040EB
:101AD000F1414140B1FBF3F603FB1611A2FB0645B1
:101AE000001BA94102D2761E8018594180EA0102EA
:101AF00021FA0EF362FA0EF200215A403046F0BD90
:101B000030B4B1FBF3FC03FB1C11A2FB0C45001B22
:101B1000A94103D2ACF1010C8018594130BC0246F6
:101B20000B46604600217047B2F1807F65D3F0B567
:101B3000B2FA82F7B1FA81F4C7F10F063D1B22FA1F
:101B400006F307F1110EF24120355A40B5F10F07A7
:101B5000B8D94140C4F12006A040F1414140B1FB59
:101B6000F3FC03FB1C11A2FB0C45001BA94103D293
:101B7000BCF1010C801859410F2F12D30F3FC9033C
:101B800041EA5041B1FBF3F603FB1611A2FB0645F7
:101B9000D4EBC030A94102D2761E8018594146EAE2
:101BA000CC3C07B34140C7F12006B840F141414069
:101BB000B1FBF3F603FB1611A2FB0645001BA9417E
:101BC00002D2761E8018594180EA010221FA0EF3F2
:101BD000C7F1200462FA0EF20CFA07F05A402CFA10
:101BE00004F13043F0BD80EA010221FA0EF3002136
:101BF00062FA0EF260465A40F0BD8C46B1FBF2F13B
:101C000002FB11C31B0243EA1063B3FBF2FC02FBAD
:101C10001C331B024CEA002043EA1063B3FBF2FCC6
:101C200002FB1C331B024CEA002043EA1063B3FBA7
:101C3000F2FC02FB1C331B024CEA002043EA106357
:101C4000B3FBF2FC02FB1C324CEA0020002370477D
:101C5000012000F003B800007047000080B5AFF32A
:101C60000080024A11001820ABBEFBE726000200EC
:101C700078B5040085B044D004F52A75687820B999
:101C800000212970204600F041FD03206870206883
:101C900000F042FE83B000F047F80EBC206800F070
:101CA00031FE00282BD12068002100F03BFE0021EE
:101CB0002820002609E000FB01F2224428320123FB
:101CC00053701170002300F028F862689142F2D33B
:101CD000002109E000FB01F2224402F5B472002366
:101CE0001170537000F019F862689142F2D383B01A
:101CF00000F01AF80EBC206800F016FE18B10220A1
:101D00006870012007E084F82400012169702068D0
:101D100001F0A6FA002006B070BD491CD670136110
:101D200056619361C9B27047211D68462022FFF7B2
:101D3000E5B910B500F006FC01D1022010BD00F09D
:101D4000FDFB206800F0E0FD00F0EEBB0021204626
:101D500000F0CDBD2DE9F84F054686B0286801F0AA
:101D600081FA01041BD4420540F1A08200F061FB1E
:101D70004FF6FF308A8802408A80284600F0FDFC3A
:101D80000021284600F0E3FB1BE3012803D100F00B
:101D900031FB002008803978284600F0E1FC2F68EC
:101DA00007F1440108880204EED50A8812F00F00FA
:101DB000009048F280084BF68F7B40F68F7448F60F
:101DC0000F7640F0AC80D0062CD429680A881640E3
:101DD000084646F40046068005F124042868B0F859
:101DE0005010227901EBC20100EB410000F20440E7
:101DF0000088A169C0F3090020620844A0610021A5
:101E0000284600F0ADFC20780028C8D0E069002802
:101E1000C5D12178286841F08001A0F84C1000213C
:101E20002170BCE728680088020505F5B4761BD54B
:101E30008889317800EBC10007EB400202F20C42C6
:101E400005F52C711388C3F30903F3613846F28852
:101E500001F024FA286801880C4044F080040480D2
:101E6000284600F06DFC9AE7000498D529680A8896
:101E70001440084644F0800404802868B0F85010EC
:101E8000327800F0B0FA1B88C3F30903002BF3612A
:101E90001CBF716900290AD0F28801F0FFF970694E
:101EA000F169014471612846002100F04FFC286867
:101EB00000880105D7D400F44050B0F5405FD2D07F
:101EC00029680846B0F85020511801F20C410888E2
:101ED000C0F30900088030693F2808D3420910F098
:101EE0001F0F08BF521E088840EA822001E018B97F
:101EF000088840F4004006E04208C00748BF521C72
:101F0000088840EA82200880286801880BEA0101DD
:101F100081F4405148EA0108A0F800803FE72868B2
:101F2000009930F8219008462821484329185FEA93
:101F30000940019148F68F7A40F19D802968009808
:101F400031F8201028680C40009944F0800420F8F3
:101F50002140019A02F5B477387B70B92868B0F84F
:101F600050103A7800F03FFA1C88C4F30904002CA2
:101F70006DD0FA887969234667E0F878022848F23C
:101F8000C0022FD12C68B9695FEA49433B78A44667
:101F9000B4F8504004EBC30409F040000CEB440CCF
:101FA00011D50CF2044C00F018FA2CBF091B0021CB
:101FB000B96109B900F031FA08B100F024FA002C37
:101FC00045D03A893EE00CF20C4C00F006FA2CBFEA
:101FD000091B0021B96109B900F01FFA78BB00F0B4
:101FE00012FA2CE02968387831F820300AEA030325
:101FF0000C461A4324F8202038782968024631F824
:10200000223059040FD52A68B2F8501001EBC001F4
:1020100002EB410000F204400488C4F30904002CE0
:1020200015D03A890EE02968B1F8502002EBC002C1
:1020300001EB420000F20C400488C4F30904002CB8
:1020400005D07A8923467969286801F027F9F8696B
:102050002018F8617A6922447A61B86938B1386920
:10206000844204D32868394600F037FE03E039780B
:10207000284600F06BFB5FEA09605ED5019928688D
:1020800001F12807009930F82120164046F4004657
:1020900020F82160F87801282BD10021B961387B24
:1020A00000280ED05FEA496013D5787850B900F067
:1020B000CEF90188C1F309010180028842F400428F
:1020C000028068E60128FCD100F0C1F900210180FE
:1020D00061E678782A6800287FF457AE00F08AF924
:1020E0000888C0F3090008800A8842F400420A8088
:1020F00051E62A68B8695FEAC95113461ED4397897
:10210000B2F8502002EBC10203EB420303F2044396
:102110001A88C2F30902824234BF801A00200028C4
:10212000B8613FF439AE786910447861F9695218A2
:10213000FA613946286800F0D0FD30E697F800C013
:10214000B2F850205FEA496102EBCC0209F4804406
:102150004CF2800603EB420346D503F204431B888E
:10216000C3F30903834234BFC01A00200028B861BA
:1021700004D100F096F9002C50D045E00CB100F0ED
:1021800070F997F8240001283DD100F075F97878AE
:1021900008BB00F052F93F2B0288C2F3090202800B
:1021A0000AD35A0913F01F0F08BF521E048844EACD
:1021B000822444F400440CE023B9028842F4004233
:1021C00002800DE05A08DC0748BF521C048844EA2C
:1021D0008224048004E0012802D100F02EF903805B
:1021E00079619BB23A8950E003F20C431B88C3F338
:1021F000090398422CBFC01A00200028B8610ED1F4
:1022000000F04FF9002C43D12968387831F82020AC
:102210000AEA020246EA020A21F820A038E00CB9D4
:1022200000F01FF997F82400012831D100F024F9BB
:102230002C68787808BB00F0C7F83F2B1088C0F3F3
:10224000090010800AD3580913F01F0F08BF401E61
:10225000148844EA802444F400440CE023B9108834
:1022600040F4004010800DE05808DC0748BF401CD7
:10227000148844EA8024148004E0012802D100F08C
:10228000A3F8138079619BB27A89286800F0F4FF83
:102290002968387831F8202048F6BF731A4082F058
:1022A000300248EA020821F8208078E5410404D58C
:1022B00000F0BFF84BF6FF7080E0810404D500F019
:1022C000B8F84DF6FF7079E0C1041BD52A6802F119
:1022D00040014FF6FB700B8803400B804FF6F77000
:1022E0002968B1F840200240A1F84020284600F0BB
:1022F00064FA2968B1F844204EF6FF700240A1F854
:1023000044205EE0010546D5002002A92A6832F883
:10231000203021F81030401C0828F7D3286830F806
:10232000402F42F0010202804FF6FE702A68B2F898
:1023300040300340A2F840302A68B2F84400430518
:10234000FBD5B2F844404FF6FF300440A2F84440B9
:1023500000202B6831F8102023F82020401C08288A
:10236000F7D32868B0F8401041F00801A0F84010F9
:102370004FF2FF702968B1F844200240A1F84420D0
:102380002868B0F8401041F00401A0F84010284639
:1023900000F005FA15E081050AD500F04AF84FF67D
:1023A000FF508A8802408A80284600F0E2F908E05F
:1023B000C00506D5296840314FF6FF608A88024083
:1023C0008A8007B0BDE8F08FB4F8500002193C785D
:1023D00002EB041202F20C427047BCF80040C4F356
:1023E0000904A142704701EBC20100EB410303F273
:1023F0000C437047B2F8500081183A7801EB021193
:1024000001F20C4170472968387831F820300AEA27
:1024100003031A4321F820207047296831F823C0AC
:102420000BEA0C0B8BF4005B48EA0B0B21F823B092
:102430007047286800F1400170472868B0F85020C4
:102440003C78101800EB041000F204407047286834
:10245000B0F850103A78081800EB021000F204406F
:102460007047286830F82C100AEA0101024646EA53
:10247000010A22F82CA07047FA6978699A18FA6163
:10248000C1183A69386A904203D31346C01A3862B9
:10249000704710B1034600203862002287F82420DC
:1024A0007047787880B92868B0F85020101800EB91
:1024B0000C1000F204400188C1F309010180028878
:1024C00042F4004202800BE0012829D12868B0F8CC
:1024D0005020101800EB0C1000F204400021018085
:1024E0002A68787880B9B2F8500081183A7801EB00
:1024F000021101F20C410888C0F3090008800A8823
:1025000042F400420A800BE0012809D1B2F85000E1
:1025100081183A7801EB021101F20C410020088089
:102520002846397800F01CB90121FFF710FC20681B
:1025300000F094FE002084F8A80210BD012084F869
:10254000A8027047044694F8A8020128704710B505
:10255000FFF7F8FF01D1022010BDFFF7EFFF84F86D
:102560002410206800F074FEE4E770B5044601F022
:1025700007052820454360190D0603D5283001269C
:10258000467003E000F5B4700025457001F00701C6
:1025900001700261C370022B04BF0021017194F825
:1025A000A812012901D1022070BD00F014F800F03A
:1025B000C9F9002084F8A80270BD10B5044600F0E7
:1025C00094F800F08BF801D1022010BD00F003F860
:1025D00000F0FBFAAEE7012284F8A8220146206849
:1025E000704738B50C4604F0070528214D434119C2
:1025F00001F5B47104F007044A618B610022CA61DD
:102600004A700C701BE001F0070128225143084476
:10261000D0F88401704738B501F0070528246543D8
:10262000441928346261A36123620122002301F06E
:10263000070184F82420E36162702170214600685C
:1026400000F04BFB002032BD38B505460C466968EA
:1026500004F00700814201D2012032BD2821220668
:1026600005D54843284400F12801012004E06143D6
:10267000681800F5B4710020487001228A7004F0D7
:1026800007040C7095F8A802012801D1022032BD80
:1026900085F8A822286800F085FD24B9286805F58A
:1026A0002C7100F0E2FD002085F8A80232BD10B5C3
:1026B000044601F00F036068984201D2012010BD6A
:1026C00000F013F80023837000F008F801D1022015
:1026D00010BDFFF780FF00F07EFD2BE701F0070142
:1026E000017094F8A8120129704701F00702282010
:1026F0004243A0180A0603D52830012343707047CF
:1027000000F5B47000224270704700000068724902
:10271000884200D0704780B57048026842F40002D9
:1027200002600022006800F4000000900021009880
:10273000142000F0E1FDBDE80240142000F0F9BDD6
:1027400000F52C71D0F8EC0200F04EBE0B462822AA
:102750005343C218D0F8EC02D2F87C2100F06EBED0
:102760000B4628225343C218D0F8EC02D26B00F07B
:10277000A6BED0F8EC0200F036BF10B50446A06843
:10278000022818BF01F092F8D4F8EC02012100F001
:1027900016FFD4F8EC02BDE8104000F0E7BE10B51B
:1027A0000446D4F8EC0200F00DFFA06920B14C48BB
:1027B000016841F00601016010BDD0F8EC0200F0A4
:1027C00009BF10B5044647484349C0F8EC42C4F875
:1027D000C0020160082202230021426083608161FF
:1027E000C1610162FFF744FA08B101F05FF8D4F863
:1027F000C00218230022002101F0B6F8D4F8C0026C
:1028000058230022802101F0AFF8D4F8C002C02381
:102810000022812101F0A8F8D4F8C0024FF4887397
:102820000022012101F0A0F8D4F8C0024FF4807317
:102830000022822101F098F8002010BD80B5D0F868
:10284000C002FFF776FABDE8024051E010B51C4621
:102850001346D0F8C0022246FFF787FEBDE81040BD
:1028600046E080B5D0F8C002FFF7A7FEEBE780B5E1
:10287000D0F8C002FFF7E8FEE5E780B5D0F8C00267
:10288000FFF715FFDFE7D0F8C02201F07F03282013
:102890004343D018090602D590F82A00704790F8F3
:1028A0006A01704780B5D0F8C002FFF750FECAE752
:1028B00080B5D0F8C002FFF7AEFEC4E780B5D0F80F
:1028C000C002FFF78EFEBEE7D0F8C002FFF79BBE46
:1028D0000548704700000000005C00401C100240EA
:1028E00010ED00E0100A0020C40F00207047704770
:1028F0000146002021B1022901D1012070470220A8
:10290000704700000EB419E04030002181804FF480
:102910003F42028000207047B0F8402044F2FF019F
:1029200000F0A5BC002070470EB4012120F8401F24
:10293000002202800023838000210182002003B056
:10294000704700002DE9F04F0B4602461D7832F823
:102950002560DC7848F68F1100200E40032C0CD83F
:10296000DFE804F002080C0546F4007606E046F4C1
:10297000C06603E046F4806600E0012048F280046F
:10298000264322F8256048F68F7619780D4632F8EE
:10299000257037403943214322F825104BF68F75B7
:1029A000197B93F8009000294CF2800748F6BF7E0F
:1029B00048F2C0087CD1D9884FF6FE7A0AEA010BAA
:1029C00059780029B2F850101FD0114401EB0911B9
:1029D00001F58069A9F800B0197832F821506D0628
:1029E00006D532F821502E4048EA060622F821602A
:1029F0001978DB78012B32F821300EEA03030EBF81
:102A00001C4383F020031C43DBE0891801EB091110
:102A100001F58169A9F800B0B2F8501001EB020C81
:102A200019780CEB011C0CF20C4CBCF800E0CEF356
:102A3000090EACF800E019693F290BD34FEA511E8B
:102A400011F01F0F08BFAEF1010EBCF8001041EAF3
:102A50008E2102E021B9BCF8001041F4004109E0E8
:102A60004FEA510EC90748BF0EF1010EBCF8001025
:102A700041EA8E21ACF80010197832F821C05FEAE3
:102A80004C4C06D532F821C006EA0C063E4322F82B
:102A90002160197831B911880D4085F440552C43D7
:102AA000148090E032F821301D4085F4005587E015
:102AB000D978022909D132F82910314041F4014175
:102AC00041F0800122F8291009E032F829A048F6E7
:102AD0008F6101EA0A0144EA010A22F829A0B2F84A
:102AE00050901978B3F808A0914409EB011101F551
:102AF00080694FF6FE7101EA0A0AA9F800A0B2F84F
:102B0000501093F80090114401EB091101F5816C0C
:102B100059894FF6FE7909EA0101ACF8001059789D
:102B200093F800C0002932F82C1023D1490405D5B0
:102B300032F82C1031400F4322F82C70197832F8FB
:102B400021707F0606D532F821703E4048EA06061D
:102B500022F82160197832F82160354085F440551B
:102B6000254322F82150197832F821300EEA030368
:102B70001C4326E0490405D532F82C1031400F43A0
:102B800022F82C70197832F821707F0606D532F8B9
:102B900021703E4048EA060622F82160DE78197866
:102BA000012E32F821600EEA060618BF86F02006D4
:102BB00044EA060E22F821E0197832F821301D404F
:102BC0002C4322F82140BDE8F08F2DE9F041024668
:102BD00091F800C048780B7B4BF68F7E4CF2800456
:102BE00048F2800848F6BF7548F2C00648F68F776D
:102BF000ABB9002832F82C0008D0400636D532F8A0
:102C00002C0007403E4322F82C602FE0400458D5AA
:102C100032F82C0007403C4322F82C4051E00028B9
:102C200032F82C002BD1400405D532F82C00384066
:102C3000044322F82C40087832F820305B0605D592
:102C400032F820303B40334322F82030087832F805
:102C500020301F403E4322F82060087832F82030B0
:102C60000EEA030348EA030E22F820E0087832F85F
:102C700020100D4048EA050822F820802AE0400490
:102C800005D532F82C003840204322F82C00087873
:102C900032F820305B0605D532F820303B401E4329
:102CA00022F82060087832F820301F403C4322F898
:102CB0002040087832F820301D4048EA050522F807
:102CC0002050087832F820100EEA010148EA010E7F
:102CD00022F820E00020BDE8F0812DE9F8430E46FF
:102CE00005467278012A48F2800848F68F7140F054
:102CF0000A81B4693269A24238BF1446307B30B9C8
:102D0000F28800F042FA00F037FA3C80F2E096F8E0
:102D100003E03078376ABEF1020F034640F0CD8001
:102D2000BA4280F0BB8035F82300014041F40141F4
:102D300041F0800125F82310381B30626308327897
:102D40007178964635F82E905FEA496704F00100E5
:102D50004FEA541C4FD5C1B900F0FFF901F20C4104
:102D600000F0EEF908D314F01F0F08BFACF1010C0E
:102D7000088840EA8C2001E01CB9088840F4004033
:102D800001E000F0D1F908800AE0012908D1B5F886
:102D90005000401900EB021E0EF20C4EAEF800403F
:102DA000728900F0F2F900F0D1F932BF001B04463D
:102DB000002030627078D8B900F0DEF900F0BAF97E
:102DC00007D3600914F01F0F08BF401E00F0A6F9DA
:102DD0000CE024B9388840F40040388084E0600872
:102DE000E10748BF401C398841EA802139807BE0F7
:102DF000012879D15CE0C1B900F0AFF901F20441DA
:102E000000F09EF908D314F01F0F08BFACF1010CBD
:102E1000088840EA8C2001E01CB9088840F4004092
:102E200001E000F081F9088009E0012907D1B5F837
:102E30005000401900EB021000F204400480328977
:102E400000F0A3F900F082F932BF001B0446002015
:102E500030627078D8B900F09CF900F06BF907D3B4
:102E6000600914F01F0F08BF401E00F057F90CE076
:102E700024B9388840F4004038802CE06008E1072D
:102E800048BF401C398841EA8021398023E001286D
:102E900021D1B5F850004719307817E035F82310E4
:102EA00048F68F60014048EA010125F823103C46AE
:102EB000B5F850004719307811E0391B316235F808
:102EC00023104A06B5F8501008D54F1907EB001724
:102ED00007F20C473C80A3B2728907E04F1907EB59
:102EE000001707F204473C80A3B232897169284673
:102EF00000F0C2F9317835F8212048F6BF70024061
:102F000082F0300225E0307B002834D1B16930698D
:102F1000884232BF091A08460021B16100F023F946
:102F20003F283A88C2F309023A8019D3410910F0C8
:102F30001F0F08BF491E388840EA812040F4004036
:102F40003880317835F821204BF68F70024082F4BA
:102F5000405248EA020825F821800020BDE8F283AB
:102F600008B93888EAE74108C00748BF491C3888D3
:102F700040EA8120E4E7F078022867D122BBB5F867
:102F800050203078521902EB001202F204421388EA
:102F9000C3F30903138030693F2808D3430910F0B5
:102FA0001F0F08BF5B1E108840EA832001E018B99C
:102FB000108840F4004006E04308C00748BF5B1C8F
:102FC000108840EA832010807078F8B900F0E1F8AA
:102FD0003A88C2F309023A8030693F2808D342098F
:102FE00010F01F0F08BF521E388840EA822001E00F
:102FF00018B9388840F4004006E04208C00748BFCE
:10300000521C388840EA8220388007E0012805D128
:10301000B5F85000326900F0BEF83A80F069002837
:103020008FD0307835F8202044F2400303EA0204C0
:103030009C4218BF1A4284D135F82020114041F437
:10304000004141F0C00125F820107AE7012863D142
:10305000B1693069884232BF091A08460021B1615E
:10306000440800F00101430972BBB5F850203778DD
:10307000521902EB071202F204423F28B2F800E0B4
:10308000CEF3090EA2F800E00CD39C4610F01F0FFF
:1030900008BFACF1010CB2F800E04EEA8C2747F40F
:1030A000004E0FE030B9B2F800C04CF4004CA2F86A
:1030B00000C009E0A44609B10CF1010CB2F800E02F
:1030C0004EEA8C2EA2F800E0727802BBB5F85020D0
:1030D0005719327807EB021707F20C473F28B7F869
:1030E00000C0CCF3090CA7F800C007D310F01F0FE5
:1030F00008BF5B1E388840EA83201FE708B9FFF746
:1031000030BF01B1641C388840EA842018E7012AE6
:103110009BD100F028F813E701201FE7398841EA26
:10312000802141F40041704700B15B1C088840EAEF
:10313000832070473F2C3988C1F3090139807047DB
:103140003F2C0A88C2F309020A807047706931690E
:1031500020447061306A81427047B5F850104919B7
:1031600001EB02117047B5F850104F19317807EB99
:10317000011707F20C477047B5F85000471930782F
:1031800007EB001707F2044770477169A3B228469E
:1031900072E0B5F850004719307807EB001707F2D6
:1031A0000C47704710B50A78497830F8224000295A
:1031B00048F2800305D048F6BF710C4084F010043B
:1031C00004E04BF68F710C4084F48054234320F8C4
:1031D0002230002010BD30B50A7B002A36D14A7853
:1031E0000C78002A30F8242048F2800348F68F75C6
:1031F00016D0520608D530F82420154045F4004575
:1032000045F0C00520F82450CA78012A1ED00A785B
:1032100030F8224048F6BF710C4084F0200412E0E0
:10322000520408D530F82420154045F4404545F0B7
:10323000800520F824500A7830F822404BF68F7130
:103240000C4084F44054234320F82230002030BD49
:1032500011B98021A0F84C10002070470020704761
:1032600000207047B0F844007047002070470A40C3
:10327000A0F840200020704710B500EB42005B1C16
:1032800000F580605B0807E00A784C7842EA042287
:10329000891C20F8042B5B1EF6D110BD10B500EB85
:1032A000420000F580605A0806E030F8044B0C70CC
:1032B000240A4C70891C521EF7D1DA0744BF0088DB
:1032C000087010BD0901020002D4284881547047DB
:1032D000274B02F00F021A4402F8041C7047254BDA
:1032E00019684FF6FF020002114000F4E060084345
:1032F000214908431860704770B51E4B1C68C4F321
:1033000002230124C3F10705052D2EBF0F2504FA62
:1033100005F56D1E1E1D072E34BF0023DB1E294040
:10332000994004FA03F3BDE870405B1E1A40114354
:10333000C8E7010007D4012200F01F010F4B8A40AB
:10334000400943F820207047401EB0F1807F01D330
:10335000012070470A490B4A48600023F020107092
:103360008B600720086000207047000000E400E048
:1033700018ED00E00CED00E00000FA0500E100E0CF
:1033800010E000E023ED00E038B508B9022032BDBE
:1033900000F52774A3690BB10025A56101B1616136
:1033A000012121700270FFF70CFA002032BD0246A5
:1033B000002011B1C2F8B41270470220704780B5E6
:1033C000FFF73CFA002002BD10B5D0F8B422022469
:1033D0001AB11268904700B90024204610BD80B58C
:1033E000D0F8B42253680AE138B5044604F52A75CA
:1033F000284600F0C0FC04F5257001210160428BD5
:10340000017D426011F01F0003D002280BD005D3CC
:103410000EE02946204600F0C1FA0DE0294620467C
:1034200000F0F2FB08E02946204600F013FC03E020
:1034300001F0800100F040F8002032BD38B50446AC
:1034400010460A0004F5257329D1196803291ED1F5
:1034500004F5B0714A680D68AA420BD2AD1A0D602E
:10346000954238BF2A46014692B2204600F0DFFC62
:10347000002032BD196A086928B1187A032802D1E0
:10348000096920468847204600F0D9FCF0E7052965
:10349000EED100201860002100F00EF8E8E71A6A6B
:1034A000906930B1187A032803D192692046904779
:1034B000DEE7022032BD80212046FFF7D8B938B5BB
:1034C00004460800134604F5257543D128680228F0
:1034D00033D1226A616A914207D2521A2262194696
:1034E00092B2204600F091FC11E0E269B2FBF1F0EB
:1034F00001FB102090B98A4210D3686882420DD235
:1035000000220021204600F080FC0020686000239B
:10351000002200212046FFF7D1F914E0296AC8688B
:1035200028B1287A032802D1C96820468847FFF7C6
:10353000C2FF204600F08AFC05E0042818BF0028DE
:1035400001D1FFF7B8FF287B012804BF00212973B0
:10355000002032BD2A6A506930B1287A032803D18D
:10356000526920469047F3E7022032BD38B5044641
:10357000402300220021FFF769F904F5AC70012116
:1035800040220160C2604023002280212046FFF7D4
:103590005DF90120402104F52572A061616210727D
:1035A0000021116061600025506A156128B1126A1E
:1035B00061685368C9B220469847002032BD017443
:1035C0000020704700F527700422017841700270D6
:1035D0000020704700F527700178042904BF417866
:1035E00001700020704780B500F527710A78032A22
:1035F00003D18969C96901B18847002002BD984794
:10360000002002BD2DE9F04387B000F027FC00F058
:103610000BF900F035FC00F08FFC00F0DBFC00F053
:10362000E5FC00F06DFD00F0C1FD704C704D2068B0
:103630002860012825D100BF9DA000F0E1FD0020F9
:10364000009010220DF10400C3A1FDF757FD00F01A
:1036500026FE694601A800F09DFE012200232146B6
:10366000022000F0E1FD6A68624900F0D9F8AA681A
:10367000614900F0D5F8EA68604900F0D1F800F03F
:103680001EFE61680FF2B4290FF29428696005AE3E
:10369000A068A86003AFE0689AA4E86088A000F082
:1036A000AFFDA9688AA000F0ABFDE868544DFEF7B5
:1036B000CFF80022534BFDF795FF02464FEA010376
:1036C00089A000F09DFD00F0ECFE00F00FFF4E49D8
:1036D0004E4A0491059210214D4AADF818100192FE
:1036E0004FF480524B490291ADF80C2004AB93E8A3
:1036F000070000F0ADFF01AB93E8070000F0A8FF62
:1037000004A807C800F0E0FF01A807C800F0DCFF2C
:103710000F20009004A907C90A2300F07DFF0F20A5
:10372000009001A907C90A2300F076FF642000F089
:10373000D3FF03A800F0F3FE05A800F00AFF02A8DB
:1037400000F02AFF284600F05BFDBDF9140000F0F0
:10375000D7FF00F048F800F0E5FFCDE90001BDF922
:103760000C0000F0CDFF00F03BF800F0DBFF02465C
:103770000B46204600F044FDB6F9020000F0C0FF01
:1037800000F031F800F0CEFFCDE90001B7F90200FA
:1037900000F0B6FF00F024F800F0C4FF02460B462C
:1037A000404600F02DFDB6F9040000F0A9FF00F03E
:1037B0001AF800F0B7FFCDE90001B7F9040000F0F6
:1037C0009FFF00F00DF800F0ADFF02460B464846A3
:1037D00000F016FD284600F013FD4FF4FA70A6E73E
:1037E0000D4900F0C3BF0D4900F0C0BF00FC000848
:1037F0000000002004FC000808FC00080CFC000885
:103800006C67000800408F40E4130020000801406E
:103810003C140020000C014000FC7F4600000343E4
:103820000023022000F000BD18B593B0282109A89C
:1038300001F028F81421684601F024F805A80021B9
:1038400000220023002480E81E00012109910B9230
:103850004FF480310A911191012302224FF480111B
:103860000D931092129109A801F010F808B100F020
:103870001DF8022101910F204FF480610090039107
:10388000029404940121684601F08AF908B100F01D
:103890000DF810214FF480020591089205A801F05F
:1038A00055FA08B100F002F814B010BD72B6FEE788
:1038B000496E697420436F6E6669670D0A000000E7
:1038C00073616E644E756D3A25640D0A0000000048
:1038D00073637265656E4272696768746E6573734F
:1038E0003A25640D0A0000006772617669747943B5
:1038F0006F6566666963656E743A25312E33660DB1
:103900000A00000061783A25312E33662067096786
:10391000783A25312E3366206465672F730D0A00CF
:1039200061793A25312E336620670967793A253166
:103930002E3366206465672F730D0A00617A3A257D
:10394000312E3366206709677A3A25312E33662097
:103950006465672F730D0A0000000000000000007E
:1039600000FC00080100000030B528240D0605D534
:1039700001F0070161430844283003E06143084433
:1039800000F5B4701AB900210173C38004E003810B
:1039900001211B0C01734381002030BD2DE9FC4146
:1039A0000E460546307810F0600005F5277708D000
:1039B000202818BF402824D1BA6993682846984720
:1039C000ACE0717809291CD8DFE811F0FD00120184
:1039D00088000C0188008D000A008800E800AB0018
:1039E0000022ADF800207088010A012970D0022958
:1039F00061D003292CD0062922D0072904BF287CB6
:103A000000286BD1B9690A6B68469047072141705D
:103A1000BDF8001081B1F188002910D0BDF8001068
:103A2000F288914288BF1146ADF800100146BDF8FA
:103A30000020284600F0E1F9F08800286ED19FE0D0
:103A4000287C00284AD1B9694A6B68469047DFE76D
:103A5000C0B2052842D8DFE800F0272019120B0376
:103A600078698269002A39D0287C69469047CFE777
:103A70007869426992B3287C69469047C8E77869BB
:103A800002695AB3287C69469047C1E77869C268E1
:103A900022B3287C69469047BAE778698268EAB120
:103AA000287C69469047B3E778694268B2B1287CC0
:103AB00069469047ACE7287CB9690028684604D17C
:103AC000896A884702224270A2E7C96A8847F9E7F3
:103AD0007A69287C13686946984799E731462846F1
:103AE00000F05DF91AE0B088002804BFF0880028D3
:103AF000F4D17488802CF1D23878032804F07F0444
:103B0000ECD0BC7021462846FEF7CCFE284600F0DB
:103B100096F9002C0CBF0120022038700020BDE86F
:103B2000F681DFF8E080708888F8000098F800409F
:103B300021460229D2DA3878022818D0032823D166
:103B400034B90220387069602846FFF748FC17E056
:103B500069688C4214D0C9B22846FFF740FC6C60FB
:103B600021462846FFF730FC022809D1B6E73CB1D0
:103B70006C60032038702846FFF726FC0228ADD081
:103B8000284600F05CF9C9E73146284600F007F9FD
:103B900098F800102846FFF722FCBFE7F0880128BC
:103BA0009CD13978491E012907D9891E96D1012255
:103BB000291D284600F021F9B0E70020A860012265
:103BC00005F10801F5E73878401E022886D8F2880A
:103BD000022A83D1B868012100B10321E96005F10F
:103BE0000C01E6E77088012898D10121B960C7E788
:103BF0003878401E0228ECD87288012A8ED1002025
:103C0000B860BDE7A415002038B50D4604462878F5
:103C100010F060001CBF2028402816D104F5277240
:103C20001078401E022810D82B79022B0DDA9269E9
:103C30009368204698470146E888002808BF002975
:103C400006D1204600F0FBF802E0204600F0A7F87D
:103C5000002032BDF8B50A780446087912F06005F4
:103C600004F5277308D0202D18BF402D66D19A691E
:103C700093682046984764E002F06002202A05D14C
:103C80009A6993682046BDE8F44018474A7882B3A1
:103C9000012A11D0032A51D11B78022B12D0032BF9
:103CA0004CD14A880ABB002818BF80281DD0C9887B
:103CB000D9B900F05CF818E01A78022A02D0032A79
:103CC0000AD03BE0002818BF802837D000F04FF81A
:103CD000802100F04DF834E04A8892BB10F07F015B
:103CE00003D001462046FEF7C8FD204600F0A7F8A5
:103CF00027E0142600F07F021B787243A718022BDE
:103D000007F5AA7500F0800202D0032B0FD015E052
:103D1000002818BF802811D10AB107F1140500202E
:103D2000286002222946204600F067F809E000F0EA
:103D30000F035E43A31932B19A696AB9204600F0B5
:103D40002EF80020F2BDD3F85821002AF6D0002822
:103D500018BF802803D1E2E707F11405F7E7014611
:103D60002046FEF790FD0028DAD00120D8E7014672
:103D70002046FEF77CBD0A7802704B7843708A7843
:103D8000CB7802EB032242804B790A7902EB0322C3
:103D900082808A79C97902EB0122C280704710B50E
:103DA00004468021FEF763FD2046BDE81040002157
:103DB000FEF75DBD00280B4600D1704770B5014687
:103DC000002400E0641C11F8015B002DFAD12406E8
:103DD000E40DA41C14801178197003225A70022279
:103DE00007E010F8011BD4B2521C1955D6B2521C70
:103DF0009D5501780029F4D170BD80B5134602228B
:103E0000C0F89422C361036201E080B513460A46FC
:103E10000021FEF74DFD002002BD80B513460322B0
:103E2000C0F8942200F5AE721360536001E080B5D3
:103E300013460A460021FEF741FD002002BD80B571
:103E40000421C0F8941200230022E1E780B5052187
:103E5000C0F8941200230022ECE7000080B5074868
:103E6000016841F0100101600320FFF738FA0F20CC
:103E700000F0E0FF00F0FEFF002002BD0020024045
:103E800030B585B010220021684601F015F82148B0
:103E9000214D0168214C41F020010160026802F0CF
:103EA000200204920499026842F00402026003684E
:103EB00003F0040304930499026842F008020260CC
:103EC0000022006800F008000490102104982846A1
:103ED00001F0CAF800224FF48051204601F0C4F8E6
:103EE000102100F01FF8284600F0F0FF4FF4805139
:103EF00000F018F8204600F0E9FF4FF48070084900
:103F000000900191002202926946204600F0DEFFF7
:103F100005B030BD1810024000080140000C0140FF
:103F20000000111000910122019200210291022251
:103F30000392694670470000214A2248224980B511
:103F4000426000234FF4804201608360C3600261DD
:103F500043618361C361036201F0A4F818B1BDE855
:103F60000140FFF7A3BC01BD18B585B0044610227F
:103F7000002101A800F0A0FF2168134881421CD154
:103F8000124C216841F008012160C021206800F036
:103F900008000090122200980D4801910292012120
:103FA000049101A900F092FF606840F40010606085
:103FB000606800F400100090009806B010BD00008A
:103FC000801A06009414002000540040181002408B
:103FD000000C014080B54348434901604FF48272B0
:103FE000182100F00FF800B11DE001BD80B53F4879
:103FF0003F4901604FF48272102100F003F800B1D4
:1040000011E001BD4260C16100234FF400720A213A
:104010008360C360036143618261036243628362C0
:10402000C16201F005BDBDE80140FFF73FBC18B516
:1040300085B0044610220021684600F03DFF20684C
:1040400000F04BF81DD1086840F4805008600A6801
:1040500002F48052049204980A6842F004020A6052
:104060000222096801F004010491A021049821486A
:1040700000F02CF8002200212320FFF73DF9232037
:1040800020E01B4A90421FD1486840F480404860BD
:10409000486800F48040049004980A6842F00802DE
:1040A0000A600222096801F0080104914FF42041DE
:1040B0000498114800F00AF8002200212420FFF79C
:1040C0001BF92420FFF735F906B010BD00910192CD
:1040D00003210391694600F0F9BE034A0749904263
:1040E00070470000E4130020003001403C14002021
:1040F0000038004000080140000C01401810024048
:1041000080B52648264901604FF4E13200230C2196
:1041100042608360C360036141618361C36101F0F8
:10412000ABFE18B1BDE80140FFF7C0BB01BD18B53B
:1041300085B0044610220021684600F0BDFE2168CB
:104140001748814228D11748174C016841F4804133
:104150000160026802F4804204920499026842F00D
:10416000040202604FF40071006800F00400049043
:10417000022204980091019203210391204669468E
:1041800000F0A4FE4FF480600021009001910291A4
:104190002046694600F09AFE06B010BD3815002092
:1041A00000380140181002400008014010B5104CC2
:1041B000104900222046FFF7E7F808B1FFF776FB29
:1041C0000D492046FFF7F3F808B1FFF76FFB0B49E5
:1041D000204602F093F808B1FFF768FB2046FFF78E
:1041E000EEF818B1BDE81040FFF760BB10BD00BF8E
:1041F000000D0020400100202C0000203001002094
:104200000EB4C0B5024603A800210190009101AB95
:104210000121044878440C30FBF76BFF06BC5DF8C5
:1042200010FB00BF0D2600002DE9F84F534E074646
:10423000307E8B4614469946012808BF02202CD0B8
:10424000012030764CF2503A504600F04BF8010015
:1042500021D1012F08BF012103D0022F0CBF022161
:1042600004210025464F884600E06D1C454512DAC2
:10427000204649462A0102F069F881B20BEB45005D
:1042800000F025F8504600F02DF83968490849003B
:1042900002003960E9D000213176BDE8F28F3A4959
:1042A000CA680020130600D4704710B5374A384C4E
:1042B0000A600C60C9680A0648BF012010BD30487A
:1042C000016841F08001FFE701600020704710B5F0
:1042D0002A4B0022DA612A4A146844F0010414606F
:1042E000018010BD70B5044602F040F80646254D29
:1042F0002868C1070AD514F1010FF9D024B102F0E2
:1043000035F8801B8442F3D2032070BD28688106F3
:1043100044BF202028602968C80605D42969C80739
:1043200002D42968480703D500F004F8012070BDC5
:10433000002070BD10B5134A104913680020DC0638
:1043400004D5C86940F00200C861102013685C07FA
:1043500005D5CB6943F00103CB6140F0040013693C
:10436000DC0707D5CB6943F00403CB611169490829
:1043700049001161106010BD000000008015002090
:10438000102002400C200240042002402301674517
:10439000AB89EFCD2DE9F047DFF8C4600746307EEA
:1043A00001258846012808BF02203BD035764CF213
:1043B00050393868DFF8AC40022848460ED1FFF784
:1043C00091FF60BB012000F02FF84846FFF78AFFFD
:1043D0000546206820F00400206020E0FFF782FFFF
:1043E000E8B94FF0FF30C8F80000D7F808A001E0A6
:1043F0000AF5806AF868B96801EB80218A450ED217
:10440000504600F01EF84846FFF76CFF054620684E
:1044100020F0020029002060EAD0C8F800A00020A7
:1044200030762846BDE8F0870D490020C8610D4868
:10443000026842F004020260016841F0400101603C
:104440007047074A0021D16106490B6843F0020317
:104450000B604860086840F040000860704700004A
:10446000801500201020024003B583B002461F20B3
:10447000012104AB029001910093D0210123524805
:1044800000F0DAFE05B000BDE0B54FF6FF73019213
:104490000293009102460123D1214B4800F06CFFAA
:1044A00007BD80B580216B20FFF7DEFF642000F0A0
:1044B00013F900216B20FFF7D7FF00216A20FFF7D7
:1044C000D3FF00212320FFF7CFFF07211920FFF79B
:1044D000CBFF06211A20FFF7C7FF01211C20FFF7A1
:1044E000C3FFBDE8044018211B20BDE780B50020B4
:1044F0008DF80000012269467520FFF7C5FF9DF881
:104500000000682805D000BF36A0FFF779FE002024
:1045100002BD68213AA0FFF773FE012002BD1CB561
:104520000446062269463B20FFF7AEFF9DF80000D7
:104530009DF8011001EB002121809DF802209DF8DB
:10454000031001EB022100F019F801EB0021A1801A
:1045500013BD1CB50446062269464320FFF794FFAD
:1045600000F012F89DF802209DF8031041EA0221A4
:1045700000F004F841EA0021A18013BD61809DF89C
:1045800004009DF8051070479DF800009DF801108B
:1045900041EA0021218070471CB500F01DF89DF80C
:1045A00000109DF8010040EA012000B2FCF7D8FE9F
:1045B0000022064BFDF716F8054A064BFCF7E2FE13
:1045C00001F0DAFE206013BD941400200040754015
:1045D000A4703D0AD7434240044602226946412066
:1045E00052E700004D505536303530206465637415
:1045F0006563746564206572726F72210D0A000034
:104600004D505536303530204944203D20307825F6
:104610003032580D0A00000037B582B00C460898B9
:10462000BDF810508DF801008DF8003000222946A9
:10463000204600F019FD0298FF230222694601F08E
:104640004CFA01222946204600F00EFD05B030BD8F
:104650001FB582B0002400940923FFF7DDFF02A8F4
:1046600007C8032400940A23FFF7D6FF0720009011
:1046700002A907C90B23FFF7CFFF0120009002A971
:1046800007C90C23FFF7C8FF0020009002A907C943
:104690000F23FFF7C1FF02A807C806B0BDE810400E
:1046A00038B584B001AD002485E80700002300F090
:1046B00005F8E0B20828F9DB05B030BD95E8070041
:1046C0000093641CE3B2A7E71CB5012400940F23F8
:1046D000FFF7A2FF13BD000038B5044601F046FE07
:1046E00014F1010F054602D004490878041901F0BD
:1046F0003DFE401BA042FAD331BD00BF1000002098
:1047000010F0004C68B148BF4042B0FA80F18840D8
:10471000D1F19D014CEAC15C010671F100414CEB05
:1047200010207047C0F3C75181B1FF2906D0C110D6
:10473000400721F0E04101F16051704741020CBF98
:1047400040F4E0016FF000410020704700F00041AC
:1047500000020AD0B0FA80FC00FA0CF001F16051BE
:10476000A1EB0C5101EBD021400570474FF0FF0C3D
:104770001CEAD0531DBF1CEAD1526345624543E099
:104780009B1A5FEACC7280EA010C42EA01211CEA22
:10479000020C42EA0020421A38BF01EB420253F1F8
:1047A0007E034FEA1121B2FBF1F001FB102260F30E
:1047B000D63C4FEA0222B2FBF1F001FB102260F37B
:1047C000CE1C4FEA0222B2FBF1F006DDFF2B29DA04
:1047D0005CEA500040EBC3507047C3F1020301FB99
:1047E0001022192B40EA4C010CF0004C41F0807172
:1047F00021DC21FA03F0C3F120039940114371F148
:10480000004250EB0C00704763451ABF0CEAD152CE
:10481000624512E080EA010C00180CF0004C06D052
:1048200049181AD10CF0004C4CF0FF407047C942B7
:1048300008BF6FEA020C60467047634506D1B2EBD1
:104840000C02F5D001F00041484070474A0212BF07
:104850000846484000F0004070474AB90902B1FAE2
:1048600081F2914043B19B18C00140F0004092E7B3
:10487000C90141F0004152420002B0FA80F3984071
:10488000D31A88E7002201F0ABBD00002DE9F84300
:10489000040016D02078DFF87064C10713D5706863
:1048A00000F00C00042807D0706800F00C00082805
:1048B00041D17068C1033ED53068810303D560687B
:1048C000002800F064812078DFF84C74810719D546
:1048D000706810F00C0F07D0706800F00C0008280A
:1048E00061D17068C1035ED43068810703D5206947
:1048F000012840F04C813168606921F0F80141EAFB
:10490000C00131602178080740F18180A069DFF89B
:104910000C14002800F0A68001220A6001F026FD98
:104920000546706A810763D401F020FD401B022810
:10493000F7D903202EE16068B0F5803F04D13068DC
:1049400040F48030306014E008B930680AE0B0F517
:10495000A02F306806D140F480203060316841F4E7
:10496000803105E020F480303060316821F480210E
:104970003160606858B101F0F9FC05463068810388
:10498000A1D401F0F3FC401B6528F7D3D1E701F077
:10499000EDFC05463068810395D501F0E7FC401B2E
:1049A0006528F7D3C5E72069A8B10121396001F076
:1049B000DDFC05463068810705D401F0D7FC401BBB
:1049C0000228F7D9B5E73068616920F0F80040EABD
:1049D000C100306096E7386001F0C8FC05463168D8
:1049E00088078FD501F0C2FC401B0228F7D9A0E749
:1049F000DFF818030168C9084FF47A72B1FBF2F2CC
:104A0000009200BF0098411E00280091F9D1207843
:104A100041076ED5F0690025C10009D4F06940F066
:104A20008050F0610125F06900F0805000900098FE
:104A3000DFF8EC82D8F80000C10520D4D8F80000D7
:104A400040F48070C8F8000001F090FC8146D8F86E
:104A50000000C10513D401F089FCA0EB0900652812
:104A6000F5D366E7086001F081FC0546706A8107AE
:104A7000CDD501F07BFC401B0228F7D959E7E0684F
:104A8000012808D008B9306A09E00528306A06D143
:104A900040F004003062306A40F0010005E0400858
:104AA00040003062306A20F00400306241F2893800
:104AB000E06860B101F05AFC8146306A810713D486
:104AC00001F054FCA0EB09004045F6D331E701F0BA
:104AD0004DFC8146306A810706D501F047FCA0EB0A
:104AE00009004045F6D324E71DB1F06920F080505D
:104AF000F061E06900284CD0716801F00C010829D0
:104B000038D002282AD100F047F8054630688101E4
:104B100005D501F02BFC401B0228F7D909E7206AD4
:104B2000B0F5803F05D17168A06821F400310143E0
:104B300071607268206A616A22F4741202430A4347
:104B40007260012000F029F804463068810120D409
:104B500001F00CFC001B0228F7D9EAE600F01CF873
:104B600004463068810114D501F000FC001B0228C6
:104B7000F7D9DEE601280AD07068226A00F4803195
:104B8000914202BF00F47010616A884201D0012096
:104B900000E00020BDE8F2830020386601F0E6BBAB
:104BA0002DE9F041040088464ED05E4E00F077F8C3
:104BB00002D200F06FF847D12068534D810712D51B
:104BC000400703D5696841F4E06169602078010716
:104BD00003D5686840F4605068606968A06821F097
:104BE000F001014369602178C80725D56068012874
:104BF00002D129688A0303E00228296802D18A01C8
:104C000002D421E08A071FD56968890840EA81003B
:104C1000686001F0ABFB07466868616800F00C0053
:104C2000B0EB810F08D001F0A1FBC01B41F289312C
:104C30008842F1D303202BE0306800F00700804564
:104C400004D200F027F801D0012021E020784107AC
:104C500005D56A68E06822F4E06202436A60217860
:104C6000080706D56968206921F4605141EAC0014E
:104C7000696000F019F86A682B49244BC2F30312EB
:104C8000895CC84018602348006800F0D3F8002011
:104C9000BDE8F0813168C90848EAC1013160306877
:104CA00000F0070040457047204919480A6802F0A3
:104CB0000C03082B00D0704710B500BF1EA4C2F330
:104CC0008343D203E35C08D5096858431EA3C1F3AC
:104CD00040415A5CB0FBF2F010BD184614494843FD
:104CE00010BD0A48114A006813681249C3F3022232
:104CF00006E006480D4A006813680E49C3F3C22255
:104D0000895CC84070470000001002401C00002071
:104D100000127A0018000020000042428004424243
:104D200000700040002002404C680008041002405F
:104D300000093D006C680008020304050607080925
:104D40000A0B0C0D0E0F1010010200002DE9FC41A2
:104D50000646354D3078C10750D5A8690024C100FA
:104D600009D4A86940F08050A8610124A86900F026
:104D70008050009000982D4F3868C10511D43868D4
:104D800040F48070386001F0F1FA80463868C1055F
:104D900007D401F0EBFAA0EB08006528F6D3032056
:104DA0003FE0E86910F440701EBF716801F4407183
:104DB000884218D01E49E86901220A60002320F4C5
:104DC00040700B60E861C0070DD501F0CFFA0746CF
:104DD000E869810707D401F0C9FAC01B41F28931A3
:104DE0008842F5D3DBE7EA69706822F44072024337
:104DF000EA611CB1A86920F08050A8613078810771
:104E000005D52A68B06822F4404202432A6031780E
:104E1000C80605D52968F06821F48001014329609E
:104E20000020BDE8F6810000041002400070004040
:104E30004004424238B50D4D0D4B2A7804464FF4DC
:104E40007A711868B1FBF2F2B0FBF2F0FEF77CFA6F
:104E500050B9102C08D2002221464FF0FF30FEF747
:104E60004BFAAC60002032BD012032BD10000020A2
:104E70001C0000200E4881B0016841F00101016072
:104E8000026802F0010200920099426842F08052EA
:104E90004260406800F0805000900098054801682A
:104EA00021F0E06141F00071016001B0704700BF86
:104EB000181002400400014010B5044610460A468E
:104EC0000146204601F0A6FA204610BD2DE9F8471C
:104ED0004FF0000E0024664A664BDFF89C814FF0CD
:104EE0000F0982460DE017683840106007E0C2F8ED
:104EF00004C04D68ED03F6D51068074317600EF146
:104F0000010E0F6837FA0EF000F0AC80012000FAB5
:104F10000EFC0CEA07076745F1D1486838B3012851
:104F20001AD002281DD003282ED0112816D01228FE
:104F30001AD0524DA8421CBF514DA84217D0514D16
:104F4000A8421CBF504DA84211D0504DA8421CBFD2
:104F50004F4DA8420BD018E0CC6816E0CC68241D59
:104F600013E0CC68083410E0CC680C340DE088689D
:104F700008B9042409E0012819BF0824CAF814C09C
:104F80000824CAF810C000E00024B7F5807F03D2DF
:104F900050464FEA8E0C05E0AEF108050AF1040018
:104FA0004FEA850C056809FA0CF6B54304FA0CF6CD
:104FB00046EA050CC0F800C04868C0009FD5D8F884
:104FC000000040F00100C8F80000D8F8005005F0DB
:104FD000010500954FEA8E0500984FEA9E0053F8B0
:104FE000206005F00C0C09FA0CF526EA0505294E9F
:104FF000B24508BF00260ED0274EB24508BF012695
:1050000009D0264EB24508BF022604D0244EB24530
:105010000CBF0326042606FA0CF646EA050C43F8F4
:1050200020C0F8434D68D2F808C0ED024CBF47EAF3
:105030000C0C00EA0C0CC2F808C04D68D2F80CC089
:10504000AD024CBF47EA0C0C00EA0C0CC2F80CC0D5
:105050004D68D2F804C0AD034CBF47EA0C0C00EA1F
:105060000C0C44E7BDE8F18702B9090401617047FF
:105070000004014008000140181002400000111017
:10508000000012100000211000002210000031105A
:105090000000321000080140000C014000100140E7
:1050A00000140140F8B5040025D004F13C056978EE
:1050B00021B9002028702046FEF756FF2421697090
:1050C000206802685208520002602068016841F4BA
:1050D000004101602068026822F400420260FFF78C
:1050E00000FE01466068DFF84021904205D2DFF8FB
:1050F0003C31994205D20120F2BDDFF834018142F2
:10510000F9D32068DFF82C314668B1FBF3F3B60918
:1051100043EA861646602668376A6068904206D37E
:105120004FF4967043434FF47A70B3FBF0F35B1C7B
:10513000BF0943EA87133362491E2368DE69676843
:10514000974206D27F0000F044F8042913D20421CC
:1051500011E0A06820B907EB470700F03AF805E036
:105160001920474300F035F841F4804108050CBF91
:10517000012141F40041DFF8A40106400E43DE6145
:1051800022681368E169206A23F0C0030B430343DC
:1051900013602268DFF8BC01936821690340E0686E
:1051A0000B43034393602268D368A16960691B0ABB
:1051B00041EA03230343D3602068016841F0010101
:1051C0000160002068602021697020630021A970BF
:1051D000F2BDB1FBF7F1491CC1F30B01704772B688
:1051E0002068016841F40071016070473246294629
:1051F000204600F0D8BB2A46DFF8FC13204600F01A
:1052000019BB41F4806101600020009021684A6967
:1052100000928969009100987047202078700021E1
:10522000B970002038707047A186010080841E008C
:1052300000093D0040420F002DE9FC47064600F002
:105240008BF800F073F865D1009400F07DF83046DB
:1052500000F0BCFA00285DD1387801285AD000F05F
:1052600080F84146D6F800E00C9D0B98DDF828C088
:10527000DEF8008028F40068CEF800804FF0210EA0
:1052800087F801E04FF0400887F802804FF0000EE9
:10529000C7F804E0C6F824C070855346708DDFF867
:1052A00054C33085C6F82CC04A4601940095304658
:1052B00000F0C9F9002826D106E0716A0A78026177
:1052C00000F03AF8411E7185308D88B1224629469A
:1052D000304600F017FB88B9706A326801781161B6
:1052E00000F02AF800F01CF8EED589B20029E4D1CC
:1052F00022462946304600F027FB30B17868042862
:1053000001D100F05BFA012005E000F057FAFFF749
:1053100084FF00E00220BDE8F68700000030FFFFB8
:10532000421E7285306842695307704706F13C0798
:105330000446787820287047706A411C7162308D6D
:10534000411E3185708D704719230122DFF8D81274
:1053500070470000007CFFFF884691469A4601F0A6
:1053600005B80121397030680268D10703D402689A
:1053700042F00102026070472DE9FC47044600201C
:105380000090FFF7E9FF04F13C06054670782028FD
:1053900005D10095FFF7D8FF00F0FFF8002840F096
:1053A000C1803078012800F0BD800121317000F00B
:1053B000DAF84146D4F800E00C9F0B98DDF828C0DD
:1053C000DEF8008028F40068CEF800804FF0220E4E
:1053D00086F801E04FF0400886F802804FF0000E9A
:1053E000C6F804E0C4F824C060855346608DDFF839
:1053F00004C22085C4F82CC04A4601950097204677
:1054000000F070F900286ED1208D10B900F092F8EC
:105410001FE0012802D100F0D4F805E0022820683E
:10542000016805D100F0BCF80846026062B610E0E1
:10543000FFF7E7FE0DE02A463946FFF7D9FE0028C0
:1054400051D100F0F9F8208D6262411E218500F0F3
:105450007FF8208D00285ED004284AD20128EAD0A7
:105460000228324900953B460AD1002200F095F807
:10547000002838D1FFF7B3FE00F07EF862B6E0E70F
:10548000002200F08AF870BB00F066F84FF47A7ED4
:1054900020680169606A0170616A208D4A1C411EA2
:1054A00062622185608D224A411E6185192113683F
:1054B000B3FBF1F1B1FBFEFE232000FB0EFECDF8A5
:1054C00000E000F091F820B1216848694107F8D563
:1054D0000BE0206320217170B070716841F02001F1
:1054E000716062B6307001201DE0206800F08BF81A
:1054F000C2E72A463946FFF77BFE0028F3D100F0C9
:105500003BF8206841694A07A3D50069616A0870C1
:10551000606A421C97E7202070700021B170002063
:10552000307000E00220BDE8F687000004000100B2
:105530001C000020009021684A690092896900914E
:10554000009821680A68084642F4007202607047B9
:10555000608D411E618570472068016821F480617B
:10556000016072B6704720680268D10703D40268F0
:1055700042F001020260704720680169606A0170B0
:10558000616A208D4A1C411E62622185608D411E28
:105590006185704700224FF00111204600F016B9D6
:1055A00041F40061016072B60020009021684A69F0
:1055B000009289690091009821680A6822F480624B
:1055C00070472068016821F48061016072B6002094
:1055D000009021684A6900928969009100982168C9
:1055E0000A6842F4007270470098401E00900098CC
:1055F000704700000000FFFF0800010000902168D4
:105600004A69009270470168024641F400711160D6
:10561000704720680168CA0570473068016841F426
:10562000807101607047000002001000306801685E
:1056300041F480610160704720680169606A01700F
:10564000616A4A1C70472DE9F84304462068DDF87A
:105650002080099FD0F800C04CF4807C8946154614
:105660001E46C0F800C000974346FFF793FF38B1CD
:10567000FFF7CFFF44BF4FF400702064032026E003
:105680002068DFF8441109F0FE09C0F810903B468D
:105690004246FFF7B3FDA0B9FFF7B0FF00F019F8DD
:1056A00000F01EF840B9012E0DD02168280A0861CB
:1056B0003A4600F014F830B1206C042801D1FFF70D
:1056C0008FFD012003E02068EDB205610020BDE8F8
:1056D000F2833A46896900914146009870474146F5
:1056E00020460FE12DE9F84F05462868DDF82880AF
:1056F0000B9F0C46FFF79BFF16462868D0F800C0AA
:105700004CF4807C9946C0F800C000F050F80028A6
:105710004FF4007A2ED12968DFF8ACB004F0FE0017
:10572000086100F03FF8002834D1009029684A69E8
:105730000092FFF7CEFF00F033F870B9B9F1010F16
:1057400005D02968300A086100F028F828B92868CF
:10575000F6B2066100F022F830B1286C042819D1A5
:10576000286800F02CF815E02868FFF757FF00F0D4
:105770001EF838B128680168CA0548BFC5F840A0BE
:10578000032008E0286844F00104E4B2046100F05A
:1057900009F800B10120BDE8F28F00003A46414609
:1057A0002846AFE03B4642465946284642E000972D
:1057B000434600224FF00111284607E03068016897
:1057C00041F4007101607047020001002DE9F843C7
:1057D0000F46089C0646904699463D0C3068E9B253
:1057E00001290CBF4069806900F071F80CBF0120ED
:1057F000002040451CD119F1010FEFD000F0B6FD9B
:10580000001B814502D3B9F1000FE7D13068E9B23E
:1058100001290CBF4069806900F059F80CBF0120D4
:1058200000204045DAD100F05FF80120BDE8F283A6
:105830000020FBE72DE9F0410F4606461446984646
:105840003D0CE8B201281CD130684169394089B269
:10585000B8B281421CD03168486941051AD5306818
:1058600000F03AF832685061002106F13C003163E3
:10587000202242708170426842F00402426001704E
:105880001DE030688169394089B2B8B28142E2D105
:10589000002015E014F1010FD3D000F067FDA0EB5C
:1058A0000800844201D3002CCBD1E9B23068012931
:1058B00008D1406900F00BF8C6D000F015F80120BF
:1058C000BDE8F081806900F002F8DAD0F5E73840F1
:1058D00080B2B9B2884270470268014642F4007251
:1058E0000A606FF48060704700203063202106F169
:1058F0003C00002241708270416841F0200141600B
:105900000270704770B505460C4616462868416916
:10591000080617D4284600F071F818B914F1010FE1
:10592000F4D001E0012070BD00F020FD801B844216
:1059300001D3002CEAD1286841690806E6D400F0BA
:1059400025F8EFE7002070BD70B505460C461646F9
:1059500028684169480717D4284600F04FF818B95D
:1059600014F1010FF4D001E0012070BD00F0FEFC45
:10597000801B844201D3002CEAD128684169480782
:10598000E6D400F003F8EFE7002070BD002105F138
:105990003C002963202242708170426842F020025C
:1059A00042600170704770B505460C46164628687F
:1059B00041694A0620D44169CA060FD56FF010012B
:1059C000416100202863202105F13C000022417044
:1059D0008270416841600270012070BD00F0C6FC19
:1059E000801B844201D3002CE1D12868416948061C
:1059F000DDD4FFF7CBFFEFE7002070BD10B50168E5
:105A00004A6953050DD56FF480644C610021016330
:105A10003C30202343708170436843F004034360AB
:105A2000017012F4806018BF0120C0B210BD0000E8
:105A300038B5040001D1012032BD606A28B900F0F8
:105A4000EDF805D00021E16102E0002020616061F5
:105A50000020A06204F15005687820B90021297067
:105A60002046FEF7E4FA0220687000F08BF96068C7
:105A7000A168E26800F4827001F404410843217CCB
:105A800002F400621043227D01F002010843A16983
:105A900002F001021043227F01F40071084394F8E0
:105AA000201002F038021043A26A01F0800108437E
:105AB000216802F4005210430860A0692168000CBC
:105AC00000F0040048602068C16921F40061C161F0
:105AD000002068600121697032BD2DE9F843054658
