:020000040800F2
:10000000581B0020C5A00008919F0008939F00087E
:10001000959F0008979F0008999F00080000000026
:100020000000000000000000000000009B9F00088E
:100030009D9F0008000000009F9F0008A19F0008EE
:10004000DDA00008E1A00008E5A00008E9A0000884
:10005000EDA00008F1A00008F5A00008F9A0000834
:10006000FDA0000801A1000805A1000809A10008E1
:100070000DA1000811A1000815A1000819A1000890
:100080001DA1000821A1000825A1000829A1000840
:10009000A59F00082DA1000831A1000835A1000886
:1000A00039A100083DA1000841A1000845A10008B0
:1000B00049A100084DA1000851A10008AB9F00080C
:1000C00055A1000859A100085DA10008B19F0008D2
:1000D000B79F000861A1000865A1000869A1000898
:1000E0006DA1000871A1000875A1000807000000BB
:1000F00000000000070000000100000007000000F1
:1001000002000000070000000300000007000000DC
:1001100004000000070000000500000007000000C8
:1001200006000000070000000700000006000000B5
:1001300000000000060000000100000006000000B2
:10014000020000000600000003000000060000009E
:10015000040000000600000005000000060000008A
:100160000600000006000000070000000500000077
:100170000000000005000000010000000500000074
:100180000200000005000000030000000500000060
:10019000040000000500000005000000050000004C
:1001A0000600000005000000070000000400000039
:1001B0000000000004000000010000000400000036
:1001C0000200000004000000030000000400000022
:1001D000040000000400000005000000040000000E
:1001E00006000000040000000700000003000000FB
:1001F00000000000030000000100000003000000F8
:1002000002000000030000000300000003000000E3
:1002100004000000030000000500000003000000CF
:1002200006000000030000000700000002000000BC
:1002300000000000020000000100000002000000B9
:1002400002000000020000000300000002000000A5
:100250000400000002000000050000000200000091
:10026000060000000200000007000000010000007E
:10027000000000000100000001000000010000007B
:100280000200000001000000030000000100000067
:100290000400000001000000050000000100000053
:1002A0000600000001000000070000000000000040
:1002B000000000000000000001000000000000003D
:1002C0000200000000000000030000000000000029
:1002D0000400000000000000050000000000000015
:1002E00006000000000000000700000007000000FA
:1002F00007000000060000000700000007000000E3
:1003000006000000060000000600000005000000D6
:1003100007000000070000000500000005000000C5
:1003200006000000060000000500000004000000B8
:1003300007000000070000000400000005000000A6
:100340000500000004000000060000000600000098
:100350000400000003000000070000000700000088
:10036000030000000400000005000000050000007C
:10037000040000000300000006000000060000006A
:10038000030000000200000007000000070000005A
:100390000200000004000000040000000300000050
:1003A000050000000500000003000000020000003E
:1003B000060000000600000002000000010000002E
:1003C000070000000700000001000000030000001B
:1003D0000400000004000000030000000200000010
:1003E0000500000005000000020000000100000000
:1003F00006000000060000000100000000000000F0
:1004000007000000070000000000000003000000DB
:1004100003000000020000000400000004000000CF
:1004200002000000010000000500000005000000BF
:1004300001000000000000000600000006000000AF
:1004400000000000020000000300000003000000A4
:100450000200000001000000040000000400000091
:100460000100000000000000050000000500000081
:100470000000000002000000020000000100000077
:100480000300000003000000010000000000000065
:100490000400000004000000000000000100000053
:1004A0000200000002000000010000000000000047
:1004B0000300000003000000000000000100000035
:1004C0000100000000000000020000000200000027
:1004D000000000000000000001000000010000001A
:1004E0000000000000000000000000000700000005
:1004F00007000000060000000700000007000000E1
:1005000006000000050000000700000006000000D3
:1005100006000000070000000500000004000000C5
:1005200007000000050000000600000006000000B3
:1005300005000000070000000400000003000000A8
:100540000700000004000000060000000500000095
:100550000500000006000000040000000700000085
:10056000030000000200000007000000030000007C
:100570000600000004000000050000000500000067
:100580000400000006000000030000000700000057
:10059000020000000100000007000000020000004F
:1005A0000600000003000000050000000400000039
:1005B0000400000005000000030000000600000029
:1005C0000200000007000000010000000000000021
:1005D000070000000100000006000000020000000B
:1005E00005000000030000000400000004000000FB
:1005F00003000000050000000200000006000000EB
:1006000001000000070000000000000000000000E2
:1006100006000000010000000500000002000000CC
:1006200004000000030000000300000004000000BC
:1006300002000000050000000100000006000000AC
:1006400000000000000000000500000001000000A4
:10065000040000000200000003000000030000008E
:10066000020000000400000001000000050000007E
:100670000000000000000000040000000100000075
:100680000300000002000000020000000300000060
:100690000100000004000000000000000000000055
:1006A0000300000001000000020000000200000042
:1006B0000100000003000000000000000000000036
:1006C0000200000001000000010000000200000024
:1006D0000000000000000000010000000100000018
:1006E000000000000000000000000000000000000A
:1006F00007000000010000000700000002000000E9
:1007000007000000030000000700000004000000D4
:1007100007000000050000000700000006000000C0
:1007200007000000070000000700000000000000B4
:1007300006000000010000000600000002000000AA
:100740000600000003000000060000000400000096
:100750000600000005000000060000000600000082
:100760000600000007000000060000000000000076
:10077000050000000100000005000000020000006C
:100780000500000003000000050000000400000058
:100790000500000005000000050000000600000044
:1007A0000500000007000000050000000000000038
:1007B000040000000100000004000000020000002E
:1007C000040000000300000004000000040000001A
:1007D0000400000005000000040000000600000006
:1007E00004000000070000000400000000000000FA
:1007F00003000000010000000300000002000000F0
:1008000003000000030000000300000004000000DB
:1008100003000000050000000300000006000000C7
:1008200003000000070000000300000000000000BB
:1008300002000000010000000200000002000000B1
:10084000020000000300000002000000040000009D
:100850000200000005000000020000000600000089
:10086000020000000700000002000000000000007D
:100870000100000001000000010000000200000073
:10088000010000000300000001000000040000005F
:10089000010000000500000001000000060000004B
:1008A000010000000700000001000000000000003F
:1008B0000000000001000000000000000200000035
:1008C0000000000003000000000000000400000021
:1008D000000000000500000000000000060000000D
:1008E0000000000007000000000000000000000001
:1008F00007000000010000000700000000000000E9
:1009000006000000010000000600000002000000D8
:1009100007000000000000000500000002000000C9
:1009200006000000010000000500000003000000B8
:1009300007000000000000000400000002000000AA
:100940000500000003000000060000000100000098
:100950000400000004000000070000000000000088
:10096000030000000300000005000000020000007A
:100970000400000004000000060000000100000068
:100980000300000005000000070000000000000058
:10099000020000000300000004000000040000004A
:1009A0000500000002000000030000000500000038
:1009B0000600000001000000020000000600000028
:1009C000070000000000000001000000040000001B
:1009D0000400000003000000030000000600000007
:1009E00006000000050000000500000002000000F5
:1009F00002000000010000000100000007000000EC
:100A000007000000000000000000000004000000DB
:100A100003000000050000000400000003000000C7
:100A200002000000060000000500000002000000B7
:100A300001000000070000000600000001000000A7
:100A4000000000000500000003000000040000009A
:100A50000200000006000000040000000300000087
:100A60000100000007000000050000000200000077
:100A70000000000005000000020000000600000069
:100A80000300000004000000010000000700000057
:100A90000400000003000000000000000600000049
:100AA0000200000005000000010000000700000037
:100AB0000300000004000000000000000600000029
:100AC0000100000007000000020000000500000017
:100AD0000000000007000000010000000600000008
:100AE00000000000070000000000000000000000FF
:100AF00007000000010000000700000000000000E7
:100B000006000000020000000700000001000000D5
:100B100006000000000000000500000003000000C7
:100B200007000000020000000600000001000000B5
:100B300005000000000000000400000004000000A8
:100B40000700000003000000060000000200000093
:100B5000050000000100000004000000000000008B
:100B60000300000005000000070000000400000072
:100B70000600000003000000050000000200000065
:100B8000040000000100000003000000000000005D
:100B90000200000006000000070000000500000041
:100BA0000600000004000000050000000300000033
:100BB000040000000200000003000000010000002B
:100BC000020000000000000001000000070000001B
:100BD00007000000060000000600000005000000FD
:100BE00005000000040000000400000003000000F5
:100BF00003000000020000000200000001000000ED
:100C000001000000000000000000000007000000DC
:100C100006000000060000000500000005000000BE
:100C200004000000040000000300000003000000B6
:100C300002000000020000000100000001000000AE
:100C40000000000007000000050000000600000092
:100C50000400000005000000030000000400000084
:100C6000020000000300000001000000020000007C
:100C70000000000007000000040000000600000063
:100C80000300000005000000020000000400000056
:100C90000100000003000000000000000700000049
:100CA0000300000006000000020000000500000034
:100CB0000100000004000000000000000700000028
:100CC0000200000006000000010000000500000016
:100CD0000000000007000000010000000600000006
:100CE00000000000070000000000000000000000FD
:100CF00000000000000000000100000000000000F3
:100D000002000000000000000300000000000000DE
:100D100004000000000000000500000000000000CA
:100D200006000000000000000700000001000000B5
:100D300000000000010000000100000001000000B0
:100D4000020000000100000003000000010000009C
:100D50000400000001000000050000000100000088
:100D60000600000001000000070000000200000073
:100D7000000000000200000001000000020000006E
:100D8000020000000200000003000000020000005A
:100D90000400000002000000050000000200000046
:100DA0000600000002000000070000000300000031
:100DB000000000000300000001000000030000002C
:100DC0000200000003000000030000000300000018
:100DD0000400000003000000050000000300000004
:100DE00006000000030000000700000004000000EF
:100DF00000000000040000000100000004000000EA
:100E000002000000040000000300000004000000D5
:100E100004000000040000000500000004000000C1
:100E200006000000040000000700000005000000AC
:100E300000000000050000000100000005000000A7
:100E40000200000005000000030000000500000093
:100E5000040000000500000005000000050000007F
:100E6000060000000500000007000000060000006A
:100E70000000000006000000010000000600000065
:100E80000200000006000000030000000600000051
:100E9000040000000600000005000000060000003D
:100EA0000600000006000000070000000700000028
:100EB0000000000007000000010000000700000023
:100EC000020000000700000003000000070000000F
:100ED00004000000070000000500000007000000FB
:100EE00006000000070000000700000000000000EE
:100EF00000000000000000000100000001000000F0
:100F000000000000010000000100000000000000DF
:100F100002000000020000000000000001000000CC
:100F200002000000020000000100000000000000BC
:100F300003000000030000000000000002000000A9
:100F40000200000001000000030000000300000098
:100F50000100000000000000040000000400000088
:100F60000000000002000000030000000300000079
:100F70000200000001000000040000000400000066
:100F80000100000000000000050000000500000056
:100F90000000000003000000030000000200000049
:100FA0000400000004000000020000000100000036
:100FB0000500000005000000010000000000000026
:100FC0000600000006000000000000000300000012
:100FD0000400000004000000030000000200000004
:100FE00005000000050000000200000001000000F4
:100FF00006000000060000000100000000000000E4
:1010000007000000070000000000000004000000CE
:1010100004000000030000000500000005000000BF
:1010200003000000020000000600000006000000AF
:10103000020000000100000007000000070000009F
:101040000100000004000000050000000500000091
:10105000040000000300000006000000060000007D
:10106000030000000200000007000000070000006D
:101070000200000005000000050000000400000060
:10108000060000000600000004000000030000004D
:10109000070000000700000003000000050000003A
:1010A000060000000600000005000000040000002B
:1010B0000700000007000000040000000600000018
:1010C0000600000005000000070000000700000007
:1010D00005000000060000000700000007000000F7
:1010E00006000000070000000700000000000000EC
:1010F00000000000010000000000000000000000EF
:1011000001000000020000000000000001000000DB
:1011100001000000000000000200000003000000C9
:1011200000000000020000000100000001000000BB
:1011300002000000000000000300000004000000A6
:101140000000000003000000010000000200000099
:101150000200000001000000030000000000000089
:101160000400000005000000000000000400000072
:101170000100000003000000020000000200000067
:101180000300000001000000040000000000000057
:10119000050000000600000000000000050000003F
:1011A0000100000004000000020000000300000035
:1011B0000300000002000000040000000100000025
:1011C000050000000000000006000000070000000D
:1011D0000000000006000000010000000500000003
:1011E00002000000040000000300000003000000F3
:1011F00004000000020000000500000001000000E3
:1012000006000000000000000700000007000000CA
:1012100001000000060000000200000005000000C0
:1012200003000000040000000400000003000000B0
:1012300005000000020000000600000001000000A0
:101240000700000007000000020000000600000088
:10125000030000000500000004000000040000007E
:10126000050000000300000006000000020000006E
:101270000700000007000000030000000600000057
:10128000040000000500000005000000040000004C
:101290000600000003000000070000000700000037
:1012A000040000000600000005000000050000002A
:1012B0000600000004000000070000000700000016
:1012C0000500000006000000060000000500000008
:1012D00007000000070000000600000006000000F4
:1012E00007000000070000000700000000000000E9
:1012F00000000000010000000000000002000000EB
:1013000000000000030000000000000004000000D6
:1013100000000000050000000000000006000000C2
:1013200000000000070000000000000000000000B6
:1013300001000000010000000100000002000000A8
:101340000100000003000000010000000400000094
:101350000100000005000000010000000600000080
:101360000100000007000000010000000000000074
:101370000200000001000000020000000200000066
:101380000200000003000000020000000400000052
:10139000020000000500000002000000060000003E
:1013A0000200000007000000020000000000000032
:1013B0000300000001000000030000000200000024
:1013C0000300000003000000030000000400000010
:1013D00003000000050000000300000006000000FC
:1013E00003000000070000000300000000000000F0
:1013F00004000000010000000400000002000000E2
:1014000004000000030000000400000004000000CD
:1014100004000000050000000400000006000000B9
:1014200004000000070000000400000000000000AD
:10143000050000000100000005000000020000009F
:10144000050000000300000005000000040000008B
:101450000500000005000000050000000600000077
:10146000050000000700000005000000000000006B
:10147000060000000100000006000000020000005D
:101480000600000003000000060000000400000049
:101490000600000005000000060000000600000035
:1014A0000600000007000000060000000000000029
:1014B000070000000100000007000000020000001B
:1014C0000700000003000000070000000400000007
:1014D00007000000050000000700000006000000F3
:1014E00007000000070000000700000007000000E0
:1014F00000000000060000000000000007000000DF
:1015000001000000060000000100000005000000CE
:1015100000000000070000000200000005000000BD
:1015200001000000060000000200000004000000AE
:10153000000000000700000003000000050000009C
:10154000020000000400000001000000060000008E
:10155000030000000300000000000000070000007E
:10156000040000000400000002000000050000006C
:10157000030000000300000001000000060000005E
:10158000040000000200000000000000070000004E
:10159000050000000400000003000000030000003C
:1015A000020000000500000004000000020000002E
:1015B000010000000600000005000000010000001E
:1015C000000000000700000006000000030000000B
:1015D00003000000040000000400000005000000FB
:1015E00005000000060000000600000001000000E9
:1015F00001000000020000000200000000000000E6
:1016000000000000070000000700000003000000C9
:1016100004000000020000000300000004000000BD
:1016200005000000010000000200000005000000AD
:10163000060000000000000001000000060000009D
:10164000070000000200000004000000030000008A
:10165000050000000100000003000000040000007D
:10166000060000000000000002000000050000006D
:10167000070000000200000005000000010000005B
:10168000040000000300000006000000000000004D
:10169000030000000400000007000000010000003B
:1016A000050000000200000006000000000000002D
:1016B000040000000300000007000000010000001B
:1016C000060000000000000005000000020000000D
:1016D00007000000000000000600000001000000FC
:1016E00007000000000000000700000007000000E5
:1016F00000000000060000000000000007000000DD
:1017000001000000050000000000000006000000CD
:1017100001000000070000000200000004000000BB
:1017200000000000050000000100000006000000AD
:10173000020000000700000003000000030000009A
:10174000000000000400000001000000050000008F
:101750000200000006000000030000000700000077
:101760000400000002000000000000000300000070
:10177000010000000400000002000000050000005D
:101780000300000006000000040000000700000045
:101790000500000001000000000000000200000041
:1017A000010000000300000002000000040000002F
:1017B0000300000005000000040000000600000017
:1017C0000500000007000000060000000000000007
:1017D0000000000001000000010000000200000005
:1017E00002000000030000000300000004000000ED
:1017F00004000000050000000500000006000000D5
:1018000006000000070000000700000000000000C4
:1018100001000000010000000200000002000000C2
:1018200003000000030000000400000004000000AA
:101830000500000005000000060000000600000092
:10184000070000000000000002000000010000008E
:10185000030000000200000004000000030000007C
:101860000500000004000000060000000500000064
:10187000070000000000000003000000010000005D
:10188000040000000200000005000000030000004A
:101890000600000004000000070000000000000037
:1018A000040000000100000005000000020000002C
:1018B0000600000003000000070000000000000018
:1018C000050000000100000006000000020000000A
:1018D00007000000000000000600000001000000FA
:1018E000070000000000000007000000F8B5040039
:1018F00025D004F13C05697821B9002028702046E4
:1019000001F072FA242169702068026852085200BE
:1019100002602068016841F40041016020680268AB
:1019200022F40042026001F0C8FC01466068DFF862
:101930005021904205D2DFF84C31994205D2012066
:10194000F2BDDFF844018142F9D32068DFF83C3171
:101950004668B1FBF3F3B60943EA8616466026688B
:10196000376A6068904206D34FF4967043434FF451
:101970007A70B3FBF0F35B1CBF0943EA8713336251
:10198000491E2368DE696768974206D27F0000F02F
:1019900044F8042913D2042111E0A06820B907EB10
:1019A000470700F03AF805E01920474300F035F802
:1019B00041F4804108050CBF012141F40041DFF8EA
:1019C000B40106400E43DE6122681368E169206AB3
:1019D00023F0C0030B43034313602268DFF8CC01FC
:1019E000936821690340E0680B43034393602268D6
:1019F000D368A16960691B0A41EA03230343D360EA
:101A00002068016841F00101016000206860202128
:101A1000697020630021A970F2BDB1FBF7F1491C88
:101A2000C1F30B017047006841690A0644BF0021F9
:101A30000161704772B62068016841F4007101606D
:101A4000704732462946204601F033B92A46DFF86E
:101A50000C14204601F074B841F48061016000204C
:101A6000009021684A690092896900910098704746
:101A7000202078700021B970002038707047000075
:101A8000A186010080841E0000093D0040420F0035
:101A90002DE9FC47064600F08BF800F073F865D19D
:101AA000009400F07DF8304601F016F800285DD172
:101AB000387801285AD000F080F84146D6F800E086
:101AC0000C9D0B98DDF828C0DEF8008028F4006833
:101AD000CEF800804FF0210E87F801E04FF040086B
:101AE00087F802804FF0000EC7F804E0C6F824C063
:101AF00070855346708DDFF860C33085C6F82CC002
:101B00004A4601940095304600F0B7FE002826D1E1
:101B100006E0716A0A78026100F03AF8411E7185A8
:101B2000308D88B122462946304601F071F888B9D7
:101B3000706A32680178116100F02AF800F01CF830
:101B4000EED589B20029E4D122462946304601F07B
:101B500081F830B17868042801D100F04BFF0120F2
:101B600005E000F047FFFFF783FF00E00220BDE83B
:101B7000F68700000030FFFF421E72853068426920
:101B80005307704706F13C070446787820287047D1
:101B9000706A411C7162308D411E3185708D7047B5
:101BA00019230122DFF8E41270470000007CFFFFD8
:101BB000884691469A4601F0B5BB012139703068DC
:101BC0000268D10703D4026842F001020260704744
:101BD0002DE9FC47044600200090FFF7E9FF04F1DF
:101BE0003C0605467078202805D10095FFF7D8FF00
:101BF00000F005F9002840F0C1803078012800F09D
:101C0000BD800121317000F0E0F84146D4F800E0D9
:101C10000C9F0B98DDF828C0DEF8008028F40068DF
:101C2000CEF800804FF0220E86F801E04FF0400819
:101C300086F802804FF0000EC6F804E0C4F824C015
:101C400060855346608DDFF810C22085C4F82CC033
:101C50004A4601950097204600F05EFE00286ED1AE
:101C6000208D10B900F092F81FE0012802D100F099
:101C7000DAF805E002282068016805D100F0C2F812
:101C80000846026062B610E0FFF7E6FE0DE02A4665
:101C90003946FFF7D8FE002851D100F0C6FC208D50
:101CA0006262411E218500F085F8208D00285ED0FB
:101CB00004284AD20128EAD00228324900953B463E
:101CC0000AD1002200F09BF8002838D1FFF7B2FEBD
:101CD00000F084F862B6E0E7002200F090F870BBF4
:101CE00000F06CF84FF47A7E20680169606A017038
:101CF000616A208D4A1C411E62622185608D224AE4
:101D0000411E618519211368B3FBF1F1B1FBFEFEA1
:101D1000232000FB0EFECDF800E000F097F820B184
:101D2000216848694107F8D50BE0206320217170D4
:101D3000B070716841F02001716062B630700120AE
:101D40001DE0206800F091F8C2E72A463946FFF707
:101D50007AFE0028F3D100F041F8206841694A0773
:101D6000A3D50069616A0870606A421C97E7202069
:101D700070700021B1700020307000E00220BDE8DA
:101D8000F687000004000100180000200090216880
:101D90004A69009289690091009821680A6808469A
:101DA00042F40072026070471069616A0870606AEC
:101DB000421C6262608D411E618570472068016827
:101DC00021F48061016072B6704720680268D10713
:101DD00003D4026842F00102026070472068016982
:101DE000606A0170616A208D4A1C411E6262218511
:101DF000608D411E6185704700224FF00111204621
:101E000000F06ABE41F40061016072B600200090EB
:101E100021684A69009289690091009821680A68DE
:101E200022F4806270472068016821F480610160BB
:101E300072B60020009021684A6900928969009179
:101E4000009821680A6842F4007270470098401EAA
:101E500000900098704700000000FFFF080001009C
:101E6000009021684A69009270470168024641F477
:101E700000711160704720680168CA0570473068BA
:101E8000016841F480710160704700000200100099
:101E9000416841F48051416070473068016841F405
:101EA0008061016070472DE9FC41044604F13C0566
:101EB0002268DFF81C6B5168E06AAF786B784FF0EE
:101EC000000C102F18BF402F40F05482D2F818C0D9
:101ED000D2F814E05FEACE7805D4B0F52A0F18BF27
:101EE000B0F12A4F47D05FEACE7045D5880543D57B
:101EF000E06AB0F52A0F08BF012104D0E06AB0F112
:101F00002A4F01D10821E162A878402809D16869E7
:101F10000028A8681ABF40F00100C0B200F0FE001F
:101F200028E02069B0F5804F16D168782128A8688C
:101F30000EBF00F0FE0040F00100C0B21061606B07
:101F400000281CBF806A00282AD1A06B00281CBF73
:101F5000806A00280FD023E0686920B900F00EFBEA
:101F600040F0F00006E06869012804D100F006FBAB
:101F700040F0F1001061FFE25FEA0E7015D58805B0
:101F800013D5A868C0B21061606B00281CBF806ABE
:101F9000002805D1A06B00281CBF806A0028EAD069
:101FA0002068416841F400613AE15FEA8E7000D533
:101FB000880540F1B780AB78E16A276B6878222802
:101FC00040F0A8806869002808BF402B04D1002198
:101FD00000F0E6FA009ACFE26869002804BF2069A1
:101FE000B0F5404F08D100F0EEFA40F48070106078
:101FF0006869401C6861BFE2608D28B900F0E3FAAF
:1020000040F40070106082E0608D012835D1B1424B
:1020100012D11146086820F4806010602168486879
:10202000020504D50846024600F0E0FA23E000224B
:1020300000924B6900930CE0082918BF202903D0B7
:10204000122F0CD101290FD000F0CFFA116000F04F
:1020500007FB89690091009800F0A8FA57E004296D
:102060001CBF0229102902D000F0BFFA03E010467D
:10207000016841F48061116047E0628D022A2FD12E
:1020800004291CBF0229102910D0206802680346C9
:1020900042F400621A600020009000F09FFA22686B
:1020A0001368104623F48063036009E02268136814
:1020B000104643F4806303600022009200F08EFA21
:1020C00020684268130522D5B14218BF012904D007
:1020D00008291CBF1029202919D1FFF7D9FE16E0C5
:1020E00020680268034642F480621A6020684268F1
:1020F00013050AD5B14218BF012904D008291CBF15
:102100001029202901D1FFF7C3FEFFF7A8FC002109
:10211000696131E200230093516900919269009254
:10212000009929E25FEA4C7C0EF004005FD5D2F8FA
:1021300004805FEA085CF4D45FEA0E6E48BF5FEA91
:10214000415C2AD5002828D16978AB78E76A208DD0
:10215000002808BF212913D1082F1CBF202FB74208
:1021600004D000F016FA0022AA702DE000F07EFAEA
:1021700030D10021A9702046BDE8F64101F0D8B861
:10218000212903D0402B08BF2229CAD1608D002805
:102190004AD0A878402826D0BCE10028C1D08805C4
:1021A000BFD5212B1DD1E16A6878212839D1608DF6
:1021B00008B100F0AFB908291CBF2029B14206D0F0
:1021C00000F0E7F90020A8702021697004E000F019
:1021D0004DFACED00021A9702046BDE8F64101F0AD
:1021E000A8B8402F1DD12046BDE8F6414EE2536805
:1021F0001E0516D45FEA4E636CD54E056AD50028DD
:1022000068D1687822280CD1608D04280AD3FFF7A2
:10221000CBFD608D032804D12068416821F48061E2
:102220004160A9E1E16A022951D0012818BF0028C4
:102230004DD10020DFF89818009019200B68B3FBEF
:10224000F0F04FF47A76B0FBF6F606EB86060096D1
:102250002146FFF7FBFD20B10B6818688405F8D410
:102260001AE0686840F020006860506820F4E06080
:1022700050600A6810694A6A1070486A431C4B62D1
:102280002023488D421E4A856B700020A8700846A6
:10229000BDE8F64101F04EB818460C46016802460A
:1022A00021F48061116000F0D3FA00F0CBF9202214
:1022B000FFF780FD6A70A878402852D10021A970EC
:1022C000002020632046BDE8F64101F034B800F05C
:1022D0005BF951E10028FCD08805FAD5E06A618DF0
:1022E000042904D100F050F9216808693DE1618DAD
:1022F00003290CD1516821F480615160042818BF72
:10230000022801D000F098F900F08FF931E1618DD9
:10231000022940F02981012818BF10280DD0042877
:1023200018BF022804D01046016841F4007106E08D
:102330001046016841F4806101E000F056F9116037
:1023400000F080F9FFF736FD2268FFF72DFD2068C9
:10235000416821F44071416020206870A9784029CB
:10236000ACD00020A870122121632046BDE8F641C0
:1023700000F0E2BF686808B9D2F818C05769B8071A
:1023800025D5880523D5686808B1D2F818C06878C3
:10239000002100F02800282813D100F0F5F85FEAAA
:1023A0004C7058BF01215FEA0C6054BFE268A2691B
:1023B0000020287002B02046BDE8F04192B200F043
:1023C000BCBF00F0EDF80021009A2970D4E0F806B7
:1023D00074D5880572D56F78506820F4E06050603D
:1023E00000210091206841690091206800F002F905
:1023F00000F022F921684868020528D50FF201682B
:10240000222F18BF2A2F10D0606B00F0FAF8606BF3
:1024100000F0F0FF01281AD0606BC0F83480606BC8
:1024200000F08CFF98B1606B0FE0A06B00F0E9F852
:10243000A06B00F0DFFF012809D0A06BC0F834804A
:10244000A06B00F07BFF10B1A06B416B8847608DE3
:1024500098B1206841694A0702D50069FFF7A5FCD9
:10246000206841694A0602D50069FFF79EFC608D2D
:1024700018B1686840F004006860686818B12046C8
:10248000BDE8F64160E12A2F05D12063282169705B
:10249000204600F0B2FF6878282807D1E66200F0F5
:1024A000D9F82046BDE8F64100F0A8BF206B2228ED
:1024B00018BF222F60D100F0CDF84BE007F00400E8
:1024C000212B18BF292B2CD13B061CD54E051AD524
:1024D000C8B96978608D00284ED0606A03781361AE
:1024E000606A421C626200F068F808BF292943D183
:1024F00000F095F821202063282169702046BDE86E
:10250000F64100F07CBF002836D0890534D5608DB7
:10251000002831D0606A01781161606A411C6162F3
:1025200028E07B061BD54E0519D5C0B96978608DAA
:1025300010B31069626A1070606A431C636200F035
:102540003CF808BF2A2917D100F069F8222020633F
:10255000282169702046BDE8F64100F04EBF58B111
:10256000890509D5608D38B11069616A0870606AA3
:10257000421C6262FFF71EFCBDE8F381A8680004FC
:10258000C00D00F006007047506820F48060506075
:102590007047506820F4E06050601121216370475B
:1025A00000915369009391690091704721680A680E
:1025B000084642F4007202607047608D421E6285D8
:1025C000608D002870470021009153690093916944
:1025D0000091009A216808680A467047226853698A
:1025E000009392690092009870471046016821F4A8
:1025F000806170470268014642F001020A6000985B
:102600007047026853686385608D18B1686840F050
:1026100004006860486820F40060486070472068E3
:10262000416821F480614160704720680169606AF7
:102630000170616A4A1C70472068016821F480615A
:102640000160704720680169606A0170616A4A1C14
:10265000626270470020206320216970A870704773
:102660000020009021684A6900927047506820F469
:10267000E06050602068016841F400710160002052
:10268000206320216970A8784028704710B500F1B8
:102690003D0300F148021C78916889B900685168CF
:1026A000012905D11368DBB203619068801C05E045
:1026B00011680904090E01619068401C906010BD0A
:1026C0009168012904D113680068DBB203610AE054
:1026D0009168022933D1222C09D101680B68084680
:1026E00043F4807303609168491C916010BD418D73
:1026F00061B1212C0AD1416A03680A781A61416AE2
:102700004A1C4262418D4A1E428510BD418D0029FE
:1027100008BF212C17D101684A6822F4E0624A60A0
:10272000002401680A6842F400720A600021016313
:1027300020221A705C70BDE8104000F0F9BDBDE8C1
:102740001040FFF770B910BD38B5044604F13D05DF
:1027500028786978102914BF4029222804D12168DB
:102760000A6822F400620A6000F02801282903D1D7
:102770000020206329700BE0226851680A0505D407
:10278000602803D020202870002169700020206379
:10279000206841680A0523D5416821F40061416041
:1027A000606B0FF25D2190F82120012A09D041636E
:1027B000606B00F0C3FD002825D000F056F8606B78
:1027C0000BE0A06B4163A06B00F0B8FDD8B12068AE
:1027D00000F034F800F049F8A06B416B884712E034
:1027E0002A78602A0AD1202129700022226400F070
:1027F00025F800F033F800F003FE04E000F01EF8C6
:10280000204600F097FD206C10F00F0F01D000F073
:102810001FF82878216C4A070ED528280CD16C485F
:10282000E062002121632020287000226A70204687
:10283000BDE8324000F0E2BD31BD000041694A060A
:1028400005D50069616A0870606A421C626270475F
:102850002068416821F4E0614160704720680168A8
:10286000490849000160204670472068016849080E
:10287000490001602020287070472DE9F843044684
:102880002068DDF82080099FD0F800C04CF4807CDF
:10289000894615461E46C0F800C000974346FFF71C
:1028A000ABFA38B1FFF7E7FA44BF4FF40070206489
:1028B000032026E02068DFF81C1209F0FE09C0F8AA
:1028C00010903B464246FFF7C4F8A0B9FFF7C8FA9C
:1028D00000F019F800F01EF840B9012E0DD0216863
:1028E000280A08613A4600F014F830B1206C042838
:1028F00001D1FFF7A0F8012003E02068EDB20561E7
:102900000020BDE8F2833A4689690091414600986B
:102910007047414620467BE12DE9F84F054628687F
:10292000DDF828800B9F0C46FFF7B8FA164628689A
:10293000D0F800C04CF4807C9946C0F800C000F08C
:1029400052F800284FF4007A2ED12968DFF884B1BC
:1029500004F0FE00086100F041F8002834D1009036
:1029600029684A690092FFF7CEFF00F035F870B988
:10297000B9F1010F05D02968300A086100F02AF882
:1029800028B92868F6B2066100F024F830B1286C46
:10299000042819D1286800F02EF815E02868FFF700
:1029A0006FFA00F020F838B128680168CA0548BFFE
:1029B000C5F840A0032008E0286844F00104E4B210
:1029C000046100F00BF800B10120BDE8F28F0000B7
:1029D0000000FFFF3A464146284619E13B46424681
:1029E00059462846ACE00097434600224FF00111BB
:1029F000284671E03068016841F400710160704759
:102A00007CB5002100911925416A314801F13D0250
:102A10004FF47A7613780468B4FBF5F5B5FBF6F657
:102A2000232046430096009838B10098401E00903D
:102A30000C6820688505F6D403E0086C40F020009F
:102A40000864486B08B100248462886B08B10024D4
:102A500084620868046824F4806404600020488567
:102A6000486B08B100244463886B08B100244463B8
:102A700008680468640864000460107860280AD15B
:102A8000202313700024547000220A640846BDE815
:102A9000764000F0B5BC03F02803282B0ED108685F
:102AA000036843F00103036028230868046844F4C2
:102AB0008064046000200863137003E0202010701D
:102AC000002454700846BDE8764000F033BC000096
:102AD00018000020020001002DE9F8430F46089C71
:102AE0000646904699463D0C3068E9B201290CBF74
:102AF0004069806900F071F80CBF0120002040455A
:102B00001CD119F1010FEFD000F00CFC001B814526
:102B100002D3B9F1000FE7D13068E9B201290CBF47
:102B20004069806900F059F80CBF01200020404541
:102B3000DAD100F05FF80120BDE8F2830020FBE766
:102B40002DE9F0410F460646144698463D0CE8B282
:102B500001281CD130684169394089B2B8B281423C
:102B60001CD03168486941051AD5306800F03AF840
:102B700032685061002106F13C003163202242702E
:102B80008170426842F00402426001701DE03068CA
:102B90008169394089B2B8B28142E2D1002015E0A2
:102BA00014F1010FD3D000F0BDFBA0EB080084426C
:102BB00001D3002CCBD1E9B23068012908D140699A
:102BC00000F00BF8C6D000F015F80120BDE8F08148
:102BD000806900F002F8DAD0F5E7384080B2B9B287
:102BE000884270470268014642F400720A606FF43E
:102BF0008060704700203063202106F13C000022F5
:102C000041708270416841F020014160027070475C
:102C100070B505460C46164628684169080617D463
:102C2000284600F071F818B914F1010FF4D001E052
:102C3000012070BD00F076FB801B844201D3002C84
:102C4000EAD1286841690806E6D400F025F8EFE7E4
:102C5000002070BD70B505460C46164628684169CF
:102C6000480717D4284600F04FF818B914F1010F9F
:102C7000F4D001E0012070BD00F054FB801B8442C1
:102C800001D3002CEAD1286841694807E6D400F056
:102C900003F8EFE7002070BD002105F13C00296337
:102CA000202242708170426842F02002426001702E
:102CB000704770B505460C461646286841694A06B5
:102CC00020D44169CA060FD56FF010014161002080
:102CD0002863202105F13C00002241708270416888
:102CE00041600270012070BD00F01CFB801B84421B
:102CF00001D3002CE1D1286841694806DDD4FFF7F3
:102D0000CBFFEFE7002070BD10B501684A6953059D
:102D10000DD56FF480644C61002101633C302023A9
:102D200043708170436843F004034360017012F400
:102D3000806018BF0120C0B210BDF0B40246106818
:102D400095681318506803EB5004C00748BF4D4402
:102D5000A3422DD013F8016B16F0030004BF13F843
:102D6000010BC01C31090F2907D113F8011B0F31CA
:102D700003E013F8017B05F8017B401EF9D100291F
:102D8000E6D013F8010BC6F38106032E08BF13F833
:102D9000016B00EB0620404228440026B71E8F42FC
:102DA0001EBF10F8017B05F8017B761CF6D1CFE73A
:102DB000F0BC02F10C007047254A2648264980B530
:102DC000426000234FF4804201608360C36002616F
:102DD00043618361C3610362FEF788FD18B1BDE8FA
:102DE000014000F060BC01BD18B585B0044610225A
:102DF000002101A800F064FC21681748814224D119
:102E0000164C216841F008012160C021206800F0C3
:102E100008000090122200981148019102920121AD
:102E2000049101A900F056FC606840F40010606055
:102E30000022606800F400100090002100981F201C
:102E400000F056FD1F2000F070FD06B010BD000020
:102E5000801A0600B81500200054004018100240E7
:102E6000000C01402DE9F843040016D02078DFF86B
:102E70007064C10713D5706800F00C00042807D0F7
:102E8000706800F00C00082841D17068C1033ED57D
:102E90003068810303D56068002800F064812078E1
:102EA000DFF84C74810719D5706810F00C0F07D04B
:102EB000706800F00C00082861D17068C1035ED40E
:102EC0003068810703D52069012840F04C813168C2
:102ED000606921F0F80141EAC001316021780807FA
:102EE00040F18180A069DFF80C14002800F0A68072
:102EF00001220A6000F016FA0546706A810763D461
:102F000000F010FA401B0228F7D903202EE1606878
:102F1000B0F5803F04D1306840F48030306014E078
:102F200008B930680AE0B0F5A02F306806D140F447
:102F300080203060316841F4803105E020F4803039
:102F40003060316821F480213160606858B100F050
:102F5000E9F9054630688103A1D400F0E3F9401B8C
:102F60006528F7D3D1E700F0DDF905463068810325
:102F700095D500F0D7F9401B6528F7D3C5E7206940
:102F8000A8B10121396000F0CDF90546306881070C
:102F900005D400F0C7F9401B0228F7D9B5E730681F
:102FA000616920F0F80040EAC100306096E73860BF
:102FB00000F0B8F90546316888078FD500F0B2F9FE
:102FC000401B0228F7D9A0E7DFF818030168C908F9
:102FD0004FF47A72B1FBF2F2009200BF0098411EEA
:102FE00000280091F9D1207841076ED5F0690025BD
:102FF000C10009D4F06940F08050F0610125F0690A
:1030000000F0805000900098DFF8EC82D8F80000C3
:10301000C10520D4D8F8000040F48070C8F8000042
:1030200000F080F98146D8F80000C10513D400F003
:1030300079F9A0EB09006528F5D366E7086000F090
:1030400071F90546706A8107CDD500F06BF9401B18
:103050000228F7D959E7E068012808D008B9306A92
:1030600009E00528306A06D140F004003062306A79
:1030700040F0010005E0400840003062306A20F076
:103080000400306241F28938E06860B100F04AF92A
:103090008146306A810713D400F044F9A0EB09009F
:1030A0004045F6D331E700F03DF98146306A8107AB
:1030B00006D500F037F9A0EB09004045F6D324E728
:1030C0001DB1F06920F08050F061E06900284CD01B
:1030D000716801F00C01082938D002282AD100F0CB
:1030E00047F805463068810105D500F01BF9401B03
:1030F0000228F7D909E7206AB0F5803F05D1716849
:10310000A06821F40031014371607268206A616A2D
:1031100022F4741202430A437260012000F029F87D
:1031200004463068810120D400F0FCF8001B02281E
:10313000F7D9EAE600F01CF804463068810114D59E
:1031400000F0F0F8001B0228F7D9DEE601280AD0CB
:103150007068226A00F48031914202BF00F470105E
:10316000616A884201D0012000E00020BDE8F283BE
:103170000020386600F0D6B82DE9F04104008846FA
:103180004ED05E4E00F077F802D200F06FF847D1D3
:103190002068534D810712D5400703D5696841F473
:1031A000E06169602078010703D5686840F46050E9
:1031B00068606968A06821F0F001014369602178C6
:1031C000C80725D56068012802D129688A0303E071
:1031D0000228296802D18A0102D421E08A071FD57A
:1031E0006968890840EA8100686000F09BF807463A
:1031F0006868616800F00C00B0EB810F08D000F047
:1032000091F8C01B41F289318842F1D303202BE0B1
:10321000306800F00700804504D200F027F801D0A4
:10322000012021E02078410705D56A68E06822F492
:10323000E06202436A602178080706D56968206960
:1032400021F4605141EAC001696000F019F86A6830
:103250002B49244BC2F30312895CC84018602348F1
:10326000006800F08DFB0020BDE8F0813168C908DE
:1032700048EAC1013160306800F0070040457047FE
:10328000204919480A6802F00C03082B00D0704747
:1032900010B500BF1EA4C2F38343D203E35C08D57C
:1032A000096858431EA3C1F340415A5CB0FBF2F0D9
:1032B00010BD18461449484310BD0A48114A006819
:1032C00013681249C3F3022206E006480D4A00685B
:1032D00013680E49C3F3C222895CC84070470000DE
:1032E000001002401800002000127A001400002094
:1032F0000000424280044242007000400020024030
:103300003C9F00080410024000093D00D4A00008C2
:1033100002030405060708090A0B0C0D0E0F101016
:1033200001022E0001484068704700BF0C000020D9
:1033300070477047704770477047704738B590F8CE
:1033400021200024022A00F1340103D00420486027
:1033500001243EE00268136823F00E031360026844
:10336000DFF8743015686D086D00156002689A42C8
:1033700008BF012222D0DFF864309A4208BF102231
:103380001CD0DFF85C309A4208BF4FF4807215D031
:10339000DFF850309A4208BF4FF480520ED0DFF869
:1033A00048309A4208BF4FF4803207D0DFF83C30F3
:1033B0009A420CBF4FF480124FF08072DFF8303029
:1033C0001A60012280F8212080F82040096801B1AC
:1033D0008847204632BD0000080002401C00024021
:1033E0003000024044000240580002406C0002409D
:1033F0000400024090F82100704770477047704702
:10340000704700002DE9F04F89B000F0D9FA00F0C4
:1034100005F900F0E7FAFFF7CFFC00F03FFB00F002
:1034200049FB00F0D1FB00F025FC00F04DFC00F062
:10343000A3FC714D714CDFF8C88105F1900000F0DC
:10344000E7FC00F05FFD204600F0EEFD3221204653
:1034500000F00FFE204600F008FF80B201F047F8B0
:1034600001F06EF8642001F059F94FF07E5001F040
:10347000ADF86449644A049101921021ADF8181026
:103480004FF4805261490291ADF80C200446CDF80A
:10349000148004AB93E8070001F070F901AB93E8E6
:1034A000070001F06BF904A807C801F01EFA01A893
:1034B00007C801F01AFA002001F01FFA01F017F80E
:1034C00000200021002205F1400329541A54401C19
:1034D0004028FADB204601F0D2FA05F1940770B9D2
:1034E00000263968F0B288421AD200F091F80798A5
:1034F000089901EBC00101206854761CF1E7002611
:103500000AE000F085F80799089A05F1400002EBFF
:10351000C10201218154761C3A68F0B29042F0D386
:1035200000F0F7FC4FF07E5001F050F8064601F035
:10353000A6FA0446304601F0A8FA81460821082080
:10354000002C07BF05F1400BAA46AB4605F1400A27
:10355000401EF5D1491EF2D100964A463B68DBB2C7
:103560005146584601F02AFB0096C9F101093B6813
:10357000DBB25FFA89F25946504601F01FFB00208A
:1035800000210022002303EBC0042E5D9E40314445
:1035900005F14006345D9C40A2185B1C082BF2DB51
:1035A0002B18401C03F8801F08281A72E8DB05F16D
:1035B0008000009004A907C9002301F073F905F108
:1035C0008800009001A907C9002301F06BF900F001
:1035D000A6FC4FF47A71B0FBF1F4214633A001F060
:1035E00081FB786884423CBF001B01F097F80421FE
:1035F000404600F041F993E7E8130020EC16002064
:10360000000801400815002060150020000C014052
:1036100001232246F1B207A801F072B918B593B0A0
:10362000282109A801F072FB142104A801F06EFB07
:103630006846002100220023002480E81E000121AA
:1036400009910B924FF480310A91119101230222CA
:103650004FF480110D931092129109A8FFF702FC0C
:1036600008B100F020F8022105910F204FF480618D
:103670000490079106940894012104A8FFF77CFDAB
:1036800008B100F010F8122000904FF480414FF480
:10369000800202910392684601F03CFB08B100F001
:1036A00002F814B010BD72B6FEE70000636F6465E7
:1036B00052756E74696D653A25646D730A00000079
:1036C00010B5044610460A460146204601F0FCFBB0
:1036D000204610BD2DE9F8474FF0000E00246A4A3D
:1036E0006A4BDFF8AC814FF00F0982460DE0176896
:1036F0003840106007E0C2F804C04D68ED03F6D50D
:103700001068074317600EF1010E0F6837FA0EF0CC
:1037100000F0AC80012000FA0EFC0CEA07076745B8
:10372000F1D1486838B301281AD002281DD00328E7
:103730002ED0112816D012281AD0564DA8421CBFE0
:10374000554DA84217D0554DA8421CBF544DA84214
:1037500011D0544DA8421CBF534DA8420BD018E0C5
:10376000CC6816E0CC68241D13E0CC68083410E067
:10377000CC680C340DE0886808B9042409E00128FD
:1037800019BF0824CAF814C00824CAF810C000E001
:103790000024B7F5807F03D250464FEA8E0C05E037
:1037A000AEF108050AF104004FEA850C056809FA34
:1037B0000CF6B54304FA0CF646EA050CC0F800C056
:1037C0004868C0009FD5D8F8000040F00100C8F854
:1037D0000000D8F8005005F0010500954FEA8E056D
:1037E00000984FEA9E0053F8206005F00C0C09FA8F
:1037F0000CF526EA05052D4EB24508BF00260ED071
:103800002B4EB24508BF012609D02A4EB24508BF4B
:10381000022604D0284EB2450CBF0326042606FA21
:103820000CF646EA050C43F820C0F8434D68D2F880
:1038300008C0ED024CBF47EA0C0C00EA0C0CC2F8C1
:1038400008C04D68D2F80CC0AD024CBF47EA0C0C62
:1038500000EA0C0CC2F80CC04D68D2F804C0AD03ED
:103860004CBF47EA0C0C00EA0C0C44E7BDE8F187BA
:1038700002B9090401617047C26801EA0203914379
:1038800041EA034101617047000401400800014022
:10389000181002400000111000001210000021104A
:1038A000000022100000311000003210000801401A
:1038B000000C014000100140001401400901020009
:1038C00002D4284881547047274B02F00F021A4453
:1038D00002F8041C7047254B19684FF6FF020002DE
:1038E000114000F4E0600843214908431860704724
:1038F00070B51E4B1C68C4F302230124C3F10705F5
:10390000052D2EBF0F2504FA05F56D1E1E1D072E71
:1039100034BF0023DB1E2940994004FA03F3BDE8BD
:1039200070405B1E1A401143C8E7010007D4012212
:1039300000F01F010F4B8A40400943F820207047D8
:10394000401EB0F1807F01D3012070470A490B4A25
:1039500048600023F02010708B6007200860002072
:103960007047000000E400E018ED00E00CED00E01E
:103970000000FA0500E100E010E000E023ED00E0C7
:1039800038B50D4D0D4B2A7804464FF47A711868FE
:10399000B1FBF2F2B0FBF2F0FFF7D2FF50B9102CFE
:1039A00008D2002221464FF0FF30FFF7A1FFAC60A4
:1039B000002032BD012032BD0C0000201800002084
:1039C00080B50748016841F0100101600320FFF74E
:1039D00082FF0F20FFF7D4FF01F0AAFA002002BDFA
:1039E0000020024030B585B0102200216846FFF764
:1039F00067FE2148214D0168214C41F02001016002
:103A0000026802F0200204920499026842F0040263
:103A10000260036803F0040304930499026842F00F
:103A2000080202600022006800F0080004901421DF
:103A300004982846FFF71CFF00224FF480512046CF
:103A4000FFF716FF142100F01FF82846FFF742FE8B
:103A50004FF4805100F018F82046FFF73BFE4FF47A
:103A60008070084900900191002202926946204628
:103A7000FFF730FE05B030BD1810024000080140CD
:103A8000000C014000001110009101220192002160
:103A900002910222039269467047000080B54348B4
:103AA000434901604FF48272182100F00FF800B111
:103AB0001DE001BD80B53F483F4901604FF482726F
:103AC000102100F003F800B111E001BD4260C161B6
:103AD00000234FF400720A218360C36003614361D5
:103AE0008261036243628362C16201F043BABDE84E
:103AF0000140FFF7D8BD18B585B00446102200215B
:103B00006846FFF7DDFD206800F04BF81DD108681E
:103B100040F4805008600A6802F4805204920498CD
:103B20000A6842F004020A600222096801F00401F6
:103B30000491A0210498214800F02CF800220021D3
:103B40002320FFF7D5FE232020E01B4A90421FD1FF
:103B5000486840F480404860486800F48040049021
:103B600004980A6842F008020A600222096801F01B
:103B7000080104914FF420410498114800F00AF81C
:103B8000002200212420FFF7B3FE2420FFF7CDFE02
:103B900006B010BD00910192032103916946FFF721
:103BA00099BD034A0749904270470000081500205C
:103BB000003001406015002000380040000801403E
:103BC000000C01401810024080B5264826490160CB
:103BD0004FF4E13200230C2142608360C360036133
:103BE00041618361C36101F0E9FB18B1BDE80140A7
:103BF000FFF759BD01BD18B585B00446102200215C
:103C00006846FFF75DFD21681748814228D11748B3
:103C1000174C016841F480410160026802F480425F
:103C200004920499026842F0040202604FF40071A9
:103C3000006800F0040004900222049800910192B0
:103C40000321039120466946FFF744FD4FF480604D
:103C5000002100900191029120466946FFF73AFD4C
:103C600006B010BDA4160020003801401810024014
:103C70000008014010B5104C10490022204601F008
:103C8000B9FC08B1FFF70FFD0D49204601F0C5FC56
:103C900008B1FFF708FD0B49204601F00FFF08B1FE
:103CA000FFF701FD204601F0C0FC18B1BDE810404F
:103CB000FFF7F9BC10BD00BF040D00203C0100203F
:103CC000280000202C0100201FB50C22002168468E
:103CD000FFF7F6FC0021244CA16021734FF4602112
:103CE00022482060E161002020756060012121618F
:103CF000204600F01FF908B1FFF7D5FC0120009025
:103D00000190002202926946204600F0B1FA08B103
:103D1000FFF7C9FC1FBD18B585B00446102200216D
:103D200001A8FFF7CDFC2168104881421AD1104844
:103D3000016841F4007101600323026802F400721B
:103D400000920099026842F00402026002220068B8
:103D500000F00400009000990192029301A9054827
:103D6000FFF7B8FC06B010BDEC160020002401409F
:103D7000181002400008014010B586B01022002142
:103D800002A8FFF79DFC082200216846FFF798FC77
:103D90001C4C1D48206047214FF6FF700022E06058
:103DA0006160A2602261A261204601F0AFFE08B10D
:103DB000FFF779FC4FF48050029002A9204601F0F1
:103DC0000DFF08B1FFF76FFC002100910191204623
:103DD000694601F0D5FF08B1FFF765FC06B010BDDC
:103DE00081B000680849884209D10848026842F059
:103DF00002020260006800F002000090009801B02A
:103E0000704700005C160020000400401C100240B7
:103E100038B5C0B00446FF224FF48071684601F007
:103E2000E1FF2D4D002055F8041B83B24DF82310FF
:103E3000401C81B24029F6DB684600F00DF80129EC
:103E400006D0264800F008F8204600F00BF801E004
:103E500000F002F841B030BD90E80E0084E80E009A
:103E60007047000030B5C1B0054602F014F80020DC
:103E7000009000211A48184C01600122C260846041
:103E8000694602F083F808B116A020E0FF224FF443
:103E9000807101A801F0A6FF95E80E0001A8002599
:103EA00080E80E0001A8A9B250F821200023214685
:103EB000022001F0B5FF48B96D1C241DA8B24028AE
:103EC000F0DB01F0F8FF012041B030BD09A000F0A7
:103ED00009FFFF20F8E7000000FC010800000020B7
:103EE000401700204572617365204572726F720A37
:103EF000000000005772697465204572726F720A83
:103F00000000000000E0000009490A68002050623B
:103F10007047074802680021516201F004BE10B5E5
:103F2000034C204601F025FE2168486A10BD0000C0
:103F30005C160020F8B5044600270026002C71D03E
:103F400004F12405686828B90021A960287020467A
:103F5000FFF7E1FE204600F05DFA6968CA065DD40D
:103F600001005BD1696821F4885141F00201696068
:103F70006368E269217B1343A26843EA4103B2F517
:103F8000807F14BF012A4FF48077227D012A0FD150
:103F900031B9A169491E47EA413747F4006707E094
:103FA000696841F020016960A96841F00101A960D8
:103FB00021684A6822F4694217434F602268DFF89B
:103FC0001C1497680F401F439760A168B1F5807F6C
:103FD00018BF012902D12669761E36052168CA6AF2
:103FE00022F470021643CE622468DFF8F413A2684C
:103FF0000A409A4207D10023AB6001216A6861F34D
:1040000001026A60F2BD686820F0020040F0100012
:104010006860A86840F00100A86003E0686840F0AC
:10402000100068600120F2BDF8B500F0F4F801D18D
:104030000220F2BD00F0DFF8010019D16A68DFF854
:10404000A41300F0DCF80DD10F6817F4702F09D01D
:1040500000F0C2F800F0C7F846BFAB6823F00603D3
:10406000002302E000F0B1F8F4E700F0DAF8E0E055
:10407000A8E02DE9FC410546002000900C46FFF722
:1040800051F9804628688168CA0505F1240707D5DB
:10409000786840F0200078600021397001208FE0BE
:1040A0004168CA051CD4C06A10F4700F18D1286882
:1040B00001688A0769D414F1010FF8D02CB1FFF719
:1040C00031F9A0EB08008442F1D2286801688A0720
:1040D000EDD4786840F0040078600021397052E037
:1040E000022000F085FE2968DFF8FC62D1F810C0DC
:1040F000DFF8F822DFF8F8321CEA060F02BFD1F829
:104100000CC0DFF8F0621CEA060F09D1D1F810C02C
:104110001CEA030F05BFC96811422926142612E0C4
:10412000D1F810C01CEA030F04BFCB68134207D0BC
:104130000B69DFF8C422134204BFC968114201D1E0
:10414000542600E0FC26DFF8B4120A68B2FBF0F057
:10415000464302E00099491C00910098B04214D2F5
:1041600014F1010FF6D02CB1FFF7DCF8A0EB08003A
:104170008442EFD20098B042ECD2796841F0040159
:1041800079600020387003201AE028686FF012016F
:1041900001607A6842F400727A60286800F05FF883
:1041A00004BF287B00280AD1786820F480707860EA
:1041B0007868C10403D4786840F00100786000207A
:1041C000BDE8F68100212970F2BD6F6827F48017E1
:1041D0006F607668770570476E6846F480166E608B
:1041E0000F687E05704703D56E6863F30D366E6009
:1041F0006B68DE047047012028702046B7E00A4053
:1042000042F480726A6001232668DFF8F421DFF847
:10421000F41196427047044604F1240528780128D9
:104220007047AB6000262E706FF0020325682B608C
:10423000704723689C6804F46024B4F5602F09D1AA
:10424000934203D1096811F4702F03D1996841F4A6
:10425000A00102E0996841F480119960F2BD816883
:1042600001F46021B1F5602F70470068C06C7047A1
:10427000F8B5002300930A4600F1240300211C78BE
:10428000012C01D10220F2BD01241C701F275468AB
:1042900015680668072C08D2641E04EB8404D6F85F
:1042A00034C000F05EF8756312E00D2C08D2E41FF4
:1042B00004EB8404D6F830C000F053F8356307E00F
:1042C0000D3C04EB8404D6F82CC000F04AF8F562EB
:1042D00007271668946805680A2E08D30A3E06EB7D
:1042E0004606D5F80CC000F036F8EC6006E006EBA8
:1042F0004606D5F810C000F02EF82C611468102C7A
:1043000018BF112C23D100683F4CA0421AD13F485E
:1043100005682C021BD4056845F40005056010688B
:10432000102814D1354A3A4D1468B4FBF5F50A202B
:1043300045430095009800281EBF0098401E00903D
:10434000F8D104E00121586840F0200058600020B6
:1043500018700846F2BDB7402CEA0707B4403C434A
:104360007047A7402CEA0707A5403D43704738B582
:1043700004460020009020688168CA072CD4816818
:10438000234A41F0010181601C480168B1FBF2F24F
:10439000009202E00098401E009000980028F9D199
:1043A000FEF7C0FF054600F059F815D4FEF7BAFF36
:1043B000401B0328F7D300F051F8F4D404F1240093
:1043C0000022416841F010014160816841F0010123
:1043D00081600270012032BD002032BDFDF7E1FF97
:1043E000FE0E1FFFFEFDFFFF244992249224490088
:1043F0009224491224499200499224001800002076
:104400000028014004240140002401400824014008
:1044100040420F0038B5044620688168CA071BD5A2
:104420008168490849008160FEF77CFF054600F07D
:1044300015F811D5FEF776FF401B0328F7D300F0DF
:104440000DF8F4D5A16A41F01001A162E06A40F0D4
:104450000100E062012032BD002032BD2068816889
:10446000C8077047F0B42449244AD1F880705668D0
:104470001078234C234D6FF0004320BB082005FB30
:10448000064637461E46B7FBF6F6401E03FB167679
:10449000F5D10F46102005FB06469C46B6FBFCFCFA
:1044A00003FB1C663E601E4657F804CB05FB0C4C14
:1044B000BCFBF6F603FB16C6401E47F8046BEAD1B8
:1044C000CF6F0120107005FB06461C4607F01F0742
:1044D000B6FBF4F451F8270003FB146641F827609B
:1044E000C1F88000566020F04040F0BC704703499E
:1044F00000220A7048607047841400208C0100205C
:104500005FF36E3C0D66190003B583B002461F20B1
:10451000012104AB029001910093D0210123644852
:10452000FDF7B6FA05B000BDE0B5FF230192029396
:10453000009102460123D1215D48FDF749FB07BDEB
:1045400080B580216B20FFF7DFFF642000F0E6F8E4
:1045500000216B20FFF7D8FF00216A20FFF7D4FF6E
:1045600000212320FFF7D0FF07211920FFF7CCFF00
:1045700006211A20FFF7C8FF01211C20FFF7C4FF06
:10458000BDE8044018211B20BEE700001CB504460E
:10459000062269463B20FFF7C7FF9DF800009DF803
:1045A000011001EB002121809DF802209DF80310ED
:1045B00001EB022100F004F801EB0021A18013BD02
:1045C00061809DF804009DF8051070477CB5064693
:1045D0006846FFF7DBFFBDF9020001F041FD3549F8
:1045E00001F050FD01F0DAFD0446BDF900000D4672
:1045F00001F036FD2F4901F045FD01F0CFFD2246C7
:104600002B4601F0EFFD01F07BFE01F0C7FD00221B
:10461000294B01F0A9FE294A294B01F07BFF0446F2
:104620000D46304601F0BAFD22462B4602F096F8C0
:1046300001F066FE234E24490446324600F054F849
:104640000025002831D13246204900F04BF808B14E
:1046500001252AE03246002100F044F808B1022585
:1046600023E032461A4900F03DF808B103251CE06A
:104670003246184900F036F808B1042515E03246F4
:10468000154900F02FF808B105250EE03246134910
:1046900000F028F808B1062507E03246104900F07E
:1046A00021F8002814BF07250825284676BD0000FC
:1046B000B815002000FC7F4600806640F1D4C85346
:1046C000FB2109400000B4410000B4420000344224
:1046D000000034C20000B4C2000007C3000034432D
:1046E000000007432046FFE770B504460D46164616
:1046F0002846314602F0D2F90146204602F016FA69
:1047000009D82846314602F059F9214602F00EFA3E
:1047100001D8012070BD002070BD000038B50446EE
:10472000FEF700FE14F1010F054602D00449087897
:104730000419FEF7F7FD401BA042FAD331BD00BFBC
:104740000C00002037B582B00C460898BDF8105018
:104750008DF801008DF80030002229462046FFF731
:1047600087F80298FF230222694600F058FC0122D4
:1047700029462046FFF77CF805B030BD1FB582B052
:10478000002400940923FFF7DDFF02A807C80824CE
:1047900000940A23FFF7D6FF0720009002A907C95B
:1047A0000B23FFF7CFFF0120009002A907C90C23BC
:1047B000FFF7C8FF0020009002A907C90F23FFF7E9
:1047C000C1FF02A807C806B0BDE8104038B584B0E4
:1047D00001AD002485E80700002300F005F8E0B2F1
:1047E0000828F9DB05B030BD95E807000093641C8C
:1047F000E3B2A7E7FCB5012804D020D303283AD0C0
:104800001ED3F3BD002000230DF80030C0F10706D1
:10481000CD5C1DF80040F54005F001059D402C439E
:104820005B1C0DF80040072BF2DD401C0728EADD79
:1048300000201DF800300B54401C0728F9DDF3BDA3
:10484000002043420DF107050024EC540DF107054B
:104850000F5CEE5CE74007F00107C4F10705AF40CD
:104860003E430DF10707641CFE54072CEEDD401C8F
:104870000728DDDCE5E70020CD1D00230DF8003022
:104880005E42AF5D1DF80040C74007F001079F4042
:104890003C435B1C0DF80040072BF1DD401C072852
:1048A000C6DCEAE737B584B01C46FFF78FFFE0B2FD
:1048B0000428A8BF00240A98002101AD425C6A5474
:1048C000491C0829FADB01A9E0B2FFF793FF002495
:1048D000285D009004A907C9631CDBB2FFF732FF13
:1048E000641C082CF4DB07B030BD1CB50024FFE7C6
:1048F00000940F23FFF726FF13BD02F02BB9000031
:104900002DE9F047ADF5007D82460D4616461F465F
:10491000FFF7A8FDF6B2044604EBD4704010A4EBF8
:104920004004B00806EB507222F00702B61A072EB8
:10493000E4B2EDB22C4950D8DFE806F004060F13BC
:104940001C202934684625E000F050F802D101F51A
:1049500000712CE001F580612FE0684601F5C0612F
:1049600018E000F043F802D101F500611FE001F505
:10497000206122E0684601F540610BE000F036F866
:1049800002D101F5606112E001F5805115E0684641
:1049900001F5905100F02EF801A85DF8358050F82F
:1049A00035901AE000F022F805D101F5A05100F091
:1049B00021F8012C05E001F5B05100F01BF8FFB221
:1049C000012F05D101A95DF8358051F8359004E03B
:1049D00001A95DF8359051F83580CAE900890DF5D7
:1049E000007DBDE8F0870000EC000008F8B2002868
:1049F000684670474FF4007202F0B6B82DE9F041F6
:104A000090B00446884616461F4608A8A5A1202255
:104A100002F0AAF84FEA0D00AAA1202202F0A4F8A1
:104A200008A9FFB251F82700051935607A1C5DF816
:104A300027C0901002EB5070C44420F00700C6F865
:104A400004C0A2EB000E51F82E000519B5607F1EC0
:104A50005DF82EC0B81007EB5070C44420F007007A
:104A6000C6F80CC0381A51F820100C1934615DF8E2
:104A7000200000EB0802726110B0BDE8F08104284C
:104A800001DA0020704701207047042801DA012074
:104A9000704700207047D2B2042A05DA082808BF00
:104AA000082907D00020704710F1010F08BF11F14D
:104AB000010FF7D1012070472DE9FE4317461D462F
:104AC000EAB2042AB4BF4FF000094FF001090A9E70
:104AD00004468846FFF7DFFFD8B13A46D0B24845D2
:104AE00017D104F1080000F029F8C41A08F10800F1
:104AF00000F024F8C11A0B980090C2F1010201964F
:104B0000EBB2D2B22046FFF7D7FF012814D0002025
:104B100012E0082C38BFB8F1080F09D2082108208C
:104B200008EBC403F75C012F02D0401EF8D101E06E
:104B3000012001E0491EF2D1BDE8FE83811000EBA7
:104B4000517323F0070370472DE9F843DDF820C0C7
:104B5000BCF1040FB4BF0026012614461D46804652
:104B600089460A9F624620462946FFF794FFD8B13E
:104B70000998B04218D104F108010B988A1001EB92
:104B80005273002223F00703CC1A09EBC80305F186
:104B90000801FA548A1001EB5272A4EBE20301EB14
:104BA000C3010122425407E009EBC8030020F85476
:104BB00005EBC40501227A55BDE8F1832DE9F84FD4
:104BC0008EB00446189E0D469246FFF74BFC00EB54
:104BD000D0714910A0EB4107FFF744FC0321FFB25D
:104BE00090FBF1F202EB42020797821A0DF1200BC3
:104BF0008DF8102000279DF810303246F9B205A834
:104C0000FFF77EFE0598069901EBC001605C012864
:104C10003CD1DDE90501334608AAFFF7EFFE019517
:104C2000DDE9080100F039F881460195DBE9020170
:104C300000F033F880460195DBE9040100F02DF81F
:104C4000B9F1000F03D10395DDE9082316E0B8F1AF
:104C5000000F02D1012805D109E0B8F1010F08BF0A
:104C6000002808D050EA080010D1079818B9039519
:104C7000DBE9022302E00395DBE904230294CDF88B
:104C800004A00096DDE90501FFF75EFF7F1CF8B286
:104C90004028B0DB0FB0BDE8F08F00943346524699
:104CA0000AE7000001000000010000000000000011
:104CB000FFFFFFFFFFFFFFFFFFFFFFFF0000000000
:104CC00001000000000000000100000001000000E1
:104CD0000100000000000000FFFFFFFFFFFFFFFFDB
:104CE000FFFFFFFF0EB4C0B5024603A800210190EC
:104CF000009101AB0121044878440C3001F043FFDE
:104D000006BC5DF810FB00BFA5530000002201F0B7
:104D10006DB800002DE9FC410646604D3078C107B2
:104D200050D5A8690024C10009D4A86940F080507A
:104D3000A8610124A86900F0805000900098584FA5
:104D40003868C10511D4386840F480703860FEF7C7
:104D5000E9FA80463868C10507D4FEF7E3FAA0EB0C
:104D600008006528F6D303203FE0E86910F440709E
:104D70001EBF716801F44071884218D04949E86942
:104D800001220A60002320F440700B60E861C00734
:104D90000DD5FEF7C7FA0746E869810707D4FEF785
:104DA000C1FAC01B41F289318842F5D3DBE7EA69D9
:104DB000706822F440720243EA611CB1A86920F0D5
:104DC0008050A8613078810705D52A68B06822F440
:104DD000404202432A603178C80605D52968F06848
:104DE00021F48001014329600020BDE8F681000024
:104DF00010B5002101282C4C25D0022843D01028C2
:104E00004AD160682268D30146D500BF29A1C0F30A
:104E10008342C003895C0CD5606800BF29A3234A84
:104E2000C0F34040185CB2FBF0F30846194641431A
:104E300001E01F4A5143606842022DD4490003201B
:104E4000B1FBF0F128E0206A40F202320240B2F5F4
:104E5000817F08BF4FF400411ED000F44072B2F5CC
:104E6000007F05D1626A930748BF49F6404113D4D9
:104E700000F44070B0F5407F0ED1206882030BD55E
:104E80004FF2244108E0FEF720FA6168C1F3813156
:104E9000491C4900B0FBF1F1084610BD0410024066
:104EA00000700040400442420010024000127A00AC
:104EB00000093D0002030405060708090A0B0C0D52
:104EC0000E0F10100102000062F30F2262F31F4266
:104ED000401810F0030308D0C91A1FD3DB0748BFDE
:104EE00000F8012D28BF20F8022D130030B414461D
:104EF0001546103928BF20E93C00FAD8490728BFD9
:104F000020E90C0048BF40F8042D890028BF20F894
:104F1000022D48BF00F8012D30BC7047C91818BFDA
:104F200000F8012DCB0728BF00F8012D70470000C5
:104F30000E4881B0016841F001010160026802F091
:104F4000010200920099426842F08052426040683B
:104F500000F08050009000980548016821F0E06161
:104F600041F00071016001B0704700BF18100240AD
:104F70000400014038B5040001D1012032BD606A4F
:104F800028B900F0EDF805D00021E16102E0002031
:104F9000206160610020A06204F15005687820B9AA
:104FA000002129702046FEF7A6FD0220687000F05F
:104FB0008BF96068A168E26800F4827001F4044132
:104FC0000843217C02F400621043227D01F00201BB
:104FD0000843A16902F001021043227F01F400712D
:104FE000084394F8201002F038021043A26A01F03E
:104FF00080010843216802F4005210430860A06950
:105000002168000C00F0040048602068C16921F4A8
:105010000061C161002068600121697032BD2DE925
:10502000F843054605F15007002638780C469146AE
:105030009846012808BF022000F0908001203870B7
:10504000FEF770F97978012918BF022640F08380B5
:10505000002C18BFB9F1000F79D00321797000231B
:105060007B602C63A5F83490A5F836900021A963E5
:10507000AB87E9876B642964AB68B3F5004F09D14E
:1050800029680B6823F040030B6029680C6844F41E
:1050900080440C6029680B685C0603D40B6843F0FD
:1050A00040030B604446E968B1F5006F696821D19F
:1050B000002918BFB9F1010F00F075F8804604E02F
:1050C000296B0A88C26000F04FF8E88E002833D0C0
:1050D000286881688A07F3D4FEF724F9A0EB08005A
:1050E000A04204D314F1010FEFD0032631E0002CCD
:1050F000EBD1FAE7002918BFB9F1010F00F047F82A
:10510000804606E0296B0A780273286B411C00F088
:105110002DF8E88E80B1286881688A07F2D4FEF7FE
:1051200001F9A0EB0800A04203D314F1010FF0D065
:10513000DBE7002CEDD1D8E742462146284600F0B7
:1051400029F908B12020786000F015F808B101268F
:1051500001E001207870002139703046BDE8F2830B
:105160006068B0F5827F7047286B811C2963E88EE8
:10517000411EE9867047A86838B900210091296866
:10518000CA68009289680091009A7868704709D1CE
:10519000296B2B680A781A73296B4A1C2A63E98EDB
:1051A0004A1EEA86704709D1296B2B680A88DA60A3
:1051B000296B8A1C2A63E98E4A1EEA8670477CB5F1
:1051C000044622685168936803F04100012806D123
:1051D000480604D5216C2046BDE87C400847980766
:1051E00006D50D0604D5616C2046BDE87C40084715
:1051F00013F0600F58D0880656D55D060ED594F88A
:105200005100032843D0606D40F004006065002524
:105210000095D66800969568009500989B060ED577
:10522000606D40F001006065002300939268009279
:1052300020680368024623F040031360009B606D02
:1052400090B32068426822F0E0024260012011F031
:10525000030F84F8510022D020680FF251054168F5
:10526000890889004160E06C28B14563E06CFEF775
:1052700065F800F023F8A06CB0B14563A06CFEF7B0
:105280005DF888B1606D40F04000606573BD00203E
:105290000090D168009192680092009873BD2046FA
:1052A000BDE8764002F0C1BB73BD0000406A00213A
:1052B000C1870022C28602F0B8BB000018B1606D41
:1052C00040F04000606570472068016821F04001AF
:1052D000016070472DE9F843089C05460E4690464C
:1052E0001F46FEF71FF8381A2418FEF71BF88146F0
:1052F000314801684901090D6143009105E00098BA
:1053000000B900240098401E009028688168314050
:10531000B1420CBF01200020404532D017F1010FEF
:10532000F3D0FDF7FFFFA0EB0900A04201D2002C53
:10533000E5D12868416821F0E00141606868B0F576
:10534000827F08D1A868B0F5004F18BFB0F5806F14
:1053500001D100F019F8A86AB0F5005F09D12868FA
:10536000016821F4005101602868026842F400528B
:10537000026005F1500001214170002202700320FB
:1053800000E00020BDE8F2832868016821F04001B8
:10539000016070471CB500920B4604460022802134
:1053A000FFF798FF08B100F001F816BD606D40F0FE
:1053B00020006065032070471800002038B5040005
:1053C00001D1012032BD00F01BF808B900F01CF833
:1053D00000F01FF800F027F8FFE7416100F001F846
:1053E00032BD2068C16841F40051C160002068608E
:1053F000202169702020A87000216163002070477F
:1054000004F1400568787047002129702046FEF7B6
:10541000F2BB242068702068C16821F40051C1608B
:10542000204600F0A6B82068016921F4904101618E
:105430002068416921F02A0170472DE9FC410646A8
:105440000D4696F84100202814461F463FD10DB165
:10545000200001D101203BE000207064212186F86A
:105460004110FDF75FFFB4848046F48400F032F809
:1054700004BF306900281ABF2C46002500240CE028
:105480003068002C12BF14F8011B35F8021BC1F361
:1054900008014160F08C411EF1844346F08C009776
:1054A000002807D000228021304600F017F800289D
:1054B000E6D005E000224021304600F00FF808B1A8
:1054C000032005E0202086F84100002000E00220B3
:1054D000BDE8F681B068B0F5805F70472DE9F04116
:1054E000069C05460E4690461F46286801683140D6
:1054F000B1420CBF0120002040451BD114F1010F27
:10550000F3D024B1FDF70EFFC01B8442EDD200F0B2
:1055100014F821F4D07100F01AF8F8D100F01BF85B
:1055200005F140002021417020228270002101708D
:10553000032000E00020BDE8F081286800F10C01A4
:1055400051E8001F00F10C03704721F0100143E8FF
:10555000001000287047286800F1140151E8001F6E
:10556000490800F11403490043E800100028F2D173
:10557000704710B5044622681169E06821F4405173
:1055800001431161D3681949A0680B4021690343A5
:1055900060690B430343D3605169A06921F44071F2
:1055A0000143516112498A4202D1FDF78EFE01E0AA
:1055B000FDF783FE6268192148439200B0FBF2F1C7
:1055C0006423B1FBF3F26FF0630000FB02110901E9
:1055D0003231B1FBF3F000F0F00101EB021122686F
:1055E00000F00F004018906010BD0000F3E9FFFFCD
:1055F0000038014038B508B9022032BD00F52774E3
:10560000A3690BB10025A56101B161610121217080
:10561000027002F066FA002032BD0246002011B18D
:10562000C2F8B41270470220704780B502F096FAB3
:10563000002002BD10B5D0F8B42202241AB11268BD
:10564000904700B90024204610BD80B5D0F8B422A0
:1056500053680AE138B5044604F52A75284602F075
:10566000CEFC04F5257001210160428B017D426072
:1056700011F01F0003D002280BD005D30EE02946FD
:10568000204602F0CFFA0DE02946204602F000FC49
:1056900008E02946204602F021FC03E001F08001E9
:1056A00000F040F8002032BD38B5044610460A002C
:1056B00004F5257329D1196803291ED104F5B071A9
:1056C0004A680D68AA420BD2AD1A0D60954238BFE8
:1056D0002A46014692B2204602F0EDFC002032BD7F
:1056E000196A086928B1187A032802D10969204685
:1056F0008847204602F0E7FCF0E70529EED10020BC
:105700001860002100F00EF8E8E71A6A906930B1DD
:10571000187A032803D1926920469047DEE70220D9
:1057200032BD8021204602F032BA38B50446080066
:10573000134604F5257543D12868022833D1226A1F
:10574000616A914207D2521A2262194692B22046E9
:1057500002F09FFC11E0E269B2FBF1F001FB1020C6
:1057600090B98A4210D3686882420DD2002200218B
:10577000204602F08EFC00206860002300220021F9
:10578000204602F02BFA14E0296AC86828B1287A6A
:10579000032802D1C96820468847FFF7C2FF204688
:1057A00002F098FC05E0042818BF002801D1FFF79B
:1057B000B8FF287B012804BF00212973002032BDD7
:1057C0002A6A506930B1287A032803D152692046E9
:1057D0009047F3E7022032BD38B50446402300224B
:1057E000002102F0C3F904F5AC70012140220160F0
:1057F000C260402300228021204602F0B7F9012038
:10580000402104F52572A0616162107200211160CF
:1058100061600025506A156128B1126A6168536899
:10582000C9B220469847002032BD0174002070475D
:1058300000F5277004220178417002700020704743
:1058400000F527700178042904BF41780170002019
:10585000704780B500F527710A78032A03D189695A
:10586000C96901B18847002002BD9847002002BDE8
:10587000F8B505460026287C40B94FF4007300F0C7
:105880003CF80122EA624FF4007305E0402300F087
:1058900034F80120E862402302220121284602F068
:1058A00065F90120C5F86C010823032282212846EE
:1058B00002F05CF90120286405F52E774FF407709B
:1058C00002F096F93860040008BF012613D078680A
:1058D0000168884704F501700022026100214161DE
:1058E0000268287C00280CBF4FF40073402301217C
:1058F000284602F073F93046F2BD02228121284683
:1059000002F034B910B50446812102F03AF90022C0
:10591000E2620121204602F034F90020C4F86C0153
:105920008221204602F02DF90021216404F52E7415
:10593000206838B1606841688847206802F066F9DD
:1059400000202060002010BDF8B5044604F5277340
:105950000D46DE6900218DF80010ADF80210002719
:10596000297811F0600022D020283AD1EA88C2B10B
:10597000687809060AD51B6AD3F808C03146E047A3
:10598000EA883146204602F07CFB2FE006F50071E4
:105990000870E88848703146EA88204602F081FBAA
:1059A00024E01B6A68789C682946A0471EE0687856
:1059B00020B10A2809D00B2810D012E01978032949
:1059C0000FD102220DF1020104E01878032808D15A
:1059D00001226946204602F054FB07E018780328AC
:1059E00004D02946204602F01EFB02273846F2BDAD
:1059F000F8B5044604F52E7002688568DAB10E46E3
:105A0000142070432718F86980B128235E43AB192E
:105A10009B6BB0FBF3F503FB150038B90026FE6164
:105A200000230022204602F0D3F802E00023C2F84F
:105A300014320020F2BD0220F2BD70B500F52E74C4
:105A4000256805F5017602F0CFF8B060206838B11E
:105A500062683068D36805F503719847002070BD0F
:105A6000022070BD10B500F52E7043680168002B50
:105A70001EBF01F500742078FF2804D062789B686F
:105A80009847FF202070002010BD43210180074867
:105A90007047432101800648704743210180054833
:105AA00070470A210180044870470000A4000020CC
:105AB00060000020E80000201C00002002460220B8
:105AC00011B1C2F8BC1200207047D0F8B80200F53E
:105AD00002700160826000207047D0F8B802C0F800
