:020000040800F2
:10000000A02D0020F1850008898400088B84000859
:100010008D8400088F84000891840008000000008F
:10002000000000000000000000000000EB6D000870
:100030009384000800000000A56D00088D6600088C
:100040002186000825860008298600082D860008DC
:100050003186000835860008398600083D8600088C
:100060004186000845860008498600084D8600083C
:100070005186000855860008598600085D860008EC
:100080006186000865860008698600086D8600089C
:100090009584000871860008758600087986000836
:1000A0007D8600088186000885860008898600080C
:1000B0008D860008918600089B840008A1840008B2
:1000C00095860008998600089D860008A784000888
:1000D000AD840008A1860008A5860008A98600084E
:1000E000AD860008B1860008B5860008F8B50400A2
:1000F00025D004F13C05697821B9002028702046FC
:1001000001F072FA242169702068026852085200D6
:1001100002602068016841F40041016020680268C3
:1001200022F40042026001F0C8FC01466068DFF87A
:100130005021904205D2DFF84C31994205D201207E
:10014000F2BDDFF844018142F9D32068DFF83C3189
:100150004668B1FBF3F3B60943EA861646602668A3
:10016000376A6068904206D34FF4967043434FF469
:100170007A70B3FBF0F35B1CBF0943EA8713336269
:10018000491E2368DE696768974206D27F0000F047
:1001900044F8042913D2042111E0A06820B907EB28
:1001A000470700F03AF805E01920474300F035F81A
:1001B00041F4804108050CBF012141F40041DFF802
:1001C000B40106400E43DE6122681368E169206ACB
:1001D00023F0C0030B43034313602268DFF8CC0114
:1001E000936821690340E0680B43034393602268EE
:1001F000D368A16960691B0A41EA03230343D36002
:100200002068016841F00101016000206860202140
:10021000697020630021A970F2BDB1FBF7F1491CA0
:10022000C1F30B017047006841690A0644BF002111
:100230000161704772B62068016841F40071016085
:10024000704732462946204601F033B92A46DFF886
:100250000C14204601F074B841F480610160002064
:10026000009021684A69009289690091009870475E
:10027000202078700021B97000203870704700008D
:10028000A186010080841E0000093D0040420F004D
:100290002DE9FC47064600F08BF800F073F865D1B5
:1002A000009400F07DF8304601F016F800285DD18A
:1002B000387801285AD000F080F84146D6F800E09E
:1002C0000C9D0B98DDF828C0DEF8008028F400684B
:1002D000CEF800804FF0210E87F801E04FF0400883
:1002E00087F802804FF0000EC7F804E0C6F824C07B
:1002F00070855346708DDFF860C33085C6F82CC01A
:100300004A4601940095304600F0B7FE002826D1F9
:1003100006E0716A0A78026100F03AF8411E7185C0
:10032000308D88B122462946304601F071F888B9EF
:10033000706A32680178116100F02AF800F01CF848
:10034000EED589B20029E4D122462946304601F093
:1003500081F830B17868042801D100F04BFF01200A
:1003600005E000F047FFFFF783FF00E00220BDE853
:10037000F68700000030FFFF421E72853068426938
:100380005307704706F13C070446787820287047E9
:10039000706A411C7162308D411E3185708D7047CD
:1003A00019230122DFF8E41270470000007CFFFFF0
:1003B000884691469A4601F0CFBB012139703068DA
:1003C0000268D10703D4026842F00102026070475C
:1003D0002DE9FC47044600200090FFF7E9FF04F1F7
:1003E0003C0605467078202805D10095FFF7D8FF18
:1003F00000F005F9002840F0C1803078012800F0B5
:10040000BD800121317000F0E0F84146D4F800E0F1
:100410000C9F0B98DDF828C0DEF8008028F40068F7
:10042000CEF800804FF0220E86F801E04FF0400831
:1004300086F802804FF0000EC6F804E0C4F824C02D
:1004400060855346608DDFF810C22085C4F82CC04B
:100450004A4601950097204600F05EFE00286ED1C6
:10046000208D10B900F092F81FE0012802D100F0B1
:10047000DAF805E002282068016805D100F0C2F82A
:100480000846026062B610E0FFF7E6FE0DE02A467D
:100490003946FFF7D8FE002851D100F0C6FC208D68
:1004A0006262411E218500F085F8208D00285ED013
:1004B00004284AD20128EAD00228324900953B4656
:1004C0000AD1002200F09BF8002838D1FFF7B2FED5
:1004D00000F084F862B6E0E7002200F090F870BB0C
:1004E00000F06CF84FF47A7E20680169606A017050
:1004F000616A208D4A1C411E62622185608D224AFC
:10050000411E618519211368B3FBF1F1B1FBFEFEB9
:10051000232000FB0EFECDF800E000F097F820B19C
:10052000216848694107F8D50BE0206320217170EC
:10053000B070716841F02001716062B630700120C6
:100540001DE0206800F091F8C2E72A463946FFF71F
:100550007AFE0028F3D100F041F8206841694A078B
:10056000A3D50069616A0870606A421C97E7202081
:1005700070700021B1700020307000E00220BDE8F2
:10058000F687000004000100280000200090216888
:100590004A69009289690091009821680A680846B2
:1005A00042F40072026070471069616A0870606A04
:1005B000421C6262608D411E61857047206801683F
:1005C00021F48061016072B6704720680268D1072B
:1005D00003D4026842F0010202607047206801699A
:1005E000606A0170616A208D4A1C411E6262218529
:1005F000608D411E6185704700224FF00111204639
:1006000000F06ABE41F40061016072B60020009003
:1006100021684A69009289690091009821680A68F6
:1006200022F4806270472068016821F480610160D3
:1006300072B60020009021684A6900928969009191
:10064000009821680A6842F4007270470098401EC2
:1006500000900098704700000000FFFF08000100B4
:10066000009021684A69009270470168024641F48F
:1006700000711160704720680168CA0570473068D2
:10068000016841F4807101607047000002001000B1
:10069000416841F48051416070473068016841F41D
:1006A0008061016070472DE9FC41044604F13C057E
:1006B0002268DFF81C6B5168E06AAF786B784FF006
:1006C000000C102F18BF402F40F05482D2F818C0F1
:1006D000D2F814E05FEACE7805D4B0F52A0F18BF3F
:1006E000B0F12A4F47D05FEACE7045D5880543D593
:1006F000E06AB0F52A0F08BF012104D0E06AB0F12A
:100700002A4F01D10821E162A878402809D16869FF
:100710000028A8681ABF40F00100C0B200F0FE0037
:1007200028E02069B0F5804F16D168782128A868A4
:100730000EBF00F0FE0040F00100C0B21061606B1F
:1007400000281CBF806A00282AD1A06B00281CBF8B
:10075000806A00280FD023E0686920B900F00EFB02
:1007600040F0F00006E06869012804D100F006FBC3
:1007700040F0F1001061FFE25FEA0E7015D58805C8
:1007800013D5A868C0B21061606B00281CBF806AD6
:10079000002805D1A06B00281CBF806A0028EAD081
:1007A0002068416841F400613AE15FEA8E7000D54B
:1007B000880540F1B780AB78E16A276B687822281A
:1007C00040F0A8806869002808BF402B04D10021B0
:1007D00000F0E6FA009ACFE26869002804BF2069B9
:1007E000B0F5404F08D100F0EEFA40F48070106090
:1007F0006869401C6861BFE2608D28B900F0E3FAC7
:1008000040F40070106082E0608D012835D1B14263
:1008100012D11146086820F4806010602168486891
:10082000020504D50846024600F0E0FA23E0002263
:1008300000924B6900930CE0082918BF202903D0CF
:10084000122F0CD101290FD000F0CFFA116000F067
:1008500007FB89690091009800F0A8FA57E0042985
:100860001CBF0229102902D000F0BFFA03E0104695
:10087000016841F48061116047E0628D022A2FD146
:1008800004291CBF0229102910D0206802680346E1
:1008900042F400621A600020009000F09FFA226883
:1008A0001368104623F48063036009E0226813682C
:1008B000104643F4806303600022009200F08EFA39
:1008C00020684268130522D5B14218BF012904D01F
:1008D00008291CBF1029202919D1FFF7D9FE16E0DD
:1008E00020680268034642F480621A602068426809
:1008F00013050AD5B14218BF012904D008291CBF2D
:100900001029202901D1FFF7C3FEFFF7A8FC002121
:10091000696131E20023009351690091926900926C
:10092000009929E25FEA4C7C0EF004005FD5D2F812
:1009300004805FEA085CF4D45FEA0E6E48BF5FEAA9
:10094000415C2AD5002828D16978AB78E76A208DE8
:10095000002808BF212913D1082F1CBF202FB74220
:1009600004D000F016FA0022AA702DE000F07EFA02
:1009700030D10021A9702046BDE8F64101F0F2B85F
:10098000212903D0402B08BF2229CAD1608D00281D
:100990004AD0A878402826D0BCE10028C1D08805DC
:1009A000BFD5212B1DD1E16A6878212839D1608D0E
:1009B00008B100F0AFB908291CBF2029B14206D008
:1009C00000F0E7F90020A8702021697004E000F031
:1009D0004DFACED00021A9702046BDE8F64101F0C5
:1009E000C2B8402F1DD12046BDE8F6414EE2536803
:1009F0001E0516D45FEA4E636CD54E056AD50028F5
:100A000068D1687822280CD1608D04280AD3FFF7BA
:100A1000CBFD608D032804D12068416821F48061FA
:100A20004160A9E1E16A022951D0012818BF0028DC
:100A30004DD10020DFF89818009019200B68B3FB07
:100A4000F0F04FF47A76B0FBF6F606EB86060096E9
:100A50002146FFF7FBFD20B10B6818688405F8D428
:100A60001AE0686840F020006860506820F4E06098
:100A700050600A6810694A6A1070486A431C4B62E9
:100A80002023488D421E4A856B700020A8700846BE
:100A9000BDE8F64101F068B818460C460168024608
:100AA00021F48061116000F0D3FA00F0CBF920222C
:100AB000FFF780FD6A70A878402852D10021A97004
:100AC000002020632046BDE8F64101F04EB800F05A
:100AD0005BF951E10028FCD08805FAD5E06A618D08
:100AE000042904D100F050F9216808693DE1618DC5
:100AF00003290CD1516821F480615160042818BF8A
:100B0000022801D000F098F900F08FF931E1618DF1
:100B1000022940F02981012818BF10280DD004288F
:100B200018BF022804D01046016841F4007106E0A5
:100B30001046016841F4806101E000F056F911604F
:100B400000F080F9FFF736FD2268FFF72DFD2068E1
:100B5000416821F44071416020206870A9784029E3
:100B6000ACD00020A870122121632046BDE8F641D8
:100B700000F0FCBF686808B9D2F818C05769B80718
:100B800025D5880523D5686808B1D2F818C06878DB
:100B9000002100F02800282813D100F0F5F85FEAC2
:100BA0004C7058BF01215FEA0C6054BFE268A26933
:100BB0000020287002B02046BDE8F04192B200F05B
:100BC000D6BF00F0EDF80021009A2970D4E0F806B5
:100BD00074D5880572D56F78506820F4E060506055
:100BE00000210091206841690091206800F002F91D
:100BF00000F022F921684868020528D50FF2016843
:100C0000222F18BF2A2F10D0606B00F0FAF8606B0B
:100C100001F00AF801281AD0606BC0F83480606BCC
:100C200000F0A6FF98B1606B0FE0A06B00F0E9F850
:100C3000A06B00F0F9FF012809D0A06BC0F8348048
:100C4000A06B00F095FF10B1A06B416B8847608DE1
:100C500098B1206841694A0702D50069FFF7A5FCF1
:100C6000206841694A0602D50069FFF79EFC608D45
:100C700018B1686840F004006860686818B12046E0
:100C8000BDE8F64160E12A2F05D120632821697073
:100C9000204600F0CCFF6878282807D1E66200F0F3
:100CA000D9F82046BDE8F64100F0C2BF206B2228EB
:100CB00018BF222F60D100F0CDF84BE007F0040000
:100CC000212B18BF292B2CD13B061CD54E051AD53C
:100CD000C8B96978608D00284ED0606A03781361C6
:100CE000606A421C626200F068F808BF292943D19B
:100CF00000F095F821202063282169702046BDE886
:100D0000F64100F096BF002836D0890534D5608DB5
:100D1000002831D0606A01781161606A411C61620B
:100D200028E07B061BD54E0519D5C0B96978608DC2
:100D300010B31069626A1070606A431C636200F04D
:100D40003CF808BF2A2917D100F069F82220206357
:100D5000282169702046BDE8F64100F068BF58B10F
:100D6000890509D5608D38B11069616A0870606ABB
:100D7000421C6262FFF71EFCBDE8F381A868000414
:100D8000C00D00F006007047506820F4806050608D
:100D90007047506820F4E060506011212163704773
:100DA00000915369009391690091704721680A6826
:100DB000084642F4007202607047608D421E6285F0
:100DC000608D00287047002100915369009391695C
:100DD0000091009A216808680A46704722685369A2
:100DE000009392690092009870471046016821F4C0
:100DF000806170470268014642F001020A60009873
:100E00007047026853686385608D18B1686840F068
:100E100004006860486820F40060486070472068FB
:100E2000416821F480614160704720680169606A0F
:100E30000170616A4A1C70472068016821F4806172
:100E40000160704720680169606A0170616A4A1C2C
:100E5000626270470020206320216970A87070478B
:100E60000020009021684A6900927047506820F481
:100E7000E06050602068016841F40071016000206A
:100E8000206320216970A8784028704710B500F1D0
:100E90003D0300F148021C78916889B900685168E7
:100EA000012905D11368DBB203619068801C05E05D
:100EB00011680904090E01619068401C906010BD22
:100EC0009168012904D113680068DBB203610AE06C
:100ED0009168022933D1222C09D101680B68084698
:100EE00043F4807303609168491C916010BD418D8B
:100EF00061B1212C0AD1416A03680A781A61416AFA
:100F00004A1C4262418D4A1E428510BD418D002916
:100F100008BF212C17D101684A6822F4E0624A60B8
:100F2000002401680A6842F400720A60002101632B
:100F300020221A705C70BDE8104000F013BEBDE8BE
:100F40001040FFF770B910BD38B5044604F13D05F7
:100F500028786978102914BF4029222804D12168F3
:100F60000A6822F400620A6000F02801282903D1EF
:100F70000020206329700BE0226851680A0505D41F
:100F8000602803D020202870002169700020206391
:100F9000206841680A0523D5416821F40061416059
:100FA000606B0FF25D2190F82120012A09D0416386
:100FB000606B00F0DDFD002825D000F056F8606B76
:100FC0000BE0A06B4163A06B00F0D2FDD8B12068AC
:100FD00000F034F800F049F8A06B416B884712E04C
:100FE0002A78602A0AD1202129700022226400F088
:100FF00025F800F033F800F01DFE04E000F01EF8C4
:10100000204600F0B1FD206C10F00F0F01D000F071
:101010001FF82878216C4A070ED528280CD16C4877
:10102000E062002121632020287000226A7020469F
:10103000BDE8324000F0FCBD31BD000041694A0608
:1010400005D50069616A0870606A421C6262704777
:101050002068416821F4E0614160704720680168C0
:101060004908490001602046704720680168490826
:10107000490001602020287070472DE9F84304469C
:101080002068DDF82080099FD0F800C04CF4807CF7
:10109000894615461E46C0F800C000974346FFF734
:1010A000ABFA38B1FFF7E7FA44BF4FF400702064A1
:1010B000032026E02068DFF81C1209F0FE09C0F8C2
:1010C00010903B464246FFF7C4F8A0B9FFF7C8FAB4
:1010D00000F019F800F01EF840B9012E0DD021687B
:1010E000280A08613A4600F014F830B1206C042850
:1010F00001D1FFF7A0F8012003E02068EDB20561FF
:101100000020BDE8F2833A46896900914146009883
:101110007047414620467BE12DE9F84F0546286897
:10112000DDF828800B9F0C46FFF7B8FA16462868B2
:10113000D0F800C04CF4807C9946C0F800C000F0A4
:1011400052F800284FF4007A2ED12968DFF884B1D4
:1011500004F0FE00086100F041F8002834D100904E
:1011600029684A690092FFF7CEFF00F035F870B9A0
:10117000B9F1010F05D02968300A086100F02AF89A
:1011800028B92868F6B2066100F024F830B1286C5E
:10119000042819D1286800F02EF815E02868FFF718
:1011A0006FFA00F020F838B128680168CA0548BF16
:1011B000C5F840A0032008E0286844F00104E4B228
:1011C000046100F00BF800B10120BDE8F28F0000CF
:1011D0000000FFFF3A464146284619E13B46424699
:1011E00059462846ACE00097434600224FF00111D3
:1011F000284671E03068016841F400710160704771
:101200007CB5002100911925416A314801F13D0268
:101210004FF47A7613780468B4FBF5F5B5FBF6F66F
:10122000232046430096009838B10098401E009055
:101230000C6820688505F6D403E0086C40F02000B7
:101240000864486B08B100248462886B08B10024EC
:1012500084620868046824F480640460002048857F
:10126000486B08B100244463886B08B100244463D0
:1012700008680468640864000460107860280AD173
:10128000202313700024547000220A640846BDE82D
:10129000764000F0CFBC03F02803282B0ED108685D
:1012A000036843F00103036028230868046844F4DA
:1012B0008064046000200863137003E02020107035
:1012C000002454700846BDE8764000F04DBC000094
:1012D00028000020020001002DE9F8430F46089C79
:1012E0000646904699463D0C3068E9B201290CBF8C
:1012F0004069806900F071F80CBF01200020404572
:101300001CD119F1010FEFD000F026FC001B814524
:1013100002D3B9F1000FE7D13068E9B201290CBF5F
:101320004069806900F059F80CBF01200020404559
:10133000DAD100F05FF80120BDE8F2830020FBE77E
:101340002DE9F0410F460646144698463D0CE8B29A
:1013500001281CD130684169394089B2B8B2814254
:101360001CD03168486941051AD5306800F03AF858
:1013700032685061002106F13C0031632022427046
:101380008170426842F00402426001701DE03068E2
:101390008169394089B2B8B28142E2D1002015E0BA
:1013A00014F1010FD3D000F0D7FBA0EB080084426A
:1013B00001D3002CCBD1E9B23068012908D14069B2
:1013C00000F00BF8C6D000F015F80120BDE8F08160
:1013D000806900F002F8DAD0F5E7384080B2B9B29F
:1013E000884270470268014642F400720A606FF456
:1013F0008060704700203063202106F13C0000220D
:1014000041708270416841F0200141600270704774
:1014100070B505460C46164628684169080617D47B
:10142000284600F071F818B914F1010FF4D001E06A
:10143000012070BD00F090FB801B844201D3002C82
:10144000EAD1286841690806E6D400F025F8EFE7FC
:10145000002070BD70B505460C46164628684169E7
:10146000480717D4284600F04FF818B914F1010FB7
:10147000F4D001E0012070BD00F06EFB801B8442BF
:1014800001D3002CEAD1286841694807E6D400F06E
:1014900003F8EFE7002070BD002105F13C0029634F
:1014A000202242708170426842F020024260017046
:1014B000704770B505460C461646286841694A06CD
:1014C00020D44169CA060FD56FF010014161002098
:1014D0002863202105F13C000022417082704168A0
:1014E00041600270012070BD00F036FB801B844219
:1014F00001D3002CE1D1286841694806DDD4FFF70B
:10150000CBFFEFE7002070BD10B501684A695305B5
:101510000DD56FF480644C61002101633C302023C1
:1015200043708170436843F004034360017012F418
:10153000806018BF0120C0B210BDF0B40246106830
:1015400095681318506803EB5004C00748BF4D441A
:10155000A3422DD013F8016B16F0030004BF13F85B
:10156000010BC01C31090F2907D113F8011B0F31E2
:1015700003E013F8017B05F8017B401EF9D1002937
:10158000E6D013F8010BC6F38106032E08BF13F84B
:10159000016B00EB0620404228440026B71E8F4214
:1015A0001EBF10F8017B05F8017B761CF6D1CFE752
:1015B000F0BC02F10C007047254A2648264980B548
:1015C000426000234FF4804201608360C360026187
:1015D00043618361C3610362FEF788FD18B1BDE812
:1015E000014000F01DBC01BD18B585B004461022B5
:1015F000002101A800F048FC21681748814224D14D
:10160000164C216841F008012160C021206800F0DB
:1016100008000090122200981148019102920121C5
:10162000049101A900F03AFC606840F40010606089
:101630000022606800F400100090052100981F202F
:1016400000F032FD1F2000F04CFD06B010BD000080
:10165000801A060034240020005400401810024074
:10166000000C01402DE9F843040016D02078DFF883
:10167000A464C10713D5706800F00C00042807D0DB
:10168000706800F00C00082841D17068C1033ED595
:101690003068810303D56068002800F064812078F9
:1016A000DFF88074810719D5706810F00C0F07D02F
:1016B000706800F00C00082861D17068C1035ED426
:1016C0003068810703D52069012840F04C813168DA
:1016D000606921F0F80141EAC00131602178080712
:1016E00040F18180A069DFF84014002800F0A68056
:1016F00001220A6000F030FA0546706A810763D45F
:1017000000F02AFA401B0228F7D903202EE1606876
:10171000B0F5803F04D1306840F48030306014E090
:1017200008B930680AE0B0F5A02F306806D140F45F
:1017300080203060316841F4803105E020F4803051
:101740003060316821F480213160606858B100F068
:1017500003FA054630688103A1D400F0FDF9401B6F
:101760006528F7D3D1E700F0F7F905463068810323
:1017700095D500F0F1F9401B6528F7D3C5E720693E
:10178000A8B10121396000F0E7F90546306881070A
:1017900005D400F0E1F9401B0228F7D9B5E730681D
:1017A000616920F0F80040EAC100306096E73860D7
:1017B00000F0D2F90546316888078FD500F0CCF9E2
:1017C000401B0228F7D9A0E7DFF84C030168C908DD
:1017D0004FF47A72B1FBF2F2009200BF0098411E02
:1017E00000280091F9D1207841076ED5F0690025D5
:1017F000C10009D4F06940F08050F0610125F06922
:1018000000F0805000900098DFF82083D8F80000A6
:10181000C10520D4D8F8000040F48070C8F800005A
:1018200000F09AF98146D8F80000C10513D400F001
:1018300093F9A0EB09006528F5D366E7086000F08E
:101840008BF90546706A8107CDD500F085F9401BFC
:101850000228F7D959E7E068012808D008B9306AAA
:1018600009E00528306A06D140F004003062306A91
:1018700040F0010005E0400840003062306A20F08E
:101880000400306241F28938E06860B100F064F928
:101890008146306A810713D400F05EF9A0EB09009D
:1018A0004045F6D331E700F057F98146306A8107A9
:1018B00006D500F051F9A0EB09004045F6D324E726
:1018C0001DB1F06920F08050F061E06900284CD033
:1018D000716801F00C01082938D002282AD100F0E3
:1018E00047F805463068810105D500F035F9401B01
:1018F0000228F7D909E7206AB0F5803F05D1716861
:10190000A06821F40031014371607268206A616A45
:1019100022F4741202430A437260012000F029F895
:1019200004463068810120D400F016F9001B02281B
:10193000F7D9EAE600F01CF804463068810114D5B6
:1019400000F00AF9001B0228F7D9DEE601280AD0C8
:101950007068226A00F48031914202BF00F4701076
:10196000616A884201D0012000E00020BDE8F283D6
:101970000020386600F0F0B82DE9F04104008846F8
:101980004ED06B4E00F077F802D200F06FF847D1DE
:101990002068604D810712D5400703D5696841F47E
:1019A000E06169602078010703D5686840F4605001
:1019B00068606968A06821F0F001014369602178DE
:1019C000C80725D56068012802D129688A0303E089
:1019D0000228296802D18A0102D421E08A071FD592
:1019E0006968890840EA8100686000F0B5F8074638
:1019F0006868616800F00C00B0EB810F08D000F05F
:101A0000ABF8C01B41F289318842F1D303202BE0AF
:101A1000306800F00700804504D200F027F801D0BC
:101A2000012021E02078410705D56A68E06822F4AA
:101A3000E06202436A602178080706D56968206978
:101A400021F4605141EAC001696000F019F86A6848
:101A50003849314BC2F30312895CC84018603048E2
:101A6000006800F053FB0020BDE8F0813168C90830
:101A700048EAC1013160306800F007004045704716
:101A80002D4926480A6802F00C03082B00D0704745
:101A900010B500BF2BA4C2F38343D203E35C08D587
:101AA000096858432BA3C1F340415A5CB0FBF2F0E4
:101AB00010BD18462149484310BD17481E4A00680A
:101AC00013681F49C3F3022206E013481A4A00684C
:101AD00013681B49C3F3C222895CC840704710B524
:101AE0000F220260144A136803F003034360146872
:101AF00004F0F0048460136803F4E063C3601268C8
:101B0000D20802F4E06202610948026802F00702AA
:101B10000A6010BD001002402800002000127A0068
:101B20002400002000004242800442420070004035
:101B300000200240E08500080410024000093D003A
:101B40001886000802030405060708090A0B0C0D95
:101B50000E0F101001022E0001484068704700BFB0
:101B60001C000020704770477047704770477047EF
:101B700038B590F821200024022A00F1340103D066
:101B80000420486001243EE00268136823F00E033D
:101B900013600268DFF8743015686D086D00156019
:101BA00002689A4208BF012222D0DFF864309A42CC
:101BB00008BF10221CD0DFF85C309A4208BF4FF4F7
:101BC000807215D0DFF850309A4208BF4FF480522F
:101BD0000ED0DFF848309A4208BF4FF4803207D069
:101BE000DFF83C309A420CBF4FF480124FF0807205
:101BF000DFF830301A60012280F8212080F8204080
:101C0000096801B18847204632BD00000800024043
:101C10001C000240300002404400024058000240D4
:101C20006C0002400400024090F8210070477047A9
:101C3000704770477047000030B587B000F0B4FAC5
:101C400000F08EF800F0C2FAFFF7B6FC00F01AFBC5
:101C500000F024FB00F0ACFB664C674D2068286068
:101C6000012824D16FA000F0F9FB00200090102281
:101C70000DF1040080A100F005FC00F04AFC69466B
:101C800001A800F0C1FC012200232146022000F03F
:101C900005FC6A68594900F05FF8AA68584900F0E5
:101CA0005BF8EA68574900F057F800F042FC6168B9
:101CB0006960A068A860E068E86000BF5DA000F00F
:101CC000CDFBA9685FA000F0C9FBE86800F006FD45
:101CD00000224D4B00F010FD02460B465FA000F0C5
:101CE000BDFB4A494A4A049105921021494AADF880
:101CF000181001924FF4805247490291ADF80C2020
:101D000004AB93E8070000F037FE01AB93E807004F
:101D100000F032FE04A807C800F06AFE01A807C858
:101D200000F066FE0F20009004A907C90A2300F006
:101D300007FE0F20009001A907C90A2300F000FE4A
:101D4000642000F05DFE00F077FE00F097FF4FF496
:101D5000FA7000F055FEFAE70023022000F09EBB67
:101D600018B593B0282109A800F0C4FF14216846D3
:101D700000F0C0FF05A8002100220023002480E815
:101D80001E00012109910B924FF480310A911191AB
:101D9000012302224FF480110D931092129109A891
:101DA000FFF760FC08B100F03BF8022101910F2021
:101DB0004FF48061009003910294049401216846DD
:101DC000FFF7DAFD08B100F02BF810214FF4800284
:101DD0000591089205A800F091FF08B100F020F8E5
:101DE00014B010BD00680D49884208BF00F0FABF6A
:101DF0007047000000FC00080000002004FC000800
:101E000008FC00080CFC000800408F4084230020E0
:101E100000080140DC230020000C014000080040C5
:101E200072B6FEE7496E697420436F6E6669670D8E
:101E30000A00000073616E644E756D3A25640D0AE8
:101E40000000000073637265656E427269676874B2
:101E50006E6573733A25640D0A000000677261763F
:101E6000697479436F6566666963656E743A253196
:101E70002E33660D0A000000000000000000000084
:101E800000FC00080100000010B5044610460A4698
:101E90000146204600F0AEFF204610BD2DE9F84770
:101EA0004FF0000E0024664A664BDFF89C814FF02D
:101EB0000F0982460DE017683840106007E0C2F84D
:101EC00004C04D68ED03F6D51068074317600EF1A6
:101ED000010E0F6837FA0EF000F0AC80012000FA16
:101EE0000EFC0CEA07076745F1D1486838B30128B2
:101EF0001AD002281DD003282ED0112816D012285F
:101F00001AD0524DA8421CBF514DA84217D0514D76
:101F1000A8421CBF504DA84211D0504DA8421CBF32
:101F20004F4DA8420BD018E0CC6816E0CC68241DB9
:101F300013E0CC68083410E0CC680C340DE08868FD
:101F400008B9042409E0012819BF0824CAF814C0FC
:101F50000824CAF810C000E00024B7F5807F03D23F
:101F600050464FEA8E0C05E0AEF108050AF1040078
:101F70004FEA850C056809FA0CF6B54304FA0CF62D
:101F800046EA050CC0F800C04868C0009FD5D8F8E4
:101F9000000040F00100C8F80000D8F8005005F03B
:101FA000010500954FEA8E0500984FEA9E0053F810
:101FB000206005F00C0C09FA0CF526EA0505294EFF
:101FC000B24508BF00260ED0274EB24508BF0126F5
:101FD00009D0264EB24508BF022604D0244EB24591
:101FE0000CBF0326042606FA0CF646EA050C43F855
:101FF00020C0F8434D68D2F808C0ED024CBF47EA54
:102000000C0C00EA0C0CC2F808C04D68D2F80CC0E9
:10201000AD024CBF47EA0C0C00EA0C0CC2F80CC035
:102020004D68D2F804C0AD034CBF47EA0C0C00EA7F
:102030000C0C44E7BDE8F18702B90904016170475F
:102040000004014008000140181002400000111077
:1020500000001210000021100000221000003110BA
:102060000000321000080140000C01400010014047
:10207000001401400901020002D41F488154704736
:102080001E4B02F00F021A4402F8041C70471C4B4E
:1020900019684FF6FF020002114000F4E0600843A7
:1020A000184908431860704770B5154B1C68C4F395
:1020B00002230124C3F10705052D2EBF0F2504FAC5
:1020C00005F56D1E1E1D072E34BF0023DB1E2940A3
:1020D000994004FA03F3BDE870405B1E1A401143B7
:1020E000C8E7010007D4012200F01F01064B8A4017
:1020F000400943F82020704700E400E018ED00E0BC
:102100000CED00E00000FA0500E100E078B50446BF
:10211000204887B0016841F00401016001A900680E
:1021200000F00400009002A8009AFFF7D8FC059880
:1021300010B9FFF7C2FC02E0FFF7BFFC4000164DEC
:102140001649174B2960B0FBF3F0401E40F2E7320E
:1021500068600021EA602961A960A961284600F051
:1021600053FE060012D1284600F05BFE06000DD19A
:102170001E20FFF7B6FF102C07D2002221461E209A
:10218000FFF792FF0748046000E00126304608B0E0
:1021900070BD00001C100240D82400200008004040
:1021A00040420F002400002080B50748016841F03C
:1021B000100101600320FFF76AFF0F20FFF7A6FF61
:1021C00000F058FF002002BD0020024030B585B06D
:1021D000102200216846FFF757FE2148214D016873
:1021E000214C41F020010160026802F020020492BB
:1021F0000499026842F004020260036803F00403D9
:1022000004930499026842F0080202600022006808
:1022100000F008000490102104982846FFF70CFFF6
:1022200000224FF480512046FFF706FF102100F0F6
:102230001FF82846FFF732FE4FF4805100F018F8DF
:102240002046FFF72BFE4FF4807008490090019163
:102250000022029269462046FFF720FE05B030BDFD
:102260001810024000080140000C0140000011104D
:1022700000910122019200210291022203926946FB
:102280007047000080B54348434901604FF48272B3
:10229000182100F00FF800B11DE001BD80B53F48E6
:1022A0003F4901604FF48272102100F003F800B141
:1022B00011E001BD4260C16100234FF400720A21A8
:1022C0008360C3600361436182610362436283622E
:1022D000C16200F0F5BEBDE80140FFF7A1BD18B531
:1022E00085B00446102200216846FFF7CDFD206826
:1022F00000F04BF81DD1086840F4805008600A686F
:1023000002F48052049204980A6842F004020A60BF
:102310000222096801F004010491A02104982148D7
:1023200000F02CF8002205212320FFF7BDFE23201A
:1023300020E01B4A90421FD1486840F4804048602A
:10234000486800F48040049004980A6842F008024B
:102350000A600222096801F0080104914FF420414B
:102360000498114800F00AF8002205212420FFF704
:102370009BFE2420FFF7B5FE06B010BD0091019230
:10238000032103916946FFF789BD034A074990423B
:10239000704700008423002000300140DC2300202F
:1023A0000038004000080140000C014018100240B5
:1023B00080B52648264901604FF4E13200230C2104
:1023C00042608360C360036141618361C36101F066
:1023D0009BF818B1BDE80140FFF722BD01BD18B55B
:1023E00085B00446102200216846FFF74DFD2168A4
:1023F0001748814228D11748174C016841F48041A1
:102400000160026802F4804204920499026842F07A
:10241000040202604FF40071006800F004000490B0
:1024200002220498009101920321039120466946FB
:10243000FFF734FD4FF4806000210090019102917C
:1024400020466946FFF72AFD06B010BD2025002072
:102450000038014018100240000801400EB4C0B519
:10246000024603A800210190009101AB012104481C
:1024700078440C3001F067F906BC5DF810FB00BF32
:10248000456100004AB1000011F8013B521E00F8FE
:10249000013B1CBF11F8013BF8E770472DE9F84FED
:1024A000534E0746307E8B4614469946012808BF96
:1024B00002202CD0012030764CF2503A504600F0E9
:1024C0004BF8010021D1012F08BF012103D0022FB9
:1024D0000CBF022104210025464F884600E06D1CF8
:1024E000454512DA204649462A0102F07FF881B2BA
:1024F0000BEB450000F025F8504600F02DF8396848
:102500004908490002003960E9D000213176BDE870
:10251000F28F3A49CA680020130600D4704710B5FC
:10252000374A384C0A600C60C9680A0648BF012067
:1025300010BD3048016841F08001FFE701600020D4
:10254000704710B52A4B0022DA612A4A146844F019
:1025500001041460018010BD70B50446FFF7FCFA59
:102560000646254D2868C1070AD514F1010FF9D098
:1025700024B1FFF7F1FA801B8442F3D2032070BD2F
:102580002868810644BF202028602968C80605D431
:102590002969C80702D42968480703D500F004F860
:1025A000012070BD002070BD10B5134A104913689A
:1025B0000020DC0604D5C86940F00200C861102084
:1025C00013685C0705D5CB6943F00103CB6140F08C
:1025D00004001369DC0707D5CB6943F00403CB6122
:1025E0001169490849001161106010BD0000000028
:1025F00070250020102002400C20024004200240E0
:1026000023016745AB89EFCD2DE9F047DFF8C460C2
:102610000746307E01258846012808BF02203BD0AE
:1026200035764CF250393868DFF8AC40022848461D
:102630000ED1FFF791FF60BB012000F02FF8484654
:10264000FFF78AFF0546206820F00400206020E0A4
:10265000FFF782FFE8B94FF0FF30C8F80000D7F865
:1026600008A001E00AF5806AF868B96801EB8021EA
:102670008A450ED2504600F01EF84846FFF76CFF20
:102680000546206820F0020029002060EAD0C8F842
:1026900000A0002030762846BDE8F0870D490020D4
:1026A000C8610D48026842F004020260016841F00E
:1026B000400101607047074A0021D16106490B685B
:1026C00043F002030B604860086840F04000086077
:1026D00070470000702500201020024050B1B0FA71
:1026E00080F18840C91CC1F58461090501EBD02146
:1026F0004005704701467047F0B540F2FF7581EA2A
:10270000030C0CF0004C15EA11541DBF15EA1357C9
:10271000AC42AF42E5E0BC41C1F31301C3F3130384
:10272000801A994143F4801304D2641E0018494171
:1027300080185941C90241EA5051B1FBF3F603FB3D
:102740001611A2FB0675D7EBC020A94102D2761E56
:1027500080185941C90241EA5051B1FBF3FE03FB15
:102760001E11A2FB0E75D7EBC020A94103D2AEF11A
:10277000010E80185941890241EA9051760546EAD6
:102780008E2EB1FBF3F603FB1611A2FB0675D7EBF9
:102790008020A94102D2761E80185941C90241EA1F
:1027A00050514EEA060EB1FBF3F603FB1611A2FBE5
:1027B0000675D7EBC020A94102D2761E8018594178
:1027C000C90241EA5051B1FBF3F703FB1711A2FB19
:1027D0000735D3EBC020A94167F100070CBF0042C9
:1027E00047F0010766F3D5274FEA1E31B80814F504
:1027F000806412DDBD0775F1004250EB0E5051EBC5
:10280000045111F5801F5CBF41EA0C01F0BD4CF092
:102810007F6141F0E0410020F0BDBD076D0840EA56
:102820000E5041F48011D4F10104B4F120060ADA0B
:10283000C4F120060200E04001FA06F3E14018432B
:10284000B24015430EE0342C13DCC6F1200445EAF7
:1028500040056D0820FA06F2154321FA06F0A14062
:102860000D43002175F1004250F1000051EB0C01C5
:10287000F0BD00205FEA0C01F0BDCFB992185B41BA
:10288000B3FA83F704BFB2FA82F6BF190B3FB7F170
:1028900020062FBF02FA06F3BB40C7F1200622FA3A
:1028A00006F638BF3343BA401CB1E419641E33E75F
:1028B0007F4231F00041B1FA81F404BFB0FA80F6F2
:1028C000A4190B3CB4F120062FBF00FA06F1A14079
:1028D000C4F1200620FA06F638BF3143A0403C1B65
:1028E0001AE7AC421ABF05EA1357AF4212E050EAAA
:1028F00041061CBF52EA4306BFE750EA4107304693
:1029000061461CBF41EA0551F0BD52EA430C08BFC5
:10291000C143F0BD00204FF4001616EB410F98BFE5
:1029200016EB430F08BF16EB410F24BFC14305E070
:1029300016EB430F0CBF61464CEA0551F0BD000099
:1029400037B582B00C460898BDF810508DF80100DC
:102950008DF80030002229462046FFF76DFB0298D3
:10296000FF230222694600F000FC0122294620468E
:10297000FFF762FB05B030BD1FB582B000240094A4
:102980000923FFF7DDFF02A807C8032400940A23E8
:10299000FFF7D6FF0720009002A907C90B23FFF716
:1029A000CFFF0120009002A907C90C23FFF7C8FF41
:1029B0000020009002A907C90F23FFF7C1FF02A85A
:1029C00007C806B0BDE8104038B584B001AD00249A
:1029D00085E80700002300F005F8E0B20828F9DBDD
:1029E00005B030BD95E807000093641CE3B2A7E78B
:1029F0001CB5012400940F23FFF7A2FF13BD0000B4
:102A000038B50446FFF7A8F814F1010F054602D0C7
:102A1000044908780419FFF79FF8401BA042FAD335
:102A200031BD00BF1C000020694B036003F154005E
:102A3000086080211160704710B500217EA0654CB0
:102A400000F021F92060002182A000F01CF96060F4
:102A500010BD80B501F0DAFD012000F043F9FBE77D
:102A60002DE9F84F88B001F018FE01F03BFE6846F2
:102A700001F051FE06A801F068FEBDF9000001F06A
:102A8000A3FE554901F0B2FE0646BDF9020001F071
:102A90009BFE514901F0AAFE07465048504902F0FA
:102AA0001FF900F0ABF800F0A5F8804689463846DB
:102AB00002F01AF904460D464A484B4902F010F953
:102AC00000F098F842464B4602F032F902F060FA04
:102AD00080464248424902F005F900F08FF800F0C4
:102AE00089F804460D46384602F0FEF806460F46C1
:102AF0003C483D4902F0F6F832463B4602F07CFA8B
:102B000022462B4602F014F902F042FA0646BDF9BD
:102B1000040001F059FE354901F068FE07464046C1
:102B200002F0E2F800F06AF880468946CDE90489AF
:102B3000384602F0D9F806460F46CDE9026720462E
:102B4000294600F057F882468B46DDE90423DDE98B
:102B5000040102F051FA52465B4602F0E9F882465F
:102B60008B46DDE90223DDE9020102F045FA524617
:102B70005B4602F0DDF802F015FB82468B461C48EE
:102B8000FFF76CFC22462B461FA0FFF767FC42466E
:102B90004FEA09031FA0FFF761FC32464FEA070323
:102BA0001FA0FFF75BFC5046594602F0F1F902F016
:102BB0009BF802464FEA01031CA0FFF74FFC0C48AC
:102BC000FFF74CFC4FF47A7000F08CF84FE70000F0
:102BD000E81B00209025002000FC7F46B59FD67E94
:102BE0007CD90240F1D4C853FB21E93F00FC7FC6E9
:102BF0000085000822462B4602F0FEB904460D4629
:102C0000304602F071B80000783A25312E33662044
:102C1000670D0A00793A25312E336620670D0A00C8
:102C20007A3A25312E336620670D0A00673A25313E
:102C30002E33660D0A00000000860008532A0008A3
:102C40000000000000000000800000000000000004
:102C5000000000000C860008612A0008FDFF00004B
:102C60000000000000010000000000000000000063
:102C700001460020842918BFC81C704780B502F0A7
:102C800014FC002002BD38B5044684B060690D46CE
:102C900000281CBFA069002812D0B4F90800FFF773
:102CA000E7FFA16902912B466269019200902269B7
:102CB0002168606802F0F0FA0390039805B030BD17
:102CC000B4F90800FFF7D4FF03A9019100902B4647
:102CD00022692168606892B202F00EFB0128ECD0F4
:102CE0000020EBE780B500B9012002F0C4FB002012
:102CF00002BD0000002202F099BD00002DE9FC4158
:102D00000646354D3078C10750D5A8690024C1006A
:102D100009D4A86940F08050A8610124A86900F096
:102D20008050009000982D4F3868C10511D4386844
:102D300040F480703860FEF70FFF80463868C105A8
:102D400007D4FEF709FFA0EB08006528F6D303209F
:102D50003FE0E86910F440701EBF716801F44071F3
:102D6000884218D01E49E86901220A60002320F435
:102D700040700B60E861C0070DD5FEF7EDFE074619
:102D8000E869810707D4FEF7E7FEC01B41F28931ED
:102D90008842F5D3DBE7EA69706822F440720243A7
:102DA000EA611CB1A86920F08050A86130788107E1
:102DB00005D52A68B06822F4404202432A6031787F
:102DC000C80605D52968F06821F48001014329600F
:102DD0000020BDE8F68100000410024000700040B1
:102DE0004004424202494A68087882184A607047A3
:102DF0001C0000204018491C1CBFB1F1010100F863
:102E0000012DF9D17047000038B5040001D101202F
:102E100032BD00F049F818B900F0F0F802F01FFDDB
:102E20002AE090F83D10012901D0012070470221CD
:102E300080F83D100168CA6842F00102CA6001686A
:102E4000DFF85C20914218BFB1F1804F07D0DFF866
:102E5000542091421CBFDFF85830994205D189684F
:102E600001F00701062905D001680A68084642F00A
:102E7000010202600020704702206870211D206856
:102E800000F0C0F80120A8720121A970E870297132
:102E90006871A971E871297268726970002032BD89
:102EA000002C01400004004004F13C0568787047A4
:102EB0000008004010B50446206801698A0715D54E
:102EC000C1688A0712D56FF00201016101222277E1
:102ED000806910F0030F204602D002F0C1FC03E02D
:102EE00002F0BFFC00F087F800202077206801691D
:102EF0004A0715D5C1684A0712D56FF00401016170
:102F000002222277806910F4407F204602D002F02E
:102F1000A7FC03E002F0A5FC00F06DF8002020778C
:102F2000206801690A0715D5C1680A0712D56FF034
:102F30000801016104222277C06910F0030F2046C6
:102F400002D002F08DFC03E002F08BFC00F053F89D
:102F50000020207720680169CA0615D5C168CA0615
:102F600012D56FF01001016108222277C06910F4B8
:102F7000407F204602D002F073FC03E002F071FCB7
:102F800000F039F80020207720680169CA0708D5C9
:102F9000C168CA0705D56FF0010101612046FEF73F
:102FA00021FF206801690A0608D5C1680A0605D50F
:102FB0006FF080010161204602F054FC2068016935
:102FC0004A0608D5C1684A0605D56FF0400101617F
:102FD000204602F048FC206801698A060AD5C168CB
:102FE0008A0607D56FF0200101612046BDE8104038
:102FF00002F03ABC10BD204602F037BC0021297017
:103000002046704770B50368164E174C174DB042F6
:1030100018BFB0F1804F03D0A84218BFA04209D119
:103020004A6823F070031343B0421CBFB0F1804FD5
:10303000A84201D0A04203D1CA6823F440731343CD
:103040004A6923F0800313430360B0428B68C36274
:103050000A68826202D10969054A1160012343614D
:1030600070BD0000002C014000080040000400403A
:10307000302C014080B51048016841F00101016029
:10308000026802F0010200920099426842F0805208
:1030900042600022406800F0805000900F210098AC
:1030A0006FF00100FFF700F80448016821F0E061CB
:1030B00041F00071016001BD1810024004000140A0
:1030C00038B5040001D1012032BD606A28B900F092
:1030D000EDF805D00021E16102E00020206160618F
:1030E0000020A06204F15005687820B90021297001
:1030F0002046FFF7F4F80220687000F08BF9606852
:10310000A168E26800F4827001F404410843217C64
:1031100002F400621043227D01F002010843A1691C
:1031200002F001021043227F01F40071084394F879
:10313000201002F038021043A26A01F08001084317
:10314000216802F4005210430860A0692168000C55
:1031500000F0040048602068C16921F40061C16189
:10316000002068600121697032BD2DE9F8430546F1
:1031700005F15007002638780C46914698460128FC
:1031800008BF022000F0908001203870FEF7E4FCB8
:103190007978012918BF022640F08380002C18BFDF
:1031A000B9F1000F79D00321797000237B602C6383
:1031B000A5F83490A5F836900021A963AB87E9877C
:1031C0006B642964AB68B3F5004F09D129680B68BB
:1031D00023F040030B6029680C6844F480440C60C1
:1031E00029680B685C0603D40B6843F040030B604E
:1031F0004446E968B1F5006F696821D1002918BF1C
:10320000B9F1010F00F075F8804604E0296B0A88D7
:10321000C26000F04FF8E88E002833D0286881683B
:103220008A07F3D4FEF798FCA0EB0800A04204D371
:1032300014F1010FEFD0032631E0002CEBD1FAE7B7
:10324000002918BFB9F1010F00F047F8804606E0E9
:10325000296B0A780273286B411C00F02DF8E88E68
:1032600080B1286881688A07F2D4FEF775FCA0EB6C
:103270000800A04203D314F1010FF0D0DBE7002CCB
:10328000EDD1D8E742462146284600F029F908B199
:103290002020786000F015F808B1012601E0012037
:1032A0007870002139703046BDE8F2836068B0F56F
:1032B000827F7047286B811C2963E88E411EE98656
:1032C0007047A86838B9002100912968CA6800923F
:1032D00089680091009A7868704709D1296B2B683A
:1032E0000A781A73296B4A1C2A63E98E4A1EEA86F9
:1032F000704709D1296B2B680A88DA60296B8A1C10
:103300002A63E98E4A1EEA8670477CB50446226825
:103310005168936803F04100012806D1480604D59E
:10332000216C2046BDE87C400847980706D50D066D
:1033300004D5616C2046BDE87C40084713F0600F5F
:1033400058D0880656D55D060ED594F8510003284E
:1033500043D0606D40F00400606500250095D6689C
:1033600000969568009500989B060ED5606D40F01C
:103370000100606500230093926800922068036852
:10338000024623F040031360009B606D90B32068F9
:10339000426822F0E0024260012011F0030F84F83D
:1033A000510022D020680FF2510541688908890038
:1033B0004160E06C28B14563E06CFEF7D9FB00F09A
:1033C00023F8A06CB0B14563A06CFEF7D1FB88B1C7
:1033D000606D40F04000606573BD00200090D168D2
:1033E000009192680092009873BD2046BDE8764037
:1033F00002F03CBA73BD0000406A0021C187002280
:10340000C28602F033BA000018B1606D40F040008F
:10341000606570472068016821F0400101607047D5
:103420002DE9F843089C05460E4690461F46FEF7D8
:1034300093FB381A2418FEF78FFB81463148016848
:103440004901090D6143009105E0009800B900248D
:103450000098401E0090286881683140B1420CBF3E
:1034600001200020404532D017F1010FF3D0FEF7C4
:1034700073FBA0EB0900A04201D2002CE5D1286823
:10348000416821F0E00141606868B0F5827F08D1B1
:10349000A868B0F5004F18BFB0F5806F01D100F0FB
:1034A00019F8A86AB0F5005F09D12868016821F40D
:1034B000005101602868026842F40052026005F180
:1034C00050000121417000220270032000E0002022
:1034D000BDE8F2832868016821F04001016070476F
:1034E0001CB500920B46044600228021FFF798FF8E
:1034F00008B100F001F816BD606D40F02000606575
:10350000032070472800002038B5040001D10120B5
:1035100032BD00F01BF808B900F01CF800F01FF8ED
:1035200000F027F8FFE7416100F001F832BD2068A4
:10353000C16841F40051C1600020686020216970B9
:103540002020A870002161630020704704F140052D
:1035500068787047002129702046FEF740BF24207C
:1035600068702068C16821F40051C160204600F0F5
:10357000A6B82068016921F4904101612068416981
:1035800021F02A0170472DE9FC4106460D4696F8C8
:103590004100202814461F463FD10DB1200001D123
:1035A00001203BE000207064212186F84110FEF7E5
:1035B000D3FAB4848046F48400F032F804BF306952
:1035C00000281ABF2C46002500240CE03068002C8F
:1035D00012BF14F8011B35F8021BC1F3080141604A
:1035E000F08C411EF1844346F08C0097002807D0F0
:1035F00000228021304600F017F80028E6D005E0D0
:1036000000224021304600F00FF808B1032005E009
:10361000202086F84100002000E00220BDE8F6816D
:10362000B068B0F5805F70472DE9F041069C054613
:103630000E4690461F46286801683140B1420CBFD3
:103640000120002040451BD114F1010FF3D024B11B
:10365000FEF782FAC01B8442EDD200F014F821F488
:10366000D07100F01AF8F8D100F01BF805F1400015
:10367000202141702022827000210170032000E08F
:103680000020BDE8F081286800F10C0151E8001F1E
:1036900000F10C03704721F0100143E800100028EE
:1036A0007047286800F1140151E8001F490800F133
:1036B0001403490043E800100028F2D1704710B508
:1036C000044622681169E06821F440510143116108
:1036D000D3681949A0680B402169034360690B4313
:1036E0000343D3605169A06921F4407101435161E2
:1036F00012498A4202D1FEF7E8F901E0FEF7DDF94E
:103700006268192148439200B0FBF2F16423B1FBD7
:10371000F3F26FF0630000FB021109013231B1FBDB
:10372000F3F000F0F00101EB0211226800F00F004D
:103730004018906010BD0000F3E9FFFF0038014021
:1037400040F0200070472DE9F14FB0B0924604914F
:103750000DF142013A9A2B9199464A7000200AE0F5
:103760001AF8011B0498309A90470028049000F042
:1037700031860D98401C0D909AF8000050B1252814
:10378000EED1002100220791089209910A920B9133
:103790000C9204E00D9800F01FBE41F001011AF8F0
:1037A000010F2028F9D023280CD02B2804D02D2855
:1037B00005D0302809D00BE041F00201EFE741F0DD
:1037C0000401ECE741F00801E9E741F01001E6E708
:1037D0002A280FD1D9F8002052F8040BC9F800208C
:1037E00000280F9003D540420F9041F004010AF1E8
:1037F000010A14E00F92DFF8E83B0AE00F989842C4
:1038000005DA00EB800402EB4402303A0F920AF131
:10381000010A9AF80020A2F130000A28EED39AF8A3
:1038200000002E2803D04FF0FF320E9229E01AF844
:10383000010F2A2809D1D9F8000050F8042BC9F843
:1038400000000E920AF1010A1BE02D280CBF0AF1BC
:10385000010A002000220E92DFF8844B0BE040B9F1
:103860000E9AA24205DA02EB820503EB4503303BD8
:103870000E930AF1010A9AF80030A3F130020A2AE5
:10388000EDD3ADF840100FF65C309AF8001001F05F
:10389000EFFF08B11AF8010B8DF842009DF84200C5
:1038A000682805D19AF8000068280CD1622106E04A
:1038B0006C2804BF9AF800006C2804D171218DF89F
:1038C00042100AF1010A12A806901AF801BBBBF1D6
:1038D00025012CD01C3900F09481091F022940F2E7
:1038E0009081133900F0A884093900F08A81891E7B
:1038F00000F03D85491E00F0EA84491E022940F28D
:103900008081091F00F0E384491F00F0EF80491E09
:1039100000F09284491E00F0D780C91E0CD0891E89
:1039200000F08A84C91E00F0878400F02BBD0122BC
:103930000792252100F023BDD9F8000050F8044B70
:10394000C9F80000002C059440F0AB802B99487812
:10395000002800F0A1804FF0FF340FF6902001F016
:1039600093FF201A40F0368500F018BD01236A4607
:1039700002A9304600F0FEFD002840F02B856D1EA8
:10398000F4D13096079D12AF75B1309E17F8011B28
:103990000498B0470028049000F01C850D98401C46
:1039A0006D1E0D90F2D130960A9D3021002D8DF8BC
:1039B00000100CDD309E01236A4602A9304600F05B
:1039C000D9FD002840F006856D1EF4D13096059F84
:1039D000089D75B1309E17F8011B0498B047002868
:1039E000049000F0F7840D98401C6D1E0D90F2D1EC
:1039F00030960B9D3021002D8DF800100CDD309E8F
:103A000001236A4602A9304600F0B4FD002840F0C8
:103A1000E1846D1EF4D1309605980899099D4718E8
:103A200075B1309E17F8011B0498B0470028049028
:103A300000F0D0840D98401C6D1E0D90F2D1309690
:103A40000C9D3021002D8DF800100CDD309E0123DF
:103A50006A4602A9304600F08DFD002840F0BA8485
:103A60006D1EF4D130969DF8400041077FF584AE7D
:103A70002020002C8DF800007FF77EAE309D0123C2
:103A80006A4602A9284600F075FD002840F0A2848D
:103A9000641EF4D130956FE60FF63830059000F0D3
:103AA0007DBC0E9D002D04D5204601F00DFF04467F
:103AB00007E02A46204601F023FF002814BF041B1C
:103AC0002C46089400F06ABCD9F8001051F8040B99
:103AD000C9F8001020F00004002121F0FF35CDE9E5
:103AE000024512AB0593782100F03DBC2B99487834
:103AF00020B14FF0FF340FF6AC2030E79DF84200C4
:103B0000622860D0682817D06A283FD06C2806D079
:103B1000712847D074282CD07A281DD062E0D9F8BB
:103B2000001051F8040BC9F80010002866D14FF0BE
:103B3000FF340FF6882012E7D9F8001051F8040B73
:103B4000C9F8001020B94FF0FF340FF6702006E7D7
:103B50000D99018000F022BCD9F8001051F8040B37
:103B6000C9F80010002849D14FF0FF340FF64C205F
:103B7000F5E6D9F8001051F8040BC9F80010002838
:103B80003CD14FF0FF340FF63420E8E6D9F80010AE
:103B900051F8040BC9F8001080B94FF0FF340FF64C
:103BA0001C20DCE6D9F8001051F8040BC9F800100D
:103BB00020B94FF0FF340FF60420D0E60D9AD3174A
:103BC000C0E90023EAE3D9F8001051F8040BC9F862
:103BD000001020B94FF0FF340FF6E010BFE60D994A
:103BE0000170DBE3D9F8001051F8040BC9F800109C
:103BF00020B94FF0FF340FF6C410B0E60D99016004
:103C0000CCE39DF842004C2807BFD9F80010CB1D2B
:103C1000D9F80000C31D23F00703C9F80030D3E929
:103C200000010833C9F80030CDE90201C80F02D005
:103C300007982D210AE0BDF84000810702D50798BA
:103C40002B2103E0C00705D50798202112AB19549A
:103C5000401C079012A80799DDE9024543184BF074
:103C600020006128059321AE0BD00E98002802D5C4
:103C700006200E9005E001BF4BF0200067280121CF
:103C80000E91DDE902014F007F1517F1010F0DD1F3
:103C900008030BD0ABF1610203201A2A089002D26C
:103CA0000FF634110FE00FF634110CE017F1010F8D
:103CB0000ED109030CD1ABF1610203201A2A08903E
:103CC0001CD30FF6201103221846FEF7DBFB65E339
:103CD000DDE902016A4601F03FFECDE902014BF049
:103CE0002000612811D1059830210170821C0592B5
:103CF000BBF1610F0CBF7821582102E00FF6E00103
:103D0000E1E741700798801C0790DDE9020120F08F
:103D1000000231F0004308BF002A02D10025002430
:103D200045E14BF02008B8F1610F40F095800E9806
:103D3000002847BF21210191401C0190019F7F1C59
:103D40002046294600220023DDE9024501F03CFE21
:103D500038BF85F0004500998DF88420091F002F99
:103D600000910DF1850034DD0646204629460022EB
:103D7000002301F043FE2BD21C2201F059FE044621
:103D80000D4601F0F3FEFF1F002F804609DD01F014
:103D900009FF02460B462046294601F087F80446F3
:103DA0000D46F01D0721B8F1000F0CDD491E5EBF66
:103DB00008F00F0200F8012D4FEA2818F3D502E0B1
:103DC000002200F8012D491EFAD5C61D002FCCDCBB
:103DD00030460DF18501401A01990DF18506054621
:103DE0008842C8BF0D46002D2FD4854206DA0DF15A
:103DF0008500415D0829A8BF0F2000DA0020294670
:103E000021AA0A4400E06D1E12F80139491E8342BE
:103E1000F9D00F2804D10DF18500425C521C4254A8
:103E2000002904D50098001D21AE6D1C0090681E6D
:103E30000BD431180A783032D3B23A2BA4BF5A448B
:103E40003A3A401E01F80129F4D50E98002840F1B5
:103E5000AD80691E0E91A9E00099DFF8082747F2AE
:103E60009750414391FBF2F2009225F00045C2F1D8
:103E70000702002A04DD2046294600F04FFB0BE034
:103E800052420020DFF8E01600F048FB02460B46E5
:103E900020462946FEF730FC04460D46B8F1660F71
:103EA00006BF009F0A3706270E983F18142FC8BF79
:103EB000142730208DF884000DF1850000E0304695
:103EC000002F35DD06462046294601F07DFE0146DD
:103ED0000A4606F1080304200A26B2FBF6F606EBB2
:103EE000860EA2EB4E02303203F8012C0A22B6FBFA
:103EF000F2F202EB820EA6EB4E063036401E03F8BD
:103F0000026DE9D1083F002F03F10806D7DD08460E
:103F1000FEF7E4FB02460B462046294600F0C6FFAA
:103F20000022DFF8483601F067F804460D46CAE77C
:103F30000DF18501401A0DF1850604E00099491E36
:103F4000401E0091761C31783029F7D0B8F1660F09
:103F500002D10099491C04E0B8F1650F0CBF0121A2
:103F600000210E9D4D19A842B8BF451E002D1DD43D
:103F7000854204DA705D3428C8BF392000DC302067
:103F80002946721E531800E06D1E13F80149491EA0
:103F90008442F9D0392802D1705C401C7054002949
:103FA00004D50098401C16466D1C0090009C01F042
:103FB0001DFE406A0778DDF8388028B2002802DC50
:103FC00001250FF224664BF02000662808BF641C10
:103FD00016D0672846D120B210F1040F48DB4045C7
:103FE00046DA9DF84000641C010703D428B240451E
:103FF000D8BF804620B2B8EB000848BF4FF0000899
:104000000FFA84FBBBF1000F00F3B5800898411C48
:104010000891302205990A54B8F1000F03DC9DF88D
:104020004000010704D50898411C089105990F54D8
:1040300018EB0B0FB8BFC8F1000424B26042A044D3
:104040002AB20B909045B8BF4546059B08982DB203
:1040500009952A4631461844FEF714FAA8EB0500E4
:104060000C90D2E0BBF1610F17D14FF0700B19E04B
:1040700028B2404504DA9DF840100A0758BF804630
:10408000B8F1010848BF4FF00008BBF1670F14BF3B
:104090004FF0450B4FF0650B04E0BBF1410F08BF3B
:1040A0004FF0500B0898411C0891B8F1000F05998A
:1040B00016F8012B0A5403DC9DF8400001071AD5BD
:1040C0000898411C0891B8F1000F05990F5412DDB2
:1040D0006D1E28B28045B8BF45460598089B2AB298
:1040E00031461844FEF7CEF908992DB269180891A7
:1040F000A8EB05000B9005980899084421B2002907
:1041000080F800B003D42B224270821C04E02D22E0
:1041100042700C46821C644200212CAB20460AE00F
:1041200004460A2094FBF0F000EB8005A4EB450464
:1041300003F8014B491C00B20028F1DC012906DC20
:104140004BF02000652804BF302002F8010B002945
:104150002CAB08D1302002F8010B06E0491E585C58
:10416000303002F8010B0029F8DC05990898084462
:10417000121A099249E028B221B288421CDA059845
:10418000089B2AB231461844FEF77CF908992DB2F3
:1041900069180891ABEB0500B8F1000F0B9003DC38
:1041A0009DF84000020704D5059847540999491C19
:1041B0000991CDF8308028E00598089B22B231465D
:1041C0001844FEF75FF908982D1B5844B8F1000F0A
:1041D000089003DC9DF840100A0703D5411C0891A4
:1041E00005990F5428B28045B8BF45460598089BED
:1041F0002AB206EB0B011844FEF744F908982DB2D9
:1042000028180890A8EB05000B909DF8400000F0DE
:104210001400102840F0C280079A08990B988A1859
:10422000099982180C988A1882180F98824280F295
:10423000B580821A0A92B1E09DF84200622808D047
:1042400068280ED06A2814D06C281FD0712810D08E
:104250001CE0D9F8001051F8040BC9F80010C0B2E6
:104260001AE0D9F8001051F8040BC9F8001080B218
:1042700012E0D9F80000C21D22F00702C9F80020A0
:10428000D2E900010832C9F8002006E0D9F8001090
:1042900051F8040BC9F800100021CDE902019DF886
:1042A000400001075AD5DDE90223002B08BF002A90
:1042B00054D04BF02000782850D1079812A9302212
:1042C0000A54401C431C079301F800B046E09DF8D7
:1042D0004200622808D068280ED06A2814D06C28C2
:1042E0001FD0712810D01CE0D9F8001051F8040B31
:1042F000C9F8001040B21AE0D9F8001051F8040BC8
:10430000C9F8001000B212E0D9F80000C21D22F076
:104310000702C9F80020D2E900010832C9F80020DC
:1043200006E0D9F8001051F8040BC9F80010C117C5
:10433000CDE90201002902D507982D210AE0BDF838
:104340004000810702D507982B2103E0C00705D55F
:104350000798202112AA1154401C079012A807990F
:1043600001440591594602A800F04EF816E00120DC
:104370000790D9F8000050F8041BC9F800008DF828
:1043800048100BE001212522BBF1000F07918DF8A9
:10439000482003D0022207928DF849B00F9A07985F
:1043A0000A990C9C121A0898521A0B99121A099819
:1043B000521A121A9DF84000141B41073FF5E2AA59
:1043C0002020002C8DF800007FF7DCAA309E2546C7
:1043D000FFF7CCBA4FF0FF3031B0BDE8F08F0000EE
:1043E000CBCCCC0C686A6C747A4C00007072696E2D
:1043F00074665F733A20626164202573206172677E
:10440000756D656E740000002DE9FC4707468A460D
:104410003C6950466F2808BF082505D0FFF790F982
:10442000782814BF0A251025D7E900013C268046CC
:104430008946BAF1640F18BFBAF1690F05D1002996
:1044400003D5D8F1000869EB4909B9F1000F08BF9D
:10445000B8F1000F0CD1386B50B9082D3AD197F84C
:104460003800010736D530223B2684F83B2031E066
:104470008DF800A0404649462A46EB1701F0BAFBEA
:104480003032D0B2761E3A2801960EDAA255404656
:1044900049462A46EB1701F0ADFB80465FEA010969
:1044A00008BFB8F1000F05D108E09DF80000121810
:1044B000513AEBE7F868A1198842DBD3082D09D1FE
:1044C00097F83800010705D5A05D302802D0761E88
:1044D0003020A055C6F13C02BA61A119F960386BD1
:1044E000824208DA821A3A624FF6EF70398F014041
:1044F0003987BDE8F38700280ED597F8380000F01B
:104500001400102808D17B6B7969386A5B1A1B1A72
:104510009A1A002AC8BF3A62BDE8F3872DE9D04352
:1045200006460F4614464FF00008DFF8449012E0AC
:10453000E00707D542464B463046394600F05CFD61
:1045400006460F464046494642464B4600F054FD5B
:10455000641080468946002CEAD130463946BDE8D1
:10456000D0830000A08601000000F03F84D797416F
:1045700000002440F8B505460E4617461C460020AC
:104580005CB117F8011BB068A847B06030B1F06AA1
:10459000401CF0620020641EF3D1F2BD4FF0FF30EA
:1045A000F2BD00007072696E74665F733A20256E0A
:1045B00020646973616C6C6F776564007072696EFA
:1045C00074663A2062616420256E20617267756DA1
:1045D000656E7400000000006E616E004E414E007A
:1045E000696E6600494E460030000000D2B2203AA3
:1045F00022BF21FA02F0002170472032D141D04081
:1046000048409140D14048407047000010B5104CE0
:1046100010490022204601F005FC08B1FDF700FC1E
:104620000D49204601F011FC08B1FDF7F9FB0B49DB
:10463000204601F05BFE08B1FDF7F2FB204601F0D9
:104640000CFC18B1BDE81040FDF7EABB10BD00BF7F
:10465000241900204C010020380000203C010020DB
:1046600003B583B002461F20012104AB02900191E3
:104670000093D02101234648FBF70AFE05B000BD98
:10468000E0B54FF6FF7301920293009102460123B9
:10469000D1213F48FBF79CFE07BD80B580216B20F0
:1046A000FFF7DEFF6420FEF7ABF900216B20FFF778
:1046B000D7FF00216A20FFF7D3FF00212320FFF757
:1046C000CFFF07211920FFF7CBFF06211A20FFF7A4
:1046D000C7FF01211C20FFF7C3FFBDE804401821DC
:1046E0001B20BDE780B500208DF80000012269463F
:1046F0007520FFF7C5FF9DF80000682805D000BFB2
:1047000024A0FDF7ABFE002002BD682128A0FDF724
:10471000A5FE012002BD1CB50446062269463B20C9
:10472000FFF7AEFF9DF800009DF8011001EB00219E
:1047300021809DF802209DF8031001EB022100F07A
:1047400019F801EB0021A18013BD1CB50446062217
:1047500069464320FFF794FF00F012F89DF802200D
:104760009DF8031041EA022100F004F841EA00211B
:10477000A18013BD61809DF804009DF8051070476D
:104780009DF800009DF8011041EA0021218070474A
:10479000342400204D505536303530206465637424
:1047A0006563746564206572726F72210D0A000082
:1047B0004D505536303530204944203D2030782545
:1047C0003032580D0A00000010F0004C68B148BFAC
:1047D0004042B0FA80F18840D1F19D014CEAC15CC1
:1047E000010671F100414CEB102070474FF0FF0CB7
:1047F0001CEAD0531DBF1CEAD1526345624543E019
:104800009B1A5FEACC7280EA010C42EA01211CEAA1
:10481000020C42EA0020421A38BF01EB420253F177
:104820007E034FEA1121B2FBF1F001FB102260F38D
:10483000D63C4FEA0222B2FBF1F001FB102260F3FA
:10484000CE1C4FEA0222B2FBF1F006DDFF2B29DA83
:104850005CEA500040EBC3507047C3F1020301FB18
:104860001022192B40EA4C010CF0004C41F08071F1
:1048700021DC21FA03F0C3F120039940114371F1C7
:10488000004250EB0C00704763451ABF0CEAD1524E
:10489000624512E080EA010C00180CF0004C06D0D2
:1048A00049181AD10CF0004C4CF0FF407047C94237
:1048B00008BF6FEA020C60467047634506D1B2EB51
:1048C0000C02F5D001F00041484070474A0212BF87
:1048D0000846484000F0004070474AB90902B1FA62
:1048E00081F2914043B19B18C00140F0004092E733
:1048F000C90141F0004152420002B0FA80F39840F1
:10490000D31A88E72DE9FC4D80460D461646D1485E
:10491000D14942462B4600F06FFB8B462BF00041FD
:10492000CE4ACF4B01F050F8044657D2CD4B0BF096
:10493000004700223B43594600F0FAF901F016F90E
:10494000070047D001F02EF90022C74B00F054FBBE
:1049500004468B464FF0A040C44922465B4600F017
:104960004BFB42462B4600F0E3F980460D464FF0E4
:10497000C040BF4922465B4600F03EFB42462B4604
:1049800000F0D6F980460D464FF00050B949224656
:104990005B4600F031FB42462B4600F0C9F98046E9
:1049A0000D460020B44922465B4600F025FB4246F6
:1049B0002B4600F0BDF980460D464FF00050AF4940
:1049C00022465B4600F018FB42462B4600F0B0F949
:1049D00080460D4607F00307BC199CE069004915A5
:1049E00011F1010F08D1280340F02F814FF0FF3063
:1049F0006FF00041BDE8FC8D28F0000035F000416B
:104A000008BF002804D1002E00F01F819C4D1CE13E
:104A1000944B0BF000472046594600223B4300F0E0
:104A200087F94B0043EAD0734200002B08BF002AED
:104A300017D040F23347A7EB5352352A04DB00F07E
:104A4000000001F000410CE0202A03DD203AD140B3
:104A5000914000E001D1002003E0002AC4BFD04013
:104A60009040CDE90001DDE9000120F0000231F0C5
:104A7000004308BF002A47D0DDE9002300207A491F
:104A800000F0BAFA04460F464FF0A040774922469C
:104A90003B4600F0B1FA42462B4600F049F9804609
:104AA0000D464FF0C040724922463B4600F0A4FA42
:104AB00042462B4600F03CF980460D464FF0005030
:104AC0006C4922463B4600F097FA42462B4600F0DE
:104AD0002FF980460D460020674922463B4600F0EC
:104AE0008BFA42462B4600F023F980460D464FF0E4
:104AF0000050624922463B4600F07EFA42462B4671
:104B000000F016F980460D46DDE9000101F02EF8AF
:104B100000F00300841925F00041002906D5002289
:104B20004FF00043B2EB080063EB010100225FF09D
:104B3000795304D54FF00047921A67EB030399426B
:104B400004DAE0077AD590464D4D77E042462B4691
:104B50004046294600F050FA0646E0070F4631D598
:104B60004848494932463B4600F046FA474A484BD6
:104B700000F0DEF832463B4600F03EFA454A464B2E
:104B800000F0D6F832463B4600F036FA434A444B32
:104B900000F0CEF832463B4600F02EFA414A424B36
:104BA00000F0C6F832463B4600F026FA6FF051029C
:104BB0003E4B00F0BDF832463B4600F01DFA0022A5
:104BC0002F4B37E032463B464046294600F014FA68
:104BD00082468B463648374932463B4600F00CFA4F
:104BE000354A364B00F0A4F832463B4600F004FA52
:104BF000334A344B00F09CF832463B4600F0FCF957
:104C0000314A324B00F094F832463B4600F0F4F95A
:104C10002F4A304B00F08CF832463B4600F0ECF95E
:104C20002D4A2E4B00F084F852465B4600F0E4F922
:104C300042462B4600F07CF880460D46A00704D57E
:104C400085F000414046BDE8FC8D40462946BDE860
:104C5000FC8D000083C8C96D305FE43F0000A0FFF9
:104C6000FFFFDF410000E03F0000303EFB21B9C103
:104C7000B41011C026A651BE5C14D3BC9A833BBBB2
:104C80000000F03F09260A1039BA213E3BA861C650
:104C9000F97D92BE63AC30909F01FA3EF6FB51164F
:104CA0006CC156BFB10255555555A53FFFFFDFBF3B
:104CB000B08F2FC310D8E53D8F0C73A1E1E55ABE2C
:104CC0004DADE44FE31DC73E3EE3B519A0012ABF39
:104CD000FAF010111111813F425555555555C5BF78
:104CE00001220FE600220DE6C0F3C75181B1FF2972
:104CF00006D0C110400721F0E04101F1605170473A
:104D000041020CBF40F4E0016FF000410020704709
:104D100000F0004100020AD0B0FA80FC00FA0CF06A
:104D200001F16051A1EB0C5101EBD021400570471E
:104D300070B491EA030F4FF0004540F1BF806B4023
:104D4000841A71EB030604D26E40001BB1411219A4
:104D500073414FF4001C1CEB410F34BF7CEB430646
:104D600083E00C0DA4EB1356362E00F37C80012E4D
:104D700045EAC32341DC43EA525312BFD2029202F6
:104D80005B08240545EAC12141EA5051D2EBC0201D
:104D9000994125D407D1B0FA80F610FA06F162D015
:104DA0000020203608E0B1FA81F6B140C6F12002B9
:104DB00020FA02F21143B0404FEAF474B4EB4654C7
:104DC00034F001064FEA74040AD8D6F50016760DC1
:104DD00004F00044F04061FA06F25040F1404840CF
:104DE000C00A40EA415021F0004128BF5FEA500567
:104DF00050F1000044EBD12135E0DB0A45EAC12146
:104E0000C90AB6F120050EDD42EA0242120CC5F1D4
:104E1000200603FA06F6EB4042EA06056D42984189
:104E200061F100010DE062FA06F5F240554063FAC7
:104E300006FC82EA0C02F3405A406D42904161EB5D
:104E4000030111F4801F05D1641E620502D06D00BC
:104E50004041494121F48011430875F1004350F16C
:104E6000000041EB045170BC70471CEB410F15D2A0
:104E700023F0004352EA43060BD04FEA4C0CBCEB44
:104E8000410F04D80C0D661E342EB7DDEBE7801AF7
:104E9000994150EA410608BF0021E4E708BF1CEB36
:104EA000430F28BF6FF00001DDE7000070B491EA06
:104EB000030F4FF000457FF543AF6B40841A71EB51
:104EC000030603D2001BB141121973414FF4001CB9
:104ED0001CEB410F34BF7CEB430442E00C0DA4EB10
:104EE0001356352E4FDC45EAC323DB0A45EAC121C0
:104EF000C912B6F120050DDD63FA05F6EB4086EA2E
:104F00000305124218BF45F00105C01851F1000118
:104F10000CD213E062FA06F5F2405540F3415A40D4
:104F2000B340F3405A408018594107D349085FEA1B
:104F300030005FEA350528BF45F0010501F5801115
:104F4000420875F1004250F1000041EB04514E005F
:104F500016F5001F70BC38BF70470020090D090509
:104F600070471CEB410F10D252EA43060BD0BCEB4A
:104F7000410F05D80C0DAB43661E342EB6DD02E0A2
:104F8000AB438018594170BC704770BC704700003B
:104F900001F000428B1AA3F16051B1F5801F0ADBCA
:104FA000B1F17F6F1FD242EAC102C10071F100412D
:104FB00042EB507070470B15C3F10903212B10D23F
:104FC000890241EA905180020128494141F00041A3
:104FD00021FA03F0C3F12003994071F100415041DF
:104FE0007047100070476FF0000013EB103F5CBF7C
:104FF000000E42EAC050704730B540F2FF7C1CEA18
:1050000011541DBF1CEA1355644565453FE0641902
:1050100081EA030C6FF35F530CF0004C43F48013F0
:10502000C90241F0004141EA505EC5021100A5FBF2
:10503000020200284FF00000EEFB01204FF00001BB
:10504000E3FB052118BF42F001024018002149414D
:10505000E3FB0E01A4F580640D0302D292184041D7
:10506000494154F1010470DD450872F1004250F1EC
:10507000000051EB0451A1F5801102D441EA0C016A
:1050800030BD40F2FF7E4CEA0E51002030BD0CEAEC
:105090001355644518BF654581EA030C0CF0004CBC
:1050A00041D050EA410E1CBF52EA430E02E0614675
:1050B000002030BD24422C441BD15FEA050EF6D0FF
:1050C000090302BF01460020AEF1140EB1FA81F5CA
:1050D000AEEB050401FA05FE0C35C5F1200100FA1E
:1050E00005F5C8404EEA000E6FF35F5343F480139A
:1050F0009CE733F00043B3FA83F504BFB2FA82FEB3
:1051000075440B3D641BB5F1200E2FBF02FA0EF360
:10511000AB40C5F1200E22FA0EFE38BF43EA0E0363
:10512000AA40641C7CE750EA410E14BF52EA430EC9
:105130006FF000014FF4001515EB430F8EBF1946B9
:1051400015EB410F9DE7B4D830BDD4F10104B4F1A3
:1051500020050FDAC4F12005520828BF42F00102F1
:1051600010FA05FE01FA05F57244E2BFE04028435B
:10517000E1400FE0352C9ADCC5F1200452EA4002F0
:1051800020FA05F218BF42F0010231FA05F0A14001
:105190000A43002172F1004250F1000051EB0C0172
:1051A00030BD000040F2FF7C0B0D4DD0634566D250
:1051B00030B421EA035141F4801103F2FD3C5FEA6F
:1051C0005C0C01D300184941890041EA90718000CC
:1051D0004FF440140023E202D50AB1F5100107D4C0
:1051E0006D081DD2091B641900184941491BF7D5E8
:1051F0006D080AD20919641B00184941491BEFD5F3
:105200006D08F7D301E0520817D0C01861419B1A0E
:10521000AC4100184941801AA941F4D452080AD07F
:10522000C01AA1419B186C4100184941801AA9413C
:10523000E9D45208F4D15B1C6C4161084FEA330099
:1052400001EB0C5130BC704750EA0103FBD030B485
:10525000B1FA81F311B9B0FA80F41B190B3BB3F129
:1052600020042FBF00FA04F19940C3F1200420FA72
:1052700004F438BF21439840D3F101039DE763450F
:1052800014BF50EA410CDEE711F5801FDBD8D9438B
:10529000AFF3008070470000F0B585B050260B9D3D
:1052A00025B986F3118800F017FAFEE70C9C24B9A3
:1052B00086F3118800F010FAFEE754270097DDF816
:1052C00000E0BEF1540F04D086F3118800F004FA18
:1052D000FEE725630026022584F8515004AF0A9D9D
:1052E000039602940197009500F034F8204600F0F0
:1052F0006EF8049805B0F0BD2DE9F8430646174650
:1053000084B088469946B80001F018F805001CD012
:10531000542001F013F8040014D00020256384F811
:105320005100039002940D980C99019000914B4606
:105330003A464146304600F00DF8204600F047F866
:10534000012004E0284601F07FF84FF0FF3005B05F
:10535000BDE8F0832DE9F0470A9E8146306B00EBF3
:105360008202101FC0084FEAC00A00228C5CB018ED
:1053700080F83440885C10B1521C102AF6D3089D86
:10538000002086F84300062D88BF0625099CF5629B
:1053900006F1440798463D607860C5F10705301D69
:1053A00001F0ADF806F1180001F0A9F83661B56119
:1053B00076620020B8600021397342464946504663
:1053C00001F0DAF8306004B12660BDE8F0872DE91D
:1053D000F04100F067F8DFF8BC53DFF8D083E86CE9
:1053E000401CE8641426A86A28BBAC62E86C01285B
:1053F00029D1002706FB07F0404401F073F87F1C19
:10540000072FF7D305F1740001F06CF805F1880758
:10541000384601F067F8284601F064F805F11400F9
:1054200001F060F805F1380001F05CF805F1740056
:10543000E8622F6307E0A86D28B9E06AA96ACA6A22
:10544000904228BFAC62A86E401CA86600F096F996
:105450004643211D08EB060001F054F801F005F960
:10546000A86D30B100F03DF903D200F098F900F0DA
:1054700033F9BDE8F08180B588B1DFF81823116FEA
:1054800021B100F03CF800F027F9FEE7116F491C4C
:105490001167002100F08CF900F03BF808B900F02A
:1054A00016F901BD044601F0C7B880B586B00021E9
:1054B0000591049103AA04A905A8FDF7B5FA05987A
:1054C000049902900022009201910023039A0FF2A6
:1054D00054310FF21920FFF7DFFE70B100F00FF822
:1054E00000F0FAF8DFF82C034FF0FF31C16601221B
:1054F00082650021016501F05DF807B000BD502014
:1055000080F311887047DFF80C03016F491C0167B5
:10551000704770B5DFF87C62306F0024002520B939
:1055200000F044F800F0D8F8FEE701F085F8306F9D
:10553000401E3067306F002837D1F06CD8B934E0A6
:10554000F068C46800F036F800F015F9E06A716D93
:10555000DFF8BC32012282401143716514225043AE
:10556000211D184400F0CEFFE06AB16ACA6A904279
:1055700024BF0121316630680028E1D10CB100F070
:10558000EDF8F46D44B100F019F808B1012030666F
:10559000641EF8D10020F065306E30B1DFF878126B
:1055A0004FF08050012500F096F8EEE0502181F395
:1055B0001188704704F1180000F0CABF2DE9F843C4
:1055C000DFF8D071386F0026002850D13C6D641C84
:1055D0003C6510D1F86A006820B1FFF7E7FF00F0E2
:1055E0007BF8FEE7F86A396BF9623863786E401C25
:1055F000786600F0B3F8F86EDFF8149284424FF04A
:10560000140828D320E0F96AC868C568686884422D
:105610002BD3281D00F09CFFA86A18B105F11800D3
:1056200000F096FFE86A796D0122824011437965A6
:1056300008FB00F0291D484400F064FFE86AB96ADD
:10564000CA6A904228BF0126F86A00680028DAD1A9
:105650004FF0FF31F966B86AC06A08FB00F859F8E4
:105660000810022906D3012604E0F866F3E7F86D76
:10567000401CF865386E00B101268DE0DFF814217A
:10568000106F10B101211166704710661421506D22
:10569000B0FA80F3C3F11F034B43DFF87411C8580D
:1056A00038B9502181F31188BFF34F8FBFF36F8F4B
:1056B000FEE7C81800F10803416849684160994253
:1056C00004BF496841604068C16891627047DFF873
:1056D00048114FF080500860BFF34F8FBFF36F8FBA
:1056E0007047A86AC16AE06A8142704770B5DFF806
:1056F000BC40DFF8205111E000F09EFF286AC66828
:10570000301D00F025FFE86C401EE864686B401E09
:10571000686300F0AAFF304600F009F8686B0028C3
:10572000EAD121680229F9D3FFF7D1FFF6E710B5D6
:10573000044694F8510040B9206B00F085FE2046E5
:10574000BDE8104000F080BE10BD0128F7D002284F
:10575000FAD0FFF7D4FEFFF7BFFFFEE70D49C86A96
:10576000006810B94FF0FF3203E0C86AC268D06821
:105770004268CA667047201D00F0EABE0122E06A56
:10578000696D824011436965704700F06EFF2846DD
:1057900070BD00005C2200203046BDE8F2831E4A46
:1057A0004FF080511160704700000000F822002087
:1057B000F8B5184D2F6D0C46A96A0646081D00F075
:1057C000C7FE30B9A86A696DC06A01228240914360
:1057D000696516F1010F05D124B1A86A011D05F113
:1057E00038001BE0A86AF6194660BE42A86A05D2D6
:1057F000011D286BBDE8F44000F091BE011DE86A70
:1058000000F08DFEE86E864238BFEE66F1BD000006
:10581000F82200205C22002004ED00E0BDE8F44006
:1058200000F070BE49444C450000000000B500BFC8
:10583000130096469446103928BFA0E80C50FAD8B9
:105840005FEA417C28BF0CC048BF40F8042BC90761
:1058500028BF20F8022B48BF00F8012B00BD70477D
:105860007047704770477047704770477047000037
:10587000C9B202788A421AB11CBF10F8012FF9E7A9
:1058800018BF00207047000080B500B906A0054988
:105890000B681BB122220021984701E000F00CFFA9
:1058A000222002BD68250020636F6E7374726169E7
:1058B0006E742068616E646C65723A206261642067
:1058C0006D6573736167650000F10103810704D0A2
:1058D00010F8011B820781B1FAD10268A2F10131EF
:1058E000914311F0803104BF50F8042FF6E709BA54
:1058F000B1FA81F100EBD100401CC01A70470000E2
:10590000C9B2830706D0521E22D310F8013B994238
:10591000F7D11FE0083A13D302F1040241EA012152
:1059200041EA014150F8043B121F21BF4B40A3F153
:10593000013C2CEA030C1CF0803FF3D0C9B2001FDD
:10594000083210F8013B521E28BF91EA030FF8D825
:1059500018BF0120401E704710B5144600F002F831
:10596000226010BDC1F30A5343B14A0012F5001F73
:1059700028D2A3F2FE32A1EB0251704750EA410C4B
:1059800020D001F0004C31EA0C01B1FA81F204BFE1
:10599000B0FA80F3D2180B3AB2F120032CBF00FA10
:1059A00003F1914041EA0C013EBFC2F1200C20FA04
:1059B0000CF319439040524240F2FD33D21A01EBEE
:1059C000035170470022704741EA030C50EA4C0C27
:1059D00052EA0C0C4FF4001C09D307D01CEB410F0A
:1059E0009CBF1CEB430F8B4208BF824270471CEBED
:1059F000430FFBD8994208BF9042704741EA030C1D
:105A000050EA4C0C52EA0C0C4FF4001C09D307D09E
:105A10001CEB410F9CBF1CEB430F994208BF904207
:105A200070471CEB410FFBD88B4208BF8242704786
:105A3000124254D440F2FF7C1CEA11530FD063454C
:105A400031D09B1863453CBF01EB0251704701F018
:105A5000004141EA0C510020AFF30080704750EA4A
:105A6000410320D001F0004C91EA0C011CD0B1FAA6
:105A700081F30B3B9A420DD9D21A994051EA0C019D
:105A8000C3F1200C20FA0CFC61449840531C40F2F6
:105A9000FF7CD7E7914041EA0C01C2F1200C20FACB
:105AA0000CF3194390407047B0FA80F31533202B64
:105AB000E0D3202AEED3203A203B9A4209D9D21AC9
:105AC00000FA03F141EA0C010020531C40F2FF7C74
:105AD000B8E700FA02F141EA0C0100207047524297
