:020000040800F2
:10000000E80500208D150008451400084714000875
:10001000491400084B1400084D14000800000000AB
:100020000000000000000000000000004F14000865
:100030005114000800000000531400085514000873
:10004000B5150008B9150008BD150008C115000850
:10005000C5150008C9150008CD150008D115000800
:10006000D5150008D9150008DD150008E1150008B0
:10007000E515000859140008E91500085F14000888
:10008000ED150008F1150008F5150008F915000830
:10009000FD150008011600080516000809160008DD
:1000A0000D1600081116000815160008191600088C
:1000B0001D1600082116000825160008291600083C
:1000C0002D160008311600083516000865140008C2
:1000D0006B140008391600083D1600084116000888
:1000E00045160008491600084D1600082DE9F8438A
:1000F000040016D02078DFF87064C10713D570684B
:1001000000F00C00042807D0706800F00C000828EC
:1001100041D17068C1033ED53068810303D5606862
:10012000002800F064812078DFF84C74810719D52D
:10013000706810F00C0F07D0706800F00C000828F1
:1001400061D17068C1035ED43068810703D520692E
:10015000012840F04C813168606921F0F80141EAE2
:10016000C00131602178080740F18180A069DFF883
:100170000C14002800F0A68001220A6000F02AFA80
:100180000546706A810763D400F024FA401B0228F8
:10019000F7D903202EE16068B0F5803F04D13068C4
:1001A00040F48030306014E008B930680AE0B0F5FF
:1001B000A02F306806D140F480203060316841F4CF
:1001C000803105E020F480303060316821F48021F6
:1001D0003160606858B100F0FDF905463068810370
:1001E000A1D400F0F7F9401B6528F7D3D1E700F060
:1001F000F1F905463068810395D500F0EBF9401B15
:100200006528F7D3C5E72069A8B10121396000F05E
:10021000E1F905463068810705D400F0DBF9401BA1
:100220000228F7D9B5E73068616920F0F80040EAA4
:10023000C100306096E7386000F0CCF905463168BF
:1002400088078FD500F0C6F9401B0228F7D9A0E730
:10025000DFF818030168C9084FF47A72B1FBF2F2B3
:10026000009200BF0098411E00280091F9D120782B
:1002700041076ED5F0690025C10009D4F06940F04E
:100280008050F0610125F06900F0805000900098E6
:10029000DFF8EC82D8F80000C10520D4D8F80000BF
:1002A00040F48070C8F8000000F094F98146D8F856
:1002B0000000C10513D400F08DF9A0EB09006528FA
:1002C000F5D366E7086000F085F90546706A810796
:1002D000CDD500F07FF9401B0228F7D959E7E06837
:1002E000012808D008B9306A09E00528306A06D12B
:1002F00040F004003062306A40F0010005E0400840
:1003000040003062306A20F00400306241F28938E7
:10031000E06860B100F05EF98146306A810713D46D
:1003200000F058F9A0EB09004045F6D331E700F0A2
:1003300051F98146306A810706D500F04BF9A0EBF0
:1003400009004045F6D324E71DB1F06920F0805044
:10035000F061E06900284CD0716801F00C010829B7
:1003600038D002282AD100F047F8054630688101CC
:1003700005D500F02FF9401B0228F7D909E7206ABC
:10038000B0F5803F05D17168A06821F400310143C8
:1003900071607268206A616A22F4741202430A432F
:1003A0007260012000F029F804463068810120D4F1
:1003B00000F010F9001B0228F7D9EAE600F01CF85B
:1003C00004463068810114D500F004F9001B0228AE
:1003D000F7D9DEE601280AD07068226A00F480317D
:1003E000914202BF00F47010616A884201D001207E
:1003F00000E00020BDE8F2830020386600F0EAB893
:100400002DE9F041040088464ED05E4E00F077F8AA
:1004100002D200F06FF847D12068534D810712D502
:10042000400703D5696841F4E061696020780107FD
:1004300003D5686840F4605068606968A06821F07E
:10044000F001014369602178C80725D5606801285B
:1004500002D129688A0303E00228296802D18A01AF
:1004600002D421E08A071FD56968890840EA810023
:10047000686000F0AFF807466868616800F00C003B
:10048000B0EB810F08D000F0A5F8C01B41F2893114
:100490008842F1D303202BE0306800F0070080454C
:1004A00004D200F027F801D0012021E02078410794
:1004B00005D56A68E06822F4E06202436A60217848
:1004C000080706D56968206921F4605141EAC00136
:1004D000696000F019F86A682B49244BC2F30312D3
:1004E000895CC84018602348006800F079F8002053
:1004F000BDE8F0813168C90848EAC101316030685F
:1005000000F0070040457047204919480A6802F08A
:100510000C03082B00D0704710B500BF1EA4C2F317
:100520008343D203E35C08D5096858431EA3C1F393
:1005300040415A5CB0FBF2F010BD184614494843E4
:1005400010BD0A48114A006813681249C3F3022219
:1005500006E006480D4A006813680E49C3F3C2223C
:10056000895CC84070470000001002400C00002069
:1005700000127A000800002000004242800442423B
:1005800000700040002002407C150008041002406A
:1005900000093D00AC150008020304050607080920
:1005A0000A0B0C0D0E0F101001020EE002684368DA
:1005B000024408305FEAC37C44BF4B445B1E52F8E0
:1005C00004CB43F804CB091FF9D150F8041B0029D0
:1005D000ECD1704701484068704700BF0000002020
:1005E00038B50D4D0D4B2A7804464FF47A711868D2
:1005F000B1FBF2F2B0FBF2F000F054F850B9102C5D
:1006000008D2002221464FF0FF3000F023F8AC6002
:10061000002032BD012032BD000000200C0000206F
:100620000901020002D4284881547047274B02F088
:100630000F021A4402F8041C7047254B19684FF644
:10064000FF020002114000F4E06008432149084322
:100650001860704770B51E4B1C68C4F30223012458
:10066000C3F10705052D2EBF0F2504FA05F56D1EF4
:100670001E1D072E34BF0023DB1E2940994004FABB
:1006800003F3BDE870405B1E1A401143C8E7010048
:1006900007D4012200F01F010F4B8A40400943F8A4
:1006A00020207047401EB0F1807F01D301207047A9
:1006B0000A490B4A48600023F02010708B60072025
:1006C000086000207047000000E400E018ED00E042
:1006D0000CED00E00000FA0500E100E010E000E0B1
:1006E00023ED00E030B508B9012030BD0268DFF825
:1006F00048128A18142400F13803B2FBF4F4A40061
:10070000DFF838129C605960022280F821200168CD
:100710000C684168826805686FF30D140C43C1686A
:10072000144302690C434169144382690C43C16953
:1007300014430C432C6000221A60012380F82130FE
:1007400080F82020002030BD38B590F8212000240A
:10075000022A00F1340103D00420486001243EE065
:100760000268136823F00E0313600268DFF8D031CB
:1007700015686D086D00156002689A4208BF012275
:1007800022D0DFF8C0319A4208BF10221CD0DFF817
:10079000B8319A4208BF4FF4807215D0DFF8AC31FF
:1007A0009A4208BF4FF480520ED0DFF8A4319A422B
:1007B00008BF4FF4803207D0DFF898319A420CBF5F
:1007C0004FF480124FF08072DFF88C311A600122F2
:1007D00080F8212080F82040096801B18847204630
:1007E00032BD2DE9F84F00F1280204275169594B19
:1007F000D1F800E0056858492E68D2F818A0544C8A
:10080000DFF84881DFF84091DFF838B1DFF830C118
:1008100007FA0AF71EEA070F31D077072FD5D5F868
:1008200000E05FEA8E6605D4D5F800E02EF0040EF5
:10083000C5F800E00568654508BF042318D05D458C
:1008400008BF402314D04D4508BF4FF480630FD03C
:10085000454508BF4FF480430AD0A54208BF4FF476
:10086000802305D09D420CBF4FF480034FF080637E
:100870000B60516800295DD0BDE8F44F084702279E
:1008800007FA0AF71EEA070F36D0B70734D5D5F8AE
:1008900000E05FEA8E6608D4D5F800E02EF00A0E7C
:1008A000C5F800E0012580F821500568654508BFBE
:1008B000022318D05D4508BF202314D04D4508BF42
:1008C0004FF400730FD0454508BF4FF400530AD0D2
:1008D000A54208BF4FF4003305D09D420CBF4FF432
:1008E00000134FF000730B60002180F82010116896
:1008F00001B3BDE8F44F0847082101FA0AF11EEAE6
:10090000010F17D0310715D52B6823F00E032B608C
:100910000124916953698C405C60012111610123BC
:1009200080F82130002180F82010916811B1BDE8D5
:10093000F44F0847BDE8F18FF8FFFDBF000002400B
:10094000080002401C000240300002404400024007
:10095000580002406C000240040002402DE9F847B4
:100960004FF0000E0024644A644BDFF894814FF08E
:100970000F0982460DE017683840106007E0C2F8A2
:1009800004C04D68ED03F6D51068074317600EF1FB
:10099000010E0F6837FA0EF000F0AC80012000FA6B
:1009A0000EFC0CEA07076745F1D1486838B3012807
:1009B0001AD002281DD003282ED0112816D01228B4
:1009C0001AD0504DA8421CBF4F4DA84217D04F4DD2
:1009D000A8421CBF4E4DA84211D04E4DA8421CBF8C
:1009E0004D4DA8420BD018E0CC6816E0CC68241D11
:1009F00013E0CC68083410E0CC680C340DE0886853
:100A000008B9042409E0012819BF0824CAF814C051
:100A10000824CAF810C000E00024B7F5807F03D294
:100A200050464FEA8E0C05E0AEF108050AF10400CD
:100A30004FEA850C056809FA0CF6B54304FA0CF682
:100A400046EA050CC0F800C04868C0009FD5D8F839
:100A5000000040F00100C8F80000D8F8005005F090
:100A6000010500954FEA8E0500984FEA9E0053F865
:100A7000206005F00C0C09FA0CF526EA0505274E56
:100A8000B24508BF00260ED0254EB24508BF01264C
:100A900009D0244EB24508BF022604D0224EB245EA
:100AA0000CBF0326042606FA0CF646EA050C43F8AA
:100AB00020C0F8434D68D2F808C0ED024CBF47EAA9
:100AC0000C0C00EA0C0CC2F808C04D68D2F80CC03F
:100AD000AD024CBF47EA0C0C00EA0C0CC2F80CC08B
:100AE0004D68D2F804C0AD034CBF47EA0C0C00EAD5
:100AF0000C0C44E7BDE8F187000401400800014008
:100B00001810024000001110000012100000211007
:100B100000002210000031100000321000080140D7
:100B2000000C0140001001400014014038B50400E1
:100B300001D1012032BD606A28B900F04CF805D01F
:100B40000021E16102E00020206160610020A062DC
:100B500004F15005687820B900212970204600F082
:100B6000FCF80220687000F0BFF86068A168E268D5
:100B700000F4827001F404410843217C02F4006215
:100B80001043227D01F002010843A16902F0010235
:100B90001043227F01F40071084394F8201002F002
:100BA00038021043A26A01F080010843216802F470
:100BB000005210430860A0692168000C00F0040096
:100BC00048602068C16921F40061C161002068604B
:100BD0000121697032BD6068B0F5827F70477CB5D5
:100BE000044622685168936803F04100012806D149
:100BF000480604D5216C2046BDE87C40084798078C
:100C000006D50D0604D5616C2046BDE87C4008473A
:100C100013F0600F58D0880656D55D060ED594F8AF
:100C20005100032843D0606D40F00400606500254A
:100C30000095D66800969568009500989B060ED59D
:100C4000606D40F00100606500230093926800929F
:100C500020680368024623F040031360009B606D28
:100C600090B32068426822F0E0024260012011F057
:100C7000030F84F8510022D020680FF2510541681B
:100C8000890889004160E06C28B14563E06CFFF79A
:100C90005BFD00F023F8A06CB0B14563A06CFFF7DA
:100CA00053FD88B1606D40F04000606573BD002069
:100CB0000090D168009192680092009873BD204620
:100CC000BDE8764000F0E0B873BD0000406A002146
:100CD000C1870022C28600F0D7B8000018B1606D4D
:100CE00040F04000606570472068016821F04001D5
:100CF0000160704780B55B485B4901604FF48272C8
:100D000008214260C16100F01AF800F012F800B149
:100D10001FE001BD80B55548554901604FF482720E
:100D2000426000F00CF8C36100F003F800B110E07D
:100D300001BD036243628362C162FFF7F7BE002315
:100D40004FF480220A218360C360036143618261A2
:100D50007047BDE8014000F0DDB878B585B00446C5
:100D600010220021684600F0D7F821683E4A414D24
:100D7000414E4248914230D1016841F480510160B6
:100D8000026802F4805204920499026842F004025C
:100D90000260B021006800F0040004900222049870
:100DA000374800F057F81020686000218020E86084
:100DB000A96029616961A961E9612E602846FFF790
:100DC00091FC08B100F0A6F8A5646C620022002135
:100DD0002320FFF73FFC232038E0254A914237D1FA
:100DE000416841F480414160416801F480410491CF
:100DF0000499026842F0080202604FF43041006832
:100E000000F008000490022204981E4800F022F826
:100E100006F1280068641021A9640020E86480219C
:100E20006865A865E8652866296505F14400FFF74F
:100E300059FC08B100F06EF805F14400A064AC66FE
:100E4000002200212420FFF705FC2420FFF71FFCCF
:100E500006B070BD00910192032103916946FFF72E
:100E60007DBD00009800002000300140F00000200F
:100E700000380040100000203000024018100240EE
:100E800000080140000C0140704780B500F04EF8AA
:100E900000F00DF800F05CF800F090F800F0AEF80B
:100EA000FFF728FFFFF736FF00F0F6F8FEE700B582
:100EB0008FB02822002105A800F02EF8142200216E
:100EC000684600F029F84FF480310022069107921D
:100ED0000D9101200590099002224FF4E0110C922F
:100EE0000E9105A8FFF702F908B100F013F80221EE
:100EF00001910F204FF48061009000220391029233
:100F0000049202216846FFF77BFA08B100F002F86C
:100F10000FB000BD72B6FEE710B5044610460A4693
:100F20000146204600F00EF9204610BD80B5074866
:100F3000016841F0100101600320FFF77EFB0F20E4
:100F4000FFF74EFB00F032F9002002BD0020024006
:100F500000B585B01022002101A8FFF7DDFF14487D
:100F6000016841F020010160026802F02002009255
:100F70000099026842F004020260036803F004036F
:100F800000930099026842F0080202604FF48071F9
:100F90000068084A00F00800009000980648019197
:100FA00002920021039101A9FFF7D8FC05B000BD12
:100FB0001810024000001110000C014080B50E48CE
:100FC000016841F0010101600022006800F00100A9
:100FD0000090002100980D20FFF73CFB0D20FFF74B
:100FE00056FB002200210F20FFF734FBBDE8024032
:100FF0000F20FFF74CBB00BF14100240214A2248CB
:10100000224980B5426000234FF480420160836032
:10101000C360026143618361C361036200F0E8F869
:1010200018B1BDE80140FFF775BF01BD18B585B027
:1010300004461022002101A8FFF76EFF2168134823
:1010400081421CD1124C216841F008012160C0216D
:10105000206800F008000090122200980D480191CD
:1010600002920121049101A9FFF778FC606840F425
:1010700000106060606800F400100090009806B0F6
:1010800010BD0000A086010048010020005400406F
:1010900018100240000C014080B526482649016026
:1010A0004FF4E13200230C2142608360C36003618E
:1010B00041618361C36100F045F918B1BDE80140A9
:1010C000FFF728BF01BD18B585B0044610220021E6
:1010D0006846FFF721FF21681748814228D1174849
:1010E000174C016841F480410160026802F48042BB
:1010F00004920499026842F0040202604FF4007105
:10110000006800F00400049002220498009101920B
:101110000321039120466946FFF720FC4FF48060CD
:10112000002100900191029120466946FFF716FCCC
:1011300006B010BD9C01002000380140181002408C
:101140000008014062F30F2262F31F42401810F0C2
:10115000030308D0C91A1FD3DB0748BF00F8012DCD
:1011600028BF20F8022D130030B41446154610395C
:1011700028BF20E93C00FAD8490728BF20E90C0025
:1011800048BF40F8042D890028BF20F8022D48BF31
:1011900000F8012D30BC7047C91818BF00F8012DA8
:1011A000CB0728BF00F8012D704700000E4881B022
:1011B000016841F001010160026802F00102009241
:1011C0000099426842F080524260406800F08050CE
:1011D000009000980548016821F0E06141F000713D
:1011E000016001B0704700BF1810024004000140C8
:1011F000F8B5040025D004F13C05697821B9002038
:1012000028702046FFF712FF2421697020680268C9
:101210005208520002602068016841F400410160F8
:101220002068026822F400420260FFF78AF9014652
:101230006068DFF8F820904205D2DFF8F430994278
:1012400005D20120F2BDDFF8EC008142F9D320681D
:10125000DFF8E4304668B1FBF3F3B60943EA8616DB
:1012600046602668376A6068904206D34FF49670ED
:1012700043434FF47A70B3FBF0F35B1CBF0943EABE
:1012800087133362491E2368DE696768974206D276
:101290007F0000F044F8042913D2042111E0A06873
:1012A00020B907EB470700F03AF805E0192047435B
:1012B00000F035F841F4804108050CBF012141F4EC
:1012C0000041DFF8780006400E43DE6122681368B3
:1012D000E169206A23F0C0030B43034313602268D3
:1012E000DFF85C00936821690340E0680B43034327
:1012F00093602268D368A16960691B0A41EA0323ED
:101300000343D3602068016841F0010101600020BF
:1013100068602021697020630021A970F2BDB1FBD3
:10132000F7F1491CC1F30B0170470000A1860100D1
:1013300080841E0000093D0040420F000030FFFF86
:10134000007CFFFF38B5040001D1012032BD00F060
:101350001BF808B900F01CF800F01FF800F027F89F
:10136000FFE7416100F001F832BD2068C16841F437
:101370000051C16000206860202169702020A870A1
:10138000002161630020704704F1400568787047D0
:10139000002129702046FFF796BE2420687020683F
:1013A000C16821F40051C160204600F00AB82068ED
:1013B000016921F4904101612068416921F02A010D
:1013C000704710B5044622681169E06821F4405165
:1013D00001431161D3681949A0680B402169034397
:1013E00060690B430343D3605169A06921F44071E4
:1013F0000143516112498A4202D1FFF7AAF801E084
:10140000FFF79FF86268192148439200B0FBF2F1A0
:101410006423B1FBF3F26FF0630000FB02110901DA
:101420003231B1FBF3F000F0F00101EB0211226860
:1014300000F00F004018906010BD0000F3E9FFFFBE
:1014400000380140FEE7FEE7FEE7FEE7FEE77047F3
:101450007047704700F014B80548FFF7C2B9054857
:10146000FFF7BFB90448FFF7BABB0448FFF7B7BBA3
:10147000100000205400002098000020F000002000
:1014800002494A68087882184A60704700000020C4
:1014900030B4002512E050F8042BD30744BF4A446F
:1014A000521E091F042942F8045BFAD213468C0726
:1014B00044BF15809B1CC90748BF1D7050F8041B12
:1014C0000029E8D130BC704710B50749794418317C
:1014D000064C7C44163404E00A68081D1144884711
:1014E0000146A142F8D110BD08000000280000000C
:1014F000A1FFFFFFD4010000100000200000000049
:10150000ABF0FFFF1000000094000000000000207E
:101510000000000000F00DF8002801D0FFF7D4FF14
:10152000AFF300800020AFF30080FFF7AEFC00F0C7
:1015300002F80120704700F001B800000746384665
:1015400000F002F8FBE7000080B5AFF30080024A2C
:1015500011001820ABBEFBE726000200054801463B
:1015600003B4684680F30988AFF30080AFF30080CE
:10157000FFF7D0FFA5EDF5FE70470000000000006A
:101580000000000001020304060708090148804723
:1015900001480047791500085D15000801000000AA
:1015A00000000000100000000024F4000000000013
:1015B00001020304FFF7FEBFFFF7FEBFFFF7FEBF08
:1015C000FFF7FEBFFFF7FEBFFFF7FEBFFFF7FEBF4F
:1015D000FFF7FEBFFFF7FEBFFFF7FEBFFFF7FEBF3F
:1015E000FFF7FEBFFFF7FEBFFFF7FEBFFFF7FEBF2F
:1015F000FFF7FEBFFFF7FEBFFFF7FEBFFFF7FEBF1F
:10160000FFF7FEBFFFF7FEBFFFF7FEBFFFF7FEBF0E
:10161000FFF7FEBFFFF7FEBFFFF7FEBFFFF7FEBFFE
:10162000FFF7FEBFFFF7FEBFFFF7FEBFFFF7FEBFEE
:10163000FFF7FEBFFFF7FEBFFFF7FEBFFFF7FEBFDE
:10164000FFF7FEBFFFF7FEBFFFF7FEBFFFF7FEBFCE
:040000050800155D7D
:00000001FF
