:020000040800F2
:10000000A81800208D3B0008893A00088B3A0008A8
:100010008D3A00088F3A0008913A0008000000006D
:10002000000000000000000000000000933A0008FB
:10003000953A000800000000973A0008993A000835
:10004000A53B0008A93B0008AD3B0008B13B0008F8
:10005000B53B0008B93B0008BD3B0008C13B0008A8
:10006000C53B0008C93B0008CD3B0008D13B000858
:10007000D53B0008D93B0008DD3B0008E13B000808
:10008000E53B0008E93B0008ED3B0008F13B0008B8
:100090009D3A0008F53B0008F93B0008FD3B0008CD
:1000A000013C0008053C0008093C00080D3C000824
:1000B000113C0008153C0008193C00081D3C0008D4
:1000C000213C0008253C0008293C0008A33A000810
:1000D000A93A00082D3C0008313C0008353C0008D6
:1000E000393C00083D3C0008413C000878B504005C
:1000F00085B044D004F52A75687820B900212970AC
:10010000204600F07FFD03206870206800F080FE2C
:1001100083B000F047F80EBC206800F06FFE0028A6
:100120002BD12068002100F079FE00212820002634
:1001300009E000FB01F222442832012353701170C0
:10014000002300F028F862689142F2D3002109E010
:1001500000FB01F2224402F5B472002311705370C7
:1001600000F019F862689142F2D383B000F01AF8F7
:100170000EBC206800F054FE18B102206870012007
:1001800007E084F8240001216970206801F0E4FA96
:10019000002006B070BD491CD67013615661936192
:1001A000C9B27047211D6846202201F007BB10B577
:1001B00000F006FC01D1022010BD00F0FDFB20681C
:1001C00000F01EFE00F0EEBB0021204600F00BBE4A
:1001D0002DE9F84F054686B0286801F0BFFA010402
:1001E0001BD4420540F1A08200F061FB4FF6FF30C6
:1001F0008A8802408A80284600F03BFD002128467C
:1002000000F0E3FB1BE3012803D100F031FB0020E9
:1002100008803978284600F01FFD2F6807F1440157
:1002200008880204EED50A8812F00F00009048F208
:1002300080084BF68F7B40F68F7448F60F7640F0BF
:10024000AC80D0062CD429680A881640084646F4AB
:100250000046068005F124042868B0F85010227981
:1002600001EBC20100EB410000F204400088A169EB
:10027000C0F3090020620844A0610021284600F074
:10028000EBFC20780028C8D0E0690028C5D121788F
:10029000286841F08001A0F84C1000212170BCE7D3
:1002A00028680088020505F5B4761BD58889317861
:1002B00000EBC10007EB400202F20C4205F52C7185
:1002C0001388C3F30903F3613846F28801F062FA38
:1002D000286801880C4044F080040480284600F01F
:1002E000ABFC9AE7000498D529680A8814400846B0
:1002F00044F0800404802868B0F85010327800F090
:10030000B0FA1B88C3F30903002BF3611CBF7169AA
:1003100000290AD0F28801F03DFA7069F1690144C0
:1003200071612846002100F08DFC286800880105D5
:10033000D7D400F44050B0F5405FD2D029680846C9
:10034000B0F85020511801F20C410888C0F30900A0
:10035000088030693F2808D3420910F01F0F08BFFA
:10036000521E088840EA822001E018B9088840F44B
:10037000004006E04208C00748BF521C088840EA17
:1003800082200880286801880BEA010181F440512D
:1003900048EA0108A0F800803FE72868009930F893
:1003A000219008462821484329185FEA0940019115
:1003B00048F68F7A40F19D802968009831F8201026
:1003C00028680C40009944F0800420F82140019AEC
:1003D00002F5B477387B70B92868B0F850103A78D5
:1003E00000F03FFA1C88C4F30904002C6DD0FA8891
:1003F0007969234667E0F878022848F2C0022FD1D5
:100400002C68B9695FEA49433B78A446B4F8504088
:1004100004EBC30409F040000CEB440C11D50CF2C2
:10042000044C00F018FA2CBF091B0021B96109B96E
:1004300000F031FA08B100F024FA002C45D03A89D6
:100440003EE00CF20C4C00F006FA2CBF091B002118
:10045000B96109B900F01FFA78BB00F012FA2CE07C
:100460002968387831F820300AEA03030C461A4329
:1004700024F8202038782968024631F822305904BF
:100480000FD52A68B2F8501001EBC00102EB410011
:1004900000F204400488C4F30904002C15D03A8902
:1004A0000EE02968B1F8502002EBC00201EB4200D7
:1004B00000F20C400488C4F30904002C05D07A89AA
:1004C00023467969286801F065F9F8692018F86110
:1004D0007A6922447A61B86938B13869844204D3B0
:1004E0002868394600F075FE03E03978284600F0A8
:1004F000A9FB5FEA09605ED50199286801F1280728
:10050000009930F82120164046F4004620F821607A
:10051000F87801282BD10021B961387B00280ED052
:100520005FEA496013D5787850B900F0CEF90188B8
:10053000C1F309010180028842F40042028068E6AA
:100540000128FCD100F0C1F90021018061E6787832
:100550002A6800287FF457AE00F08AF90888C0F3B3
:10056000090008800A8842F400420A8051E62A689D
:10057000B8695FEAC95113461ED43978B2F85020E1
:1005800002EBC10203EB420303F204431A88C2F3F5
:100590000902824234BF801A00200028B8613FF46B
:1005A00039AE786910447861F9695218FA613946B0
:1005B000286800F00EFE30E697F800C0B2F8502030
:1005C0005FEA496102EBCC0209F480444CF28006F8
:1005D00003EB420346D503F204431B88C3F309032C
:1005E000834234BFC01A00200028B86104D100F053
:1005F00096F9002C50D045E00CB100F070F997F856
:10060000240001283DD100F075F9787808BB00F08E
:1006100052F93F2B0288C2F3090202800AD35A0919
:1006200013F01F0F08BF521E048844EA822444F4CA
:1006300000440CE023B9028842F4004202800DE03D
:100640005A08DC0748BF521C048844EA822404800C
:1006500004E0012802D100F02EF9038079619BB2F9
:100660003A8950E003F20C431B88C3F30903984214
:100670002CBFC01A00200028B8610ED100F04FF93D
:10068000002C43D12968387831F820200AEA020288
:1006900046EA020A21F820A038E00CB900F01FF960
:1006A00097F82400012831D100F024F92C687878DB
:1006B00008BB00F0C7F83F2B1088C0F3090010807A
:1006C0000AD3580913F01F0F08BF401E148844EACC
:1006D000802444F400440CE023B9108840F4004026
:1006E00010800DE05808DC0748BF401C148844EA1D
:1006F0008024148004E0012802D100F0A3F81380C4
:1007000079619BB27A89286801F032F829683878D3
:1007100031F8202048F6BF731A4082F0300248EAD0
:10072000020821F8208078E5410404D500F0BFF8E4
:100730004BF6FF7080E0810404D500F0B8F84DF668
:10074000FF7079E0C1041BD52A6802F140014FF621
:10075000FB700B8803400B804FF6F7702968B1F8E7
:1007600040200240A1F84020284600F0A2FA296863
:10077000B1F844204EF6FF700240A1F844205EE03C
:10078000010546D5002002A92A6832F8203021F858
:100790001030401C0828F7D3286830F8402F42F06A
:1007A000010202804FF6FE702A68B2F84030034022
:1007B000A2F840302A68B2F844004305FBD5B2F8ED
:1007C00044404FF6FF300440A2F8444000202B681C
:1007D00031F8102023F82020401C0828F7D328687F
:1007E000B0F8401041F00801A0F840104FF2FF703F
:1007F0002968B1F844200240A1F844202868B0F8E4
:10080000401041F00401A0F84010284600F043FADF
:1008100015E081050AD500F04AF84FF6FF508A88A6
:1008200002408A80284600F020FA08E0C00506D57C
:10083000296840314FF6FF608A8802408A8007B0FD
:10084000BDE8F08FB4F8500002193C7802EB0412B6
:1008500002F20C427047BCF80040C4F30904A14204
:10086000704701EBC20100EB410303F20C437047F8
:10087000B2F8500081183A7801EB021101F20C41F4
:1008800070472968387831F820300AEA03031A43A0
:1008900021F820207047296831F823C00BEA0C0B9F
:1008A0008BF4005B48EA0B0B21F823B070472868F3
:1008B00000F1400170472868B0F850203C781018CB
:1008C00000EB041000F2044070472868B0F85010A4
:1008D0003A78081800EB021000F2044070472868CC
:1008E00030F82C100AEA0101024646EA010A22F811
:1008F0002CA07047FA6978699A18FA61C1183A69A8
:10090000386A904203D31346C01A3862704710B158
:10091000034600203862002287F824207047787848
:1009200080B92868B0F85020101800EB0C1000F2C5
:1009300004400188C1F309010180028842F40042A9
:1009400002800BE0012829D12868B0F85020101847
:1009500000EB0C1000F20440002101802A68787836
:1009600080B9B2F8500081183A7801EB021101F217
:100970000C410888C0F3090008800A8842F400424C
:100980000A800BE0012809D1B2F8500081183A78AA
:1009900001EB021101F20C41002008802846397851
:1009A00000F05AB90121FFF710FC206800F0D2FED8
:1009B000002084F8A80210BD012084F8A802704726
:1009C000044694F8A8020128704710B5FFF7F8FF15
:1009D00001D1022010BDFFF7EFFF84F8241020683A
:1009E00000F0B2FEE4E770B5044601F007052820E8
:1009F000454360190D0603D528300126467003E0F3
:100A000000F5B4700025457001F007010170026126
:100A1000C370022B04BF0021017194F8A8120129B0
:100A200001D1022070BD00F014F800F007FA002098
:100A300084F8A80270BD10B5044600F094F800F0E8
:100A40008BF801D1022010BD00F003F800F039FB53
:100A5000AEE7012284F8A82201462068704738B525
:100A60000C4604F0070528214D43411901F5B471E6
:100A700004F007044A618B610022CA614A700C705D
:100A80001BE001F00701282251430844D0F88401FB
:100A9000704738B501F00705282465434419283408
:100AA0006261A36123620122002301F0070184F83F
:100AB0002420E361627021702146006800F089FB08
:100AC000002032BD38B505460C46696804F00700C1
:100AD000814201D2012032BD2821220605D548439A
:100AE000284400F12801012004E06143681800F562
:100AF000B4710020487001228A7004F007040C7061
:100B000095F8A802012801D1022032BD85F8A8225B
:100B1000286800F0C3FD24B9286805F52C7100F0A1
:100B200020FE002085F8A80232BD10B5044601F071
:100B30000F036068984201D2012010BD00F013F845
:100B40000023837000F008F801D1022010BDFFF7E8
:100B500080FF00F0BCFD2BE701F00701017094F865
:100B6000A8120129704701F0070228204243A0186B
:100B70000A0603D5283001234370704700F5B4708E
:100B8000002242707047F0B402461068956813184E
:100B9000506803EB5004C00748BF4D44A3422DD01A
:100BA00013F8016B16F0030004BF13F8010BC01C0F
:100BB00031090F2907D113F8011B0F3103E013F896
:100BC000017B05F8017B401EF9D10029E6D013F81E
:100BD000010BC6F38106032E08BF13F8016B00EB6F
:100BE0000620404228440026B71E8F421EBF10F840
:100BF000017B05F8017B761CF6D1CFE7F0BC02F152
:100C00000C00704700687249884200D0704780B578
:100C10007048026842F4000202600022006800F49A
:100C20000000009000210098142000F0EDFDBDE8C8
:100C30000240142000F005BE00F52C71D0F8EC0243
:100C400000F05ABE0B4628225343C218D0F8EC02DB
:100C5000D2F87C2100F07ABE0B4628225343C218FA
:100C6000D0F8EC02D26B00F0B2BED0F8EC0200F08B
:100C700042BF10B50446A068022818BF01F020F852
:100C8000D4F8EC02012100F022FFD4F8EC02BDE818
:100C9000104000F0F3BE10B50446D4F8EC0200F0AA
:100CA00019FFA06920B14C48016841F006010160BC
:100CB00010BDD0F8EC0200F015BF10B5044647484F
:100CC0004349C0F8EC42C4F8C00201600822022384
:100CD0000021426083608161C1610162FFF706FA11
:100CE00008B100F0EDFFD4F8C00218230022002163
:100CF00000F0ECFFD4F8C00258230022802100F05D
:100D0000E5FFD4F8C002C0230022812100F0DEFFFD
:100D1000D4F8C0024FF488730022012100F0D6FFFE
:100D2000D4F8C0024FF480730022822100F0CEFF7D
:100D3000002010BD80B5D0F8C002FFF738FABDE83A
:100D4000024051E010B51C461346D0F8C0022246BE
:100D5000FFF749FEBDE8104046E080B5D0F8C0027C
:100D6000FFF769FEEBE780B5D0F8C002FFF7AAFEF7
:100D7000E5E780B5D0F8C002FFF7D7FEDFE7D0F88F
:100D8000C02201F07F0328204343D018090602D572
:100D900090F82A00704790F86A01704780B5D0F843
:100DA000C002FFF712FECAE780B5D0F8C002FFF715
:100DB00070FEC4E780B5D0F8C002FFF750FEBEE772
:100DC000D0F8C002FFF75DBE054870470000000084
:100DD000005C00401C10024010ED00E08009002083
:100DE000340F0020704770470146002021B10229CE
:100DF00001D1012070470220704700000EB419E0B5
:100E00004030002181804FF43F4202800020704733
:100E1000B0F8402044F2FF0100F0A5BC002070476C
:100E20000EB4012120F8401F00220280002383809D
:100E300000210182002003B0704700002DE9F04F2F
:100E40000B4602461D7832F82560DC7848F68F1193
:100E500000200E40032C0CD8DFE804F002080C053B
:100E600046F4007606E046F4C06603E046F4806689
:100E700000E0012048F28004264322F8256048F66D
:100E80008F7619780D4632F8257037403943214363
:100E900022F825104BF68F75197B93F800900029E6
:100EA0004CF2800748F6BF7E48F2C0087CD1D98852
:100EB0004FF6FE7A0AEA010B59780029B2F8501071
:100EC0001FD0114401EB091101F58069A9F800B0A8
:100ED000197832F821506D0606D532F821502E408F
:100EE00048EA060622F821601978DB78012B32F8EF
:100EF00021300EEA03030EBF1C4383F020031C4382
:100F0000DBE0891801EB091101F58169A9F800B04E
:100F1000B2F8501001EB020C19780CEB011C0CF22A
:100F20000C4CBCF800E0CEF3090EACF800E01969F7
:100F30003F290BD34FEA511E11F01F0F08BFAEF12E
:100F4000010EBCF8001041EA8E2102E021B9BCF884
:100F5000001041F4004109E04FEA510EC90748BFB3
:100F60000EF1010EBCF8001041EA8E21ACF8001021
:100F7000197832F821C05FEA4C4C06D532F821C00E
:100F800006EA0C063E4322F82160197831B911882F
:100F90000D4085F440552C43148090E032F8213008
:100FA0001D4085F4005587E0D978022909D132F82F
:100FB0002910314041F4014141F0800122F829100B
:100FC00009E032F829A048F68F6101EA0A0144EAF3
:100FD000010A22F829A0B2F850901978B3F808A0B5
:100FE000914409EB011101F580694FF6FE7101EAA8
:100FF0000A0AA9F800A0B2F8501093F80090114422
:1010000001EB091101F5816C59894FF6FE7909EA66
:101010000101ACF80010597893F800C0002932F8AB
:101020002C1023D1490405D532F82C1031400F4340
:1010300022F82C70197832F821707F0606D532F824
:1010400021703E4048EA060622F82160197832F8FD
:101050002160354085F44055254322F82150197808
:1010600032F821300EEA03031C4326E0490405D57B
:1010700032F82C1031400F4322F82C70197832F8D6
:1010800021707F0606D532F821703E4048EA0606F8
:1010900022F82160DE781978012E32F821600EEAFC
:1010A000060618BF86F0200644EA060E22F821E064
:1010B000197832F821301D402C4322F82140BDE838
:1010C000F08F2DE9F041024691F800C048780B7B83
:1010D0004BF68F7E4CF2800448F2800848F6BF75CC
:1010E00048F2C00648F68F77ABB9002832F82C00DA
:1010F00008D0400636D532F82C0007403E4322F88F
:101100002C602FE0400458D532F82C0007403C43B7
:1011100022F82C4051E0002832F82C002BD140045A
:1011200005D532F82C003840044322F82C400878CA
:1011300032F820305B0605D532F820303B4033438F
:1011400022F82030087832F820301F403E4322F841
:101150002060087832F820300EEA030348EA030ED4
:1011600022F820E0087832F820100D4048EA0508FF
:1011700022F820802AE0400405D532F82C003840BF
:10118000204322F82C00087832F820305B0605D581
:1011900032F820303B401E4322F82060087832F8B5
:1011A00020301F403C4322F82040087832F820309D
:1011B0001D4048EA050522F82050087832F8201032
:1011C0000EEA010148EA010E22F820E00020BDE805
:1011D000F0812DE9F8430E4605467278012A48F25F
:1011E000800848F68F7140F00A81B4693269A242E2
:1011F00038BF1446307B30B9F28800F042FA00F074
:1012000037FA3C80F2E096F803E03078376ABEF1B6
:10121000020F034640F0CD80BA4280F0BB8035F823
:101220002300014041F4014141F0800125F82310E1
:10123000381B3062630832787178964635F82E9004
:101240005FEA496704F001004FEA541C4FD5C1B969
:1012500000F0FFF901F20C4100F0EEF908D314F0B0
:101260001F0F08BFACF1010C088840EA8C2001E098
:101270001CB9088840F4004001E000F0D1F9088072
:101280000AE0012908D1B5F85000401900EB021E10
:101290000EF20C4EAEF80040728900F0F2F900F048
:1012A000D1F932BF001B0446002030627078D8B9F3
:1012B00000F0DEF900F0BAF907D3600914F01F0F4F
:1012C00008BF401E00F0A6F90CE024B9388840F4AD
:1012D0000040388084E06008E10748BF401C39883E
:1012E00041EA802139807BE0012879D15CE0C1B9F5
:1012F00000F0AFF901F2044100F09EF908D314F0B8
:101300001F0F08BFACF1010C088840EA8C2001E0F7
:101310001CB9088840F4004001E000F081F9088021
:1013200009E0012907D1B5F85000401900EB02107F
:1013300000F204400480328900F0A3F900F082F941
:1013400032BF001B0446002030627078D8B900F02C
:101350009CF900F06BF907D3600914F01F0F08BF68
:10136000401E00F057F90CE024B9388840F40040E2
:1013700038802CE06008E10748BF401C398841EA0A
:101380008021398023E0012821D1B5F85000471988
:10139000307817E035F8231048F68F60014048EAAE
:1013A000010125F823103C46B5F850004719307864
:1013B00011E0391B316235F823104A06B5F8501098
:1013C00008D54F1907EB001707F20C473C80A3B272
:1013D000728907E04F1907EB001707F204473C80BA
:1013E000A3B232897169284600F0C2F9317835F824
:1013F000212048F6BF70024082F0300225E0307BA9
:10140000002834D1B1693069884232BF091A0846D0
:101410000021B16100F023F93F283A88C2F30902A4
:101420003A8019D3410910F01F0F08BF491E3888B0
:1014300040EA812040F400403880317835F821209E
:101440004BF68F70024082F4405248EA020825F8B9
:1014500021800020BDE8F28308B93888EAE7410816
:10146000C00748BF491C388840EA8120E4E7F0788B
:10147000022867D122BBB5F850203078521902EB10
:10148000001202F204421388C3F309031380306987
:101490003F2808D3430910F01F0F08BF5B1E1088B8
:1014A00040EA832001E018B9108840F4004006E0CB
:1014B0004308C00748BF5B1C108840EA83201080A7
:1014C0007078F8B900F0E1F83A88C2F309023A807E
:1014D00030693F2808D3420910F01F0F08BF521E81
:1014E000388840EA822001E018B9388840F400408A
:1014F00006E04208C00748BF521C388840EA8220F4
:10150000388007E0012805D1B5F85000326900F0B5
:10151000BEF83A80F06900288FD0307835F8202066
:1015200044F2400303EA02049C4218BF1A4284D1E9
:1015300035F82020114041F4004141F0C00125F868
:1015400020107AE7012863D1B1693069884232BF3F
:10155000091A08460021B161440800F0010143095D
:1015600072BBB5F850203778521902EB071202F21D
:1015700004423F28B2F800E0CEF3090EA2F800E0E2
:101580000CD39C4610F01F0F08BFACF1010CB2F851
:1015900000E04EEA8C2747F4004E0FE030B9B2F875
:1015A00000C04CF4004CA2F800C009E0A44609B108
:1015B0000CF1010CB2F800E04EEA8C2EA2F800E02B
:1015C000727802BBB5F850205719327807EB021732
:1015D00007F20C473F28B7F800C0CCF3090CA7F876
:1015E00000C007D310F01F0F08BF5B1E388840EA09
:1015F00083201FE708B9FFF730BF01B1641C3888AA
:1016000040EA842018E7012A9BD100F028F813E76C
:1016100001201FE7398841EA802141F400417047E9
:1016200000B15B1C088840EA832070473F2C398852
:10163000C1F30901398070473F2C0A88C2F30902BF
:101640000A8070477069316920447061306A814254
:101650007047B5F85010491901EB02117047B5F801
:1016600050104F19317807EB011707F20C477047FC
:10167000B5F850004719307807EB001707F2044718
:1016800070477169A3B2284672E0B5F85000471957
:10169000307807EB001707F20C47704710B50A784F
:1016A000497830F82240002948F2800305D048F6F6
:1016B000BF710C4084F0100404E04BF68F710C40B5
:1016C00084F48054234320F82230002010BD30B52C
:1016D0000A7B002A36D14A780C78002A30F8242078
:1016E00048F2800348F68F7516D0520608D530F8B8
:1016F0002420154045F4004545F0C00520F824504D
:10170000CA78012A1ED00A7830F8224048F6BF7104
:101710000C4084F0200412E0520408D530F8242054
:10172000154045F4404545F0800520F824500A78DE
:1017300030F822404BF68F710C4084F44054234320
:1017400020F82230002030BD11B98021A0F84C10C3
:10175000002070470020704700207047B0F8440018
:101760007047002070470A40A0F8402000207047D2
:1017700010B500EB42005B1C00F580605B0807E0E1
:101780000A784C7842EA0422891C20F8042B5B1E5C
:10179000F6D110BD10B500EB420000F580605A088C
:1017A00006E030F8044B0C70240A4C70891C521E61
:1017B000F7D1DA0744BF0088087010BD4AB10000B5
:1017C00011F8013B521E00F8013B1CBF11F8013B10
:1017D000F8E770470901020002D428488154704795
:1017E000274B02F00F021A4402F8041C7047254BE5
:1017F00019684FF6FF020002114000F4E060084350
:10180000214908431860704770B51E4B1C68C4F32B
:1018100002230124C3F10705052D2EBF0F2504FA6D
:1018200005F56D1E1E1D072E34BF0023DB1E29404B
:10183000994004FA03F3BDE870405B1E1A4011435F
:10184000C8E7010007D4012200F01F010F4B8A40B6
:10185000400943F820207047401EB0F1807F01D33B
:10186000012070470A490B4A48600023F02010709D
:101870008B600720086000207047000000E400E053
:1018800018ED00E00CED00E00000FA0500E100E0DA
:1018900010E000E023ED00E038B508B9022032BDC9
:1018A00000F52774A3690BB10025A56101B1616141
:1018B000012121700270FFF700FA002032BD0246BC
:1018C000002011B1C2F8B41270470220704780B5F1
:1018D000FFF730FA002002BD10B5D0F8B422022480
:1018E0001AB11268904700B90024204610BD80B597
:1018F000D0F8B42253680AE138B5044604F52A75D5
:10190000284600F0EAFB04F5257001210160428BB6
:10191000017D426011F01F0003D002280BD005D3D7
:101920000EE02946204600F0EBF90DE0294620465E
:1019300000F01CFB08E02946204600F03DFB03E0D8
:1019400001F0800100F040F8002032BD38B50446B7
:1019500010460A0004F5257329D1196803291ED100
:1019600004F5B0714A680D68AA420BD2AD1A0D6039
:10197000954238BF2A46014692B2204600F009FC43
:10198000002032BD196A086928B1187A032802D1EB
:10199000096920468847204600F003FCF0E7052946
:1019A000EED100201860002100F00EF8E8E71A6A76
:1019B000906930B1187A032803D192692046904784
:1019C000DEE7022032BD80212046FFF7CCB938B5D2
:1019D00004460800134604F5257543D128680228FB
:1019E00033D1226A616A914207D2521A22621946A1
:1019F00092B2204600F0BBFB11E0E269B2FBF1F0CD
:101A000001FB102090B98A4210D3686882420DD23F
:101A100000220021204600F0AAFB0020686000237D
:101A2000002200212046FFF7C5F914E0296AC868A2
:101A300028B1287A032802D1C96820468847FFF7D1
:101A4000C2FF204600F0B4FB05E0042818BF0028C0
:101A500001D1FFF7B8FF287B012804BF00212973BB
:101A6000002032BD2A6A506930B1287A032803D198
:101A7000526920469047F3E7022032BD38B504464C
:101A8000402300220021FFF75DF904F5AC7001212D
:101A900040220160C2604023002280212046FFF7DF
:101AA00051F90120402104F52572A0616162107294
:101AB0000021116061600025506A156128B1126A29
:101AC00061685368C9B220469847002032BD01744E
:101AD0000020704700F527700422017841700270E1
:101AE0000020704700F527700178042904BF417871
:101AF00001700020704780B500F527710A78032A2D
:101B000003D18969C96901B18847002002BD98479E
:101B1000002002BD18B587B000F052FB00F08EF82F
:101B200000F060FB00F0BAFB00F006FC00F010FCD7
:101B300000F098FC00F0ECFC3A493B4A019102921B
:101B400010213A4AADF80C1004924FF480523849F3
:101B50000591ADF8182001AB93E8070000F01EFDD9
:101B600004AB93E8070000F019FD01A807C800F0D6
:101B700054FD04A807C800F050FD4FF47A7000F03F
:101B800053FD01A807C800F045FD04A807C800F0F0
:101B900041FDFF2000F04EF8012300F0E3FC7F2020
:101BA00000F048F8022300F0DDFC3F2000F042F88E
:101BB000032300F0D7FC1F2000F03CF8042300F0C2
:101BC000D1FC0F2000F036F8052300F0CBFC0720F5
:101BD00000F030F8062300F0C5FC032000F02AF8DE
:101BE000072300F0BFFC012000F024F8082300F0D8
:101BF000B9FC00BF33A104A8D1E90023C0E9002348
:101C0000002404A801AA015D0091631C07CADBB28D
:101C100000F0A8FC4FF47A7000F006FD641C082C5C
:101C2000EFDBFEE75413002000080140AC13002056
:101C3000000C0140009001A907C9704718B593B086
:101C4000282109A800F004FD1421684600F000FDD9
:101C500005A8002100220023002480E81E000121A5
:101C600009910B924FF480310A91119101230222C4
:101C70004FF480110D931092129109A800F0ECFC22
:101C800008B100F01DF8022101910F204FF480618E
:101C900000900391029404940121684600F066FECE
:101CA00008B100F00DF810214FF480020591089260
:101CB00005A800F031FF08B100F002F814B010BD23
:101CC00072B6FEE70103070F1F3F7FFF30B52824E0
:101CD0000D0605D501F0070161430844283003E0F3
:101CE0006143084400F5B4701AB900210173C38040
:101CF00004E0038101211B0C01734381002030BDEE
:101D00002DE9FC410E460546307810F0600005F5DF
:101D1000277708D0202818BF402824D1BA699368B3
:101D200028469847ACE0717809291CD8DFE811F003
:101D3000FD00120188000C0188008D000A00880057
:101D4000E800AB000022ADF800207088010A0129EC
:101D500070D0022961D003292CD0062922D007296E
:101D600004BF287C00286BD1B9690A6B684690478C
:101D700007214170BDF8001081B1F188002910D011
:101D8000BDF80010F288914288BF1146ADF80010EE
:101D90000146BDF80020284600F0E1F9F08800284F
:101DA0006ED19FE0287C00284AD1B9694A6B684609
:101DB0009047DFE7C0B2052842D8DFE800F02720CF
:101DC00019120B0378698269002A39D0287C694688
:101DD0009047CFE77869426992B3287C694690477B
:101DE000C8E7786902695AB3287C69469047C1E719
:101DF0007869C26822B3287C69469047BAE7786957
:101E00008268EAB1287C69469047B3E778694268FE
:101E1000B2B1287C69469047ACE7287CB9690028B4
:101E2000684604D1896A884702224270A2E7C96ADB
:101E30008847F9E77A69287C13686946984799E7E3
:101E40003146284600F05DF91AE0B088002804BF4A
:101E5000F0880028F4D17488802CF1D238780328D7
:101E600004F07F04ECD0BC7021462846FEF796FFB4
:101E7000284600F096F9002C0CBF01200220387093
:101E80000020BDE8F681DFF8E080708888F8000067
:101E900098F8004021460229D2DA3878022818D072
:101EA000032823D134B90220387069602846FFF72F
:101EB0001EFD17E069688C4214D0C9B22846FFF7AE
:101EC00016FD6C6021462846FFF706FD022809D161
:101ED000B6E73CB16C60032038702846FFF7FCFC85
:101EE0000228ADD0284600F05CF9C9E73146284603
:101EF00000F007F998F800102846FFF7F8FCBFE754
:101F0000F08801289CD13978491E012907D9891EFA
:101F100096D10122291D284600F021F9B0E70020C2
:101F2000A860012205F10801F5E73878401E022873
:101F300086D8F288022A83D1B868012100B1032132
:101F4000E96005F10C01E6E77088012898D10121CC
:101F5000B960C7E73878401E0228ECD87288012A99
:101F60008ED10020B860BDE7A014002038B50D4622
:101F70000446287810F060001CBF2028402816D1A5
:101F800004F527721078401E022810D82B79022BF6
:101F90000DDA92699368204698470146E888002840
:101FA00008BF002906D1204600F0FBF802E02046D9
:101FB00000F0A7F8002032BDF8B50A780446087989
:101FC00012F0600504F5277308D0202D18BF402DAE
:101FD00066D19A6993682046984764E002F06002EF
:101FE000202A05D19A6993682046BDE8F440184735
:101FF0004A7882B3012A11D0032A51D11B78022BCF
:1020000012D0032B4CD14A880ABB002818BF802865
:102010001DD0C988D9B900F05CF818E01A78022AF6
:1020200002D0032A0AD03BE0002818BF802837D00E
:1020300000F04FF8802100F04DF834E04A8892BB60
:1020400010F07F0103D001462046FEF792FE2046A5
:1020500000F0A7F827E0142600F07F021B787243F7
:10206000A718022B07F5AA7500F0800202D0032BF7
:102070000FD015E0002818BF802811D10AB107F150
:1020800014050020286002222946204600F067F847
:1020900009E000F00F035E43A31932B19A696AB9EF
:1020A000204600F02EF80020F2BDD3F85821002A77
:1020B000F6D0002818BF802803D1E2E707F1140505
:1020C000F7E701462046FEF75AFE0028DAD0012045
:1020D000D8E701462046FEF746BE0A7802704B78E4
:1020E00043708A78CB7802EB032242804B790A79DD
:1020F00002EB032282808A79C97902EB0122C28035
:10210000704710B504468021FEF72DFE2046BDE83D
:1021100010400021FEF727BE00280B4600D1704773
:1021200070B50146002400E0641C11F8015B002D2D
:10213000FAD12406E40DA41C14801178197003222E
:102140005A70022207E010F8011BD4B2521C195534
:10215000D6B2521C9D5501780029F4D170BD80B5CE
:1021600013460222C0F89422C361036201E080B5E5
:1021700013460A460021FEF717FE002002BD80B577
:1021800013460322C0F8942200F5AE721360536028
:1021900001E080B513460A460021FEF70BFE002041
:1021A00002BD80B50421C0F8941200230022E1E7AB
:1021B00080B50521C0F8941200230022ECE700004E
:1021C00080B50748016841F0100101600320FFF766
:1021D0000EFB0F2000F014FD00F032FD002002BDC8
:1021E0000020024030B585B010220021684600F082
:1021F00049FD2148214D0168214C41F02001016039
:10220000026802F0200204920499026842F004027B
:102210000260036803F0040304930499026842F027
:10222000080202600022006800F0080004901021FB
:102230000498284600F0FEFD00224FF4805120460D
:1022400000F0F8FD102100F01FF8284600F024FDF2
:102250004FF4805100F018F8204600F01DFD4FF4B7
:102260008070084900900191002202926946204640
:1022700000F012FD05B030BD18100240000801400A
:10228000000C014000001110009101220192002178
:10229000029102220392694670470000214A2248B7
:1022A000224980B5426000234FF480420160836080
:1022B000C360026143618361C361036200F0D8FDC2
:1022C00018B1BDE80140FFF7FBBC01BD18B585B0F2
:1022D00004461022002101A800F0D4FC2168134814
:1022E00081421CD1124C216841F008012160C021BB
:1022F000206800F008000090122200980D4801911B
:1023000002920121049101A900F0C6FC606840F42A
:1023100000106060606800F400100090009806B043
:1023200010BD0000A08601000414002000540040ED
:1023300018100240000C014080B543484349016039
:102340004FF48272182100F00FF800B11DE001BDBA
:1023500080B53F483F4901604FF48272102100F080
:1023600003F800B111E001BD4260C16100234FF4E8
:1023700000720A218360C36003614361826103626A
:1023800043628362C16200F01DBEBDE80140FFF7F9
:1023900097BC18B585B0044610220021684600F0AD
:1023A00071FC206800F04BF81DD1086840F48050A3
:1023B00008600A6802F48052049204980A6842F0A5
:1023C00004020A600222096801F004010491A021BC
:1023D0000498214800F02CF8002200212320FFF768
:1023E00013FA232020E01B4A90421FD1486840F492
:1023F00080404860486800F48040049004980A686F
:1024000042F008020A600222096801F00801049102
:102410004FF420410498114800F00AF800220021EE
:102420002420FFF7F1F92420FFF70BFA06B010BDC6
:102430000091019203210391694600F02DBC034AEB
:1024400007499042704700005413002000300140BB
:10245000AC1300200038004000080140000C01408F
:102460001810024080B52648264901604FF4E13239
:1024700000230C2142608360C3600361416183617A
:10248000C36100F0C3FF18B1BDE80140FFF718BCFD
:1024900001BD18B585B0044610220021684600F041
:1024A000F1FB21681748814228D11748174C016871
:1024B00041F480410160026802F480420492049970
:1024C000026842F0040202604FF40071006800F0FC
:1024D00004000490022204980091019203210391C8
:1024E0002046694600F0D8FB4FF480600021009040
:1024F000019102912046694600F0CEFB06B010BD66
:102500005814002000380140181002400008014013
:1025100010B5104C104900222046FFF7BDF908B154
:10252000FFF7CEFB0D492046FFF7C9F908B1FFF7C9
:10253000C7FB0B49204601F00FF908B1FFF7C0FBBC
:102540002046FFF7C4F918B1BDE81040FFF7B8BB4B
:1025500010BD00BF700C0020300100201C000020C6
:102560002001002037B582B00C460898BDF8105005
:102570008DF801008DF8003000222946204600F039
:1025800059FC0298FF230222694600F070FD0122E7
:102590002946204600F04EFC05B030BD1FB582B084
:1025A000002400940923FFF7DDFF02A807C80324D5
:1025B00000940A23FFF7D6FF0720009002A907C95D
:1025C0000B23FFF7CFFF0120009002A907C90C23BE
:1025D000FFF7C8FF0020009002A907C90F23FFF7EB
:1025E000C1FF02A807C806B0BDE8104038B584B0E6
:1025F00001AD002485E80700002300F005F8E0B2F3
:102600000828F9DB05B030BD95E807000093641C8D
:10261000E3B2A7E71CB5002401E01CB50124009437
:102620000F23FFF79FFF13BD38B5044601F0BCF838
:1026300014F1010F054602D004490878041901F08D
:10264000B3F8401BA042FAD331BD00BF0000002008
:10265000002201F0AFB800002DE9F843040016D0C5
:102660002078DFF87064C10713D5706800F00C00A3
:10267000042807D0706800F00C00082841D1706869
:10268000C1033ED53068810303D56068002800F09F
:1026900064812078DFF84C74810719D5706810F0D8
:1026A0000C0F07D0706800F00C00082861D170682A
:1026B000C1035ED43068810703D52069012840F04A
:1026C0004C813168606921F0F80141EAC001316054
:1026D0002178080740F18180A069DFF80C140028F8
:1026E00000F0A68001220A6001F05EF80546706ADB
:1026F000810763D401F058F8401B0228F7D9032062
:102700002EE16068B0F5803F04D1306840F480303D
:10271000306014E008B930680AE0B0F5A02F3068E6
:1027200006D140F480203060316841F4803105E00A
:1027300020F480303060316821F48021316060689D
:1027400058B101F031F8054630688103A1D401F099
:102750002BF8401B6528F7D3D1E701F025F8054693
:102760003068810395D501F01FF8401B6528F7D329
:10277000C5E72069A8B10121396001F015F80546C7
:102780003068810705D401F00FF8401B0228F7D903
:10279000B5E73068616920F0F80040EAC1003060B8
:1027A00096E7386001F000F80546316888078FD554
:1027B00000F0FAFF401B0228F7D9A0E7DFF8180362
:1027C0000168C9084FF47A72B1FBF2F2009200BFBF
:1027D0000098411E00280091F9D1207841076ED55C
:1027E000F0690025C10009D4F06940F08050F06123
:1027F0000125F06900F0805000900098DFF8EC822D
:10280000D8F80000C10520D4D8F8000040F480704A
:10281000C8F8000000F0C8FF8146D8F80000C105E4
:1028200013D400F0C1FFA0EB09006528F5D366E7DB
:10283000086000F0B9FF0546706A8107CDD500F049
:10284000B3FF401B0228F7D959E7E068012808D0F8
:1028500008B9306A09E00528306A06D140F0040062
:102860003062306A40F0010005E04008400030620C
:10287000306A20F00400306241F28938E06860B1CB
:1028800000F092FF8146306A810713D400F08CFF7C
:10289000A0EB09004045F6D331E700F085FF814603
:1028A000306A810706D500F07FFFA0EB09004045A4
:1028B000F6D324E71DB1F06920F08050F061E069A3
:1028C00000284CD0716801F00C01082938D002288A
:1028D0002AD100F047F805463068810105D500F09F
:1028E00063FF401B0228F7D909E7206AB0F5803F53
:1028F00005D17168A06821F40031014371607268EC
:10290000206A616A22F4741202430A437260012051
:1029100000F029F804463068810120D400F044FF1B
:10292000001B0228F7D9EAE600F01CF804463068DC
:10293000810114D500F038FF001B0228F7D9DEE62C
:1029400001280AD07068226A00F48031914202BFE7
:1029500000F47010616A884201D0012000E000207C
:10296000BDE8F2830020386600F01EBF2DE9F0417B
:10297000040088464ED05E4E00F077F802D200F098
:102980006FF847D12068534D810712D5400703D512
:10299000696841F4E06169602078010703D56868DF
:1029A00040F4605068606968A06821F0F00101435C
:1029B00069602178C80725D56068012802D1296897
:1029C0008A0303E00228296802D18A0102D421E0A7
:1029D0008A071FD56968890840EA8100686000F0AD
:1029E000E3FE07466868616800F00C00B0EB810FF9
:1029F00008D000F0D9FEC01B41F289318842F1D3E2
:102A000003202BE0306800F00700804504D200F07E
:102A100027F801D0012021E02078410705D56A6818
:102A2000E06822F4E06202436A602178080706D574
:102A30006968206921F4605141EAC001696000F0D1
:102A400019F86A682B49244BC2F30312895CC84009
:102A500018602348006800F0D3F80020BDE8F0813A
:102A60003168C90848EAC1013160306800F00700E8
:102A700040457047204919480A6802F00C03082BAA
:102A800000D0704710B500BF1EA4C2F38343D20329
:102A9000E35C08D5096858431EA3C1F340415A5C62
:102AA000B0FBF2F010BD18461449484310BD0A4867
:102AB000114A006813681249C3F3022206E006486F
:102AC0000D4A006813680E49C3F3C222895CC840EE
:102AD00070470000001002400C00002000127A0035
:102AE0000800002000004242800442420070004082
:102AF000002002407C3B00080410024000093D0019
:102B00009C3B000802030405060708090A0B0C0D8C
:102B10000E0F1010010200002DE9FC410646354D54
:102B20003078C10750D5A8690024C10009D4A8692C
:102B300040F08050A8610124A86900F08050009006
:102B400000982D4F3868C10511D4386840F4807062
:102B5000386000F029FE80463868C10507D400F0CF
:102B600023FEA0EB08006528F6D303203FE0E869C8
:102B700010F440701EBF716801F44071884218D093
:102B80001E49E86901220A60002320F440700B60AE
:102B9000E861C0070DD500F007FE0746E869810728
:102BA00007D400F001FEC01B41F289318842F5D301
:102BB000DBE7EA69706822F440720243EA611CB103
:102BC000A86920F08050A8613078810705D52A686F
:102BD000B06822F4404202432A603178C80605D525
:102BE0002968F06821F48001014329600020BDE8D4
:102BF000F681000004100240007000404004424290
:102C000038B50D4D0D4B2A7804464FF47A7118688B
:102C1000B1FBF2F2B0FBF2F0FEF71EFE50B9102C41
:102C200008D2002221464FF0FF30FEF7EDFDAC60E8
:102C3000002032BD012032BD000000200C00002029
:102C40000E4881B0016841F001010160026802F0A4
:102C5000010200920099426842F08052426040684E
:102C600000F08050009000980548016821F0E06174
:102C700041F00071016001B0704700BF18100240C0
:102C80000400014010B5044610460A46014620469D
:102C900000F0AAFD204610BD2DE9F8474FF0000EC8
:102CA0000024664A664BDFF89C814FF00F0982468C
:102CB0000DE017683840106007E0C2F804C04D68A6
:102CC000ED03F6D51068074317600EF1010E0F688B
:102CD00037FA0EF000F0AC80012000FA0EFC0CEA8E
:102CE00007076745F1D1486838B301281AD0022890
:102CF0001DD003282ED0112816D012281AD0524DDC
:102D0000A8421CBF514DA84217D0514DA8421CBF2C
:102D1000504DA84211D0504DA8421CBF4F4DA84263
:102D20000BD018E0CC6816E0CC68241D13E0CC680A
:102D3000083410E0CC680C340DE0886808B904242D
:102D400009E0012819BF0824CAF814C00824CAF8E9
:102D500010C000E00024B7F5807F03D250464FEA50
:102D60008E0C05E0AEF108050AF104004FEA850C6F
:102D7000056809FA0CF6B54304FA0CF646EA050CA8
:102D8000C0F800C04868C0009FD5D8F8000040F0E7
:102D90000100C8F80000D8F8005005F001050095C2
:102DA0004FEA8E0500984FEA9E0053F8206005F028
:102DB0000C0C09FA0CF526EA0505294EB24508BFA8
:102DC00000260ED0274EB24508BF012609D0264E58
:102DD000B24508BF022604D0244EB2450CBF0326DC
:102DE000042606FA0CF646EA050C43F820C0F84320
:102DF0004D68D2F808C0ED024CBF47EA0C0C00EA5F
:102E00000C0CC2F808C04D68D2F80CC0AD024CBF23
:102E100047EA0C0C00EA0C0CC2F80CC04D68D2F862
:102E200004C0AD034CBF47EA0C0C00EA0C0C44E7AD
:102E3000BDE8F18702B9090401617047000401404F
:102E4000080001401810024000001110000012108C
:102E5000000021100000221000003110000032108C
:102E600000080140000C0140001001400014014026
:102E7000F8B5040025D004F13C05697821B900209B
:102E800028702046FFF722FA242169702068026822
:102E90005208520002602068016841F4004101605C
:102EA0002068026822F400420260FFF700FE01463B
:102EB0006068DFF8F820904205D2DFF8F4309942DC
:102EC00005D20120F2BDDFF8EC008142F9D3206881
:102ED000DFF8E4304668B1FBF3F3B60943EA86163F
:102EE00046602668376A6068904206D34FF4967051
:102EF00043434FF47A70B3FBF0F35B1CBF0943EA22
:102F000087133362491E2368DE696768974206D2D9
:102F10007F0000F044F8042913D2042111E0A068D6
:102F200020B907EB470700F03AF805E019204743BE
:102F300000F035F841F4804108050CBF012141F44F
:102F40000041DFF8780006400E43DE612268136816
:102F5000E169206A23F0C0030B4303431360226836
:102F6000DFF85C00936821690340E0680B4303438A
:102F700093602268D368A16960691B0A41EA032350
:102F80000343D3602068016841F001010160002023
:102F900068602021697020630021A970F2BDB1FB37
:102FA000F7F1491CC1F30B0170470000A186010035
:102FB00080841E0000093D0040420F000030FFFFEA
:102FC000007CFFFF38B5040001D1012032BD606AEA
:102FD00028B900F0EDF805D00021E16102E0002001
:102FE000206160610020A06204F15005687820B97A
:102FF000002129702046FFF7CCF90220687000F00C
:103000008BF96068A168E26800F4827001F4044101
:103010000843217C02F400621043227D01F002018A
:103020000843A16902F001021043227F01F40071FC
:10303000084394F8201002F038021043A26A01F00D
:1030400080010843216802F4005210430860A0691F
:103050002168000C00F0040048602068C16921F478
:103060000061C161002068600121697032BD2DE9F5
:10307000F843054605F15007002638780C4691467E
:103080009846012808BF022000F090800120387087
:1030900000F08AFB7978012918BF022640F083806E
:1030A000002C18BFB9F1000F79D0032179700023EB
:1030B0007B602C63A5F83490A5F836900021A963B5
:1030C000AB87E9876B642964AB68B3F5004F09D11E
:1030D00029680B6823F040030B6029680C6844F4EE
:1030E00080440C6029680B685C0603D40B6843F0CD
:1030F00040030B604446E968B1F5006F696821D16F
:10310000002918BFB9F1010F00F075F8804604E0FE
:10311000296B0A88C26000F04FF8E88E002833D08F
:10312000286881688A07F3D400F03EFBA0EB080012
:10313000A04204D314F1010FEFD0032631E0002C9C
:10314000EBD1FAE7002918BFB9F1010F00F047F8F9
:10315000804606E0296B0A780273286B411C00F058
:103160002DF8E88E80B1286881688A07F2D400F0D3
:103170001BFBA0EB0800A04203D314F1010FF0D019
:10318000DBE7002CEDD1D8E742462146284600F087
:1031900029F908B12020786000F015F808B101265F
:1031A00001E001207870002139703046BDE8F283DB
:1031B0006068B0F5827F7047286B811C2963E88EB8
:1031C000411EE9867047A86838B900210091296836
:1031D000CA68009289680091009A7868704709D19E
:1031E000296B2B680A781A73296B4A1C2A63E98EAB
:1031F0004A1EEA86704709D1296B2B680A88DA6073
:10320000296B8A1C2A63E98E4A1EEA8670477CB5C0
:10321000044622685168936803F04100012806D1F2
:10322000480604D5216C2046BDE87C400847980735
:1032300006D50D0604D5616C2046BDE87C400847E4
:1032400013F0600F58D0880656D55D060ED594F859
:103250005100032843D0606D40F0040060650025F4
:103260000095D66800969568009500989B060ED547
:10327000606D40F001006065002300939268009249
:1032800020680368024623F040031360009B606DD2
:1032900090B32068426822F0E0024260012011F001
:1032A000030F84F8510022D020680FF251054168C5
:1032B000890889004160E06C28B14563E06C00F04A
:1032C000C7FA00F023F8A06CB0B14563A06C00F021
:1032D000BFFA88B1606D40F04000606573BD0020AA
:1032E0000090D168009192680092009873BD2046CA
:1032F000BDE8764000F008BB73BD0000406A0021C5
:10330000C1870022C28600F0FFBA000018B1606DCC
:1033100040F04000606570472068016821F040017E
:10332000016070472DE9F843089C05460E4690461B
:103330001F4600F039FA381A241800F035FA814691
:10334000314801684901090D6143009105E0009889
:1033500000B900240098401E009028688168314020
:10336000B1420CBF01200020404532D017F1010FBF
:10337000F3D000F019FAA0EB0900A04201D2002C12
:10338000E5D12868416821F0E00141606868B0F546
:10339000827F08D1A868B0F5004F18BFB0F5806FE4
:1033A00001D100F019F8A86AB0F5005F09D12868CA
:1033B000016821F4005101602868026842F400525B
:1033C000026005F1500001214170002202700320CB
:1033D00000E00020BDE8F2832868016821F0400188
:1033E000016070471CB500920B4604460022802104
:1033F000FFF798FF08B100F001F816BD606D40F0CE
:1034000020006065032070470C00002038B50400E0
:1034100001D1012032BD00F01BF808B900F01CF802
:1034200000F01FF800F027F8FFE7416100F001F815
:1034300032BD2068C16841F40051C160002068605D
:10344000202169702020A87000216163002070474E
:1034500004F1400568787047002129702046FFF785
:1034600018B8242068702068C16821F40051C16038
:10347000204600F00AB82068016921F490410161FA
:103480002068416921F02A01704710B5044622687E
:103490001169E06821F4405101431161D368194971
:1034A000A0680B402169034360690B430343D36069
:1034B0005169A06921F440710143516112498A4266
:1034C00002D1FFF7FCFA01E0FFF7F1FA6268192177
:1034D00048439200B0FBF2F16423B1FBF3F26FF0CA
:1034E000630000FB021109013231B1FBF3F000F07F
:1034F000F00101EB0211226800F00F00401890600B
:1035000010BD0000F3E9FFFF00380140F8B50546A3
:103510000026287C40B94FF4007300F03CF80122EB
:10352000EA624FF4007305E0402300F034F8012014
:10353000E8624023022201212846FDF703FC012016
:10354000C5F86C010823032282212846FDF7FAFB07
:103550000120286405F52E774FF40770FDF734FC41
:103560003860040008BF012613D0786801688847D6
:1035700004F5017000220261002141610268287C8B
:1035800000280CBF4FF40073402301212846FDF7AB
:1035900011FC3046F2BD022281212846FDF7D2BB44
:1035A00010B504468121FDF7D8FB0022E26201211B
:1035B0002046FDF7D2FB0020C4F86C018221204692
:1035C000FDF7CBFB0021216404F52E74206838B18F
:1035D0006068416888472068FDF704FC002020608F
:1035E000002010BDF8B5044604F527730D46DE69CA
:1035F00000218DF80010ADF802100027297811F095
:10360000600022D020283AD1EA88C2B16878090641
:103610000AD51B6AD3F808C03146E047EA8831462C
:103620002046FEF79CFD2FE006F500710870E88843
:1036300048703146EA882046FEF7A1FD24E01B6A67
:1036400068789C682946A0471EE0687820B10A285F
:1036500009D00B2810D012E0197803290FD10222CB
:103660000DF1020104E01878032808D1012269460F
:103670002046FEF774FD07E01878032804D0294699
:103680002046FEF73EFD02273846F2BDF8B5044657
:1036900004F52E7002688568DAB10E461420704376
:1036A0002718F86980B128235E43AB199B6BB0FBE8
:1036B000F3F503FB150038B90026FE610023002254
:1036C0002046FDF771FB02E00023C2F8143200200F
:1036D000F2BD0220F2BD70B500F52E74256805F527
:1036E0000176FDF76DFBB060206838B16268306824
:1036F000D36805F503719847002070BD022070BDA6
:1037000010B500F52E7043680168002B1EBF01F54F
:1037100000742078FF2804D062789B689847FF20C7
:103720002070002010BD43210180074870474321CD
:1037300001800648704743210180054870470A21EF
:1037400001800448704700009800002054000020C9
:10375000DC000020100000200246022011B1C2F857
:10376000BC1200207047D0F8B80200F5027001606A
:10377000826000207047D0F8B802C0F80412002020
:10378000704780B5D0F8B81261B1D1F80422017C3D
:1037900000290CBF4FF4007340230121FDF70AFB01
:1037A000002002BD022002BD01484068704700BFF2
:1037B0000000002000B500BF130096469446103963
:1037C00028BFA0E80C50FAD85FEA417C28BF0CC0A3
:1037D00048BF40F8042BC90728BF20F8022B48BF78
:1037E00000F8012B00BD000062F30F2262F31F42BC
:1037F000401810F0030308D0C91A1FD3DB0748BFD5
:1038000000F8012D28BF20F8022D130030B4144613
:103810001546103928BF20E93C00FAD8490728BFCF
:1038200020E90C0048BF40F8042D890028BF20F88B
:10383000022D48BF00F8012D30BC7047C91818BFD1
:1038400000F8012DCB0728BF00F8012D70470000BC
:1038500038B590F821200024022A00F1340103D069
:103860000420486001243EE00268136823F00E0340
:1038700013600268DFF8743015686D086D0015601C
:1038800002689A4208BF012222D0DFF864309A42CF
:1038900008BF10221CD0DFF85C309A4208BF4FF4FA
:1038A000807215D0DFF850309A4208BF4FF4805232
:1038B0000ED0DFF848309A4208BF4FF4803207D06C
:1038C000DFF83C309A420CBF4FF480124FF0807208
:1038D000DFF830301A60012280F8212080F8204083
:1038E000096801B18847204632BD00000800024047
:1038F0001C000240300002404400024058000240D8
:103900006C00024004000240704700001220088052
:103910001A48704704200880194870472DE9104064
:1039200000F028F827A004E02DE9104000F022F86C
:103930002AA02146FEF7F0FB204610BD38B51A201C
:10394000088010494C68086889680F4D081809D02C
:103950000822A91C00F022F8042205F112012046D9
:1039600000F01CF8284632BD2DE9104000F002F8A6
:103970001FA0DEE70A46054C704700004C010020FE
:1039800060010020E8F7FF1F6401002054110020AF
:103990002DE91040FFF7EEFF18A0CAE730B500236D
:1039A0000CE0040F0A2C2CBF3734303401F81340DC
:1039B00001EB4305002400016C705B1C9342F0DBBB
:1039C00030BD000053544D33322056697274756116
:1039D0006C20436F6D506F727400000053544D693A
:1039E00063726F656C656374726F6E6963730000F8
:1039F00043444320436F6E6669670000434443209D
:103A0000496E7465726661636500000038B50E4CDE
:103A10000E4D002205F580612046FFF7A4FE2946E1
:103A20002046FFF7A8FE002032BD0020704700208E
:103A3000704710B50146044C2046FFF79CFE204617
:103A4000FFF79FFE002010BD700C002080010020B9
:103A500030B4002512E050F8042BD30744BF4A4489
:103A6000521E091F042942F8045BFAD213468C0740
:103A700044BF15809B1CC90748BF1D7050F8041B2C
:103A80000029E8D130BC7047FEE7FEE7FEE7FEE71D
:103A9000FEE770477047704700F010B80448FCF725
:103AA00097BB0448FFF7B3BB0348FFF7B0BB000068
:103AB0008009002054130020AC13002002494A68FA
:103AC000087882184A6070470000002010B5074946
:103AD00079441831064C7C44163404E00A68081D09
:103AE000114488470146A142F8D110BD08000000EA
:103AF000240000005DFFFFFF241300008001002070
:103B00000000000083D0FFFF3C010000A80100007E
:103B10000000002000F00DF8002801D0FFF7D6FFCC
:103B2000AFF300800020AFF30080FDF7F3FF00F05B
:103B300002F80120704700F001B80000074638463F
:103B400000F002F8FBE7000080B5AFF30080024A06
:103B500011001820ABBEFBE7260002000548014615
:103B600003B4684680F30988AFF30080AFF30080A8
:103B7000FFF7D0FFA5EDF5FE704700000000000044
:103B800000000000010203040607080901488047FD
:103B900001480047793B00085D3B00080000000039
:103BA00001020304FFF7FEBFFFF7FEBFFFF7FEBFF2
:103BB000FFF7FEBFFFF7FEBFFFF7FEBFFFF7FEBF39
:103BC000FFF7FEBFFFF7FEBFFFF7FEBFFFF7FEBF29
:103BD000FFF7FEBFFFF7FEBFFFF7FEBFFFF7FEBF19
:103BE000FFF7FEBFFFF7FEBFFFF7FEBFFFF7FEBF09
:103BF000FFF7FEBFFFF7FEBFFFF7FEBFFFF7FEBFF9
:103C0000FFF7FEBFFFF7FEBFFFF7FEBFFFF7FEBFE8
:103C1000FFF7FEBFFFF7FEBFFFF7FEBFFFF7FEBFD8
:103C2000FFF7FEBFFFF7FEBFFFF7FEBFFFF7FEBFC8
:103C3000FFF7FEBFFFF7FEBFFFF7FEBFFFF7FEBFB8
:103C4000FFF7FEBF43010001221008100524F40015
:103C50000A0600020B22401810030D350008A104CB
:103C600012E504211F900B013700088D360008D79C
:103C70003600080001122F18122704123704123FD1
:103C800004100909024300020100C0320904351280
:103C9000020B101E0524001001052401000104245C
:103CA000020205240600010705820308001009042A
:103CB0000100020A4E1002070501027B20010705E0
:103CC0008107F228004422400722810720010009D1
:103CD0000744F22C044410030D3A00082B04122F61
:103CE0000412330410030D390008150412290412BC
:103CF0001D04123D041269041291041212431006AD
:103D000002020040830440577917020345F005087A
:083D1000040309041A03000179
:0400000508003B5D57
:00000001FF
