:020000040800F2
:10000000384900208D760008597500085B75000896
:100010005D7500085F75000861750008000000004C
:10002000000000000000000000000000EB5E00087F
:100030006375000800000000A55E00085557000821
:10004000C9760008CD760008D1760008D57600087C
:10005000D9760008DD760008E1760008E57600082C
:10006000E9760008ED760008F1760008F5760008DC
:10007000F9760008FD76000801770008057700088A
:10008000097700080D770008117700081577000838
:1000900065750008197700081D77000821770008AA
:1000A00025770008297700082D77000831770008A8
:1000B00035770008397700086B75000871750008FE
:1000C0003D770008417700084577000877750008FC
:1000D0007D750008497700084D77000851770008C2
:1000E00055770008597700085D770008F8B50400D7
:1000F00025D004F13C05697821B9002028702046FC
:1001000001F072FA242169702068026852085200D6
:1001100002602068016841F40041016020680268C3
:1001200022F40042026001F0C8FC01466068DFF87A
:100130005021904205D2DFF84C31994205D201207E
:10014000F2BDDFF844018142F9D32068DFF83C3189
:100150004668B1FBF3F3B60943EA861646602668A3
:10016000376A6068904206D34FF4967043434FF469
:100170007A70B3FBF0F35B1CBF0943EA8713336269
:10018000491E2368DE696768974206D27F0000F047
:1001900044F8042913D2042111E0A06820B907EB28
:1001A000470700F03AF805E01920474300F035F81A
:1001B00041F4804108050CBF012141F40041DFF802
:1001C000B40106400E43DE6122681368E169206ACB
:1001D00023F0C0030B43034313602268DFF8CC0114
:1001E000936821690340E0680B43034393602268EE
:1001F000D368A16960691B0A41EA03230343D36002
:100200002068016841F00101016000206860202140
:10021000697020630021A970F2BDB1FBF7F1491CA0
:10022000C1F30B017047006841690A0644BF002111
:100230000161704772B62068016841F40071016085
:10024000704732462946204601F033B92A46DFF886
:100250000C14204601F074B841F480610160002064
:10026000009021684A69009289690091009870475E
:10027000202078700021B97000203870704700008D
:10028000A186010080841E0000093D0040420F004D
:100290002DE9FC47064600F08BF800F073F865D1B5
:1002A000009400F07DF8304601F016F800285DD18A
:1002B000387801285AD000F080F84146D6F800E09E
:1002C0000C9D0B98DDF828C0DEF8008028F400684B
:1002D000CEF800804FF0210E87F801E04FF0400883
:1002E00087F802804FF0000EC7F804E0C6F824C07B
:1002F00070855346708DDFF860C33085C6F82CC01A
:100300004A4601940095304600F0B7FE002826D1F9
:1003100006E0716A0A78026100F03AF8411E7185C0
:10032000308D88B122462946304601F071F888B9EF
:10033000706A32680178116100F02AF800F01CF848
:10034000EED589B20029E4D122462946304601F093
:1003500081F830B17868042801D100F04BFF01200A
:1003600005E000F047FFFFF783FF00E00220BDE853
:10037000F68700000030FFFF421E72853068426938
:100380005307704706F13C070446787820287047E9
:10039000706A411C7162308D411E3185708D7047CD
:1003A00019230122DFF8E41270470000007CFFFFF0
:1003B000884691469A4601F0CFBB012139703068DA
:1003C0000268D10703D4026842F00102026070475C
:1003D0002DE9FC47044600200090FFF7E9FF04F1F7
:1003E0003C0605467078202805D10095FFF7D8FF18
:1003F00000F005F9002840F0C1803078012800F0B5
:10040000BD800121317000F0E0F84146D4F800E0F1
:100410000C9F0B98DDF828C0DEF8008028F40068F7
:10042000CEF800804FF0220E86F801E04FF0400831
:1004300086F802804FF0000EC6F804E0C4F824C02D
:1004400060855346608DDFF810C22085C4F82CC04B
:100450004A4601950097204600F05EFE00286ED1C6
:10046000208D10B900F092F81FE0012802D100F0B1
:10047000DAF805E002282068016805D100F0C2F82A
:100480000846026062B610E0FFF7E6FE0DE02A467D
:100490003946FFF7D8FE002851D100F0C6FC208D68
:1004A0006262411E218500F085F8208D00285ED013
:1004B00004284AD20128EAD00228324900953B4656
:1004C0000AD1002200F09BF8002838D1FFF7B2FED5
:1004D00000F084F862B6E0E7002200F090F870BB0C
:1004E00000F06CF84FF47A7E20680169606A017050
:1004F000616A208D4A1C411E62622185608D224AFC
:10050000411E618519211368B3FBF1F1B1FBFEFEB9
:10051000232000FB0EFECDF800E000F097F820B19C
:10052000216848694107F8D50BE0206320217170EC
:10053000B070716841F02001716062B630700120C6
:100540001DE0206800F091F8C2E72A463946FFF71F
:100550007AFE0028F3D100F041F8206841694A078B
:10056000A3D50069616A0870606A421C97E7202081
:1005700070700021B1700020307000E00220BDE8F2
:10058000F687000004000100700000200090216840
:100590004A69009289690091009821680A680846B2
:1005A00042F40072026070471069616A0870606A04
:1005B000421C6262608D411E61857047206801683F
:1005C00021F48061016072B6704720680268D1072B
:1005D00003D4026842F0010202607047206801699A
:1005E000606A0170616A208D4A1C411E6262218529
:1005F000608D411E6185704700224FF00111204639
:1006000000F06ABE41F40061016072B60020009003
:1006100021684A69009289690091009821680A68F6
:1006200022F4806270472068016821F480610160D3
:1006300072B60020009021684A6900928969009191
:10064000009821680A6842F4007270470098401EC2
:1006500000900098704700000000FFFF08000100B4
:10066000009021684A69009270470168024641F48F
:1006700000711160704720680168CA0570473068D2
:10068000016841F4807101607047000002001000B1
:10069000416841F48051416070473068016841F41D
:1006A0008061016070472DE9FC41044604F13C057E
:1006B0002268DFF81C6B5168E06AAF786B784FF006
:1006C000000C102F18BF402F40F05482D2F818C0F1
:1006D000D2F814E05FEACE7805D4B0F52A0F18BF3F
:1006E000B0F12A4F47D05FEACE7045D5880543D593
:1006F000E06AB0F52A0F08BF012104D0E06AB0F12A
:100700002A4F01D10821E162A878402809D16869FF
:100710000028A8681ABF40F00100C0B200F0FE0037
:1007200028E02069B0F5804F16D168782128A868A4
:100730000EBF00F0FE0040F00100C0B21061606B1F
:1007400000281CBF806A00282AD1A06B00281CBF8B
:10075000806A00280FD023E0686920B900F00EFB02
:1007600040F0F00006E06869012804D100F006FBC3
:1007700040F0F1001061FFE25FEA0E7015D58805C8
:1007800013D5A868C0B21061606B00281CBF806AD6
:10079000002805D1A06B00281CBF806A0028EAD081
:1007A0002068416841F400613AE15FEA8E7000D54B
:1007B000880540F1B780AB78E16A276B687822281A
:1007C00040F0A8806869002808BF402B04D10021B0
:1007D00000F0E6FA009ACFE26869002804BF2069B9
:1007E000B0F5404F08D100F0EEFA40F48070106090
:1007F0006869401C6861BFE2608D28B900F0E3FAC7
:1008000040F40070106082E0608D012835D1B14263
:1008100012D11146086820F4806010602168486891
:10082000020504D50846024600F0E0FA23E0002263
:1008300000924B6900930CE0082918BF202903D0CF
:10084000122F0CD101290FD000F0CFFA116000F067
:1008500007FB89690091009800F0A8FA57E0042985
:100860001CBF0229102902D000F0BFFA03E0104695
:10087000016841F48061116047E0628D022A2FD146
:1008800004291CBF0229102910D0206802680346E1
:1008900042F400621A600020009000F09FFA226883
:1008A0001368104623F48063036009E0226813682C
:1008B000104643F4806303600022009200F08EFA39
:1008C00020684268130522D5B14218BF012904D01F
:1008D00008291CBF1029202919D1FFF7D9FE16E0DD
:1008E00020680268034642F480621A602068426809
:1008F00013050AD5B14218BF012904D008291CBF2D
:100900001029202901D1FFF7C3FEFFF7A8FC002121
:10091000696131E20023009351690091926900926C
:10092000009929E25FEA4C7C0EF004005FD5D2F812
:1009300004805FEA085CF4D45FEA0E6E48BF5FEAA9
:10094000415C2AD5002828D16978AB78E76A208DE8
:10095000002808BF212913D1082F1CBF202FB74220
:1009600004D000F016FA0022AA702DE000F07EFA02
:1009700030D10021A9702046BDE8F64101F0F2B85F
:10098000212903D0402B08BF2229CAD1608D00281D
:100990004AD0A878402826D0BCE10028C1D08805DC
:1009A000BFD5212B1DD1E16A6878212839D1608D0E
:1009B00008B100F0AFB908291CBF2029B14206D008
:1009C00000F0E7F90020A8702021697004E000F031
:1009D0004DFACED00021A9702046BDE8F64101F0C5
:1009E000C2B8402F1DD12046BDE8F6414EE2536803
:1009F0001E0516D45FEA4E636CD54E056AD50028F5
:100A000068D1687822280CD1608D04280AD3FFF7BA
:100A1000CBFD608D032804D12068416821F48061FA
:100A20004160A9E1E16A022951D0012818BF0028DC
:100A30004DD10020DFF89818009019200B68B3FB07
:100A4000F0F04FF47A76B0FBF6F606EB86060096E9
:100A50002146FFF7FBFD20B10B6818688405F8D428
:100A60001AE0686840F020006860506820F4E06098
:100A700050600A6810694A6A1070486A431C4B62E9
:100A80002023488D421E4A856B700020A8700846BE
:100A9000BDE8F64101F068B818460C460168024608
:100AA00021F48061116000F0D3FA00F0CBF920222C
:100AB000FFF780FD6A70A878402852D10021A97004
:100AC000002020632046BDE8F64101F04EB800F05A
:100AD0005BF951E10028FCD08805FAD5E06A618D08
:100AE000042904D100F050F9216808693DE1618DC5
:100AF00003290CD1516821F480615160042818BF8A
:100B0000022801D000F098F900F08FF931E1618DF1
:100B1000022940F02981012818BF10280DD004288F
:100B200018BF022804D01046016841F4007106E0A5
:100B30001046016841F4806101E000F056F911604F
:100B400000F080F9FFF736FD2268FFF72DFD2068E1
:100B5000416821F44071416020206870A9784029E3
:100B6000ACD00020A870122121632046BDE8F641D8
:100B700000F0FCBF686808B9D2F818C05769B80718
:100B800025D5880523D5686808B1D2F818C06878DB
:100B9000002100F02800282813D100F0F5F85FEAC2
:100BA0004C7058BF01215FEA0C6054BFE268A26933
:100BB0000020287002B02046BDE8F04192B200F05B
:100BC000D6BF00F0EDF80021009A2970D4E0F806B5
:100BD00074D5880572D56F78506820F4E060506055
:100BE00000210091206841690091206800F002F91D
:100BF00000F022F921684868020528D50FF2016843
:100C0000222F18BF2A2F10D0606B00F0FAF8606B0B
:100C100001F00AF801281AD0606BC0F83480606BCC
:100C200000F0A6FF98B1606B0FE0A06B00F0E9F850
:100C3000A06B00F0F9FF012809D0A06BC0F8348048
:100C4000A06B00F095FF10B1A06B416B8847608DE1
:100C500098B1206841694A0702D50069FFF7A5FCF1
:100C6000206841694A0602D50069FFF79EFC608D45
:100C700018B1686840F004006860686818B12046E0
:100C8000BDE8F64160E12A2F05D120632821697073
:100C9000204600F0CCFF6878282807D1E66200F0F3
:100CA000D9F82046BDE8F64100F0C2BF206B2228EB
:100CB00018BF222F60D100F0CDF84BE007F0040000
:100CC000212B18BF292B2CD13B061CD54E051AD53C
:100CD000C8B96978608D00284ED0606A03781361C6
:100CE000606A421C626200F068F808BF292943D19B
:100CF00000F095F821202063282169702046BDE886
:100D0000F64100F096BF002836D0890534D5608DB5
:100D1000002831D0606A01781161606A411C61620B
:100D200028E07B061BD54E0519D5C0B96978608DC2
:100D300010B31069626A1070606A431C636200F04D
:100D40003CF808BF2A2917D100F069F82220206357
:100D5000282169702046BDE8F64100F068BF58B10F
:100D6000890509D5608D38B11069616A0870606ABB
:100D7000421C6262FFF71EFCBDE8F381A868000414
:100D8000C00D00F006007047506820F4806050608D
:100D90007047506820F4E060506011212163704773
:100DA00000915369009391690091704721680A6826
:100DB000084642F4007202607047608D421E6285F0
:100DC000608D00287047002100915369009391695C
:100DD0000091009A216808680A46704722685369A2
:100DE000009392690092009870471046016821F4C0
:100DF000806170470268014642F001020A60009873
:100E00007047026853686385608D18B1686840F068
:100E100004006860486820F40060486070472068FB
:100E2000416821F480614160704720680169606A0F
:100E30000170616A4A1C70472068016821F4806172
:100E40000160704720680169606A0170616A4A1C2C
:100E5000626270470020206320216970A87070478B
:100E60000020009021684A6900927047506820F481
:100E7000E06050602068016841F40071016000206A
:100E8000206320216970A8784028704710B500F1D0
:100E90003D0300F148021C78916889B900685168E7
:100EA000012905D11368DBB203619068801C05E05D
:100EB00011680904090E01619068401C906010BD22
:100EC0009168012904D113680068DBB203610AE06C
:100ED0009168022933D1222C09D101680B68084698
:100EE00043F4807303609168491C916010BD418D8B
:100EF00061B1212C0AD1416A03680A781A61416AFA
:100F00004A1C4262418D4A1E428510BD418D002916
:100F100008BF212C17D101684A6822F4E0624A60B8
:100F2000002401680A6842F400720A60002101632B
:100F300020221A705C70BDE8104000F013BEBDE8BE
:100F40001040FFF770B910BD38B5044604F13D05F7
:100F500028786978102914BF4029222804D12168F3
:100F60000A6822F400620A6000F02801282903D1EF
:100F70000020206329700BE0226851680A0505D41F
:100F8000602803D020202870002169700020206391
:100F9000206841680A0523D5416821F40061416059
:100FA000606B0FF25D2190F82120012A09D0416386
:100FB000606B00F0DDFD002825D000F056F8606B76
:100FC0000BE0A06B4163A06B00F0D2FDD8B12068AC
:100FD00000F034F800F049F8A06B416B884712E04C
:100FE0002A78602A0AD1202129700022226400F088
:100FF00025F800F033F800F01DFE04E000F01EF8C4
:10100000204600F0B1FD206C10F00F0F01D000F071
:101010001FF82878216C4A070ED528280CD16C4877
:10102000E062002121632020287000226A7020469F
:10103000BDE8324000F0FCBD31BD000041694A0608
:1010400005D50069616A0870606A421C6262704777
:101050002068416821F4E0614160704720680168C0
:101060004908490001602046704720680168490826
:10107000490001602020287070472DE9F84304469C
:101080002068DDF82080099FD0F800C04CF4807CF7
:10109000894615461E46C0F800C000974346FFF734
:1010A000ABFA38B1FFF7E7FA44BF4FF400702064A1
:1010B000032026E02068DFF81C1209F0FE09C0F8C2
:1010C00010903B464246FFF7C4F8A0B9FFF7C8FAB4
:1010D00000F019F800F01EF840B9012E0DD021687B
:1010E000280A08613A4600F014F830B1206C042850
:1010F00001D1FFF7A0F8012003E02068EDB20561FF
:101100000020BDE8F2833A46896900914146009883
:101110007047414620467BE12DE9F84F0546286897
:10112000DDF828800B9F0C46FFF7B8FA16462868B2
:10113000D0F800C04CF4807C9946C0F800C000F0A4
:1011400052F800284FF4007A2ED12968DFF884B1D4
:1011500004F0FE00086100F041F8002834D100904E
:1011600029684A690092FFF7CEFF00F035F870B9A0
:10117000B9F1010F05D02968300A086100F02AF89A
:1011800028B92868F6B2066100F024F830B1286C5E
:10119000042819D1286800F02EF815E02868FFF718
:1011A0006FFA00F020F838B128680168CA0548BF16
:1011B000C5F840A0032008E0286844F00104E4B228
:1011C000046100F00BF800B10120BDE8F28F0000CF
:1011D0000000FFFF3A464146284619E13B46424699
:1011E00059462846ACE00097434600224FF00111D3
:1011F000284671E03068016841F400710160704771
:101200007CB5002100911925416A314801F13D0268
:101210004FF47A7613780468B4FBF5F5B5FBF6F66F
:10122000232046430096009838B10098401E009055
:101230000C6820688505F6D403E0086C40F02000B7
:101240000864486B08B100248462886B08B10024EC
:1012500084620868046824F480640460002048857F
:10126000486B08B100244463886B08B100244463D0
:1012700008680468640864000460107860280AD173
:10128000202313700024547000220A640846BDE82D
:10129000764000F0CFBC03F02803282B0ED108685D
:1012A000036843F00103036028230868046844F4DA
:1012B0008064046000200863137003E02020107035
:1012C000002454700846BDE8764000F04DBC000094
:1012D00070000020020001002DE9F8430F46089C31
:1012E0000646904699463D0C3068E9B201290CBF8C
:1012F0004069806900F071F80CBF01200020404572
:101300001CD119F1010FEFD000F026FC001B814524
:1013100002D3B9F1000FE7D13068E9B201290CBF5F
:101320004069806900F059F80CBF01200020404559
:10133000DAD100F05FF80120BDE8F2830020FBE77E
:101340002DE9F0410F460646144698463D0CE8B29A
:1013500001281CD130684169394089B2B8B2814254
:101360001CD03168486941051AD5306800F03AF858
:1013700032685061002106F13C0031632022427046
:101380008170426842F00402426001701DE03068E2
:101390008169394089B2B8B28142E2D1002015E0BA
:1013A00014F1010FD3D000F0D7FBA0EB080084426A
:1013B00001D3002CCBD1E9B23068012908D14069B2
:1013C00000F00BF8C6D000F015F80120BDE8F08160
:1013D000806900F002F8DAD0F5E7384080B2B9B29F
:1013E000884270470268014642F400720A606FF456
:1013F0008060704700203063202106F13C0000220D
:1014000041708270416841F0200141600270704774
:1014100070B505460C46164628684169080617D47B
:10142000284600F071F818B914F1010FF4D001E06A
:10143000012070BD00F090FB801B844201D3002C82
:10144000EAD1286841690806E6D400F025F8EFE7FC
:10145000002070BD70B505460C46164628684169E7
:10146000480717D4284600F04FF818B914F1010FB7
:10147000F4D001E0012070BD00F06EFB801B8442BF
:1014800001D3002CEAD1286841694807E6D400F06E
:1014900003F8EFE7002070BD002105F13C0029634F
:1014A000202242708170426842F020024260017046
:1014B000704770B505460C461646286841694A06CD
:1014C00020D44169CA060FD56FF010014161002098
:1014D0002863202105F13C000022417082704168A0
:1014E00041600270012070BD00F036FB801B844219
:1014F00001D3002CE1D1286841694806DDD4FFF70B
:10150000CBFFEFE7002070BD10B501684A695305B5
:101510000DD56FF480644C61002101633C302023C1
:1015200043708170436843F004034360017012F418
:10153000806018BF0120C0B210BDF0B40246106830
:1015400095681318506803EB5004C00748BF4D441A
:10155000A3422DD013F8016B16F0030004BF13F85B
:10156000010BC01C31090F2907D113F8011B0F31E2
:1015700003E013F8017B05F8017B401EF9D1002937
:10158000E6D013F8010BC6F38106032E08BF13F84B
:10159000016B00EB0620404228440026B71E8F4214
:1015A0001EBF10F8017B05F8017B761CF6D1CFE752
:1015B000F0BC02F10C007047254A2648264980B548
:1015C000426000234FF4804201608360C360026187
:1015D00043618361C3610362FEF788FD18B1BDE812
:1015E000014000F08DBB01BD18B585B00446102246
:1015F000002101A800F086FB21681748814224D110
:10160000164C216841F008012160C021206800F0DB
:1016100008000090122200981148019102920121C5
:10162000049101A900F078FB606840F4001060604C
:101630000022606800F400100090052100981F202F
:1016400000F070FC1F2000F08AFC06B010BD000006
:10165000801A0600FC370020005400401810024099
:10166000000C01402DE9F843040016D02078DFF883
:10167000A464C10713D5706800F00C00042807D0DB
:10168000706800F00C00082841D17068C1033ED595
:101690003068810303D56068002800F064812078F9
:1016A000DFF88074810719D5706810F00C0F07D02F
:1016B000706800F00C00082861D17068C1035ED426
:1016C0003068810703D52069012840F04C813168DA
:1016D000606921F0F80141EAC00131602178080712
:1016E00040F18180A069DFF84014002800F0A68056
:1016F00001220A6000F030FA0546706A810763D45F
:1017000000F02AFA401B0228F7D903202EE1606876
:10171000B0F5803F04D1306840F48030306014E090
:1017200008B930680AE0B0F5A02F306806D140F45F
:1017300080203060316841F4803105E020F4803051
:101740003060316821F480213160606858B100F068
:1017500003FA054630688103A1D400F0FDF9401B6F
:101760006528F7D3D1E700F0F7F905463068810323
:1017700095D500F0F1F9401B6528F7D3C5E720693E
:10178000A8B10121396000F0E7F90546306881070A
:1017900005D400F0E1F9401B0228F7D9B5E730681D
:1017A000616920F0F80040EAC100306096E73860D7
:1017B00000F0D2F90546316888078FD500F0CCF9E2
:1017C000401B0228F7D9A0E7DFF84C030168C908DD
:1017D0004FF47A72B1FBF2F2009200BF0098411E02
:1017E00000280091F9D1207841076ED5F0690025D5
:1017F000C10009D4F06940F08050F0610125F06922
:1018000000F0805000900098DFF82083D8F80000A6
:10181000C10520D4D8F8000040F48070C8F800005A
:1018200000F09AF98146D8F80000C10513D400F001
:1018300093F9A0EB09006528F5D366E7086000F08E
:101840008BF90546706A8107CDD500F085F9401BFC
:101850000228F7D959E7E068012808D008B9306AAA
:1018600009E00528306A06D140F004003062306A91
:1018700040F0010005E0400840003062306A20F08E
:101880000400306241F28938E06860B100F064F928
:101890008146306A810713D400F05EF9A0EB09009D
:1018A0004045F6D331E700F057F98146306A8107A9
:1018B00006D500F051F9A0EB09004045F6D324E726
:1018C0001DB1F06920F08050F061E06900284CD033
:1018D000716801F00C01082938D002282AD100F0E3
:1018E00047F805463068810105D500F035F9401B01
:1018F0000228F7D909E7206AB0F5803F05D1716861
:10190000A06821F40031014371607268206A616A45
:1019100022F4741202430A437260012000F029F895
:1019200004463068810120D400F016F9001B02281B
:10193000F7D9EAE600F01CF804463068810114D5B6
:1019400000F00AF9001B0228F7D9DEE601280AD0C8
:101950007068226A00F48031914202BF00F4701076
:10196000616A884201D0012000E00020BDE8F283D6
:101970000020386600F0F0B82DE9F04104008846F8
:101980004ED06B4E00F077F802D200F06FF847D1DE
:101990002068604D810712D5400703D5696841F47E
:1019A000E06169602078010703D5686840F4605001
:1019B00068606968A06821F0F001014369602178DE
:1019C000C80725D56068012802D129688A0303E089
:1019D0000228296802D18A0102D421E08A071FD592
:1019E0006968890840EA8100686000F0B5F8074638
:1019F0006868616800F00C00B0EB810F08D000F05F
:101A0000ABF8C01B41F289318842F1D303202BE0AF
:101A1000306800F00700804504D200F027F801D0BC
:101A2000012021E02078410705D56A68E06822F4AA
:101A3000E06202436A602178080706D56968206978
:101A400021F4605141EAC001696000F019F86A6848
:101A50003849314BC2F30312895CC84018603048E2
:101A6000006800F091FA0020BDE8F0813168C908F3
:101A700048EAC1013160306800F007004045704716
:101A80002D4926480A6802F00C03082B00D0704745
:101A900010B500BF2BA4C2F38343D203E35C08D587
:101AA000096858432BA3C1F340415A5CB0FBF2F0E4
:101AB00010BD18462149484310BD17481E4A00680A
:101AC00013681F49C3F3022206E013481A4A00684C
:101AD00013681B49C3F3C222895CC840704710B524
:101AE0000F220260144A136803F003034360146872
:101AF00004F0F0048460136803F4E063C3601268C8
:101B0000D20802F4E06202610948026802F00702AA
:101B10000A6010BD001002407000002000127A0020
:101B20006C000020000042428004424200700040ED
:101B300000200240047500080410024000093D0026
:101B4000C076000802030405060708090A0B0C0DFD
:101B50000E0F10100102000001484068704700BFDE
:101B600064000020704770477047704770477047A7
:101B700038B590F821200024022A00F1340103D066
:101B80000420486001243EE00268136823F00E033D
:101B900013600268DFF8743015686D086D00156019
:101BA00002689A4208BF012222D0DFF864309A42CC
:101BB00008BF10221CD0DFF85C309A4208BF4FF4F7
:101BC000807215D0DFF850309A4208BF4FF480522F
:101BD0000ED0DFF848309A4208BF4FF4803207D069
:101BE000DFF83C309A420CBF4FF480124FF0807205
:101BF000DFF830301A60012280F8212080F8204080
:101C0000096801B18847204632BD00000800024043
:101C10001C000240300002404400024058000240D4
:101C20006C0002400400024090F8210070477047A9
:101C3000704770477047000080B500F0F3F900F07E
:101C400013F800F001FAFFF7B7FC00F059FA00F0C2
:101C500063FA00F0EBFA00F047FB00F0F7FC4FF4FA
:101C6000FA7000F075FDFAE718B593B0282109A8BD
:101C700000F082FD1421684600F07EFD05A80021D9
:101C800000220023002480E81E00012109910B920C
:101C90004FF480310A911191012302224FF48011F7
:101CA0000D931092129109A8FFF7DCFC08B100F027
:101CB00027F8022101910F204FF4806100900391D9
:101CC0000294049401216846FFF756FE08B100F023
:101CD00017F810214FF480020591089205A800F032
:101CE0004FFD08B100F00CF814B010BD00680349B6
:101CF000884208BF00F0B8BD7047000000080040EF
:101D000072B6FEE710B5044610460A460146204664
:101D100000F0B2FD204610BD2DE9F8474FF0000E4F
:101D20000024664A664BDFF89C814FF00F0982461B
:101D30000DE017683840106007E0C2F804C04D6835
:101D4000ED03F6D51068074317600EF1010E0F681A
:101D500037FA0EF000F0AC80012000FA0EFC0CEA1D
:101D600007076745F1D1486838B301281AD002281F
:101D70001DD003282ED0112816D012281AD0524D6B
:101D8000A8421CBF514DA84217D0514DA8421CBFBC
:101D9000504DA84211D0504DA8421CBF4F4DA842F3
:101DA0000BD018E0CC6816E0CC68241D13E0CC689A
:101DB000083410E0CC680C340DE0886808B90424BD
:101DC00009E0012819BF0824CAF814C00824CAF879
:101DD00010C000E00024B7F5807F03D250464FEAE0
:101DE0008E0C05E0AEF108050AF104004FEA850CFF
:101DF000056809FA0CF6B54304FA0CF646EA050C38
:101E0000C0F800C04868C0009FD5D8F8000040F076
:101E10000100C8F80000D8F8005005F00105009551
:101E20004FEA8E0500984FEA9E0053F8206005F0B7
:101E30000C0C09FA0CF526EA0505294EB24508BF37
:101E400000260ED0274EB24508BF012609D0264EE7
:101E5000B24508BF022604D0244EB2450CBF03266B
:101E6000042606FA0CF646EA050C43F820C0F843AF
:101E70004D68D2F808C0ED024CBF47EA0C0C00EAEE
:101E80000C0CC2F808C04D68D2F80CC0AD024CBFB3
:101E900047EA0C0C00EA0C0CC2F80CC04D68D2F8F2
:101EA00004C0AD034CBF47EA0C0C00EA0C0C44E73D
:101EB000BDE8F18702B909040161704700040140DF
:101EC000080001401810024000001110000012101C
:101ED000000021100000221000003110000032101C
:101EE00000080140000C01400010014000140140B6
:101EF0000901020002D41F48815470471E4B02F0B2
:101F00000F021A4402F8041C70471C4B19684FF664
:101F1000FF020002114000F4E06008431849084342
:101F20001860704770B5154B1C68C4F30223012478
:101F3000C3F10705052D2EBF0F2504FA05F56D1E0B
:101F40001E1D072E34BF0023DB1E2940994004FAD2
:101F500003F3BDE870405B1E1A401143C8E701005F
:101F600007D4012200F01F01064B8A40400943F8C4
:101F70002020704700E400E018ED00E00CED00E0E8
:101F80000000FA0500E100E078B50446204887B07B
:101F9000016841F00401016001A9006800F004003B
:101FA000009002A8009AFFF79AFD059810B9FFF774
:101FB00084FD02E0FFF781FD4000164D1649174BE6
:101FC0002960B0FBF3F0401E40F2E7326860002168
:101FD000EA602961A960A961284600F057FC060063
:101FE00012D1284600F05FFC06000DD11E20FFF73D
:101FF000B6FF102C07D2002221461E20FFF792FFC9
:102000000748046000E00126304608B070BD0000BB
:102010001C100240503800200008004040420F00D1
:102020006C00002080B50748016841F01001016094
:102030000320FFF76AFF0F20FFF7A6FF00F05CFD0B
:10204000002002BD0020024030B585B010220021E2
:102050006846FFF757FE2148214D0168214C41F0A9
:1020600020010160026802F02002049204990268D3
:1020700042F004020260036803F00403049304992D
:10208000026842F0080202600022006800F00800C6
:102090000490102104982846FFF70CFF00224FF40B
:1020A00080512046FFF706FF102100F01FF8284658
:1020B000FFF732FE4FF4805100F018F82046FFF78A
:1020C0002BFE4FF48070084900900191002202928B
:1020D00069462046FFF720FE05B030BD18100240CB
:1020E00000080140000C0140000011100091012285
:1020F000019200210291022203926946704700007A
:1021000080B54348434901604FF48272182100F0C2
:102110000FF800B11DE001BD80B53F483F490160A7
:102120004FF48272102100F003F800B111E001BDFC
:102130004260C16100234FF400720A218360C360D2
:10214000036143618261036243628362C16200F0A2
:10215000F9BCBDE80140FFF7D3BD18B585B0044612
:10216000102200216846FFF7CDFD206800F04BF8F3
:102170001DD1086840F4805008600A6802F480525B
:10218000049204980A6842F004020A600222096874
:1021900001F004010491A0210498214800F02CF8DA
:1021A000002205212320FFF7BDFE232020E01B4A4B
:1021B00090421FD1486840F480404860486800F46D
:1021C0008040049004980A6842F008020A600222E3
:1021D000096801F0080104914FF420410498114866
:1021E00000F00AF8002205212420FFF79BFE24209E
:1021F000FFF7B5FE06B010BD0091019203210391D7
:102200006946FFF789BD034A0749904270470000BD
:102210004C37002000300140A43700200038004037
:1022200000080140000C01401810024080B526480B
:10223000264901604FF4E13200230C2142608360A3
:10224000C360036141618361C36100F09FFE18B107
:10225000BDE80140FFF754BD01BD18B585B0044687
:10226000102200216846FFF74DFD21681748814282
:1022700028D11748174C016841F480410160026879
:1022800002F4804204920499026842F0040202605F
:102290004FF40071006800F00400049002220498DA
:1022A000009101920321039120466946FFF734FD16
:1022B0004FF4806000210090019102912046694610
:1022C000FFF72AFD06B010BD983800200038014005
:1022D0001810024000080140A04B036003F15400B5
:1022E000086080211160704710B50121B6A09C4C98
:1022F00000F0E7F960650021B5A000F0ACF960647A
:102300005FF00001B9A000F0A6F9A064D4F8541061
:10231000BDA000F0A0F9E0645FF00001C1A000F0F2
:102320009AF9206510BD80B500F0B0FE012000F0E4
:10233000C1F9FBE77FB500F0F0FE322000F0BAF9FA
:10234000874E684600F00EFF02A800F025FFBDF999
:10235000020000F047FF834900F056FF00F0E0FF65
:102360000446BDF900000D4600F03CFF7D4900F039
:102370004BFF00F0D5FF22462B4600F0F5FF01F0A1
:1023800081F800F0CDFF0022774B01F0AFF8774ADB
:10239000774B01F081F90022764B01F0A1FA01F0B0
:1023A00071F801F0DEFB3070642000F083F9C8E7BB
:1023B000F0B587B07049714A049105921021704AB6
:1023C000ADF8181001924FF480526E490291ADF8A9
:1023D0000C2004AB93E8070001F02EFC01AB93E85E
:1023E000070001F029FC04A807C801F0DCFC01A8E3
:1023F00007C801F0D8FC644C002000210022002313
:10240000574D05EBC0061E44604D377905EBC006FD
:102410009F40F55C79189D405B1C082B2A44EFDB3C
:10242000215404F108010A54401C0828E5DB04A8E3
:1024300007C80094002301F093FC04F10800009009
:1024400001A907C9002301F08BFC642000F032F9D8
:10245000D2E72DE9F04F424C6178ADF5437D03A8FA
:1024600001F0AAFC606D00F04BF94FF00C0A0DF181
:10247000100806E0606D00F043F94FF47A7000F048
:1024800019F90026002700E05F466178F8B288421B
:1024900032D20AFB00F903A901EB090507F1010B90
:1024A000287A0028F0D12968029101A958F809205A
:1024B000019202A8227801F0F3FC00F070F80128E4
:1024C000E0D06A7A0199029801F02DFD012804D12B
:1024D00000F05EF801F037FDD4E700F068F800F096
:1024E0005EF80128CED000F062F800F051F801F05B
:1024F00000FD0128C8D1C5E70020002500260022E4
:1025000004EBC00313441D71204B03EBC007BE5402
:10251000521C082AF4DB401C0828F0DB00231B4A6D
:1025200006E058F8000002EBC60701253D5412E012
:102530008B429FDA0AFB03F003AE06440027377292
:10254000757A3668012DECD158F8000004EBC60707
:102550003844012606715B1CEAE70000B02F00201A
:102560000000002000FC7F4600806640F1D4C85384
:10257000FB2109400000F03F4C37002000080140DB
:10258000A4370020000C014020390020E038002052
:10259000FFB2637801990298009703AA7047F8B2D6
:1025A000009063780199029803AA01F0A2BC2968FF
:1025B0000291C6F1010658F809200192F3B222787F
:1025C00001A902A801F089BC000000000000000081
:1025D0009C7600082723000800000000000000008F
:1025E000800000000000000000000000A876000845
:1025F00035230008FDFF000000000000000100007E
:1026000000000000000000007C760008B1230008F4
:10261000FDFF0000000000000002000000000000BC
:1026200000000000B476000853240008FDFF0000FD
:102630000000000000020000000000000000000098
:1026400001460020842918BFC81C704780B501F0DE
:10265000C5FD002002BD38B5044684B060690D4652
:1026600000281CBFA069002812D0B4F90800FFF7A9
:10267000E7FFA16902912B466269019200902269ED
:102680002168606801F09CFC0390039805B030BDA0
:10269000B4F90800FFF7D4FF03A9019100902B467D
:1026A00022692168606892B201F0BAFC0128ECD07E
:1026B0000020EBE780B500B9012001F070FD00209B
:1026C00002BD1CB543684BB1012917D10324009406
:1026D00000220021012002F055F816BD01290DD17C
:1026E00003220021012002F07DF8040004D0002321
:1026F0000022002102F0A1F8204616BD002016BDE0
:102700001CB500240094EFF3058149B1694602F03D
:102710002BF901280DD1009848B100F00CF806E023
:102720000023002202F089F8012818BFFF24204668
:1027300016BDFF2016BDDFF814004FF08051016078
:10274000BFF34F8FBFF36F8F7047000004ED00E0C1
:1027500038B50446FFF700FA14F1010F054602D020
:10276000044908780419FFF7F7F9401BA042FAD38F
:1027700031BD00BF64000020002202F0BDB900009E
:102780002DE9FC410646354D3078C10750D5A86982
:102790000024C10009D4A86940F08050A861012438
:1027A000A86900F08050009000982D4F3868C1054E
:1027B00011D4386840F480703860FFF7CDF9804656
:1027C0003868C10507D4FFF7C7F9A0EB08006528F2
:1027D000F6D303203FE0E86910F440701EBF716833
:1027E00001F44071884218D01E49E86901220A604C
:1027F000002320F440700B60E861C0070DD5FFF79F
:10280000ABF90746E869810707D4FFF7A5F9C01BB4
:1028100041F289318842F5D3DBE7EA69706822F436
:1028200040720243EA611CB1A86920F08050A8619F
:102830003078810705D52A68B06822F44042024307
:102840002A603178C80605D52968F06821F480012E
:10285000014329600020BDE8F68100000410024019
:10286000007000404004424202494A6808788218D9
:102870004A607047640000204018491C1CBFB1F139
:10288000010100F8012DF9D17047000038B50400AE
:1028900001D1012032BD00F049F818B900F0F0F87C
:1028A00002F043F92AE090F83D10012901D00120FF
:1028B0007047022180F83D100168CA6842F00102A9
:1028C000CA600168DFF85C20914218BFB1F1804F07
:1028D00007D0DFF8542091421CBFDFF858309942EE
:1028E00005D1896801F00701062905D001680A6849
:1028F000084642F001020260002070470220687022
:10290000211D206800F0C0F80120A8720121A970E3
:10291000E87029716871A971E8712972687269702B
:10292000002032BD002C01400004004004F13C05B1
:10293000687870470008004010B5044620680169B7
:102940008A0715D5C1688A0712D56FF002010161A7
:1029500001222277806910F0030F204602D002F096
:10296000E5F803E002F0E3F800F087F800202077B4
:10297000206801694A0715D5C1684A0712D56FF06A
:102980000401016102222277806910F4407F204611
:1029900002D002F0CBF803E002F0C9F800F06DF8C5
:1029A00000202077206801690A0715D5C1680A0749
:1029B00012D56FF00801016104222277C06910F07E
:1029C000030F204602D002F0B1F803E002F0AFF8A6
:1029D00000F053F80020207720680169CA0615D559
:1029E000C168CA0612D56FF0100101610822227772
:1029F000C06910F4407F204602D002F097F803E04F
:102A000002F095F800F039F800202077206801697D
:102A1000CA0708D5C168CA0705D56FF00101016171
:102A20002046FFF763F9206801690A0608D5C168E6
:102A30000A0605D56FF080010161204602F078F8A2
:102A4000206801694A0608D5C1684A0605D56FF0B5
:102A500040010161204602F06CF8206801698A0695
:102A60000AD5C1688A0607D56FF0200101612046AA
:102A7000BDE8104002F05EB810BD204602F05BB821
:102A8000002129702046704770B50368164E174C18
:102A9000174DB04218BFB0F1804F03D0A84218BF05
:102AA000A04209D14A6823F070031343B0421CBF0F
:102AB000B0F1804FA84201D0A04203D1CA6823F4EC
:102AC000407313434A6923F0800313430360B04209
:102AD0008B68C3620A68826202D10969054A116083
:102AE0000123436170BD0000002C0140000800403C
:102AF00000040040302C014080B51048016841F0CE
:102B000001010160026802F001020092009942682E
:102B100042F0805242600022406800F080500090F5
:102B20000F2100986FF00100FFF7FCF904480168DD
:102B300021F0E06141F00071016001BD1810024018
:102B40000400014038B5040001D1012032BD606AA3
:102B500028B900F0EDF805D00021E16102E0002085
:102B6000206160610020A06204F15005687820B9FE
:102B7000002129702046FFF7F0FA0220687000F06B
:102B80008BF96068A168E26800F4827001F4044186
:102B90000843217C02F400621043227D01F002010F
:102BA0000843A16902F001021043227F01F4007181
:102BB000084394F8201002F038021043A26A01F092
:102BC00080010843216802F4005210430860A069A4
:102BD0002168000C00F0040048602068C16921F4FD
:102BE0000061C161002068600121697032BD2DE97A
:102BF000F843054605F15007002638780C46914603
:102C00009846012808BF022000F09080012038700B
:102C1000FEF7A2FF7978012918BF022640F08380D1
:102C2000002C18BFB9F1000F79D00321797000236F
:102C30007B602C63A5F83490A5F836900021A96339
:102C4000AB87E9876B642964AB68B3F5004F09D1A2
:102C500029680B6823F040030B6029680C6844F472
:102C600080440C6029680B685C0603D40B6843F051
:102C700040030B604446E968B1F5006F696821D1F3
:102C8000002918BFB9F1010F00F075F8804604E083
:102C9000296B0A88C26000F04FF8E88E002833D014
:102CA000286881688A07F3D4FEF756FFA0EB080076
:102CB000A04204D314F1010FEFD0032631E0002C21
:102CC000EBD1FAE7002918BFB9F1010F00F047F87E
:102CD000804606E0296B0A780273286B411C00F0DD
:102CE0002DF8E88E80B1286881688A07F2D4FEF753
:102CF00033FFA0EB0800A04203D314F1010FF0D082
:102D0000DBE7002CEDD1D8E742462146284600F00B
:102D100029F908B12020786000F015F808B10126E3
:102D200001E001207870002139703046BDE8F2835F
:102D30006068B0F5827F7047286B811C2963E88E3C
:102D4000411EE9867047A86838B9002100912968BA
:102D5000CA68009289680091009A7868704709D122
:102D6000296B2B680A781A73296B4A1C2A63E98E2F
:102D70004A1EEA86704709D1296B2B680A88DA60F7
:102D8000296B8A1C2A63E98E4A1EEA8670477CB545
:102D9000044622685168936803F04100012806D177
:102DA000480604D5216C2046BDE87C4008479807BA
:102DB00006D50D0604D5616C2046BDE87C40084769
:102DC00013F0600F58D0880656D55D060ED594F8DE
:102DD0005100032843D0606D40F004006065002579
:102DE0000095D66800969568009500989B060ED5CC
:102DF000606D40F0010060650023009392680092CE
:102E000020680368024623F040031360009B606D56
:102E100090B32068426822F0E0024260012011F085
:102E2000030F84F8510022D020680FF25105416849
:102E3000890889004160E06C28B14563E06CFEF7C9
:102E400097FE00F023F8A06CB0B14563A06CFEF7CC
:102E50008FFE88B1606D40F04000606573BD00205A
:102E60000090D168009192680092009873BD20464E
:102E7000BDE8764001F060BE73BD0000406A0021ED
:102E8000C1870022C28601F057BE000018B1606DF4
:102E900040F04000606570472068016821F0400103
:102EA000016070472DE9F843089C05460E469046A0
:102EB0001F46FEF751FE381A2418FEF74DFE8146D4
:102EC000314801684901090D6143009105E000980E
:102ED00000B900240098401E0090286881683140A5
:102EE000B1420CBF01200020404532D017F1010F44
:102EF000F3D0FEF731FEA0EB0900A04201D2002C76
:102F0000E5D12868416821F0E00141606868B0F5CA
:102F1000827F08D1A868B0F5004F18BFB0F5806F68
:102F200001D100F019F8A86AB0F5005F09D128684E
:102F3000016821F4005101602868026842F40052DF
:102F4000026005F15000012141700022027003204F
:102F500000E00020BDE8F2832868016821F040010C
:102F6000016070471CB500920B4604460022802188
:102F7000FFF798FF08B100F001F816BD606D40F052
:102F800020006065032070477000002038B5040001
:102F900001D1012032BD00F01BF808B900F01CF887
:102FA00000F01FF800F027F8FFE7416100F001F89A
:102FB00032BD2068C16841F40051C16000206860E2
:102FC000202169702020A8700021616300207047D3
:102FD00004F1400568787047002129702046FFF70A
:102FE0003CB9242068702068C16821F40051C16098
:102FF000204600F00AB82068016921F4904101617F
:103000002068416921F02A01704710B50446226802
:103010001169E06821F4405101431161D3681949F5
:10302000A0680B402169034360690B430343D360ED
:103030005169A06921F440710143516112498A42EA
:1030400002D1FEF742FD01E0FEF737FD626819216B
:1030500048439200B0FBF2F16423B1FBF3F26FF04E
:10306000630000FB021109013231B1FBF3F000F003
:10307000F00101EB0211226800F00F00401890608F
:1030800010BD0000F3E9FFFF0038014010B5104CFF
:1030900010490022204601F050FD08B1FEF730FE35
:1030A0000D49204601F05CFD08B1FEF729FE0B49F1
:1030B000204601F0A7FF08B1FEF722FE204601F0EE
:1030C00057FD18B1BDE81040FEF71ABE10BD00BF95
:1030D000EC2C0020940100208000002084010020BE
:1030E00003B583B002461F20012104AB0290019179
:1030F0000093D02101233A48FDF7CAF805B000BD7E
:10310000E0B54FF6FF73019202930091024601234E
:10311000D1213348FDF75CF907BD80B580216B20D4
:10312000FFF7DEFF6420FFF713FB00216B20FFF7A2
:10313000D7FF00216A20FFF7D3FF00212320FFF7EC
:10314000CFFF07211920FFF7CBFF06211A20FFF739
:10315000C7FF01211C20FFF7C3FFBDE80440182171
:103160001B20BDE71CB50446062269463B20FFF73D
:10317000C7FF9DF800009DF8011001EB00212180A0
:103180009DF802209DF8031001EB022100F019F8D0
:1031900001EB0021A18013BD1CB50446062269463F
:1031A0004320FFF7ADFF00F012F89DF802209DF8D4
:1031B000031041EA022100F004F841EA0021A18055
:1031C00013BD61809DF804009DF8051070479DF8BF
:1031D00000009DF8011041EA0021218070470000A5
:1031E000FC37002010F0004C68B148BF4042B0FAF4
:1031F00080F18840D1F19D014CEAC15C010671F17A
:1032000000414CEB102070474FF0FF0C1CEAD053EC
:103210001DBF1CEAD1526345624543E09B1A5FEA39
:10322000CC7280EA010C42EA01211CEA020C42EA5B
:103230000020421A38BF01EB420253F17E034FEAED
:103240001121B2FBF1F001FB102260F3D63C4FEAF2
:103250000222B2FBF1F001FB102260F3CE1C4FEA18
:103260000222B2FBF1F006DDFF2B29DA5CEA500006
:1032700040EBC3507047C3F1020301FB1022192B2E
:1032800040EA4C010CF0004C41F0807121DC21FA45
:1032900003F0C3F120039940114371F1004250EB58
:1032A0000C00704763451ABF0CEAD152624512E028
:1032B00080EA010C00180CF0004C06D049181AD115
:1032C0000CF0004C4CF0FF407047C94208BF6FEA59
:1032D000020C60467047634506D1B2EB0C02F5D094
:1032E00001F00041484070474A0212BF084648407A
:1032F00000F0004070474AB90902B1FA81F29140EA
:1033000043B19B18C00140F0004092E7C90141F071
:10331000004152420002B0FA80F39840D31A88E785
:10332000C0F3C75181B1FF2906D0C110400721F079
:10333000E04101F16051704741020CBF40F4E001EF
:103340006FF000410020704700F0004100020AD0F9
:10335000B0FA80FC00FA0CF001F16051A1EB0C51C5
:1033600001EBD021400570472DE9F84C0F4659007C
:10337000491584B0064611F1010F1EBF78004015B3
:1033800010F1010F42D0F80F1ABF27F000470824B0
:103390000024D80F1CBF23F0004384F00604CDE9BD
:1033A0000223DDE90201002908D500254FF0004B7A
:1033B000281A6BEB010BCDE9000B01E0CDE9000110
:1033C0003900304605D500254FF0004B281A6BEB2D
:1033D0000101DDE900AB8B4509DC01DB824506D24A
:1033E0001046194632463B4600F056F93BE0DDE90F
:1033F000020120F0000531F0004104BF002D002142
:1034000033D03046394600F047F92EE078004FEAD5
:10341000605E1EF1010F04D1380302D030463946F8
:103420002CE011F1010F04D1180302D01046194607
:1034300024E011F1010F09D11D0308BF1EF1010F96
:1034400004D1380302D100200B4901E00020002103
:10345000FE0FF400DA0F18BF84F006041EF1010F0E
:1034600003D13A0301D184F00204224605B0BDE83D
:10347000F04C01F0EFBD00000000F03F05B0BDE8EA
:10348000F08C000001F000428B1AA3F16051B1F5FD
:10349000801F0ADBB1F17F6F1FD242EAC102C10077
:1034A00071F1004142EB507070470B15C3F10903F5
:1034B000212B10D2890241EA905180020128494112
:1034C00041F0004121FA03F0C3F12003994071F16A
:1034D000004150417047100070476FF0000013EB3F
:1034E000103F5CBF000E42EAC050704730B540F25A
:1034F000FF7C1CEA11541DBF1CEA13556445654549
:103500003FE0641981EA030C6FF35F530CF0004C49
:1035100043F48013C90241F0004141EA505EC50204
:103520001100A5FB020200284FF00000EEFB012075
:103530004FF00001E3FB052118BF42F001024018E3
:1035400000214941E3FB0E01A4F580640D0302D282
:1035500092184041494154F1010470DD450872F16F
:10356000004250F1000051EB0451A1F5801102D44A
:1035700041EA0C0130BD40F2FF7E4CEA0E510020C2
:1035800030BD0CEA1355644518BF654581EA030C4C
:103590000CF0004C41D050EA410E1CBF52EA430EE1
:1035A00002E06146002030BD24422C441BD15FEA7A
:1035B000050EF6D0090302BF01460020AEF1140E3D
:1035C000B1FA81F5AEEB050401FA05FE0C35C5F143
:1035D000200100FA05F5C8404EEA000E6FF35F5374
:1035E00043F480139CE733F00043B3FA83F504BF40
:1035F000B2FA82FE75440B3D641BB5F1200E2FBF5D
:1036000002FA0EF3AB40C5F1200E22FA0EFE38BFCF
:1036100043EA0E03AA40641C7CE750EA410E14BF43
:1036200052EA430E6FF000014FF4001515EB430F03
:103630008EBF194615EB410F9DE7B4D830BDD4F1CC
:103640000104B4F120050FDAC4F12005520828BFA7
:1036500042F0010210FA05FE01FA05F57244E2BFDC
:10366000E0402843E1400FE0352C9ADCC5F120040E
:1036700052EA400220FA05F218BF42F0010231FA84
:1036800005F0A1400A43002172F1004250F1000010
:1036900051EB0C0130BD0000F0B540F2FF7581EA3E
:1036A000030C0CF0004C15EA11541DBF15EA13571A
:1036B000AC42AF42E5E0BC41C1F31301C3F31303D5
:1036C000801A994143F4801304D2641E00184941C2
:1036D00080185941C90241EA5051B1FBF3F603FB8E
:1036E0001611A2FB0675D7EBC020A94102D2761EA7
:1036F00080185941C90241EA5051B1FBF3FE03FB66
:103700001E11A2FB0E75D7EBC020A94103D2AEF16A
:10371000010E80185941890241EA9051760546EA26
:103720008E2EB1FBF3F603FB1611A2FB0675D7EB49
:103730008020A94102D2761E80185941C90241EA6F
:1037400050514EEA060EB1FBF3F603FB1611A2FB35
:103750000675D7EBC020A94102D2761E80185941C8
:10376000C90241EA5051B1FBF3F703FB1711A2FB69
:103770000735D3EBC020A94167F100070CBF004219
:1037800047F0010766F3D5274FEA1E31B80814F554
:10379000806412DDBD0775F1004250EB0E5051EB15
:1037A000045111F5801F5CBF41EA0C01F0BD4CF0E3
:1037B0007F6141F0E0410020F0BDBD076D0840EAA7
:1037C0000E5041F48011D4F10104B4F120060ADA5C
:1037D000C4F120060200E04001FA06F3E14018437C
:1037E000B24015430EE0342C13DCC6F1200445EA48
:1037F00040056D0820FA06F2154321FA06F0A140B3
:103800000D43002175F1004250F1000051EB0C0115
:10381000F0BD00205FEA0C01F0BDCFB992185B410A
:10382000B3FA83F704BFB2FA82F6BF190B3FB7F1C0
:1038300020062FBF02FA06F3BB40C7F1200622FA8A
:1038400006F638BF3343BA401CB1E419641E33E7AF
:103850007F4231F00041B1FA81F404BFB0FA80F642
:10386000A4190B3CB4F120062FBF00FA06F1A140C9
:10387000C4F1200620FA06F638BF3143A0403C1BB5
:103880001AE7AC421ABF05EA1357AF4212E050EAFA
:1038900041061CBF52EA4306BFE750EA41073046E3
:1038A00061461CBF41EA0551F0BD52EA430C08BF16
:1038B000C143F0BD00204FF4001616EB410F98BF36
:1038C00016EB430F08BF16EB410F24BFC14305E0C1
:1038D00016EB430F0CBF61464CEA0551F0BD0000EA
:1038E00070B491EA030F4FF0004540F1B7806B4090
:1038F000841A71EB030604D26E40001BB141121909
:1039000073414FF4001C1CEB410F34BF7CEB4306AA
:1039100083E00C0DA4EB1356362E00F37C80012EB1
:1039200045EAC32341DC43EA525312BFD20292025A
:103930005B08240545EAC12141EA5051D2EBC02081
:10394000994125D407D1B0FA80F610FA06F162D079
:103950000020203608E0B1FA81F6B140C6F120021D
:1039600020FA02F21143B0404FEAF474B4EB46542B
:1039700034F001064FEA74040AD8D6F50016760D25
:1039800004F00044F04061FA06F25040F140484033
:10399000C00A40EA415021F0004128BF5FEA5005CB
:1039A00050F1000044EBD12135E0DB0A45EAC121AA
:1039B000C90AB6F120050EDD42EA0242120CC5F139
:1039C000200603FA06F6EB4042EA06056D429841EE
:1039D00061F100010DE062FA06F5F240554063FA2C
:1039E00006FC82EA0C02F3405A406D42904161EBC2
:1039F000030111F4801F05D1641E620502D06D0021
:103A00004041494121F48011430875F1004350F1D0
:103A1000000041EB045170BC70471CEB410F15D204
:103A200023F0004352EA43060BD04FEA4C0CBCEBA8
:103A3000410F04D80C0D661E342EB7DDEBE7801A5B
:103A4000994150EA410608BF0021E4E708BF1CEB9A
:103A5000430F28BF6FF00001DDE70000841A71EB0F
:103A6000030603D2001BB141121973414FF4001C2D
:103A70001CEB410F34BF7CEB430442E00C0DA4EB84
:103A80001356352E4FDC45EAC323DB0A45EAC12134
:103A9000C912B6F120050DDD63FA05F6EB4086EAA2
:103AA0000305124218BF45F00105C01851F100018D
:103AB0000CD213E062FA06F5F2405540F3415A4049
:103AC000B340F3405A408018594107D349085FEA90
:103AD00030005FEA350528BF45F0010501F580118A
:103AE000420875F1004250F1000041EB04514E00D4
:103AF00016F5001F70BC38BF70470020090D09057E
:103B000070471CEB410F10D252EA43060BD0BCEBBE
:103B1000410F05D80C0DAB43661E342EB6DD02E016
:103B2000AB438018594170BC704770BC70470000AF
:103B300070B504460D4616462846314601F0FAFB9C
:103B40000146204601F03EFC09D82846314601F0E6
:103B500081FB214601F036FC01D8012070BD002018
:103B600070BD38B51D4D1E4904462A46FFF7E0FFDB
:103B700008B1002032BD2A461A4900F03FF808B1CA
:103B8000012032BD2A46002100F038F808B1022099
:103B900032BD2A46144900F031F808B1032032BD85
:103BA0002A46124900F02AF808B1042032BD2A46FC
:103BB0000F4900F023F808B1052032BD2A460D490F
:103BC00000F01CF808B1062032BD2A460A4900F070
:103BD00015F808B1072032BD082032BD0000B441FD
:103BE0000000B44200003442000034C20000B4C2FD
:103BF000000007C30000344300000743204697E756
:103C000037B582B00C460898BDF810508DF8010009
:103C10008DF80030002229462046FEF74BF9029825
:103C2000FF2302226946FEF7E2FF012229462046D1
:103C3000FEF740F905B030BD1FB582B000240094F6
:103C40000923FFF7DDFF02A807C8082400940A2310
:103C5000FFF7D6FF0720009002A907C90B23FFF743
:103C6000CFFF0120009002A907C90C23FFF7C8FF6E
:103C70000020009002A907C90F23FFF7C1FF02A887
:103C800007C806B0BDE8104038B584B001AD0024C7
:103C900085E80700002300F005F8E0B20828F9DB0A
:103CA00005B030BD95E807000093641CE3B2A7E7B8
:103CB000FCB5012804D020D303283AD01ED3F3BD8D
:103CC000002000230DF80030C0F10706CD5C1DF880
:103CD0000040F54005F001059D402C435B1C0DF8AC
:103CE0000040072BF2DD401C0728EADD00201DF80C
:103CF00000300B54401C0728F9DDF3BD002043427F
:103D00000DF107050024EC540DF107050F5CEE5C86
:103D1000E74007F00107C4F10705AF403E430DF14E
:103D20000707641CFE54072CEEDD401C0728DDDC71
:103D3000E5E70020CD1D00230DF800305E42AF5DA9
:103D40001DF80040C74007F001079F403C435B1C43
:103D50000DF80040072BF1DD401C0728C6DCEAE720
:103D600037B584B01C46FFF78FFFE0B20428A8BF28
:103D700000240A98002101AD425C6A54491C0829BC
:103D8000FADB01A9E0B2FFF793FF0024285D009061
:103D900004A907C9631CDBB2FFF732FF641C082CBF
:103DA000F4DB07B030BD1CB50024FFE700940F23FF
:103DB000FFF726FF13BD00002DE9F0410C2240293A
:103DC00019DB002101278B1001EB537302FB01F477
:103DD000DD10055123F00703061DCB1A335100F106
:103DE000080500232B5500F10906491C37554029C9
:103DF000E9DBBDE8F081252913DB002300244FF027
:103E000001088C42F5DA002500F020F800F1080ED8
:103E100000270EF8067000F022F8F5DB5B1CDBB221
:103E2000EFE7002300244FF001080BE000F00EF84C
:103E300000F1080E00270EF8067000F010F8F5DB10
:103E40005B1CDBB28C42D4DA0025EFE702FB04F600
:103E500000F1040C85515F1B4CF8067070476D1C17
:103E600000F10907641C07F806805E1CB542E4B245
:103E70007047F0B5059C002500E06D1CA5420CDAEA
:103E80000C266E431E44777A974201BF37688742FB
:103E900076688E42F1D10020F0BD0120F0BD000017
:103EA000F8B590B005460C46164608A834A1202265
:103EB00001F09CFA4FEA0D0039A1202201F096FA98
:103EC00008A92F6851F82600C7192F6022685DF8ED
:103ED00026008218226011B0F0BD002B0CBF521CCE
:103EE000521E931002EB537303F0F803D21AD2B2AE
:103EF000D6E77CB504460D46069800930C2148434E
:103F000016181346727A29462046FFF7B2FF082C8E
:103F100038BF082D05D2012803D134607560307296
:103F200076BD002076BD012A05D1082808BF0829E2
:103F300007D00020704710F1010F08BF11F1010FE9
:103F4000F7D10120704710B5029B0C246343082869
:103F50001A4408D1082912D10120002110721160E1
:103F60005160517210BD10F1010F08BF11F1010F26
:103F700005D101200721107211605160507210BDEF
:103F8000010000000100000000000000FFFFFFFF33
:103F9000FFFFFFFFFFFFFFFF000000000100000028
:103FA000000000000100000001000000010000000E
:103FB00000000000FFFFFFFFFFFFFFFFFFFFFFFF0D
:103FC000F0B585B050260B9D25B986F3118800F019
:103FD00031FAFEE70C9C24B986F3118800F02AFA26
:103FE000FEE754270097DDF800E0BEF1540F04D03F
:103FF00086F3118800F01EFAFEE7256300260225ED
:1040000084F8515004AF0A9D0396029401970095DD
:1040100000F034F8204600F06EF8049805B0F0BDCA
:104020002DE9F8430646174684B088469946B800FD
:1040300001F0E8F905001CD0542001F0E3F9040078
:1040400014D00020256384F85100039002940D9849
:104050000C99019000914B463A464146304600F09B
:104060000DF8204600F047F8012004E0284601F052
:104070004FFA4FF0FF3005B0BDE8F0832DE9F0476F
:104080000A9E8146306B00EB8202101FC0084FEA87
:10409000C00A00228C5CB01880F83440885C10B1F3
:1040A000521C102AF6D3089D002086F84300062DE6
:1040B00088BF0625099CF56206F1440798463D60D5
:1040C0007860C5F10705301D01F07DFA06F1180092
:1040D00001F079FA3661B56176620020B86000219E
:1040E000397342464946504601F0AAFA306004B19D
:1040F0002660BDE8F0872DE9F04100F067F8DFF8B1
:104100007455DFF88885E86C401CE8641426A86ABA
:1041100028BBAC62E86C012829D1002706FB07F018
:10412000404401F043FA7F1C072FF7D305F17400D8
:1041300001F03CFA05F18807384601F037FA2846C5
:1041400001F034FA05F1140001F030FA05F13800FD
:1041500001F02CFA05F17400E8622F6307E0A86D06
:1041600028B9E06AA96ACA6A904228BFAC62A86E00
:10417000401CA86600F072FA4643211D08EB0600B9
:1041800001F024FA01F0D5FAA86D30B100F081F900
:1041900003D200F074FA00F04DF9BDE8F08180B56B
:1041A00088B1DFF8D024116F21B100F041F800F0A0
:1041B00041F9FEE7116F491C1167002100F068FA10
:1041C00000F040F808B900F030F901BD044601F0F4
:1041D00097BA211D142042439818704780B586B0C5
:1041E00000210591049103AA04A905A8FEF774F81B
:1041F0000598049902900022009201910023039AED
:104200000FF200510FF21530FFF7DAFE70B100F037
:104210000FF800F00FF9DFF8DC044FF0FF31C16652
:10422000012282650021016501F028FA07B000BD76
:10423000502080F311887047DFF8B804016F491CE3
:104240000167704770B5DFF82C64306F00240025DB
:1042500020B900F044F800F0EDF8FEE701F050FA64
:10426000306F401E3067306F002837D1F06CD8B9FE
:1042700034E0F068C46800F036F800F0A0F9E06AB5
:10428000716DDFF86C340122824011437165142294
:104290005043211D184401F099F9E06AB16ACA6AD5
:1042A000904224BF0121316630680028E1D10CB171
:1042B00000F06CF9F46D44B100F019F808B1012078
:1042C0003066641EF8D10020F065306E30B1DFF842
:1042D00028144FF08050012500F0ABF8C5E15021C3
:1042E00081F31188704704F1180001F095B92DE9A8
:1042F000F843DFF88073386F0026002850D13C6DFA
:10430000641C3C6510D1F86A006820B1FFF7E7FF34
:1043100000F090F8FEE7F86A396BF9623863786E5E
:10432000401C786600F032F9F86EDFF8C4938442DE
:104330004FF0140828D320E0F96AC868C568686897
:1043400084422BD3281D01F067F9A86A18B105F142
:10435000180001F061F9E86A796D01228240114389
:10436000796508FB00F0291D484401F02FF9E86A3F
:10437000B96ACA6A904228BF0126F86A0068002814
:10438000DAD14FF0FF31F966B86AC06A08FB00F86D
:1043900059F80810022906D3012604E0F866F3E76D
:1043A000F86D401CF865386E00B1012664E1DFF855
:1043B000C422106F10B101211166704710661421DC
:1043C000506DB0FA80F3C3F11F034B43DFF82013A5
:1043D000C85838B9502181F31188BFF34F8FBFF30C
:1043E0006F8FFEE7C81800F1080341684968416013
:1043F000994204BF496841604068C1689162704752
:1044000010B50C4620B9FFF713FF00F013F8FEE7D4
:10441000DFF86022936A03F1180101F0E4F8204606
:10442000BDE81040FFE7012132E1DFF8CC124FF088
:1044300080500860BFF34F8FBFF36F8F704738B560
:10444000C068C46824B9FFF7F3FEFFF7F3FFFEE787
:10445000FFF749FFDFF81C52286F60B900F0AFF892
:10446000E26A686DDFF8883201219140084368658F
:10447000FFF7AFFE02E004F11801284601F0A6F8AC
:1044800000F007F803D201212966012032BD002087
:1044900032BDA86AC16AE06A81427047DFF85412EF
:1044A0004A6E0260096D41607047F8B504460D46DA
:1044B000502024B980F31188FFF7BCFFFEE725B92F
:1044C00080F31188FFF7B6FFFEE701F019F9DFF876
:1044D0002402016D62682E688B1A16F1010F0ED04E
:1044E000476ED4F800C0674501D091420BD2B34269
:1044F00007D2F31A2B60416E2160006D60600024CA
:1045000002E000202860012401F013F92046F2BDEA
:10451000DFF8E011012008667047000070B5DFF891
:104520006C41DFF8D05111E001F0EAF8286AC66862
:10453000301D01F071F8E86C401EE864686B401EA5
:10454000686301F0F6F8304600F009F8686B00285F
:10455000EAD121680229F9D3FFF767FFF6E710B522
:10456000044694F8510040B9206B00F0D1FF20467A
:10457000BDE8104000F0CCBF10BD0128F7D00228E4
:10458000FAD0FFF755FEFFF755FFFEE73949C86A35
:10459000006810B94FF0FF3203E0C86AC268D06803
:1045A0004268CA667047DFF84C11886D08B901206F
:1045B0007047086F08B90220704700207047201D1F
:1045C00001F02AB82DE9F04104460021002C32D038
:1045D000284DA86A5022844204D082F31188FFF744
:1045E00029FFFEE7A06C20B982F31188FFF722FFB4
:1045F000FEE7E26A636C401E9A42A0641BD0D0B909
:10460000FFF7DDFF01261427DFF8E480002801BF53
:10461000E16A07FB01F258F80200002800F016F8E2
:10462000606CE062C0F10700A061E06A696D8640DD
:1046300000F004F801210846BDE8F0810E4347432D
:104640006E65211D08EB070000F0C0BF05D1686D45
:1046500006FA01F120EA0101696570470122E06A6A
:10466000696D824011436965704701F062F8284620
:1046700070BD0000243600203046BDE8F2831E4A9B
:104680004FF080511160704700000000C0360020DC
:10469000F8B5184D2F6D0C46A96A0646081D00F0A6
:1046A000BBFF30B9A86A696DC06A0122824091439C
:1046B000696516F1010F05D124B1A86A011D05F144
:1046C00038001BE0A86AF6194660BE42A86A05D207
:1046D000011D286BBDE8F44000F085BF011DE86AAC
:1046E00000F081FFE86E864238BFEE66F1BD000043
:1046F000C03600202436002004ED00E0BDE8F44080
:1047000000F064BF49444C450000000038B5040087
:104710000D4602D100F07EF9FEE700F0F1FFE26BFA
:10472000206C21684243881860600021A1632068E2
:10473000E26BA060521E206C216842438818E06042
:104740004FF0FF3104F144000170417075B92069E8
:10475000A0B104F11000FFF772FE78B1DFF89413F6
:104760004FF08050086000F050F907E004F11000AD
:1047700000F01CFF04F1240000F018FF00F0D9FF46
:10478000012032BD7CB51C46502320B983F311882B
:1047900000F03BF9FEE724B983F3118800F035F906
:1047A000FEE72AB129B983F3118800F02EF9FEE75C
:1047B00071B948250095009E482E0ED134B1069B54
:1047C000012584F84650009400F02BF8204676BD71
:1047D00083F3118800F019F9FEE783F3118800F0E4
:1047E00014F9FEE7F8B506000D46174602D100F0B1
:1047F00011F9FEE7002D0EBF482005FB06F04830FA
:1048000000F000FE04000AD0002084F84600009466
:104810003B4604F148022946304600F002F82046A3
:10482000F2BD82B00029029B0CBF1B601A60D863E6
:1048300019641846012102B068E72DE9F64782B0F5
:1048400004461E46502714B900F0DDF8FEE75FEA83
:10485000010A01D1206C60B9022E02D1E06B01285F
:104860000AD1FFF7A0FE50B9039840B100F0CBF891
:10487000FEE700F0C8F8FEE700F0C5F8FEE72746BF
:104880000024DFF870824FF080592EE00398002852
:104890004BD014B900F0AFF8012400F04AFFFFF745
:1048A000CBFC00F02DFF07F1440000F0A7F804BF97
:1048B0000022027000F09AF804BF0022427000F05B
:1048C00038FF00F04DF8002844D100F019FFB86B14
:1048D000F96B884214BF0025012500F02AFF45BB73
:1048E000384600F0D3F8FFF7ADFC00F009FFB86BD5
:1048F000F96B884201D3022EC8D132465146384660
:1049000000F090F8796A29B107F12400FFF797FDCC
:1049100008B904E018B1C8F8009000F076F800F08B
:1049200008FF012004B0BDE8F08700F002FF00207E
:10493000F8E7039907F11000FFF762FD384600F031
:10494000A5F8FFF77FFC0028CFD1C8F8009000F051
:104950005CF8CAE7384600F099F8FFF773FCE6E721
:1049600003A96846FFF7A1BDF8B504460D465027D8
:1049700014B900F048F8FEE7206C10B100F043F8DD
:10498000FEE7206808B96068D0B900F0F1FEEFF3E7
:10499000118600F021F81BD294F94510401C11F14A
:1049A000010FA0630FD1606A80B104F12400FFF70A
:1049B00046FD002818BF002D08D00120286005E022
:1049C00000F021F8FEE7491C84F84510012000E0C2
:1049D000002086F31188F2BD87F31188BFF34F8F53
:1049E000BFF36F8FA06BE16B8842704790F90110A5
:1049F00011F1010F70476846FFF750BD90F90010A4
:104A000011F1010F704787F31188BFF34F8FBFF388
:104A10006F8F7047502080F31188BFF34F8FBFF323
:104A20006F8F7047F8B506461546B46B326C002799
:104A300042B9306830BB7068FFF7C4FD00210746FB
:104A400071601FE065B9B06800F0D0FCB068316CEF
:104A5000726808449042B06014D33068B06011E0CE
:104A6000F06800F0C3FC306CF16840420144F16032
:104A70003268914202D271680844F060022D01D17F
:104A800004B1641E641CB4633846F2BDF8B5054633
:104A900000F036FE05F1440494F9016007E005F1E9
:104AA0002400FFF7CCFC08B1FFF732FD761E70B290
:104AB000012802DB686A0028F1D14FF0FF366670EA
:104AC00000F037FE00F01CFE94F9007007E005F1DD
:104AD0001000FFF7B4FC08B1FFF71AFD7F1E78B293
:104AE000012802DB28690028F1D12670BDE8F140D9
:104AF00000F01FBE04ED00E000B500BF13009646B5
:104B00009446103928BFA0E80C50FAD85FEA417CDF
:104B100028BF0CC048BF40F8042BC90728BF20F8A5
:104B2000022B48BF00F8012B00BD7047704770474B
:104B30007047704770477047704738B508B9022012
:104B400032BD00F52774A3690BB10025A56101B141
:104B5000616101212170027000F08FFE002032BDE2
:104B60000246002011B1C2F8B4127047022070470B
:104B700080B500F0BFFE002002BD10B5D0F8B42211
:104B800002241AB11268904700B90024204610BDD3
:104B900080B5D0F8B42253680AE138B5044604F56C
:104BA0002A75284601F0F7F804F525700121016007
:104BB000428B017D426011F01F0003D002280BD010
:104BC00005D30EE02946204600F0F8FE0DE0294608
:104BD000204601F029F808E02946204601F04AF86D
:104BE00003E001F0800100F040F8002032BD38B54C
:104BF000044610460A0004F5257329D119680329D3
:104C00001ED104F5B0714A680D68AA420BD2AD1AE4
:104C10000D60954238BF2A46014692B2204601F007
:104C200016F9002032BD196A086928B1187A0328DC
:104C300002D1096920468847204601F010F9F0E7C3
:104C40000529EED100201860002100F00EF8E8E7F9
:104C50001A6A906930B1187A032803D19269204604
:104C60009047DEE7022032BD8021204600F05BBE87
:104C700038B504460800134604F5257543D1286865
:104C8000022833D1226A616A914207D2521A226203
:104C9000194692B2204601F0C8F811E0E269B2FB71
:104CA000F1F001FB102090B98A4210D3686882426B
:104CB0000DD200220021204601F0B7F800206860E4
:104CC000002300220021204600F054FE14E0296A4F
:104CD000C86828B1287A032802D1C96820468847C5
:104CE000FFF7C2FF204601F0C1F805E0042818BF15
:104CF000002801D1FFF7B8FF287B012804BF00215D
:104D00002973002032BD2A6A506930B1287A0328FD
:104D100003D1526920469047F3E7022032BD38B5EF
:104D2000044640230022002100F0ECFD04F5AC70A5
:104D3000012140220160C2604023002280212046E0
:104D400000F0E0FD0120402104F52572A0616162C0
:104D500010720021116061600025506A156128B150
:104D6000126A61685368C9B220469847002032BD74
:104D700001740020704700F527700422017841700B
:104D800002700020704700F527700178042904BFE5
:104D9000417801700020704780B500F527710A78CE
:104DA000032A03D18969C96901B18847002002BD7E
:104DB0009847002002BD0000F8B505460026287C73
:104DC00040B94FF4007300F03CF80122EA624FF45E
:104DD000007305E0402300F034F80120E86240232E
:104DE00002220121284600F08DFD0120C5F86C014A
:104DF000082303228221284600F084FD0120286434
:104E000005F52E774FF4077000F0BEFD3860040002
:104E100008BF012613D078680168884704F501703F
:104E200000220261002141610268287C00280CBF39
:104E30004FF4007340230121284600F09BFD3046CB
:104E4000F2BD02228121284600F05CBD10B5044667
:104E5000812100F062FD0022E2620121204600F083
:104E60005CFD0020C4F86C018221204600F055FD55
:104E70000021216404F52E74206838B1606841680F
:104E80008847206800F08EFD00202060002010BDC3
:104E9000F8B5044604F527730D46DE6900218DF848
:104EA0000010ADF802100027297811F0600022D020
:104EB00020283AD1EA88C2B1687809060AD51B6A67
:104EC000D3F808C03146E047EA883146204600F072
:104ED000A4FF2FE006F500710870E888487031469D
:104EE000EA88204600F0A9FF24E01B6A68789C68E5
:104EF0002946A0471EE0687820B10A2809D00B286F
:104F000010D012E0197803290FD102220DF102010D
:104F100004E01878032808D101226946204600F0F1
:104F20007CFF07E01878032804D02946204600F0CB
:104F300046FF02273846F2BDF8B5044604F52E7048
:104F400002688568DAB10E46142070432718F869A4
:104F500080B128235E43AB199B6BB0FBF3F503FBD9
:104F6000150038B90026FE6100230022204600F01B
:104F7000FBFC02E00023C2F814320020F2BD022044
:104F8000F2BD70B500F52E74256805F5017600F0C8
:104F9000F7FCB060206838B162683068D36805F506
:104FA00003719847002070BD022070BD10B500F558
:104FB0002E7043680168002B1EBF01F50074207835
:104FC000FF2804D062789B689847FF20207000205B
:104FD00010BD4321018007487047432101800648E6
:104FE000704743210180054870470A210180044829
:104FF00070470000FC000020B800002040010020A5
:10500000740000200246022011B1C2F8BC12002038
:105010007047D0F8B80200F502700160826000208D
:105020007047D0F8B802C0F804120020704780B56D
:10503000D0F8B81261B1D1F80422017C00290CBF6C
:105040004FF400734023012100F094FC002002BDC6
:10505000022002BD2DE9F04D5FEA0108044605D5A6
:1050600000264FF00047301A67EB01010026624F1F
:1050700004D54FF00043B61B63EB07071546B94252
:1050800008BFB04203D15D4CDFF8748196E05D4B00
:105090005D4A002B04D54FF00047B21A67EB0303BB
:1050A0008B4220DC01DB82421DD2584E584F3246E3
:1050B0003B4620464146FEF719FA0022554BFEF7C3
:1050C0000FFC82468B4632463B4620464146FEF761
:1050D00007FC02460B4650465946FEF7DDFA0446E9
:1050E000884645F0010500225FF0795328F0004121
:1050F000204608D54FF00047921A77EB030302D5FC
:10510000101A67EB01018B4258DC01DB824255D259
:105110002246434620464146FEF7E8F906460F463A
:1051200032463B4620464146FEF7E0F982468B4632
:1051300039483A4932463B46FEF7D8F9384A394BA6
:10514000FEF7CEFB32463B46FEF7D0F9364A374BE8
:10515000FEF7C6FB52465B46FEF7C8F922464346B9
:10516000FEF7BEFB044688463148324932463B468C
:10517000FEF7BCF9304A314BFEF7B2FB32463B46F4
:10518000FEF7B4F92E4A2F4BFEF7AAFB32463B46F8
:10519000FEF7ACF92C4A2D4BFEF7A2FB32463B46FC
:1051A000FEF7A4F90022144BFEF79AFB02460B46C9
:1051B00020464146FEF770FA04468846A80748BFD5
:1051C00088F0004815F007000CD02149794480315F
:1051D00001EBC0024346D2E900012246FEF780FB04
:1051E00004468846280747BF88F0004120462046ED
:1051F0004146BDE8F08D00BF0000F03F182D44543B
:10520000FB21E93F1426D13F56CD9E5EAA4C58E8BB
:105210007AB6FB3F0000F0BF845D57134B57B03F99
:10522000B2934C19ED5EE43FBEDE02B90240F83F96
:10523000DE39028FC7C0743F8AAB1283000CC83FAF
:1052400024D7E508B6D8F03F0F34580E5895FD3FE7
:10525000C822000090EA010F40F1728081F0004105
:10526000431A4FF000423EBF5340C01AC918D30939
:105270005FEAD05C13EB400F34BFB3EB410F40E06B
:105280007CEBD1530CD342EA012122D8D1EB402050
:1052900009D3400A28BF5FEA500140EBCC50704769
:1052A000401A15D04002B0FA80F2521C9040400AD9
:1052B0004FEA3C23B3EB026384BF00EB730007E0CB
:1052C00040F400001A16DB07C2F10102D040184377
:1052D0007047182BFCDC31FA03F202FA03F3591A77
:1052E00038BF42F00102D2EB40203CBF0018ACF1C5
:1052F000010C5FEACC5CC20572F100414CEB50201E
:10530000704713EB400F0FD2C94209D0ACEBD15319
:10531000022B03DB4902172BDDDD70479143401A56
:10532000C042D5D10020704713EB410FD0D36FF0AE
:105330000000704790EA010F7FF592AF81F00041C5
:10534000421A3CBF801A8918C0F3C752FF2A4FF097
:10535000004C22D0C1F3C7534BB3D21AD2F1190378
:105360002EDD4CEA01214CFA03F321EA0303D1407C
:105370004CEA00226FF3160052180FD353EAC253BF
:105380004CEA520273EB0C0C50EB1220420012F16B
:10539000807F38BF70476FF31600704753EA02638F
:1053A00022EA0C0273EB0C0C50EB122070474902FE
:1053B00012BF9A4200EB5120EFE7D2F11703D2D58A
:1053C0007047000040EA010C1CEB0C0F4FF0807C92
:1053D00007D305D01CEB400F9CBF1CEB410F88424C
:1053E00070471CEB400F98BF814270474AB10000E4
:1053F00011F8013B521E00F8013B1CBF11F8013BA4
:10540000F8E770472DE9F8430446FEF715FF664FAD
:10541000B8684FF00009002508BB07F1180307F131
:10542000180113F0070F4FF400500A4605D0CA1DAB
:10543000D208D200C2F50050081880180838C008F9
:10544000C0003A607D60B86045600560831A5360B3
:10545000106050683861F8604FF0004078614FF09C
:1054600050087869044243D1002C41D0083414F02C
:10547000070F04D004F1080004F00704041B002CFB
:1054800036D0F868A04233D33E68394601E0314651
:1054900006467068A04202D230680028F7D1B8688A
:1054A000864225D00A683068086002F108097268EF
:1054B000121B112A0CD3311911F0070002D000F091
:1054C00020F8FEE7301D02517460084600F047F8EE
:1054D0007168F8683C69401AF860FA68A24288BFAF
:1054E000224678693A6101437160356009F0070529
:1054F000FEF7A8FE15B100F004F8FEE74846BDE847
:10550000F28388F31188BFF34F8FBFF36F8F70471B
:10551000002800D1704738B5A0F10804224D616819
:105520006A695023114204D183F31188FFF7EBFF1E
:10553000FEE7206820B183F31188FFF7E4FFFEE760
:1055400091436160FEF778FEE96860684118E960A0
:10555000204600F004F8BDE83140FEF773BE30B5D8
:1055600011490A4600E01A4613688342FBD3536888
:10557000D418844203D14068C3185360104643686E
:105580001468C518A54208D189688C4204D06168A6
:10559000CB184360246800E00C460460824218BFC8
:1055A000106030BD00000000E40100204FF0FF3229
:1055B00000F1080182604160C16000F108020261EF
:1055C00000210160704700210161704710B54268F9
:1055D0004A6093688B6094686160916008610168BB
:1055E000491C016010BD30B50A6812F1010F08BFF7
:1055F000036907D000F1080300E023465C682568D2
:10560000AA42FAD25A684A6091608B605960086178
:105610000168491C016030BD4368016982689A6075
:10562000836842685A604A68824204BF83684B605C
:10563000002202610868401E086008687047000088
:10564000490810B54900A0F10C034FF0807459606F
:105650009C600FF20D01196040F8202D203810BD1C
:1056600052494A68502012F1010F80F31188BFF3AC
:105670004F8FBFF36F8F00D0FEE7FEE71CB54C499C
:105680000A780192FF230B700C788DF800409DF88A
:105690000000464C00F050002070072005E09DF807
:1056A00000205200401E8DF800209DF800201306B7
:1056B000F5D4424212F1030F03D0A06000F018F8B5
:1056C000FEE7000200F4E060A0600198087039482D
:1056D000016841F470010160026842F070420260AA
:1056E00000F0CCFB0020606000F00FFC002016BD35
:1056F000502080F31188BFF34F8FBFF36F8F704737
:10570000502080F31188BFF34F8FBFF36F8F27496D
:105710004A68521C012A4A600AD127490A681306BE
:1057200006D080F31188BFF34F8FBFF36F8FFEE772
:1057300070471E49486838B9502080F31188BFF37C
:105740004F8FBFF36F8FFEE7401E486008BF80F3A6
:105750001188704780B5FFF7CBFFFEF7C8FD18B181
:1057600015494FF080500860002282F3118801BD76
:1057700010B5EFF30580502110280C4A09D30F4BC8
:10578000185C1478A04204D281F31188FFF7B3FFAC
:10579000FEE790680A4A136803F4E063984204D273
:1057A00081F31188FFF7A7FFFEE710BD5800002026
:1057B00000E400E020ED00E004ED00E0F0E300E0B4
:1057C0000CED00E000687249884200D0704780B557
:1057D0007048026842F4000202600022006800F48F
:1057E00000000090052100981420FCF79BFBBDE809
:1057F00002401420FCF7B3BB00F52C71D0F8EC028A
:10580000FFF7CBB90B4628225343C218D0F8EC025D
:10581000D2F87C21FFF7EBB90B4628225343C2187C
:10582000D0F8EC02D26BFFF723BAD0F8EC02FFF706
:10583000B3BA10B50446A068022818BFFCF760FA96
:10584000D4F8EC020121FFF793FAD4F8EC02BDE89A
:105850001040FFF764BA10B50446D4F8EC02FFF725
:105860008AFAA06920B14C48016841F00601016044
:1058700010BDD0F8EC02FFF786BA10B504464748D1
:105880004349C0F8EC42C4F8C00201600822022378
:105890000021426083608161C161016200F046FBCA
:1058A00008B1FCF72DFAD4F8C00218230022002119
:1058B00001F089F8D4F8C00258230022802101F0B9
:1058C00082F8D4F8C002C0230022812101F07BF8C5
:1058D000D4F8C0024FF488730022012101F073F85C
:1058E000D4F8C0024FF480730022822101F06BF8DB
:1058F000002010BD80B5D0F8C00200F078FBBDE8F4
:10590000024051E010B51C461346D0F8C0022246B2
:1059100000F089FFBDE8104046E080B5D0F8C00235
:1059200000F0A9FFEBE780B5D0F8C00200F0EAFF75
:10593000E5E780B5D0F8C00201F017F8DFE7D0F84E
:10594000C02201F07F0328204343D018090602D566
:1059500090F82A00704790F86A01704780B5D0F837
:10596000C00200F052FFCAE780B5D0F8C00200F0D4
:10597000B0FFC4E780B5D0F8C00200F090FFBEE7EA
:10598000D0F8C00200F09DBF05487047000000003D
:10599000005C00401C10024010ED00E0FC290020DB
:1059A00004320020704770470146002021B10229CF
:1059B00001D1012070470220704700002DE9FC4111
:1059C0000E460546307810F0600005F5277708D0C0
:1059D000202818BF402824D1BA69936828469847E0
:1059E000ACE0717809291CD8DFE811F0FD00120144
:1059F00088000C0188008D000A008800E800AB00D8
:105A00000022ADF800207088010A012970D0022917
:105A100061D003292CD0062922D0072904BF287C75
:105A200000286BD1B9690A6B68469047072141701D
:105A3000BDF8001081B1F188002910D0BDF8001028
:105A4000F288914288BF1146ADF800100146BDF8BA
:105A50000020284600F0E1F9F08800286ED19FE090
:105A6000287C00284AD1B9694A6B68469047DFE72D
:105A7000C0B2052842D8DFE800F0272019120B0336
:105A800078698269002A39D0287C69469047CFE737
:105A90007869426992B3287C69469047C8E778697B
:105AA00002695AB3287C69469047C1E77869C268A1
:105AB00022B3287C69469047BAE778698268EAB1E0
:105AC000287C69469047B3E778694268B2B1287C80
:105AD00069469047ACE7287CB9690028684604D13C
