:020000040800F2
:10000000C8190020C57300088172000883720008B7
:1000100085720008877200088972000800000000DD
:100020000000000000000000000000008B720008CB
:100030008D720008000000008F72000891720008A5
:10004000DD730008E1730008E5730008E973000838
:10005000ED730008F1730008F5730008F9730008E8
:10006000FD73000801740008057400080974000895
:100070000D74000811740008157400081974000844
:100080001D740008217400082574000829740008F4
:10009000957200082D74000831740008357400084A
:1000A000397400083D740008417400084574000864
:1000B000497400084D740008517400089B720008D0
:1000C00055740008597400085D740008A172000896
:1000D000A77200086174000865740008697400085C
:1000E0006D7400087174000875740008F8B5040098
:1000F00025D004F13C05697821B9002028702046FC
:1001000001F072FA242169702068026852085200D6
:1001100002602068016841F40041016020680268C3
:1001200022F40042026001F0C8FC01466068DFF87A
:100130005021904205D2DFF84C31994205D201207E
:10014000F2BDDFF844018142F9D32068DFF83C3189
:100150004668B1FBF3F3B60943EA861646602668A3
:10016000376A6068904206D34FF4967043434FF469
:100170007A70B3FBF0F35B1CBF0943EA8713336269
:10018000491E2368DE696768974206D27F0000F047
:1001900044F8042913D2042111E0A06820B907EB28
:1001A000470700F03AF805E01920474300F035F81A
:1001B00041F4804108050CBF012141F40041DFF802
:1001C000B40106400E43DE6122681368E169206ACB
:1001D00023F0C0030B43034313602268DFF8CC0114
:1001E000936821690340E0680B43034393602268EE
:1001F000D368A16960691B0A41EA03230343D36002
:100200002068016841F00101016000206860202140
:10021000697020630021A970F2BDB1FBF7F1491CA0
:10022000C1F30B017047006841690A0644BF002111
:100230000161704772B62068016841F40071016085
:10024000704732462946204601F033B92A46DFF886
:100250000C14204601F074B841F480610160002064
:10026000009021684A69009289690091009870475E
:10027000202078700021B97000203870704700008D
:10028000A186010080841E0000093D0040420F004D
:100290002DE9FC47064600F08BF800F073F865D1B5
:1002A000009400F07DF8304601F016F800285DD18A
:1002B000387801285AD000F080F84146D6F800E09E
:1002C0000C9D0B98DDF828C0DEF8008028F400684B
:1002D000CEF800804FF0210E87F801E04FF0400883
:1002E00087F802804FF0000EC7F804E0C6F824C07B
:1002F00070855346708DDFF860C33085C6F82CC01A
:100300004A4601940095304600F0B7FE002826D1F9
:1003100006E0716A0A78026100F03AF8411E7185C0
:10032000308D88B122462946304601F071F888B9EF
:10033000706A32680178116100F02AF800F01CF848
:10034000EED589B20029E4D122462946304601F093
:1003500081F830B17868042801D100F04BFF01200A
:1003600005E000F047FFFFF783FF00E00220BDE853
:10037000F68700000030FFFF421E72853068426938
:100380005307704706F13C070446787820287047E9
:10039000706A411C7162308D411E3185708D7047CD
:1003A00019230122DFF8E41270470000007CFFFFF0
:1003B000884691469A4601F0B5BB012139703068F4
:1003C0000268D10703D4026842F00102026070475C
:1003D0002DE9FC47044600200090FFF7E9FF04F1F7
:1003E0003C0605467078202805D10095FFF7D8FF18
:1003F00000F005F9002840F0C1803078012800F0B5
:10040000BD800121317000F0E0F84146D4F800E0F1
:100410000C9F0B98DDF828C0DEF8008028F40068F7
:10042000CEF800804FF0220E86F801E04FF0400831
:1004300086F802804FF0000EC6F804E0C4F824C02D
:1004400060855346608DDFF810C22085C4F82CC04B
:100450004A4601950097204600F05EFE00286ED1C6
:10046000208D10B900F092F81FE0012802D100F0B1
:10047000DAF805E002282068016805D100F0C2F82A
:100480000846026062B610E0FFF7E6FE0DE02A467D
:100490003946FFF7D8FE002851D100F0C6FC208D68
:1004A0006262411E218500F085F8208D00285ED013
:1004B00004284AD20128EAD00228324900953B4656
:1004C0000AD1002200F09BF8002838D1FFF7B2FED5
:1004D00000F084F862B6E0E7002200F090F870BB0C
:1004E00000F06CF84FF47A7E20680169606A017050
:1004F000616A208D4A1C411E62622185608D224AFC
:10050000411E618519211368B3FBF1F1B1FBFEFEB9
:10051000232000FB0EFECDF800E000F097F820B19C
:10052000216848694107F8D50BE0206320217170EC
:10053000B070716841F02001716062B630700120C6
:100540001DE0206800F091F8C2E72A463946FFF71F
:100550007AFE0028F3D100F041F8206841694A078B
:10056000A3D50069616A0870606A421C97E7202081
:1005700070700021B1700020307000E00220BDE8F2
:10058000F687000004000100A00000200090216810
:100590004A69009289690091009821680A680846B2
:1005A00042F40072026070471069616A0870606A04
:1005B000421C6262608D411E61857047206801683F
:1005C00021F48061016072B6704720680268D1072B
:1005D00003D4026842F0010202607047206801699A
:1005E000606A0170616A208D4A1C411E6262218529
:1005F000608D411E6185704700224FF00111204639
:1006000000F06ABE41F40061016072B60020009003
:1006100021684A69009289690091009821680A68F6
:1006200022F4806270472068016821F480610160D3
:1006300072B60020009021684A6900928969009191
:10064000009821680A6842F4007270470098401EC2
:1006500000900098704700000000FFFF08000100B4
:10066000009021684A69009270470168024641F48F
:1006700000711160704720680168CA0570473068D2
:10068000016841F4807101607047000002001000B1
:10069000416841F48051416070473068016841F41D
:1006A0008061016070472DE9FC41044604F13C057E
:1006B0002268DFF81C6B5168E06AAF786B784FF006
:1006C000000C102F18BF402F40F05482D2F818C0F1
:1006D000D2F814E05FEACE7805D4B0F52A0F18BF3F
:1006E000B0F12A4F47D05FEACE7045D5880543D593
:1006F000E06AB0F52A0F08BF012104D0E06AB0F12A
:100700002A4F01D10821E162A878402809D16869FF
:100710000028A8681ABF40F00100C0B200F0FE0037
:1007200028E02069B0F5804F16D168782128A868A4
:100730000EBF00F0FE0040F00100C0B21061606B1F
:1007400000281CBF806A00282AD1A06B00281CBF8B
:10075000806A00280FD023E0686920B900F00EFB02
:1007600040F0F00006E06869012804D100F006FBC3
:1007700040F0F1001061FFE25FEA0E7015D58805C8
:1007800013D5A868C0B21061606B00281CBF806AD6
:10079000002805D1A06B00281CBF806A0028EAD081
:1007A0002068416841F400613AE15FEA8E7000D54B
:1007B000880540F1B780AB78E16A276B687822281A
:1007C00040F0A8806869002808BF402B04D10021B0
:1007D00000F0E6FA009ACFE26869002804BF2069B9
:1007E000B0F5404F08D100F0EEFA40F48070106090
:1007F0006869401C6861BFE2608D28B900F0E3FAC7
:1008000040F40070106082E0608D012835D1B14263
:1008100012D11146086820F4806010602168486891
:10082000020504D50846024600F0E0FA23E0002263
:1008300000924B6900930CE0082918BF202903D0CF
:10084000122F0CD101290FD000F0CFFA116000F067
:1008500007FB89690091009800F0A8FA57E0042985
:100860001CBF0229102902D000F0BFFA03E0104695
:10087000016841F48061116047E0628D022A2FD146
:1008800004291CBF0229102910D0206802680346E1
:1008900042F400621A600020009000F09FFA226883
:1008A0001368104623F48063036009E0226813682C
:1008B000104643F4806303600022009200F08EFA39
:1008C00020684268130522D5B14218BF012904D01F
:1008D00008291CBF1029202919D1FFF7D9FE16E0DD
:1008E00020680268034642F480621A602068426809
:1008F00013050AD5B14218BF012904D008291CBF2D
:100900001029202901D1FFF7C3FEFFF7A8FC002121
:10091000696131E20023009351690091926900926C
:10092000009929E25FEA4C7C0EF004005FD5D2F812
:1009300004805FEA085CF4D45FEA0E6E48BF5FEAA9
:10094000415C2AD5002828D16978AB78E76A208DE8
:10095000002808BF212913D1082F1CBF202FB74220
:1009600004D000F016FA0022AA702DE000F07EFA02
:1009700030D10021A9702046BDE8F64101F0D8B879
:10098000212903D0402B08BF2229CAD1608D00281D
:100990004AD0A878402826D0BCE10028C1D08805DC
:1009A000BFD5212B1DD1E16A6878212839D1608D0E
:1009B00008B100F0AFB908291CBF2029B14206D008
:1009C00000F0E7F90020A8702021697004E000F031
:1009D0004DFACED00021A9702046BDE8F64101F0C5
:1009E000A8B8402F1DD12046BDE8F6414EE253681D
:1009F0001E0516D45FEA4E636CD54E056AD50028F5
:100A000068D1687822280CD1608D04280AD3FFF7BA
:100A1000CBFD608D032804D12068416821F48061FA
:100A20004160A9E1E16A022951D0012818BF0028DC
:100A30004DD10020DFF89818009019200B68B3FB07
:100A4000F0F04FF47A76B0FBF6F606EB86060096E9
:100A50002146FFF7FBFD20B10B6818688405F8D428
:100A60001AE0686840F020006860506820F4E06098
:100A700050600A6810694A6A1070486A431C4B62E9
:100A80002023488D421E4A856B700020A8700846BE
:100A9000BDE8F64101F04EB818460C460168024622
:100AA00021F48061116000F0D3FA00F0CBF920222C
:100AB000FFF780FD6A70A878402852D10021A97004
:100AC000002020632046BDE8F64101F034B800F074
:100AD0005BF951E10028FCD08805FAD5E06A618D08
:100AE000042904D100F050F9216808693DE1618DC5
:100AF00003290CD1516821F480615160042818BF8A
:100B0000022801D000F098F900F08FF931E1618DF1
:100B1000022940F02981012818BF10280DD004288F
:100B200018BF022804D01046016841F4007106E0A5
:100B30001046016841F4806101E000F056F911604F
:100B400000F080F9FFF736FD2268FFF72DFD2068E1
:100B5000416821F44071416020206870A9784029E3
:100B6000ACD00020A870122121632046BDE8F641D8
:100B700000F0E2BF686808B9D2F818C05769B80732
:100B800025D5880523D5686808B1D2F818C06878DB
:100B9000002100F02800282813D100F0F5F85FEAC2
:100BA0004C7058BF01215FEA0C6054BFE268A26933
:100BB0000020287002B02046BDE8F04192B200F05B
:100BC000BCBF00F0EDF80021009A2970D4E0F806CF
:100BD00074D5880572D56F78506820F4E060506055
:100BE00000210091206841690091206800F002F91D
:100BF00000F022F921684868020528D50FF2016843
:100C0000222F18BF2A2F10D0606B00F0FAF8606B0B
:100C100000F0F0FF01281AD0606BC0F83480606BE0
:100C200000F08CFF98B1606B0FE0A06B00F0E9F86A
:100C3000A06B00F0DFFF012809D0A06BC0F8348062
:100C4000A06B00F07BFF10B1A06B416B8847608DFB
:100C500098B1206841694A0702D50069FFF7A5FCF1
:100C6000206841694A0602D50069FFF79EFC608D45
:100C700018B1686840F004006860686818B12046E0
:100C8000BDE8F64160E12A2F05D120632821697073
:100C9000204600F0B2FF6878282807D1E66200F00D
:100CA000D9F82046BDE8F64100F0A8BF206B222805
:100CB00018BF222F60D100F0CDF84BE007F0040000
:100CC000212B18BF292B2CD13B061CD54E051AD53C
:100CD000C8B96978608D00284ED0606A03781361C6
:100CE000606A421C626200F068F808BF292943D19B
:100CF00000F095F821202063282169702046BDE886
:100D0000F64100F07CBF002836D0890534D5608DCF
:100D1000002831D0606A01781161606A411C61620B
:100D200028E07B061BD54E0519D5C0B96978608DC2
:100D300010B31069626A1070606A431C636200F04D
:100D40003CF808BF2A2917D100F069F82220206357
:100D5000282169702046BDE8F64100F04EBF58B129
:100D6000890509D5608D38B11069616A0870606ABB
:100D7000421C6262FFF71EFCBDE8F381A868000414
:100D8000C00D00F006007047506820F4806050608D
:100D90007047506820F4E060506011212163704773
:100DA00000915369009391690091704721680A6826
:100DB000084642F4007202607047608D421E6285F0
:100DC000608D00287047002100915369009391695C
:100DD0000091009A216808680A46704722685369A2
:100DE000009392690092009870471046016821F4C0
:100DF000806170470268014642F001020A60009873
:100E00007047026853686385608D18B1686840F068
:100E100004006860486820F40060486070472068FB
:100E2000416821F480614160704720680169606A0F
:100E30000170616A4A1C70472068016821F4806172
:100E40000160704720680169606A0170616A4A1C2C
:100E5000626270470020206320216970A87070478B
:100E60000020009021684A6900927047506820F481
:100E7000E06050602068016841F40071016000206A
:100E8000206320216970A8784028704710B500F1D0
:100E90003D0300F148021C78916889B900685168E7
:100EA000012905D11368DBB203619068801C05E05D
:100EB00011680904090E01619068401C906010BD22
:100EC0009168012904D113680068DBB203610AE06C
:100ED0009168022933D1222C09D101680B68084698
:100EE00043F4807303609168491C916010BD418D8B
:100EF00061B1212C0AD1416A03680A781A61416AFA
:100F00004A1C4262418D4A1E428510BD418D002916
:100F100008BF212C17D101684A6822F4E0624A60B8
:100F2000002401680A6842F400720A60002101632B
:100F300020221A705C70BDE8104000F0F9BDBDE8D9
:100F40001040FFF770B910BD38B5044604F13D05F7
:100F500028786978102914BF4029222804D12168F3
:100F60000A6822F400620A6000F02801282903D1EF
:100F70000020206329700BE0226851680A0505D41F
:100F8000602803D020202870002169700020206391
:100F9000206841680A0523D5416821F40061416059
:100FA000606B0FF25D2190F82120012A09D0416386
:100FB000606B00F0C3FD002825D000F056F8606B90
:100FC0000BE0A06B4163A06B00F0B8FDD8B12068C6
:100FD00000F034F800F049F8A06B416B884712E04C
:100FE0002A78602A0AD1202129700022226400F088
:100FF00025F800F033F800F003FE04E000F01EF8DE
:10100000204600F097FD206C10F00F0F01D000F08B
:101010001FF82878216C4A070ED528280CD16C4877
:10102000E062002121632020287000226A7020469F
:10103000BDE8324000F0E2BD31BD000041694A0622
:1010400005D50069616A0870606A421C6262704777
:101050002068416821F4E0614160704720680168C0
:101060004908490001602046704720680168490826
:10107000490001602020287070472DE9F84304469C
:101080002068DDF82080099FD0F800C04CF4807CF7
:10109000894615461E46C0F800C000974346FFF734
:1010A000ABFA38B1FFF7E7FA44BF4FF400702064A1
:1010B000032026E02068DFF81C1209F0FE09C0F8C2
:1010C00010903B464246FFF7C4F8A0B9FFF7C8FAB4
:1010D00000F019F800F01EF840B9012E0DD021687B
:1010E000280A08613A4600F014F830B1206C042850
:1010F00001D1FFF7A0F8012003E02068EDB20561FF
:101100000020BDE8F2833A46896900914146009883
:101110007047414620467BE12DE9F84F0546286897
:10112000DDF828800B9F0C46FFF7B8FA16462868B2
:10113000D0F800C04CF4807C9946C0F800C000F0A4
:1011400052F800284FF4007A2ED12968DFF884B1D4
:1011500004F0FE00086100F041F8002834D100904E
:1011600029684A690092FFF7CEFF00F035F870B9A0
:10117000B9F1010F05D02968300A086100F02AF89A
:1011800028B92868F6B2066100F024F830B1286C5E
:10119000042819D1286800F02EF815E02868FFF718
:1011A0006FFA00F020F838B128680168CA0548BF16
:1011B000C5F840A0032008E0286844F00104E4B228
:1011C000046100F00BF800B10120BDE8F28F0000CF
:1011D0000000FFFF3A464146284619E13B46424699
:1011E00059462846ACE00097434600224FF00111D3
:1011F000284671E03068016841F400710160704771
:101200007CB5002100911925416A314801F13D0268
:101210004FF47A7613780468B4FBF5F5B5FBF6F66F
:10122000232046430096009838B10098401E009055
:101230000C6820688505F6D403E0086C40F02000B7
:101240000864486B08B100248462886B08B10024EC
:1012500084620868046824F480640460002048857F
:10126000486B08B100244463886B08B100244463D0
:1012700008680468640864000460107860280AD173
:10128000202313700024547000220A640846BDE82D
:10129000764000F0B5BC03F02803282B0ED1086877
:1012A000036843F00103036028230868046844F4DA
:1012B0008064046000200863137003E02020107035
:1012C000002454700846BDE8764000F033BC0000AE
:1012D000A0000020020001002DE9F8430F46089C01
:1012E0000646904699463D0C3068E9B201290CBF8C
:1012F0004069806900F071F80CBF01200020404572
:101300001CD119F1010FEFD000F00CFC001B81453E
:1013100002D3B9F1000FE7D13068E9B201290CBF5F
:101320004069806900F059F80CBF01200020404559
:10133000DAD100F05FF80120BDE8F2830020FBE77E
:101340002DE9F0410F460646144698463D0CE8B29A
:1013500001281CD130684169394089B2B8B2814254
:101360001CD03168486941051AD5306800F03AF858
:1013700032685061002106F13C0031632022427046
:101380008170426842F00402426001701DE03068E2
:101390008169394089B2B8B28142E2D1002015E0BA
:1013A00014F1010FD3D000F0BDFBA0EB0800844284
:1013B00001D3002CCBD1E9B23068012908D14069B2
:1013C00000F00BF8C6D000F015F80120BDE8F08160
:1013D000806900F002F8DAD0F5E7384080B2B9B29F
:1013E000884270470268014642F400720A606FF456
:1013F0008060704700203063202106F13C0000220D
:1014000041708270416841F0200141600270704774
:1014100070B505460C46164628684169080617D47B
:10142000284600F071F818B914F1010FF4D001E06A
:10143000012070BD00F076FB801B844201D3002C9C
:10144000EAD1286841690806E6D400F025F8EFE7FC
:10145000002070BD70B505460C46164628684169E7
:10146000480717D4284600F04FF818B914F1010FB7
:10147000F4D001E0012070BD00F054FB801B8442D9
:1014800001D3002CEAD1286841694807E6D400F06E
:1014900003F8EFE7002070BD002105F13C0029634F
:1014A000202242708170426842F020024260017046
:1014B000704770B505460C461646286841694A06CD
:1014C00020D44169CA060FD56FF010014161002098
:1014D0002863202105F13C000022417082704168A0
:1014E00041600270012070BD00F01CFB801B844233
:1014F00001D3002CE1D1286841694806DDD4FFF70B
:10150000CBFFEFE7002070BD10B501684A695305B5
:101510000DD56FF480644C61002101633C302023C1
:1015200043708170436843F004034360017012F418
:10153000806018BF0120C0B210BDF0B40246106830
:1015400095681318506803EB5004C00748BF4D441A
:10155000A3422DD013F8016B16F0030004BF13F85B
:10156000010BC01C31090F2907D113F8011B0F31E2
:1015700003E013F8017B05F8017B401EF9D1002937
:10158000E6D013F8010BC6F38106032E08BF13F84B
:10159000016B00EB0620404228440026B71E8F4214
:1015A0001EBF10F8017B05F8017B761CF6D1CFE752
:1015B000F0BC02F10C007047254A2648264980B548
:1015C000426000234FF4804201608360C360026187
:1015D00043618361C3610362FEF788FD18B1BDE812
:1015E000014000F031BC01BD18B585B004461022A1
:1015F000002101A800F02AFC21681748814224D16B
:10160000164C216841F008012160C021206800F0DB
:1016100008000090122200981148019102920121C5
:10162000049101A900F01CFC606840F400106060A7
:101630000022606800F400100090002100981F2034
:1016400000F014FD1F2000F02EFD06B010BD0000BC
:10165000801A060024150020005400401810024093
:10166000000C01402DE9F843040016D02078DFF883
:101670007064C10713D5706800F00C00042807D00F
:10168000706800F00C00082841D17068C1033ED595
:101690003068810303D56068002800F064812078F9
:1016A000DFF84C74810719D5706810F00C0F07D063
:1016B000706800F00C00082861D17068C1035ED426
:1016C0003068810703D52069012840F04C813168DA
:1016D000606921F0F80141EAC00131602178080712
:1016E00040F18180A069DFF80C14002800F0A6808A
:1016F00001220A6000F016FA0546706A810763D479
:1017000000F010FA401B0228F7D903202EE1606890
:10171000B0F5803F04D1306840F48030306014E090
:1017200008B930680AE0B0F5A02F306806D140F45F
:1017300080203060316841F4803105E020F4803051
:101740003060316821F480213160606858B100F068
:10175000E9F9054630688103A1D400F0E3F9401BA4
:101760006528F7D3D1E700F0DDF90546306881033D
:1017700095D500F0D7F9401B6528F7D3C5E7206958
:10178000A8B10121396000F0CDF905463068810724
:1017900005D400F0C7F9401B0228F7D9B5E7306837
:1017A000616920F0F80040EAC100306096E73860D7
:1017B00000F0B8F90546316888078FD500F0B2F916
:1017C000401B0228F7D9A0E7DFF818030168C90811
:1017D0004FF47A72B1FBF2F2009200BF0098411E02
:1017E00000280091F9D1207841076ED5F0690025D5
:1017F000C10009D4F06940F08050F0610125F06922
:1018000000F0805000900098DFF8EC82D8F80000DB
:10181000C10520D4D8F8000040F48070C8F800005A
:1018200000F080F98146D8F80000C10513D400F01B
:1018300079F9A0EB09006528F5D366E7086000F0A8
:1018400071F90546706A8107CDD500F06BF9401B30
:101850000228F7D959E7E068012808D008B9306AAA
:1018600009E00528306A06D140F004003062306A91
:1018700040F0010005E0400840003062306A20F08E
:101880000400306241F28938E06860B100F04AF942
:101890008146306A810713D400F044F9A0EB0900B7
:1018A0004045F6D331E700F03DF98146306A8107C3
:1018B00006D500F037F9A0EB09004045F6D324E740
:1018C0001DB1F06920F08050F061E06900284CD033
:1018D000716801F00C01082938D002282AD100F0E3
:1018E00047F805463068810105D500F01BF9401B1B
:1018F0000228F7D909E7206AB0F5803F05D1716861
:10190000A06821F40031014371607268206A616A45
:1019100022F4741202430A437260012000F029F895
:1019200004463068810120D400F0FCF8001B022836
:10193000F7D9EAE600F01CF804463068810114D5B6
:1019400000F0F0F8001B0228F7D9DEE601280AD0E3
:101950007068226A00F48031914202BF00F4701076
:10196000616A884201D0012000E00020BDE8F283D6
:101970000020386600F0D6B82DE9F0410400884612
:101980004ED05E4E00F077F802D200F06FF847D1EB
:101990002068534D810712D5400703D5696841F48B
:1019A000E06169602078010703D5686840F4605001
:1019B00068606968A06821F0F001014369602178DE
:1019C000C80725D56068012802D129688A0303E089
:1019D0000228296802D18A0102D421E08A071FD592
:1019E0006968890840EA8100686000F09BF8074652
:1019F0006868616800F00C00B0EB810F08D000F05F
:101A000091F8C01B41F289318842F1D303202BE0C9
:101A1000306800F00700804504D200F027F801D0BC
:101A2000012021E02078410705D56A68E06822F4AA
:101A3000E06202436A602178080706D56968206978
:101A400021F4605141EAC001696000F019F86A6848
:101A50002B49244BC2F30312895CC8401860234809
:101A6000006800F04BFB0020BDE8F0813168C90838
:101A700048EAC1013160306800F007004045704716
:101A8000204919480A6802F00C03082B00D070475F
:101A900010B500BF1EA4C2F38343D203E35C08D594
:101AA000096858431EA3C1F340415A5CB0FBF2F0F1
:101AB00010BD18461449484310BD0A48114A006831
:101AC00013681249C3F3022206E006480D4A006873
:101AD00013680E49C3F3C222895CC84070470000F6
:101AE00000100240A000002000127A009C0000209C
:101AF0000000424280044242007000400020024048
:101B0000B47300080410024000093D00D4730008BB
:101B100002030405060708090A0B0C0D0E0F10102E
:101B20000102000001484068704700BF9400002097
:101B300070477047704770477047704738B590F8E6
:101B400021200024022A00F1340103D0042048603F
:101B500001243EE00268136823F00E03136002685C
:101B6000DFF8743015686D086D00156002689A42E0
:101B700008BF012222D0DFF864309A4208BF102249
:101B80001CD0DFF85C309A4208BF4FF4807215D049
:101B9000DFF850309A4208BF4FF480520ED0DFF881
:101BA00048309A4208BF4FF4803207D0DFF83C300B
:101BB0009A420CBF4FF480124FF08072DFF8303041
:101BC0001A60012280F8212080F82040096801B1C4
:101BD0008847204632BD0000080002401C00024039
:101BE0003000024044000240580002406C000240B5
:101BF0000400024090F8210070477047704770471A
:101C0000704700002DE9F84189B000F097FA00F024
:101C1000D9F800F0A5FAFFF7CFFC00F005FB00F0C3
:101C20000FFB00F097FB00F0EBFB00F02FFC6420B3
:101C300000F01AFD4FF07E50574C00F06DFC5749F4
:101C4000574A049105921021564AADF81810019296
:101C50004FF48052544920700291ADF80C2004AB2F
:101C600093E8070000F030FD01AB93E8070000F0B7
:101C70002BFD04A807C800F0DEFD01A807C800F08E
:101C8000DAFD002000F0DFFD00F025FE002000213D
:101C9000221D002304F1440511542B54401C4028FC
:101CA000FADB207800F0BBFE60B900256178E8B26D
:101CB000884215D200F080F80799089A201D00F09C
:101CC00075F8F3E7002507E000F076F80799089A21
:101CD00004F1440000F06AF86178E8B28842F3D376
:101CE0004FF07E5000F018FC207000F098FE074680
:101CF000207800F09AFE804608210820002F07BFB8
:101D000004F14405261D251D04F14406401EF5D1AD
:101D1000491EF2D120786378009042463146284629
:101D200000F01AFF207863780090C8F101085FFA8C
:101D300088F22946304600F00FFF0020261D04F1EE
:101D4000440C00210022002303EBC005775D1CF842
:101D500005509F409D407918AA185B1C082BF3DBA7
:101D60002318401C03F8841F08281A72E9DB04F1C9
:101D70008400009004A907C9002300F039FD04F194
:101D80008C00009001A907C9002300F031FD6420F8
:101D900000F06AFCA4E7000000000020741400209A
:101DA00000080140CC140020000C014002EBC102ED
:101DB000012181546D1C704722780023E9B207A8E5
:101DC00000F096BD18B593B0282109A800F050FF87
:101DD0001421684600F04CFF05A8002100220023D2
:101DE000002480E81E00012109910B924FF48031FC
:101DF0000A911191012302224FF480110D93109248
:101E0000129109A8FFF72EFC08B100F01DF802217D
:101E100001910F204FF4806100900391029404948B
:101E200001216846FFF7A8FD08B100F00DF8102168
:101E30004FF480020591089205A800F01DFF08B13B
:101E400000F002F814B010BD72B6FEE710B50446FB
:101E500010460A460146204600F082FF204610BD8B
:101E60002DE9F8474FF0000E0024664A664BDFF874
:101E70009C814FF00F0982460DE0176838401060D2
:101E800007E0C2F804C04D68ED03F6D510680743BB
:101E900017600EF1010E0F6837FA0EF000F0AC80FB
:101EA000012000FA0EFC0CEA07076745F1D14868EB
:101EB00038B301281AD002281DD003282ED01128AB
:101EC00016D012281AD0524DA8421CBF514DA8421C
:101ED00017D0514DA8421CBF504DA84211D0504DB3
:101EE000A8421CBF4F4DA8420BD018E0CC6816E0AA
:101EF000CC68241D13E0CC68083410E0CC680C34A6
:101F00000DE0886808B9042409E0012819BF0824F5
:101F1000CAF814C00824CAF810C000E00024B7F5BD
:101F2000807F03D250464FEA8E0C05E0AEF10805E3
:101F30000AF104004FEA850C056809FA0CF6B5436E
:101F400004FA0CF646EA050CC0F800C04868C00068
:101F50009FD5D8F8000040F00100C8F80000D8F87C
:101F6000005005F0010500954FEA8E0500984FEAF4
:101F70009E0053F8206005F00C0C09FA0CF526EAD7
:101F80000505294EB24508BF00260ED0274EB245A2
:101F900008BF012609D0264EB24508BF022604D04C
:101FA000244EB2450CBF0326042606FA0CF646EA78
:101FB000050C43F820C0F8434D68D2F808C0ED0284
:101FC0004CBF47EA0C0C00EA0C0CC2F808C04D6884
:101FD000D2F80CC0AD024CBF47EA0C0C00EA0C0C66
:101FE000C2F80CC04D68D2F804C0AD034CBF47EA3C
:101FF0000C0C00EA0C0C44E7BDE8F18702B90904B7
:1020000001617047000401400800014018100240BF
:10201000000011100000121000002110000022101A
:10202000000031100000321000080140000C014097
:1020300000100140001401400901020002D42848A8
:1020400081547047274B02F00F021A4402F8041C17
:102050007047254B19684FF6FF020002114000F44B
:10206000E0600843214908431860704770B51E4B73
:102070001C68C4F302230124C3F10705052D2EBFFC
:102080000F2504FA05F56D1E1E1D072E34BF002313
:10209000DB1E2940994004FA03F3BDE870405B1E43
:1020A0001A401143C8E7010007D4012200F01F01C4
:1020B0000F4B8A40400943F820207047401EB0F182
:1020C000807F01D3012070470A490B4A48600023F2
:1020D000F02010708B60072008600020704700001F
:1020E00000E400E018ED00E00CED00E00000FA056F
:1020F00000E100E010E000E023ED00E038B50D4D18
:102100000D4B2A7804464FF47A711868B1FBF2F24D
:10211000B0FBF2F0FFF7D2FF50B9102C08D200222A
:1021200021464FF0FF30FFF7A1FFAC60002032BD29
:10213000012032BD94000020A000002080B5074897
:10214000016841F0100101600320FFF782FF0F20BA
:10215000FFF7D4FF00F038FE002002BD002002404F
:1021600030B585B0102200216846FFF76FFE254884
:10217000254D0168254C41F020010160026802F004
:10218000200204920499026842F00402026003688B
:1021900003F0040304930499026842F00802026009
:1021A0000022006800F008000490102104982846DE
:1021B000FFF724FF00224FF480512046FFF71EFF57
:1021C000022100910322019269462846FFF748FE4A
:1021D000102100F01FF82846FFF742FE4FF480510F
:1021E00000F018F82046FFF73BFE4FF480700849D6
:1021F000009001910022029269462046FFF730FECE
:1022000005B030BD1810024000080140000C01402C
:10221000000011100091012201920021029102227E
:10222000039269467047000080B543484349016006
:102230004FF48272182100F00FF800B11DE001BDCB
:1022400080B53F483F4901604FF48272102100F091
:1022500003F800B111E001BD4260C16100234FF4F9
:1022600000720A218360C36003614361826103627B
:1022700043628362C16200F0C9BDBDE80140FFF75F
:10228000E3BD18B585B00446102200216846FFF76B
:10229000DDFD206800F04BF81DD1086840F4805047
:1022A00008600A6802F48052049204980A6842F0B6
:1022B00004020A600222096801F004010491A021CD
:1022C0000498214800F02CF8002200212320FFF779
:1022D000CDFE232020E01B4A90421FD1486840F4E5
:1022E00080404860486800F48040049004980A6880
:1022F00042F008020A600222096801F00801049114
:102300004FF420410498114800F00AF800220021FF
:102310002420FFF7ABFE2420FFF7C5FE06B010BD5A
:1023200000910192032103916946FFF799BD034A89
:1023300007499042704700007414002000300140AB
:10234000CC1400200038004000080140000C01407F
:102350001810024080B52648264901604FF4E1324A
:1023600000230C2142608360C3600361416183618B
:10237000C36100F06FFF18B1BDE80140FFF764BD15
:1023800001BD18B585B00446102200216846FFF74C
:102390005DFD21681748814228D11748174C016814
:1023A00041F480410160026802F480420492049981
:1023B000026842F0040202604FF40071006800F00D
:1023C00004000490022204980091019203210391D9
:1023D00020466946FFF744FD4FF4806000210090DD
:1023E0000191029120466946FFF73AFD06B010BD03
:1023F0007815002000380140181002400008014004
:1024000010B5104C10490022204600F0A3FF08B17F
:10241000FFF71AFD0D49204600F0AFFF08B1FFF7A6
:1024200013FD0B49204601F0F9F908B1FFF70CFD47
:10243000204600F0AAFF18B1BDE81040FFF704BD28
:1024400010BD00BF0C0D0020C4010020B000002012
:10245000B401002003B583B002461F20012104AB64
:10246000029001910093D02101236448FDF710FFF1
:1024700005B000BDE0B5FF23019202930091024632
:102480000123D1215D48FDF7A3FF07BD80B5802161
:102490006B20FFF7DFFF642000F0E6F800216B20DF
:1024A000FFF7D8FF00216A20FFF7D4FF0021232087
:1024B000FFF7D0FF07211920FFF7CCFF06211A20D4
:1024C000FFF7C8FF01211C20FFF7C4FFBDE804404F
:1024D00018211B20BEE700001CB5044606226946F1
:1024E0003B20FFF7C7FF9DF800009DF8011001EBAE
:1024F000002121809DF802209DF8031001EB0221AC
:1025000000F004F801EB0021A18013BD61809DF86B
:1025100004009DF8051070477CB506466846FFF735
:10252000DBFFBDF9020001F0A1F9354901F0B0F976
:1025300001F03AFA0446BDF900000D4601F096F9A3
:102540002F4901F0A5F901F02FFA22462B4601F0A0
:102550004FFA01F0DBFA01F027FA0022294B01F0D3
:1025600009FB294A294B01F0DBFB04460D463046A6
:1025700001F01AFA22462B4601F0F6FC01F0C6FAE9
:10258000234E24490446324600F054F80025002822
:1025900031D13246204900F04BF808B101252AE03C
:1025A0003246002100F044F808B1022523E032460B
:1025B0001A4900F03DF808B103251CE032461849DD
:1025C00000F036F808B1042515E03246154900F050
:1025D0002FF808B105250EE03246134900F028F81F
:1025E00008B1062507E03246104900F021F800281E
:1025F00014BF07250825284676BD000024150020B5
:1026000000FC7F4600806640F1D4C853FB2109409E
:102610000000B4410000B44200003442000034C263
:102620000000B4C2000007C30000344300000743A9
:102630002046FFE770B504460D461646284631464B
:1026400001F02AFE0146204601F06EFE09D8284618
:10265000314601F0B1FD214601F066FE01D80120AE
:1026600070BD002070BD000038B50446FFF75AFA6F
:1026700014F1010F054602D0044908780419FFF748
:1026800051FA401BA042FAD331BD00BF9400002094
:1026900037B582B00C460898BDF810508DF801008F
:1026A0008DF80030002229462046FFF7A7FC02984B
:1026B000FF230222694600F0FEFB01222946204644
:1026C000FFF79CFC05B030BD1FB582B0002400941C
:1026D0000923FFF7DDFF02A807C8082400940A2396
:1026E000FFF7D6FF0720009002A907C90B23FFF7C9
:1026F000CFFF0120009002A907C90C23FFF7C8FFF4
:102700000020009002A907C90F23FFF7C1FF02A80C
:1027100007C806B0BDE8104038B584B001AD00244C
:1027200085E80700002300F005F8E0B20828F9DB8F
:1027300005B030BD95E807000093641CE3B2A7E73D
:10274000FCB5012804D020D303283AD01ED3F3BD12
:10275000002000230DF80030C0F10706CD5C1DF805
:102760000040F54005F001059D402C435B1C0DF831
:102770000040072BF2DD401C0728EADD00201DF891
:1027800000300B54401C0728F9DDF3BD0020434204
:102790000DF107050024EC540DF107050F5CEE5C0C
:1027A000E74007F00107C4F10705AF403E430DF1D4
:1027B0000707641CFE54072CEEDD401C0728DDDCF7
:1027C000E5E70020CD1D00230DF800305E42AF5D2F
:1027D0001DF80040C74007F001079F403C435B1CC9
:1027E0000DF80040072BF1DD401C0728C6DCEAE7A6
:1027F00037B584B01C46FFF78FFFE0B20428A8BFAE
:1028000000240A98002101AD425C6A54491C082941
:10281000FADB01A9E0B2FFF793FF0024285D0090E6
:1028200004A907C9631CDBB2FFF732FF641C082C44
:10283000F4DB07B030BD1CB50024FFE700940F2384
:10284000FFF726FF13BD01F083BD0000F0B424495B
:10285000244AD1F8807056681078234C234D6FF0CD
:10286000004320BB082005FB064637461E46B7FB43
:10287000F6F6401E03FB1676F5D10F46102005FB39
:1028800006469C46B6FBFCFC03FB1C663E601E46EF
:1028900057F804CB05FB0C4CBCFBF6F603FB16C645
:1028A000401E47F8046BEAD1CF6F0120107005FB82
:1028B00006461C4607F01F07B6FBF4F451F8270044
:1028C00003FB146641F82760C1F88000566020F0D1
:1028D0004040F0BC7047034900220A7048607047CE
:1028E000F0130020140200205FF36E3C0D66190007
:1028F0002DE9F8438146D2B2900802EB507626F0DB
:102900000706921BCDB2072AADF5007D1F4622496E
:102910003CD8DFE802F004060A0E12161A276846B1
:1029200016E0684601F500711FE0684601F5806118
:102930000EE0684601F5C06117E0684601F50061E8
:1029400006E0684601F520610FE0684601F5406148
:102950004FF4007201F006FD01A85DF8354050F813
:10296000358013E0684601F560614FF4007201F0B4
:10297000F9FCFFB22FB901A95DF8354051F8358057
:1029800004E001A95DF8358051F83540C9E90048F7
:102990000DF5017DBDE8F083F86000082DE9F041F8
:1029A00090B00446884616461F4608A8A0A12022DB
:1029B00001F0D8FC4FEA0D00A5A1202201F0D2FCC5
:1029C00008A9FFB251F82700051935607A1C5DF897
:1029D00027C0901002EB5070C44420F00700C6F8E6
:1029E00004C0A2EB000E51F82E000519B5607F1E41
:1029F0005DF82EC0B81007EB5070C44420F00700FB
:102A0000C6F80CC0381A51F820100C1934615DF862
:102A1000200000EB0802726110B0BDE8F0810428CC
:102A200001DA0020704701207047042801DA0120F4
:102A3000704700207047D2B2042A05DA082808BF80
:102A4000082907D00020704710F1010F08BF11F1CD
:102A5000010FF7D1012070472DE9FE431746984634
:102A60005FFA88F2042AB4BF4FF000094FF0010961
:102A70000A9E04460D46FFF7DEFFF8B13A46D0B293
:102A800048451BD1082C03DB082D07DB002404E09C
:102A9000200003D5280001D5072425460B98009077
:102AA000C2F1010201965FFA88F3D2B220462946AC
:102AB000FFF7D2FF012813D0002011E0082C38BF07
:102AC000082D09D20821082005EBC403F75C012F6B
:102AD00002D0401EF8D101E0012001E0491EF2D1F0
:102AE000BDE8FE832DE9F843DDF820C0BCF1040FFA
:102AF000B4BF0026012614461D46804689460A9F1B
:102B0000624620462946FFF796FFD8B10998B042A1
:102B100018D104F108010B988A1001EB52730022BE
:102B200023F00703CC1A09EBC80305F10801FA5496
:102B30008A1001EB5272A4EBE20301EBC301012204
:102B4000425407E009EBC8030020F85405EBC40524
:102B500001227A55BDE8F1832DE9F04F8DB004468E
:102B6000169E0D469246FFF771FE00EBD07101F004
:102B7000FE01411A00270DF11C0B8DF810109DF875
:102B800010303246F9B205A8FFF7B2FE0598069953
:102B900001EBC001605C01283DD1DDE90501334650
:102BA00007AAFFF7FBFE0195DDE9070100F03AF8FF
:102BB00081460195DBE9020100F034F88046019579
:102BC000DBE9040100F02EF8B9F1000F03D1039501
:102BD000DDE9072317E0B8F1000F02D1012805D184
:102BE0000AE0B8F1010F08BF002809D050EA080038
:102BF00011D19DF8100018B90395DBE9022302E01A
:102C00000395DBE904230294CDF804A00096DDE9E6
:102C10000501FFF767FF7F1CF8B24028AFDB0DB05E
:102C2000BDE8F08F00943346524615E700000000DF
:102C3000010000000100000000000000FFFFFFFF96
:102C4000FFFFFFFFFFFFFFFF00000000010000008B
:102C50000000000001000000010000000100000071
:102C600000000000FFFFFFFFFFFFFFFFFFFFFFFF70
:102C7000002201F083BB00002DE9FC410646354DE2
:102C80003078C10750D5A8690024C10009D4A869CB
:102C900040F08050A8610124A86900F080500090A5
:102CA00000982D4F3868C10511D4386840F4807001
:102CB0003860FEF737FF80463868C10507D4FEF755
:102CC00031FFA0EB08006528F6D303203FE0E86958
:102CD00010F440701EBF716801F44071884218D032
:102CE0001E49E86901220A60002320F440700B604D
:102CF000E861C0070DD5FEF715FF0746E8698107B3
:102D000007D4FEF70FFFC01B41F289318842F5D38B
:102D1000DBE7EA69706822F440720243EA611CB1A1
:102D2000A86920F08050A8613078810705D52A680D
:102D3000B06822F4404202432A603178C80605D5C3
:102D40002968F06821F48001014329600020BDE872
:102D5000F68100000410024000700040400442422E
:102D600062F30F2262F31F42401810F0030308D0F1
:102D7000C91A1FD3DB0748BF00F8012D28BF20F870
:102D8000022D130030B414461546103928BF20E92F
:102D90003C00FAD8490728BF20E90C0048BF40F89A
:102DA000042D890028BF20F8022D48BF00F8012D0E
:102DB00030BC7047C91818BF00F8012DCB0728BFD9
:102DC00000F8012D704700000E4881B0016841F005
:102DD00001010160026802F001020092009942685C
:102DE00042F080524260406800F0805000900098AD
:102DF0000548016821F0E06141F00071016001B017
:102E0000704700BF181002400400014038B50400AC
:102E100001D1012032BD606A28B900F0EDF805D07B
:102E20000021E16102E00020206160610020A062D9
:102E300004F15005687820B9002129702046FFF779
:102E400020FA0220687000F08BF96068A168E268DF
:102E500000F4827001F404410843217C02F4006212
:102E60001043227D01F002010843A16902F0010232
:102E70001043227F01F40071084394F8201002F0FF
:102E800038021043A26A01F080010843216802F46D
:102E9000005210430860A0692168000C00F0040093
:102EA00048602068C16921F40061C1610020686048
:102EB0000121697032BD2DE9F843054605F150073F
:102EC000002638780C4691469846012808BF022013
:102ED00000F0908001203870FEF724FE79780129F7
:102EE00018BF022640F08380002C18BFB9F1000FF4
:102EF00079D00321797000237B602C63A5F834908E
:102F0000A5F836900021A963AB87E9876B64296433
:102F1000AB68B3F5004F09D129680B6823F0400373
:102F20000B6029680C6844F480440C6029680B68C5
:102F30005C0603D40B6843F040030B604446E96829
:102F4000B1F5006F696821D1002918BFB9F1010FEF
:102F500000F075F8804604E0296B0A88C26000F032
:102F60004FF8E88E002833D0286881688A07F3D4A8
:102F7000FEF7D8FDA0EB0800A04204D314F1010F26
:102F8000EFD0032631E0002CEBD1FAE7002918BF7F
:102F9000B9F1010F00F047F8804606E0296B0A7886
:102FA0000273286B411C00F02DF8E88E80B1286870
:102FB00081688A07F2D4FEF7B5FDA0EB0800A042B5
:102FC00003D314F1010FF0D0DBE7002CEDD1D8E7EB
:102FD00042462146284600F029F908B120207860B1
:102FE00000F015F808B1012601E0012078700021F9
:102FF00039703046BDE8F2836068B0F5827F704773
:10300000286B811C2963E88E411EE9867047A868F9
:1030100038B9002100912968CA6800928968009136
:10302000009A7868704709D1296B2B680A781A735F
:10303000296B4A1C2A63E98E4A1EEA86704709D129
:10304000296B2B680A88DA60296B8A1C2A63E98E4F
:103050004A1EEA8670477CB5044622685168936828
:1030600003F04100012806D1480604D5216C204612
:10307000BDE87C400847980706D50D0604D5616C6D
:103080002046BDE87C40084713F0600F58D0880602
:1030900056D55D060ED594F85100032843D0606DD7
:1030A00040F00400606500250095D668009695689C
:1030B000009500989B060ED5606D40F0010060659C
:1030C000002300939268009220680368024623F070
:1030D00040031360009B606D90B32068426822F04B
:1030E000E0024260012011F0030F84F8510022D069
:1030F00020680FF251054168890889004160E06C41
:1031000028B14563E06CFEF719FD00F023F8A06CD0
:10311000B0B14563A06CFEF711FD88B1606D40F061
:103120004000606573BD00200090D16800919268F6
:103130000092009873BD2046BDE8764001F037B993
:1031400073BD0000406A0021C1870022C28601F0E1
:103150002EB9000018B1606D40F040006065704706
:103160002068016821F04001016070472DE9F843B3
:10317000089C05460E4690461F46FEF7D3FC381ABB
:103180002418FEF7CFFC8146314801684901090D3A
:103190006143009105E0009800B900240098401EAA
:1031A0000090286881683140B1420CBF01200020A6
:1031B000404532D017F1010FF3D0FEF7B3FCA0EB7E
:1031C0000900A04201D2002CE5D12868416821F015
:1031D000E00141606868B0F5827F08D1A868B0F569
:1031E000004F18BFB0F5806F01D100F019F8A86A40
:1031F000B0F5005F09D12868016821F40051016031
:103200002868026842F40052026005F15000012172
:10321000417000220270032000E00020BDE8F2832C
:103220002868016821F04001016070471CB50092D8
:103230000B46044600228021FFF798FF08B100F0FA
:1032400001F816BD606D40F02000606503207047F6
:10325000A000002038B5040001D1012032BD00F0EB
:103260001BF808B900F01CF800F01FF800F027F870
:10327000FFE7416100F001F832BD2068C16841F408
:103280000051C16000206860202169702020A87072
:10329000002161630020704704F1400568787047A1
:1032A000002129702046FFF76CB824206870206840
:1032B000C16821F40051C160204600F00AB82068BE
:1032C000016921F4904101612068416921F02A01DE
:1032D000704710B5044622681169E06821F4405136
:1032E00001431161D3681949A0680B402169034368
:1032F00060690B430343D3605169A06921F44071B5
:103300000143516112498A4202D1FEF7DEFB01E01E
:10331000FEF7D3FB6268192148439200B0FBF2F13B
:103320006423B1FBF3F26FF0630000FB02110901AB
:103330003231B1FBF3F000F0F00101EB0211226831
:1033400000F00F004018906010BD0000F3E9FFFF8F
:103350000038014038B508B9022032BD00F52774A5
:10336000A3690BB10025A56101B161610121217043
:10337000027001F078F8002032BD0246002011B141
:10338000C2F8B41270470220704780B501F0A8F867
:10339000002002BD10B5D0F8B42202241AB1126880
:1033A000904700B90024204610BD80B5D0F8B42263
:1033B00053680AE138B5044604F52A75284601F039
:1033C000E0FA04F5257001210160428B017D426025
:1033D00011F01F0003D002280BD005D30EE02946C0
:1033E000204601F0E1F80DE02946204601F012FAEE
:1033F00008E02946204601F033FA03E001F080019D
:1034000000F040F8002032BD38B5044610460A00EE
:1034100004F5257329D1196803291ED104F5B0716B
:103420004A680D68AA420BD2AD1A0D60954238BFAA
:103430002A46014692B2204601F0FFFA002032BD32
:10344000196A086928B1187A032802D10969204647
:103450008847204601F0F9FAF0E70529EED100206F
:103460001860002100F00EF8E8E71A6A906930B1A0
:10347000187A032803D1926920469047DEE702209C
:1034800032BD8021204601F044B838B5044608001A
:10349000134604F5257543D12868022833D1226AE2
:1034A000616A914207D2521A2262194692B22046AC
:1034B00001F0B1FA11E0E269B2FBF1F001FB10207A
:1034C00090B98A4210D3686882420DD2002200214E
:1034D000204601F0A0FA00206860002300220021AD
:1034E000204601F03DF814E0296AC86828B1287A1E
:1034F000032802D1C96820468847FFF7C2FF20464B
:1035000001F0AAFA05E0042818BF002801D1FFF74E
:10351000B8FF287B012804BF00212973002032BD99
:103520002A6A506930B1287A032803D152692046AB
:103530009047F3E7022032BD38B50446402300220D
:10354000002100F0D5FF04F5AC700121402201609C
:10355000C260402300228021204600F0C9FF0120E4
:10356000402104F52572A061616210720021116092
:1035700061600025506A156128B1126A616853685C
:10358000C9B220469847002032BD01740020704720
:1035900000F5277004220178417002700020704706
:1035A00000F527700178042904BF417801700020DC
:1035B000704780B500F527710A78032A03D189691D
:1035C000C96901B18847002002BD9847002002BDAB
:1035D000F8B505460026287C40B94FF4007300F08A
:1035E0003CF80122EA624FF4007305E0402300F04A
:1035F00034F80120E862402302220121284600F02D
:1036000077FF0120C5F86C01082303228221284698
:1036100000F06EFF0120286405F52E774FF4077047
:1036200000F0A8FF3860040008BF012613D07868B6
:103630000168884704F501700022026100214161A0
:103640000268287C00280CBF4FF40073402301213E
:10365000284600F085FF3046F2BD0222812128462F
:1036600000F046BF10B50446812100F04CFF002257
:10367000E2620121204600F046FF0020C4F86C0100
:103680008221204600F03FFF0021216404F52E74C2
:10369000206838B1606841688847206800F078FF8A
:1036A00000202060002010BDF8B5044604F5277303
:1036B0000D46DE6900218DF80010ADF802100027DC
:1036C000297811F0600022D020283AD1EA88C2B1CE
:1036D000687809060AD51B6AD3F808C03146E04766
:1036E000EA883146204601F08EF92FE006F5007198
:1036F0000870E88848703146EA88204601F093F95E
:1037000024E01B6A68789C682946A0471EE0687818
:1037100020B10A2809D00B2810D012E0197803290B
:103720000FD102220DF1020104E01878032808D11C
:1037300001226946204601F066F907E0187803285F
:1037400004D02946204601F030F902273846F2BD60
:10375000F8B5044604F52E7002688568DAB10E46A5
:10376000142070432718F86980B128235E43AB19F1
:103770009B6BB0FBF3F503FB150038B90026FE6127
:1037800000230022204600F0E5FE02E00023C2F8FC
:1037900014320020F2BD0220F2BD70B500F52E7487
:1037A000256805F5017600F0E1FEB060206838B1CB
:1037B00062683068D36805F503719847002070BDD2
:1037C000022070BD10B500F52E7043680168002B13
:1037D0001EBF01F500742078FF2804D062789B6832
:1037E0009847FF202070002010BD4321018007482A
:1037F00070474321018006487047432101800548F6
:1038000070470A2101800448704700002C01002005
:10381000E800002070010020A400002002460220E1
:1038200011B1C2F8BC1200207047D0F8B80200F500
:1038300002700160826000207047D0F8B802C0F8C2
:1038400004120020704780B5D0F8B81261B1D1F8E9
:103850000422017C00290CBF4FF400734023012196
:1038600000F07EFE002002BD022002BD10F0004CE0
:1038700068B148BF4042B0FA80F18840D1F19D0163
:103880004CEAC15C010671F100414CEB102070471D
:103890004FF0FF0C1CEAD0531DBF1CEAD152634508
:1038A000624543E09B1A5FEACC7280EA010C42EA6F
:1038B00001211CEA020C42EA0020421A38BF01EB47
:1038C000420253F17E034FEA1121B2FBF1F001FBFA
:1038D000102260F3D63C4FEA0222B2FBF1F001FB6A
:1038E000102260F3CE1C4FEA0222B2FBF1F006DD9B
:1038F000FF2B29DA5CEA500040EBC3507047C3F15C
:10390000020301FB1022192B40EA4C010CF0004C81
:1039100041F0807121DC21FA03F0C3F120039940CA
:10392000114371F1004250EB0C00704763451ABF20
:103930000CEAD152624512E080EA010C00180CF04A
:10394000004C06D049181AD10CF0004C4CF0FF4046
:103950007047C94208BF6FEA020C60467047634572
:1039600006D1B2EB0C02F5D001F00041484070479F
:103970004A0212BF0846484000F0004070474AB96A
:103980000902B1FA81F2914043B19B18C00140F0A5
:10399000004092E7C90141F0004152420002B0FAF2
:1039A00080F39840D31A88E7C0F3C75181B1FF294B
:1039B00006D0C110400721F0E04101F1605170478D
:1039C00041020CBF40F4E0016FF00041002070475D
:1039D00000F0004100020AD0B0FA80FC00FA0CF0BE
:1039E00001F16051A1EB0C5101EBD0214005704772
:1039F0002DE9F84C0F465900491584B0064611F1DF
:103A0000010F1EBF7800401510F1010F42D0F80FD2
:103A10001ABF27F0004708240024D80F1CBF23F04A
:103A2000004384F00604CDE90223DDE90201002908
:103A300008D500254FF0004B281A6BEB010BCDE9A0
:103A4000000B01E0CDE900013900304605D5002525
:103A50004FF0004B281A6BEB0101DDE900AB8B4501
:103A600009DC01DB824506D21046194632463B4648
:103A700000F056F93BE0DDE9020120F0000531F0ED
:103A8000004104BF002D002133D03046394600F0FC
:103A900047F92EE078004FEA605E1EF1010F04D175
:103AA000380302D0304639462CE011F1010F04D121
:103AB000180302D01046194624E011F1010F09D174
:103AC0001D0308BF1EF1010F04D1380302D10020ED
:103AD0000B4901E000200021FE0FF400DA0F18BFAF
:103AE00084F006041EF1010F03D13A0301D184F0E2
:103AF0000204224605B0BDE8F04C00F0B5BF00005E
:103B00000000F03F05B0BDE8F08C000001F000427D
:103B10008B1AA3F16051B1F5801F0ADBB1F17F6F01
:103B20001FD242EAC102C10071F1004142EB507064
:103B300070470B15C3F10903212B10D2890241EA0A
:103B4000905180020128494141F0004121FA03F0DF
:103B5000C3F12003994071F10041504170471000BA
:103B600070476FF0000013EB103F5CBF000E42EA9D
:103B7000C050704730B540F2FF7C1CEA11541DBFA5
:103B80001CEA1355644565453FE0641981EA030C5E
:103B90006FF35F530CF0004C43F48013C90241F003
:103BA000004141EA505EC5021100A5FB0202002857
:103BB0004FF00000EEFB01204FF00001E3FB052178
:103BC00018BF42F00102401800214941E3FB0E01F9
:103BD000A4F580640D0302D292184041494154F18A
:103BE000010470DD450872F1004250F1000051EB14
:103BF0000451A1F5801102D441EA0C0130BD40F21C
:103C0000FF7E4CEA0E51002030BD0CEA135564458E
:103C100018BF654581EA030C0CF0004C41D050EA16
:103C2000410E1CBF52EA430E02E06146002030BD47
:103C300024422C441BD15FEA050EF6D0090302BFD3
:103C400001460020AEF1140EB1FA81F5AEEB050489
:103C500001FA05FE0C35C5F1200100FA05F5C84052
:103C60004EEA000E6FF35F5343F480139CE733F08A
:103C70000043B3FA83F504BFB2FA82FE75440B3DEC
:103C8000641BB5F1200E2FBF02FA0EF3AB40C5F155
:103C9000200E22FA0EFE38BF43EA0E03AA40641C2F
:103CA0007CE750EA410E14BF52EA430E6FF0000168
:103CB0004FF4001515EB430F8EBF194615EB410F5E
:103CC0009DE7B4D830BDD4F10104B4F120050FDA7A
:103CD000C4F12005520828BF42F0010210FA05FE87
:103CE00001FA05F57244E2BFE0402843E1400FE0ED
:103CF000352C9ADCC5F1200452EA400220FA05F284
:103D000018BF42F0010231FA05F0A1400A43002138
:103D100072F1004250F1000051EB0C0130BD000087
:103D2000F0B540F2FF7581EA030C0CF0004C15EA87
:103D300011541DBF15EA1357AC42AF42E5E0BC4138
:103D4000C1F31301C3F31303801A994143F48013A1
:103D500004D2641E0018494180185941C90241EA41
:103D60005051B1FBF3F603FB1611A2FB0675D7EB1E
:103D7000C020A94102D2761E80185941C90241EAE9
:103D80005051B1FBF3FE03FB1E11A2FB0E75D7EBE6
:103D9000C020A94103D2AEF1010E80185941890219
:103DA00041EA9051760546EA8E2EB1FBF3F603FB0D
:103DB0001611A2FB0675D7EB8020A94102D2761E10
:103DC00080185941C90241EA50514EEA060EB1FB32
:103DD000F3F603FB1611A2FB0675D7EBC020A94131
:103DE00002D2761E80185941C90241EA5051B1FBF6
:103DF000F3F703FB1711A2FB0735D3EBC020A94152
:103E000067F100070CBF004247F0010766F3D527B2
:103E10004FEA1E31B80814F5806412DDBD0775F154
:103E2000004250EB0E5051EB045111F5801F5CBF66
:103E300041EA0C01F0BD4CF07F6141F0E04100200F
:103E4000F0BDBD076D0840EA0E5041F48011D4F179
:103E50000104B4F120060ADAC4F120060200E040B1
:103E600001FA06F3E1401843B24015430EE0342C4A
:103E700013DCC6F1200445EA40056D0820FA06F27D
:103E8000154321FA06F0A1400D43002175F10042CF
:103E900050F1000051EB0C01F0BD00205FEA0C0175
:103EA000F0BDCFB992185B41B3FA83F704BFB2FA01
:103EB00082F6BF190B3FB7F120062FBF02FA06F3B7
:103EC000BB40C7F1200622FA06F638BF3343BA409A
:103ED0001CB1E419641E33E77F4231F00041B1FAAE
:103EE00081F404BFB0FA80F6A4190B3CB4F12006AB
:103EF0002FBF00FA06F1A140C4F1200620FA06F611
:103F000038BF3143A0403C1B1AE7AC421ABF05EA58
:103F10001357AF4212E050EA41061CBF52EA430673
:103F2000BFE750EA4107304661461CBF41EA0551F0
:103F3000F0BD52EA430C08BFC143F0BD00204FF46E
:103F4000001616EB410F98BF16EB430F08BF16EB98
:103F5000410F24BFC14305E016EB430F0CBF614680
:103F60004CEA0551F0BD000070B491EA030F4FF028
:103F7000004540F1B7806B40841A71EB030604D210
:103F80006E40001BB141121973414FF4001C1CEB31
:103F9000410F34BF7CEB430683E00C0DA4EB1356BA
:103FA000362E00F37C80012E45EAC32341DC43EA30
:103FB000525312BFD20292025B08240545EAC12186
:103FC00041EA5051D2EBC020994125D407D1B0FA33
:103FD00080F610FA06F162D00020203608E0B1FA2F
:103FE00081F6B140C6F1200220FA02F21143B0403E
:103FF0004FEAF474B4EB465434F001064FEA74040B
:104000000AD8D6F50016760D04F00044F04061FAA7
:1040100006F25040F1404840C00A40EA415021F0C9
:10402000004128BF5FEA500550F1000044EBD12168
:1040300035E0DB0A45EAC121C90AB6F120050EDDEB
:1040400042EA0242120CC5F1200603FA06F6EB40E2
:1040500042EA06056D42984161F100010DE062FA05
:1040600006F5F240554063FA06FC82EA0C02F34082
:104070005A406D42904161EB030111F4801F05D15C
:10408000641E620502D06D004041494121F4801157
:10409000430875F1004350F1000041EB045170BC3E
:1040A00070471CEB410F15D223F0004352EA430640
:1040B0000BD04FEA4C0CBCEB410F04D80C0D661E24
:1040C000342EB7DDEBE7801A994150EA410608BF6C
:1040D0000021E4E708BF1CEB430F28BF6FF000018D
:1040E000DDE70000841A71EB030603D2001BB14127
:1040F000121973414FF4001C1CEB410F34BF7CEBD1
:10410000430442E00C0DA4EB1356352E4FDC45EA78
:10411000C323DB0A45EAC121C912B6F120050DDD32
:1041200063FA05F6EB4086EA0305124218BF45F034
:104130000105C01851F100010CD213E062FA06F536
:10414000F2405540F3415A40B340F3405A40801882
:10415000594107D349085FEA30005FEA350528BFB7
:1041600045F0010501F58011420875F1004250F15A
:10417000000041EB04514E0016F5001F70BC38BF23
:1041800070470020090D090570471CEB410F10D244
:1041900052EA43060BD0BCEB410F05D80C0DAB43E4
:1041A000661E342EB6DD02E0AB438018594170BC68
:1041B000704770BC7047000090EA010F40F17280B8
:1041C00081F00041431A4FF000423EBF5340C01AF5
:1041D000C918D3095FEAD05C13EB400F34BFB3EBCF
:1041E000410F40E07CEBD1530CD342EA012122D8AD
:1041F000D1EB402009D3400A28BF5FEA500140EBD1
:10420000CC507047401A15D04002B0FA80F2521CD0
:104210009040400A4FEA3C23B3EB026384BF00EBBB
:10422000730007E040F400001A16DB07C2F1010238
:10423000D04018437047182BFCDC31FA03F202FA25
:1042400003F3591A38BF42F00102D2EB40203CBFC1
:104250000018ACF1010C5FEACC5CC20572F10041C0
:104260004CEB5020704713EB400F0FD2C94209D0DE
:10427000ACEBD153022B03DB4902172BDDDD70477A
:104280009143401AC042D5D10020704713EB410F33
:10429000D0D36FF00000704790EA010F7FF592AF26
:1042A00081F00041421A3CBF801A8918C0F3C752FE
:1042B000FF2A4FF0004C22D0C1F3C7534BB3D21AA0
:1042C000D2F119032EDD4CEA01214CFA03F321EA65
:1042D0000303D1404CEA00226FF3160052180FD3AB
:1042E00053EAC2534CEA520273EB0C0C50EB12200F
:1042F000420012F1807F38BF70476FF3160070479D
:1043000053EA026322EA0C0273EB0C0C50EB12200E
:104310007047490212BF9A4200EB5120EFE7D2F1F9
:104320001703D2D57047000040EA010C1CEB0C0FBC
:104330004FF0807C07D305D01CEB400F9CBF1CEBDB
:10434000410F884270471CEB400F98BF8142704775
:1043500000B5020000211120ABBE0021002A00D0D0
:1043600003C200BD4AB1000011F8013B521E00F823
:10437000013B1CBF11F8013BF8E7704700B500BFD7
:10438000130096469446103928BFA0E80C50FAD87E
:104390005FEA417C28BF0CC048BF40F8042BC90726
:1043A00028BF20F8022B48BF00F8012B00BD704742
:1043B00000687249884200D0704780B57048026832
:1043C00042F4000202600022006800F40000009045
:1043D000002100981420FDF749FEBDE8024014209A
:1043E000FDF761BE00F52C71D0F8EC02FEF7E2BFDC
:1043F0000B4628225343C218D0F8EC02D2F87C2195
:10440000FFF702B80B4628225343C218D0F8EC023B
:10441000D26BFFF73AB8D0F8EC02FFF7CAB810B584
:104420000446A068022818BFFDF70EFDD4F8EC0280
:104430000121FFF7AAF8D4F8EC02BDE81040FFF71D
:104440007BB810B50446D4F8EC02FFF7A1F8A069D8
:1044500020B14C48016841F00601016010BDD0F860
:10446000EC02FFF79DB810B5044647484349C0F831
:10447000EC42C4F8C002016008220223002142601D
:1044800083608161C161016200F0EEFB08B1FDF75C
:10449000DBFCD4F8C00218230022002101F031F91E
:1044A000D4F8C00258230022802101F02AF9D4F860
:1044B000C002C0230022812101F023F9D4F8C002F8
:1044C0004FF488730022012101F01BF9D4F8C002D7
:1044D0004FF480730022822101F013F9002010BDF7
:1044E00080B5D0F8C00200F020FCBDE8024051E0E9
:1044F00010B51C461346D0F8C002224601F031F830
:10450000BDE8104046E080B5D0F8C00201F051F897
:10451000EBE780B5D0F8C00201F092F8E5E780B58E
:10452000D0F8C00201F0BFF8DFE7D0F8C02201F0F8
:104530007F0328204343D018090602D590F82A00AB
:10454000704790F86A01704780B5D0F8C00200F05B
:10455000FAFFCAE780B5D0F8C00201F058F8C4E706
:1045600080B5D0F8C00201F038F8BEE7D0F8C0023C
:1045700001F045B80548704700000000005C0040AD
:104580001C10024010ED00E01C0A0020D00F00209B
:10459000704770470146002021B1022901D1012056
:1045A00070470220704700002DE9FC410E46054689
:1045B000307810F0600005F5277708D0202818BF64
:1045C000402824D1BA69936828469847ACE07178AE
:1045D00009291CD8DFE811F0FD00120188000C0148
:1045E00088008D000A008800E800AB000022ADF8CA
:1045F00000207088010A012970D0022961D00329A6
:104600002CD0062922D0072904BF287C00286BD192
:10461000B9690A6B6846904707214170BDF80010E0
:1046200081B1F188002910D0BDF80010F2889142C4
:1046300088BF1146ADF800100146BDF8002028469D
:1046400000F0E1F9F08800286ED19FE0287C002876
:104650004AD1B9694A6B68469047DFE7C0B205287E
:1046600042D8DFE800F0272019120B03786982692D
:10467000002A39D0287C69469047CFE7786942699B
:1046800092B3287C69469047C8E7786902695AB3B3
:10469000287C69469047C1E77869C26822B3287CC4
:1046A00069469047BAE778698268EAB1287C69462A
:1046B0009047B3E778694268B2B1287C6946904771
:1046C000ACE7287CB9690028684604D1896A884724
:1046D00002224270A2E7C96A8847F9E77A69287C12
:1046E00013686946984799E73146284600F05DF916
:1046F0001AE0B088002804BFF0880028F4D174883C
:10470000802CF1D23878032804F07F04ECD0BC7000
:1047100021462846FFF718FF284600F096F9002C9E
:104720000CBF0120022038700020BDE8F681DFF8C0
:10473000E080708888F8000098F80040214602293F
:10474000D2DA3878022818D0032823D134B90220CD
:10475000387069602846FEF728FE17E069688C42C9
:1047600014D0C9B22846FEF720FE6C6021462846C8
:10477000FEF710FE022809D1B6E73CB16C600320B9
:1047800038702846FEF706FE0228ADD0284600F015
:104790005CF9C9E73146284600F007F998F800109F
:1047A0002846FEF702FEBFE7F08801289CD1397841
:1047B000491E012907D9891E96D10122291D2846A3
:1047C00000F021F9B0E70020A860012205F10801FE
:1047D000F5E73878401E022886D8F288022A83D16D
:1047E000B868012100B10321E96005F10C01E6E799
:1047F0007088012898D10121B960C7E73878401E38
:104800000228ECD87288012A8ED10020B860BDE75A
:10481000C015002038B50D460446287810F0600019
:104820001CBF2028402816D104F527721078401E9E
:10483000022810D82B79022B0DDA92699368204652
:1048400098470146E888002808BF002906D120467D
:1048500000F0FBF802E0204600F0A7F8002032BD8F
:10486000F8B50A780446087912F0600504F5277354
:1048700008D0202D18BF402D66D19A699368204634
:10488000984764E002F06002202A05D19A69936893
:104890002046BDE8F44018474A7882B3012A11D077
:1048A000032A51D11B78022B12D0032B4CD14A88FA
:1048B0000ABB002818BF80281DD0C988D9B900F0CC
:1048C0005CF818E01A78022A02D0032A0AD03BE0EA
:1048D000002818BF802837D000F04FF8802100F062
:1048E0004DF834E04A8892BB10F07F0103D00146B6
:1048F0002046FFF714FE204600F0A7F827E0142614
:1049000000F07F021B787243A718022B07F5AA75E7
:1049100000F0800202D0032B0FD015E0002818BF52
:10492000802811D10AB107F1140500202860022265
:104930002946204600F067F809E000F00F035E43C7
:10494000A31932B19A696AB9204600F02EF8002006
:10495000F2BDD3F85821002AF6D0002818BF8028CD
:1049600003D1E2E707F11405F7E701462046FFF718
:10497000DCFD0028DAD00120D8E701462046FFF709
:10498000C8BD0A7802704B7843708A78CB7802EB06
:10499000032242804B790A7902EB032282808A79D2
:1049A000C97902EB0122C280704710B5044680210C
:1049B000FFF7AFFD2046BDE810400021FFF7A9BD7D
:1049C00000280B4600D1704770B50146002400E076
:1049D000641C11F8015B002DFAD12406E40DA41C1F
:1049E00014801178197003225A70022207E010F81F
:1049F000011BD4B2521C1955D6B2521C9D550178D8
:104A00000029F4D170BD80B513460222C0F894226B
:104A1000C361036201E080B513460A460021FFF737
:104A200099FD002002BD80B513460322C0F89422F0
:104A300000F5AE721360536001E080B513460A467C
:104A40000021FFF78DFD002002BD80B50421C0F8D4
:104A5000941200230022E1E780B50521C0F89412EA
:104A600000230022ECE700002DE9F04D5FEA010889
:104A7000044605D500264FF00047301A67EB0101C8
:104A80000026624F04D54FF00043B61B63EB0707C7
:104A90001546B94208BFB04203D15D4CDFF87481BE
:104AA00096E05D4B5D4A002B04D54FF00047B21AEB
:104AB00067EB03038B4220DC01DB82421DD2584EA0
:104AC000584F32463B4620464146FFF753F80022F6
:104AD000554BFFF749FA82468B4632463B46204605
:104AE0004146FFF741FA02460B4650465946FFF74A
:104AF00017F90446884645F0010500225FF0795316
:104B000028F00041204608D54FF00047921A77EB75
:104B1000030302D5101A67EB01018B4258DC01DB5D
:104B2000824255D22246434620464146FFF722F8AC
:104B300006460F4632463B4620464146FFF71AF8E6
:104B400082468B4639483A4932463B46FFF712F8CF
:104B5000384A394BFFF708FA32463B46FFF70AF866
:104B6000364A374BFFF700FA52465B46FFF702F82A
:104B700022464346FFF7F8F9044688463148324951
:104B800032463B46FEF7F6FF304A314BFFF7ECF971
:104B900032463B46FEF7EEFF2E4A2F4BFFF7E4F975
:104BA00032463B46FEF7E6FF2C4A2D4BFFF7DCF979
:104BB00032463B46FEF7DEFF0022144BFFF7D4F9E6
:104BC00002460B4620464146FFF7AAF804468846AF
:104BD000A80748BF88F0004815F007000CD021490D
:104BE0007944803101EBC0024346D2E900012246FC
:104BF000FFF7BAF904468846280747BF88F0004106
:104C0000204620464146BDE8F08D00BF0000F03F41
:104C1000182D4454FB21E93F1426D13F56CD9E5E0A
:104C2000AA4C58E87AB6FB3F0000F0BF845D5713EA
:104C30004B57B03FB2934C19ED5EE43FBEDE02B974
:104C40000240F83FDE39028FC7C0743F8AAB12833F
:104C5000000CC83F24D7E508B6D8F03F0F34580EF3
:104C60005895FD3FDC25000078B5040085B044D0A0
:104C700004F52A75687820B9002129702046FFF7CD
:104C800097FB03206870206800F060FD83B000F09F
:104C900047F80EBC206800F04FFD00282BD120689B
:104CA000002100F059FD00212820002609E000FB2A
:104CB00001F222442832012353701170002300F0C6
:104CC00028F862689142F2D3002109E000FB01F26A
:104CD000224402F5B47200231170537000F019F8E9
:104CE00062689142F2D383B000F01AF80EBC2068DB
:104CF00000F034FD18B102206870012007E084F84C
:104D0000240001216970206801F0C4F9002006B078
:104D100070BD491CD670136156619361C9B270476A
:104D2000211D68462022FFF71DBB10B500F006FCD0
:104D300001D1022010BD00F0FDFB206800F0FEFC58
:104D400000F0EEBB00212046FFF723BC2DE9F84F11
:104D5000054686B0286801F09FF901041BD442057E
:104D600040F1A08200F061FB4FF6FF308A880240DC
:104D70008A802846FFF753FB0021284600F0E3FB1A
:104D80001BE3012803D100F031FB002008803978B3
:104D90002846FFF737FB2F6807F144010888020413
:104DA000EED50A8812F00F00009048F280084BF60A
:104DB0008F7B40F68F7448F60F7640F0AC80D006BB
:104DC0002CD429680A881640084646F40046068016
:104DD00005F124042868B0F85010227901EBC201D3
:104DE00000EB410000F204400088A169C0F3090013
:104DF00020620844A06100212846FFF703FB2078C9
:104E00000028C8D0E0690028C5D12178286841F081
:104E10008001A0F84C1000212170BCE728680088B0
:104E2000020505F5B4761BD58889317800EBC10001
:104E300007EB400202F20C4205F52C711388C3F314
:104E40000903F3613846F28801F042F928680188C5
:104E50000C4044F0800404802846FFF7C3FA9AE728
:104E6000000498D529680A881440084644F0800454
:104E700004802868B0F85010327800F0B0FA1B882F
:104E8000C3F30903002BF3611CBF716900290AD029
:104E9000F28801F01DF97069F169014471612846D9
:104EA0000021FFF7A5FA286800880105D7D400F48F
:104EB0004050B0F5405FD2D029680846B0F8502085
:104EC000511801F20C410888C0F3090008803069CC
:104ED0003F2808D3420910F01F0F08BF521E088850
:104EE00040EA822001E018B9088840F4004006E05A
:104EF0004208C00748BF521C088840EA8220088048
:104F0000286801880BEA010181F4405148EA010850
:104F1000A0F800803FE72868009930F82190084603
:104F20002821484329185FEA0940019148F68F7A01
:104F300040F19D802968009831F8201028680C40C5
:104F4000009944F0800420F82140019A02F5B477DA
:104F5000387B70B92868B0F850103A7800F03FFA02
:104F60001C88C4F30904002C6DD0FA8879692346A3
:104F700067E0F878022848F2C0022FD12C68B9699E
:104F80005FEA49433B78A446B4F8504004EBC304BD
:104F900009F040000CEB440C11D50CF2044C00F06D
:104FA00018FA2CBF091B0021B96109B900F031FAC8
:104FB00008B100F024FA002C45D03A893EE00CF20A
:104FC0000C4C00F006FA2CBF091B0021B96109B98D
:104FD00000F01FFA78BB00F012FA2CE0296838784C
:104FE00031F820300AEA03030C461A4324F8202043
:104FF00038782968024631F8223059040FD52A68DA
:10500000B2F8501001EBC00102EB410000F2044085
:105010000488C4F30904002C15D03A890EE02968ED
:10502000B1F8502002EBC00201EB420000F20C404C
:105030000488C4F30904002C05D07A8923467969D1
:10504000286801F045F8F8692018F8617A69224467
:105050007A61B86938B13869844204D3286839461E
:1050600000F055FD03E039782846FFF7C1F95FEA03
:1050700009605ED50199286801F12807009930F888
:105080002120164046F4004620F82160F8780128D7
:105090002BD10021B961387B00280ED05FEA49602E
:1050A00013D5787850B900F0CEF90188C1F3090121
:1050B0000180028842F40042028068E60128FCD1A7
:1050C00000F0C1F90021018061E678782A680028A3
:1050D0007FF457AE00F08AF90888C0F30900088011
:1050E0000A8842F400420A8051E62A68B8695FEAF9
:1050F000C95113461ED43978B2F8502002EBC102D0
:1051000003EB420303F204431A88C2F3090282420A
:1051100034BF801A00200028B8613FF439AE7869A6
:1051200010447861F9695218FA613946286800F02C
:10513000EEFC30E697F800C0B2F850205FEA496113
:1051400002EBCC0209F480444CF2800603EB4203EC
:1051500046D503F204431B88C3F30903834234BFDB
:10516000C01A00200028B86104D100F096F9002C84
:1051700050D045E00CB100F070F997F824000128F8
:105180003DD100F075F9787808BB00F052F93F2B5B
:105190000288C2F3090202800AD35A0913F01F0FD2
:1051A00008BF521E048844EA822444F400440CE000
:1051B00023B9028842F4004202800DE05A08DC075D
:1051C00048BF521C048844EA8224048004E0012879
:1051D00002D100F02EF9038079619BB23A8950E048
:1051E00003F20C431B88C3F3090398422CBFC01A77
:1051F00000200028B8610ED100F04FF9002C43D1F7
:105200002968387831F820200AEA020246EA020AC0
:1052100021F820A038E00CB900F01FF997F824001D
:10522000012831D100F024F92C68787808BB00F00F
:10523000C7F83F2B1088C0F3090010800AD3580923
:1052400013F01F0F08BF401E148844EA802444F462
:1052500000440CE023B9108840F4004010800DE0B9
:105260005808DC0748BF401C148844EA8024148096
:1052700004E0012802D100F0A3F8138079619BB209
:105280007A89286800F012FF2968387831F82020E0
:1052900048F6BF731A4082F0300248EA020821F84B
:1052A000208078E5410404D500F0BFF84BF6FF708C
:1052B00080E0810404D500F0B8F84DF6FF7079E085
:1052C000C1041BD52A6802F140014FF6FB700B8820
:1052D00003400B804FF6F7702968B1F84020024078
:1052E000A1F840202846FFF7BAF82968B1F8442011
:1052F0004EF6FF700240A1F844205EE0010546D55D
:10530000002002A92A6832F8203021F81030401C11
:105310000828F7D3286830F8402F42F001020280B5
:105320004FF6FE702A68B2F840300340A2F84030D1
:105330002A68B2F844004305FBD5B2F844404FF662
:10534000FF300440A2F8444000202B6831F81020C0
:1053500023F82020401C0828F7D32868B0F8401014
:1053600041F00801A0F840104FF2FF702968B1F831
:1053700044200240A1F844202868B0F8401041F0D1
:105380000401A0F840102846FFF75BF815E08105FE
:105390000AD500F04AF84FF6FF508A8802408A800A
:1053A0002846FFF738F808E0C00506D529684031DF
:1053B0004FF6FF608A8802408A8007B0BDE8F08F10
:1053C000B4F8500002193C7802EB041202F20C42CD
:1053D0007047BCF80040C4F30904A142704701EBD8
:1053E000C20100EB410303F20C437047B2F85000D6
:1053F00081183A7801EB021101F20C4170472968DB
:10540000387831F820300AEA03031A4321F82020C3
:105410007047296831F823C00BEA0C0B8BF4005B52
:1054200048EA0B0B21F823B07047286800F14001CF
:1054300070472868B0F850203C78101800EB041032
:1054400000F2044070472868B0F850103A78081805
:1054500000EB021000F204407047286830F82C106E
:105460000AEA0101024646EA010A22F82CA0704726
:10547000FA6978699A18FA61C1183A69386A9042EB
:1054800003D31346C01A3862704710B10346002098
:105490003862002287F824207047787880B928681D
:1054A000B0F85020101800EB0C1000F204400188F6
:1054B000C1F309010180028842F4004202800BE03E
:1054C000012829D12868B0F85020101800EB0C10E2
:1054D00000F20440002101802A68787880B9B2F88F
:1054E000500081183A7801EB021101F20C41088852
:1054F000C0F3090008800A8842F400420A800BE0E9
:10550000012809D1B2F8500081183A7801EB021154
:1055100001F20C410020088028463978FEF772BF5E
:105520000121FFF710FC206800F0B2FD002084F894
:10553000A80210BD012084F8A8027047044694F820
:10554000A8020128704710B5FFF7F8FF01D102202B
:1055500010BDFFF7EFFF84F82410206800F092FDE3
:10556000E4E770B5044601F00705282045436019BB
:105570000D0603D528300126467003E000F5B4700F
:105580000025457001F0070101700261C370022B14
:1055900004BF0021017194F8A812012901D1022051
:1055A00070BD00F014F800F0E7F8002084F8A802BD
:1055B00070BD10B5044600F094F800F08BF801D1EE
:1055C000022010BD00F003F800F019FAAEE7012246
:1055D00084F8A82201462068704738B50C4604F0CC
:1055E000070528214D43411901F5B47104F0070462
:1055F0004A618B610022CA614A700C701BE001F0A5
:105600000701282251430844D0F88401704738B577
:1056100001F0070528246543441928346261A36119
:1056200023620122002301F0070184F82420E361B2
:10563000627021702146006800F069FA002032BDD6
:1056400038B505460C46696804F00700814201D26E
:10565000012032BD2821220605D54843284400F107
:105660002801012004E06143681800F5B4710020AE
:10567000487001228A7004F007040C7095F8A802A3
:10568000012801D1022032BD85F8A822286800F047
:10569000A3FC24B9286805F52C7100F000FD00205A
:1056A00085F8A80232BD10B5044601F00F0360680A
:1056B000984201D2012010BD00F013F8002383703E
:1056C00000F008F801D1022010BDFFF780FF00F0C4
:1056D0009CFC2BE701F00701017094F8A812012946
:1056E000704701F0070228204243A0180A0603D59C
:1056F000283001234370704700F5B47000224270D7
:10570000704730B528240D0605D501F00701614327
:105710000844283003E06143084400F5B4701AB926
:1057200000210173C38004E0038101211B0C01737C
:105730004381002030BD00000EB419E0403000214C
:1057400081804FF43F42028000207047B0F8402033
:1057500044F2FF0100F0A5BC002070470EB4012107
:1057600020F8401F00220280002383800021018254
:10577000002003B0704700002DE9F04F0B460246B1
:105780001D7832F82560DC7848F68F1100200E4035
:10579000032C0CD8DFE804F002080C0546F4007670
:1057A00006E046F4C06603E046F4806600E00120AF
:1057B00048F28004264322F8256048F68F7619784F
:1057C0000D4632F8257037403943214322F8251021
:1057D0004BF68F75197B93F8009000294CF28007E7
:1057E00048F6BF7E48F2C0087CD1D9884FF6FE7AD1
:1057F0000AEA010B59780029B2F850101FD0114461
:1058000001EB091101F58069A9F800B0197832F8A7
:1058100021506D0606D532F821502E4048EA060682
:1058200022F821601978DB78012B32F821300EEA5A
:1058300003030EBF1C4383F020031C43DBE08918E5
:1058400001EB091101F58169A9F800B0B2F8501017
:1058500001EB020C19780CEB011C0CF20C4CBCF89F
:1058600000E0CEF3090EACF800E019693F290BD334
:105870004FEA511E11F01F0F08BFAEF1010EBCF828
:10588000001041EA8E2102E021B9BCF8001041F479
:10589000004109E04FEA510EC90748BF0EF1010E61
:1058A000BCF8001041EA8E21ACF80010197832F8EB
:1058B00021C05FEA4C4C06D532F821C006EA0C063E
:1058C0003E4322F82160197831B911880D4085F4E2
:1058D00040552C43148090E032F821301D4085F46F
:1058E000005587E0D978022909D132F829103140D2
:1058F00041F4014141F0800122F8291009E032F819
:1059000029A048F68F6101EA0A0144EA010A22F857
:1059100029A0B2F850901978B3F808A0914409EB87
:10592000011101F580694FF6FE7101EA0A0AA9F832
:1059300000A0B2F8501093F80090114401EB091147
:1059400001F5816C59894FF6FE7909EA0101ACF83D
:105950000010597893F800C0002932F82C1023D198
:10596000490405D532F82C1031400F4322F82C7031
:10597000197832F821707F0606D532F821703E4042
:1059800048EA060622F82160197832F8216035408D
:1059900085F44055254322F82150197832F82130FA
:1059A0000EEA03031C4326E0490405D532F82C1007
:1059B00031400F4322F82C70197832F821707F069D
:1059C00006D532F821703E4048EA060622F82160EA
:1059D000DE781978012E32F821600EEA060618BF2B
:1059E00086F0200644EA060E22F821E0197832F803
:1059F00021301D402C4322F82140BDE8F08F2DE9D5
:105A0000F041024691F800C048780B7B4BF68F7E40
:105A10004CF2800448F2800848F6BF7548F2C00690
:105A200048F68F77ABB9002832F82C0008D0400632
:105A300036D532F82C0007403E4322F82C602FE088
:105A4000400458D532F82C0007403C4322F82C4043
:105A500051E0002832F82C002BD1400405D532F853
:105A60002C003840044322F82C40087832F82030CB
:105A70005B0605D532F820303B40334322F8203016
:105A8000087832F820301F403E4322F82060087822
:105A900032F820300EEA030348EA030E22F820E031
:105AA000087832F820100D4048EA050822F82080D6
:105AB0002AE0400405D532F82C003840204322F873
:105AC0002C00087832F820305B0605D532F82030FB
:105AD0003B401E4322F82060087832F820301F40F7
