:020000040800F2
:10000000F0380020E9C50008B9C30008BBC30008E8
:10001000BDC30008BFC30008C1C300080000000042
:10002000000000000000000000000000C3C3000842
:10003000C5C3000800000000C7C30008C9C300080A
:1000400001C6000805C6000809C600080DC600085C
:1000500011C6000815C6000819C600081DC600080C
:1000600021C6000825C6000829C600082DC60008BC
:1000700031C6000835C6000839C600083DC600086C
:1000800041C6000845C6000849C600084DC600081C
:10009000CDC3000851C6000855C6000859C600085F
:1000A0005DC6000861C6000865C6000869C600088C
:1000B0006DC6000871C6000875C60008D3C30008E5
:1000C00079C600087DC6000881C60008D9C30008AB
:1000D000DFC30008E5C3000885C6000889C600081C
:1000E0008DC6000891C6000895C6000807000000EC
:1000F00000000000070000000100000007000000F1
:1001000002000000070000000300000007000000DC
:1001100004000000070000000500000007000000C8
:1001200006000000070000000700000006000000B5
:1001300000000000060000000100000006000000B2
:10014000020000000600000003000000060000009E
:10015000040000000600000005000000060000008A
:100160000600000006000000070000000500000077
:100170000000000005000000010000000500000074
:100180000200000005000000030000000500000060
:10019000040000000500000005000000050000004C
:1001A0000600000005000000070000000400000039
:1001B0000000000004000000010000000400000036
:1001C0000200000004000000030000000400000022
:1001D000040000000400000005000000040000000E
:1001E00006000000040000000700000003000000FB
:1001F00000000000030000000100000003000000F8
:1002000002000000030000000300000003000000E3
:1002100004000000030000000500000003000000CF
:1002200006000000030000000700000002000000BC
:1002300000000000020000000100000002000000B9
:1002400002000000020000000300000002000000A5
:100250000400000002000000050000000200000091
:10026000060000000200000007000000010000007E
:10027000000000000100000001000000010000007B
:100280000200000001000000030000000100000067
:100290000400000001000000050000000100000053
:1002A0000600000001000000070000000000000040
:1002B000000000000000000001000000000000003D
:1002C0000200000000000000030000000000000029
:1002D0000400000000000000050000000000000015
:1002E00006000000000000000700000007000000FA
:1002F00007000000060000000700000007000000E3
:1003000006000000060000000600000005000000D6
:1003100007000000070000000500000005000000C5
:1003200006000000060000000500000004000000B8
:1003300007000000070000000400000005000000A6
:100340000500000004000000060000000600000098
:100350000400000003000000070000000700000088
:10036000030000000400000005000000050000007C
:10037000040000000300000006000000060000006A
:10038000030000000200000007000000070000005A
:100390000200000004000000040000000300000050
:1003A000050000000500000003000000020000003E
:1003B000060000000600000002000000010000002E
:1003C000070000000700000001000000030000001B
:1003D0000400000004000000030000000200000010
:1003E0000500000005000000020000000100000000
:1003F00006000000060000000100000000000000F0
:1004000007000000070000000000000003000000DB
:1004100003000000020000000400000004000000CF
:1004200002000000010000000500000005000000BF
:1004300001000000000000000600000006000000AF
:1004400000000000020000000300000003000000A4
:100450000200000001000000040000000400000091
:100460000100000000000000050000000500000081
:100470000000000002000000020000000100000077
:100480000300000003000000010000000000000065
:100490000400000004000000000000000100000053
:1004A0000200000002000000010000000000000047
:1004B0000300000003000000000000000100000035
:1004C0000100000000000000020000000200000027
:1004D000000000000000000001000000010000001A
:1004E0000000000000000000000000000700000005
:1004F00007000000060000000700000007000000E1
:1005000006000000050000000700000006000000D3
:1005100006000000070000000500000004000000C5
:1005200007000000050000000600000006000000B3
:1005300005000000070000000400000003000000A8
:100540000700000004000000060000000500000095
:100550000500000006000000040000000700000085
:10056000030000000200000007000000030000007C
:100570000600000004000000050000000500000067
:100580000400000006000000030000000700000057
:10059000020000000100000007000000020000004F
:1005A0000600000003000000050000000400000039
:1005B0000400000005000000030000000600000029
:1005C0000200000007000000010000000000000021
:1005D000070000000100000006000000020000000B
:1005E00005000000030000000400000004000000FB
:1005F00003000000050000000200000006000000EB
:1006000001000000070000000000000000000000E2
:1006100006000000010000000500000002000000CC
:1006200004000000030000000300000004000000BC
:1006300002000000050000000100000006000000AC
:1006400000000000000000000500000001000000A4
:10065000040000000200000003000000030000008E
:10066000020000000400000001000000050000007E
:100670000000000000000000040000000100000075
:100680000300000002000000020000000300000060
:100690000100000004000000000000000000000055
:1006A0000300000001000000020000000200000042
:1006B0000100000003000000000000000000000036
:1006C0000200000001000000010000000200000024
:1006D0000000000000000000010000000100000018
:1006E000000000000000000000000000000000000A
:1006F00007000000010000000700000002000000E9
:1007000007000000030000000700000004000000D4
:1007100007000000050000000700000006000000C0
:1007200007000000070000000700000000000000B4
:1007300006000000010000000600000002000000AA
:100740000600000003000000060000000400000096
:100750000600000005000000060000000600000082
:100760000600000007000000060000000000000076
:10077000050000000100000005000000020000006C
:100780000500000003000000050000000400000058
:100790000500000005000000050000000600000044
:1007A0000500000007000000050000000000000038
:1007B000040000000100000004000000020000002E
:1007C000040000000300000004000000040000001A
:1007D0000400000005000000040000000600000006
:1007E00004000000070000000400000000000000FA
:1007F00003000000010000000300000002000000F0
:1008000003000000030000000300000004000000DB
:1008100003000000050000000300000006000000C7
:1008200003000000070000000300000000000000BB
:1008300002000000010000000200000002000000B1
:10084000020000000300000002000000040000009D
:100850000200000005000000020000000600000089
:10086000020000000700000002000000000000007D
:100870000100000001000000010000000200000073
:10088000010000000300000001000000040000005F
:10089000010000000500000001000000060000004B
:1008A000010000000700000001000000000000003F
:1008B0000000000001000000000000000200000035
:1008C0000000000003000000000000000400000021
:1008D000000000000500000000000000060000000D
:1008E0000000000007000000000000000000000001
:1008F00007000000010000000700000000000000E9
:1009000006000000010000000600000002000000D8
:1009100007000000000000000500000002000000C9
:1009200006000000010000000500000003000000B8
:1009300007000000000000000400000002000000AA
:100940000500000003000000060000000100000098
:100950000400000004000000070000000000000088
:10096000030000000300000005000000020000007A
:100970000400000004000000060000000100000068
:100980000300000005000000070000000000000058
:10099000020000000300000004000000040000004A
:1009A0000500000002000000030000000500000038
:1009B0000600000001000000020000000600000028
:1009C000070000000000000001000000040000001B
:1009D0000400000003000000030000000600000007
:1009E00006000000050000000500000002000000F5
:1009F00002000000010000000100000007000000EC
:100A000007000000000000000000000004000000DB
:100A100003000000050000000400000003000000C7
:100A200002000000060000000500000002000000B7
:100A300001000000070000000600000001000000A7
:100A4000000000000500000003000000040000009A
:100A50000200000006000000040000000300000087
:100A60000100000007000000050000000200000077
:100A70000000000005000000020000000600000069
:100A80000300000004000000010000000700000057
:100A90000400000003000000000000000600000049
:100AA0000200000005000000010000000700000037
:100AB0000300000004000000000000000600000029
:100AC0000100000007000000020000000500000017
:100AD0000000000007000000010000000600000008
:100AE00000000000070000000000000000000000FF
:100AF00007000000010000000700000000000000E7
:100B000006000000020000000700000001000000D5
:100B100006000000000000000500000003000000C7
:100B200007000000020000000600000001000000B5
:100B300005000000000000000400000004000000A8
:100B40000700000003000000060000000200000093
:100B5000050000000100000004000000000000008B
:100B60000300000005000000070000000400000072
:100B70000600000003000000050000000200000065
:100B8000040000000100000003000000000000005D
:100B90000200000006000000070000000500000041
:100BA0000600000004000000050000000300000033
:100BB000040000000200000003000000010000002B
:100BC000020000000000000001000000070000001B
:100BD00007000000060000000600000005000000FD
:100BE00005000000040000000400000003000000F5
:100BF00003000000020000000200000001000000ED
:100C000001000000000000000000000007000000DC
:100C100006000000060000000500000005000000BE
:100C200004000000040000000300000003000000B6
:100C300002000000020000000100000001000000AE
:100C40000000000007000000050000000600000092
:100C50000400000005000000030000000400000084
:100C6000020000000300000001000000020000007C
:100C70000000000007000000040000000600000063
:100C80000300000005000000020000000400000056
:100C90000100000003000000000000000700000049
:100CA0000300000006000000020000000500000034
:100CB0000100000004000000000000000700000028
:100CC0000200000006000000010000000500000016
:100CD0000000000007000000010000000600000006
:100CE00000000000070000000000000000000000FD
:100CF00000000000000000000100000000000000F3
:100D000002000000000000000300000000000000DE
:100D100004000000000000000500000000000000CA
:100D200006000000000000000700000001000000B5
:100D300000000000010000000100000001000000B0
:100D4000020000000100000003000000010000009C
:100D50000400000001000000050000000100000088
:100D60000600000001000000070000000200000073
:100D7000000000000200000001000000020000006E
:100D8000020000000200000003000000020000005A
:100D90000400000002000000050000000200000046
:100DA0000600000002000000070000000300000031
:100DB000000000000300000001000000030000002C
:100DC0000200000003000000030000000300000018
:100DD0000400000003000000050000000300000004
:100DE00006000000030000000700000004000000EF
:100DF00000000000040000000100000004000000EA
:100E000002000000040000000300000004000000D5
:100E100004000000040000000500000004000000C1
:100E200006000000040000000700000005000000AC
:100E300000000000050000000100000005000000A7
:100E40000200000005000000030000000500000093
:100E5000040000000500000005000000050000007F
:100E6000060000000500000007000000060000006A
:100E70000000000006000000010000000600000065
:100E80000200000006000000030000000600000051
:100E9000040000000600000005000000060000003D
:100EA0000600000006000000070000000700000028
:100EB0000000000007000000010000000700000023
:100EC000020000000700000003000000070000000F
:100ED00004000000070000000500000007000000FB
:100EE00006000000070000000700000000000000EE
:100EF00000000000000000000100000001000000F0
:100F000000000000010000000100000000000000DF
:100F100002000000020000000000000001000000CC
:100F200002000000020000000100000000000000BC
:100F300003000000030000000000000002000000A9
:100F40000200000001000000030000000300000098
:100F50000100000000000000040000000400000088
:100F60000000000002000000030000000300000079
:100F70000200000001000000040000000400000066
:100F80000100000000000000050000000500000056
:100F90000000000003000000030000000200000049
:100FA0000400000004000000020000000100000036
:100FB0000500000005000000010000000000000026
:100FC0000600000006000000000000000300000012
:100FD0000400000004000000030000000200000004
:100FE00005000000050000000200000001000000F4
:100FF00006000000060000000100000000000000E4
:1010000007000000070000000000000004000000CE
:1010100004000000030000000500000005000000BF
:1010200003000000020000000600000006000000AF
:10103000020000000100000007000000070000009F
:101040000100000004000000050000000500000091
:10105000040000000300000006000000060000007D
:10106000030000000200000007000000070000006D
:101070000200000005000000050000000400000060
:10108000060000000600000004000000030000004D
:10109000070000000700000003000000050000003A
:1010A000060000000600000005000000040000002B
:1010B0000700000007000000040000000600000018
:1010C0000600000005000000070000000700000007
:1010D00005000000060000000700000007000000F7
:1010E00006000000070000000700000000000000EC
:1010F00000000000010000000000000000000000EF
:1011000001000000020000000000000001000000DB
:1011100001000000000000000200000003000000C9
:1011200000000000020000000100000001000000BB
:1011300002000000000000000300000004000000A6
:101140000000000003000000010000000200000099
:101150000200000001000000030000000000000089
:101160000400000005000000000000000400000072
:101170000100000003000000020000000200000067
:101180000300000001000000040000000000000057
:10119000050000000600000000000000050000003F
:1011A0000100000004000000020000000300000035
:1011B0000300000002000000040000000100000025
:1011C000050000000000000006000000070000000D
:1011D0000000000006000000010000000500000003
:1011E00002000000040000000300000003000000F3
:1011F00004000000020000000500000001000000E3
:1012000006000000000000000700000007000000CA
:1012100001000000060000000200000005000000C0
:1012200003000000040000000400000003000000B0
:1012300005000000020000000600000001000000A0
:101240000700000007000000020000000600000088
:10125000030000000500000004000000040000007E
:10126000050000000300000006000000020000006E
:101270000700000007000000030000000600000057
:10128000040000000500000005000000040000004C
:101290000600000003000000070000000700000037
:1012A000040000000600000005000000050000002A
:1012B0000600000004000000070000000700000016
:1012C0000500000006000000060000000500000008
:1012D00007000000070000000600000006000000F4
:1012E00007000000070000000700000000000000E9
:1012F00000000000010000000000000002000000EB
:1013000000000000030000000000000004000000D6
:1013100000000000050000000000000006000000C2
:1013200000000000070000000000000000000000B6
:1013300001000000010000000100000002000000A8
:101340000100000003000000010000000400000094
:101350000100000005000000010000000600000080
:101360000100000007000000010000000000000074
:101370000200000001000000020000000200000066
:101380000200000003000000020000000400000052
:10139000020000000500000002000000060000003E
:1013A0000200000007000000020000000000000032
:1013B0000300000001000000030000000200000024
:1013C0000300000003000000030000000400000010
:1013D00003000000050000000300000006000000FC
:1013E00003000000070000000300000000000000F0
:1013F00004000000010000000400000002000000E2
:1014000004000000030000000400000004000000CD
:1014100004000000050000000400000006000000B9
:1014200004000000070000000400000000000000AD
:10143000050000000100000005000000020000009F
:10144000050000000300000005000000040000008B
:101450000500000005000000050000000600000077
:10146000050000000700000005000000000000006B
:10147000060000000100000006000000020000005D
:101480000600000003000000060000000400000049
:101490000600000005000000060000000600000035
:1014A0000600000007000000060000000000000029
:1014B000070000000100000007000000020000001B
:1014C0000700000003000000070000000400000007
:1014D00007000000050000000700000006000000F3
:1014E00007000000070000000700000007000000E0
:1014F00000000000060000000000000007000000DF
:1015000001000000060000000100000005000000CE
:1015100000000000070000000200000005000000BD
:1015200001000000060000000200000004000000AE
:10153000000000000700000003000000050000009C
:10154000020000000400000001000000060000008E
:10155000030000000300000000000000070000007E
:10156000040000000400000002000000050000006C
:10157000030000000300000001000000060000005E
:10158000040000000200000000000000070000004E
:10159000050000000400000003000000030000003C
:1015A000020000000500000004000000020000002E
:1015B000010000000600000005000000010000001E
:1015C000000000000700000006000000030000000B
:1015D00003000000040000000400000005000000FB
:1015E00005000000060000000600000001000000E9
:1015F00001000000020000000200000000000000E6
:1016000000000000070000000700000003000000C9
:1016100004000000020000000300000004000000BD
:1016200005000000010000000200000005000000AD
:10163000060000000000000001000000060000009D
:10164000070000000200000004000000030000008A
:10165000050000000100000003000000040000007D
:10166000060000000000000002000000050000006D
:10167000070000000200000005000000010000005B
:10168000040000000300000006000000000000004D
:10169000030000000400000007000000010000003B
:1016A000050000000200000006000000000000002D
:1016B000040000000300000007000000010000001B
:1016C000060000000000000005000000020000000D
:1016D00007000000000000000600000001000000FC
:1016E00007000000000000000700000007000000E5
:1016F00000000000060000000000000007000000DD
:1017000001000000050000000000000006000000CD
:1017100001000000070000000200000004000000BB
:1017200000000000050000000100000006000000AD
:10173000020000000700000003000000030000009A
:10174000000000000400000001000000050000008F
:101750000200000006000000030000000700000077
:101760000400000002000000000000000300000070
:10177000010000000400000002000000050000005D
:101780000300000006000000040000000700000045
:101790000500000001000000000000000200000041
:1017A000010000000300000002000000040000002F
:1017B0000300000005000000040000000600000017
:1017C0000500000007000000060000000000000007
:1017D0000000000001000000010000000200000005
:1017E00002000000030000000300000004000000ED
:1017F00004000000050000000500000006000000D5
:1018000006000000070000000700000000000000C4
:1018100001000000010000000200000002000000C2
:1018200003000000030000000400000004000000AA
:101830000500000005000000060000000600000092
:10184000070000000000000002000000010000008E
:10185000030000000200000004000000030000007C
:101860000500000004000000060000000500000064
:10187000070000000000000003000000010000005D
:10188000040000000200000005000000030000004A
:101890000600000004000000070000000000000037
:1018A000040000000100000005000000020000002C
:1018B0000600000003000000070000000000000018
:1018C000050000000100000006000000020000000A
:1018D00007000000000000000600000001000000FA
:1018E000070000000000000007000000F8B5040039
:1018F00025D004F13C05697821B9002028702046E4
:1019000001F072FA242169702068026852085200BE
:1019100002602068016841F40041016020680268AB
:1019200022F40042026001F0C8FC01466068DFF862
:101930005021904205D2DFF84C31994205D2012066
:10194000F2BDDFF844018142F9D32068DFF83C3171
:101950004668B1FBF3F3B60943EA8616466026688B
:10196000376A6068904206D34FF4967043434FF451
:101970007A70B3FBF0F35B1CBF0943EA8713336251
:10198000491E2368DE696768974206D27F0000F02F
:1019900044F8042913D2042111E0A06820B907EB10
:1019A000470700F03AF805E01920474300F035F802
:1019B00041F4804108050CBF012141F40041DFF8EA
:1019C000B40106400E43DE6122681368E169206AB3
:1019D00023F0C0030B43034313602268DFF8CC01FC
:1019E000936821690340E0680B43034393602268D6
:1019F000D368A16960691B0A41EA03230343D360EA
:101A00002068016841F00101016000206860202128
:101A1000697020630021A970F2BDB1FBF7F1491C88
:101A2000C1F30B017047006841690A0644BF0021F9
:101A30000161704772B62068016841F4007101606D
:101A4000704732462946204601F033B92A46DFF86E
:101A50000C14204601F074B841F48061016000204C
:101A6000009021684A690092896900910098704746
:101A7000202078700021B970002038707047000075
:101A8000A186010080841E0000093D0040420F0035
:101A90002DE9FC47064600F08BF800F073F865D19D
:101AA000009400F07DF8304601F016F800285DD172
:101AB000387801285AD000F080F84146D6F800E086
:101AC0000C9D0B98DDF828C0DEF8008028F4006833
:101AD000CEF800804FF0210E87F801E04FF040086B
:101AE00087F802804FF0000EC7F804E0C6F824C063
:101AF00070855346708DDFF860C33085C6F82CC002
:101B00004A4601940095304600F0B7FE002826D1E1
:101B100006E0716A0A78026100F03AF8411E7185A8
:101B2000308D88B122462946304601F071F888B9D7
:101B3000706A32680178116100F02AF800F01CF830
:101B4000EED589B20029E4D122462946304601F07B
:101B500081F830B17868042801D100F04BFF0120F2
:101B600005E000F047FFFFF783FF00E00220BDE83B
:101B7000F68700000030FFFF421E72853068426920
:101B80005307704706F13C070446787820287047D1
:101B9000706A411C7162308D411E3185708D7047B5
:101BA00019230122DFF8E41270470000007CFFFFD8
:101BB000884691469A4601F0C3BB012139703068CE
:101BC0000268D10703D4026842F001020260704744
:101BD0002DE9FC47044600200090FFF7E9FF04F1DF
:101BE0003C0605467078202805D10095FFF7D8FF00
:101BF00000F005F9002840F0C1803078012800F09D
:101C0000BD800121317000F0E0F84146D4F800E0D9
:101C10000C9F0B98DDF828C0DEF8008028F40068DF
:101C2000CEF800804FF0220E86F801E04FF0400819
:101C300086F802804FF0000EC6F804E0C4F824C015
:101C400060855346608DDFF810C22085C4F82CC033
:101C50004A4601950097204600F05EFE00286ED1AE
:101C6000208D10B900F092F81FE0012802D100F099
:101C7000DAF805E002282068016805D100F0C2F812
:101C80000846026062B610E0FFF7E6FE0DE02A4665
:101C90003946FFF7D8FE002851D100F0C6FC208D50
:101CA0006262411E218500F085F8208D00285ED0FB
:101CB00004284AD20128EAD00228324900953B463E
:101CC0000AD1002200F09BF8002838D1FFF7B2FEBD
:101CD00000F084F862B6E0E7002200F090F870BBF4
:101CE00000F06CF84FF47A7E20680169606A017038
:101CF000616A208D4A1C411E62622185608D224AE4
:101D0000411E618519211368B3FBF1F1B1FBFEFEA1
:101D1000232000FB0EFECDF800E000F097F820B184
:101D2000216848694107F8D50BE0206320217170D4
:101D3000B070716841F02001716062B630700120AE
:101D40001DE0206800F091F8C2E72A463946FFF707
:101D50007AFE0028F3D100F041F8206841694A0773
:101D6000A3D50069616A0870606A421C97E7202069
:101D700070700021B1700020307000E00220BDE8DA
:101D8000F6870000040001001C000020009021687C
:101D90004A69009289690091009821680A6808469A
:101DA00042F40072026070471069616A0870606AEC
:101DB000421C6262608D411E618570472068016827
:101DC00021F48061016072B6704720680268D10713
:101DD00003D4026842F00102026070472068016982
:101DE000606A0170616A208D4A1C411E6262218511
:101DF000608D411E6185704700224FF00111204621
:101E000000F06ABE41F40061016072B600200090EB
:101E100021684A69009289690091009821680A68DE
:101E200022F4806270472068016821F480610160BB
:101E300072B60020009021684A6900928969009179
:101E4000009821680A6842F4007270470098401EAA
:101E500000900098704700000000FFFF080001009C
:101E6000009021684A69009270470168024641F477
:101E700000711160704720680168CA0570473068BA
:101E8000016841F480710160704700000200100099
:101E9000416841F48051416070473068016841F405
:101EA0008061016070472DE9FC41044604F13C0566
:101EB0002268DFF81C6B5168E06AAF786B784FF0EE
:101EC000000C102F18BF402F40F05482D2F818C0D9
:101ED000D2F814E05FEACE7805D4B0F52A0F18BF27
:101EE000B0F12A4F47D05FEACE7045D5880543D57B
:101EF000E06AB0F52A0F08BF012104D0E06AB0F112
:101F00002A4F01D10821E162A878402809D16869E7
:101F10000028A8681ABF40F00100C0B200F0FE001F
:101F200028E02069B0F5804F16D168782128A8688C
:101F30000EBF00F0FE0040F00100C0B21061606B07
:101F400000281CBF806A00282AD1A06B00281CBF73
:101F5000806A00280FD023E0686920B900F00EFBEA
:101F600040F0F00006E06869012804D100F006FBAB
:101F700040F0F1001061FFE25FEA0E7015D58805B0
:101F800013D5A868C0B21061606B00281CBF806ABE
:101F9000002805D1A06B00281CBF806A0028EAD069
:101FA0002068416841F400613AE15FEA8E7000D533
:101FB000880540F1B780AB78E16A276B6878222802
:101FC00040F0A8806869002808BF402B04D1002198
:101FD00000F0E6FA009ACFE26869002804BF2069A1
:101FE000B0F5404F08D100F0EEFA40F48070106078
:101FF0006869401C6861BFE2608D28B900F0E3FAAF
:1020000040F40070106082E0608D012835D1B1424B
:1020100012D11146086820F4806010602168486879
:10202000020504D50846024600F0E0FA23E000224B
:1020300000924B6900930CE0082918BF202903D0B7
:10204000122F0CD101290FD000F0CFFA116000F04F
:1020500007FB89690091009800F0A8FA57E004296D
:102060001CBF0229102902D000F0BFFA03E010467D
:10207000016841F48061116047E0628D022A2FD12E
:1020800004291CBF0229102910D0206802680346C9
:1020900042F400621A600020009000F09FFA22686B
:1020A0001368104623F48063036009E02268136814
:1020B000104643F4806303600022009200F08EFA21
:1020C00020684268130522D5B14218BF012904D007
:1020D00008291CBF1029202919D1FFF7D9FE16E0C5
:1020E00020680268034642F480621A6020684268F1
:1020F00013050AD5B14218BF012904D008291CBF15
:102100001029202901D1FFF7C3FEFFF7A8FC002109
:10211000696131E200230093516900919269009254
:10212000009929E25FEA4C7C0EF004005FD5D2F8FA
:1021300004805FEA085CF4D45FEA0E6E48BF5FEA91
:10214000415C2AD5002828D16978AB78E76A208DD0
:10215000002808BF212913D1082F1CBF202FB74208
:1021600004D000F016FA0022AA702DE000F07EFAEA
:1021700030D10021A9702046BDE8F64101F0E6B853
:10218000212903D0402B08BF2229CAD1608D002805
:102190004AD0A878402826D0BCE10028C1D08805C4
:1021A000BFD5212B1DD1E16A6878212839D1608DF6
:1021B00008B100F0AFB908291CBF2029B14206D0F0
:1021C00000F0E7F90020A8702021697004E000F019
:1021D0004DFACED00021A9702046BDE8F64101F0AD
:1021E000B6B8402F1DD12046BDE8F6414EE25368F7
:1021F0001E0516D45FEA4E636CD54E056AD50028DD
:1022000068D1687822280CD1608D04280AD3FFF7A2
:10221000CBFD608D032804D12068416821F48061E2
:102220004160A9E1E16A022951D0012818BF0028C4
:102230004DD10020DFF89818009019200B68B3FBEF
:10224000F0F04FF47A76B0FBF6F606EB86060096D1
:102250002146FFF7FBFD20B10B6818688405F8D410
:102260001AE0686840F020006860506820F4E06080
:1022700050600A6810694A6A1070486A431C4B62D1
:102280002023488D421E4A856B700020A8700846A6
:10229000BDE8F64101F05CB818460C4601680246FC
:1022A00021F48061116000F0D3FA00F0CBF9202214
:1022B000FFF780FD6A70A878402852D10021A970EC
:1022C000002020632046BDE8F64101F042B800F04E
:1022D0005BF951E10028FCD08805FAD5E06A618DF0
:1022E000042904D100F050F9216808693DE1618DAD
:1022F00003290CD1516821F480615160042818BF72
:10230000022801D000F098F900F08FF931E1618DD9
:10231000022940F02981012818BF10280DD0042877
:1023200018BF022804D01046016841F4007106E08D
:102330001046016841F4806101E000F056F9116037
:1023400000F080F9FFF736FD2268FFF72DFD2068C9
:10235000416821F44071416020206870A9784029CB
:10236000ACD00020A870122121632046BDE8F641C0
:1023700000F0F0BF686808B9D2F818C05769B8070C
:1023800025D5880523D5686808B1D2F818C06878C3
:10239000002100F02800282813D100F0F5F85FEAAA
:1023A0004C7058BF01215FEA0C6054BFE268A2691B
:1023B0000020287002B02046BDE8F04192B200F043
:1023C000CABF00F0EDF80021009A2970D4E0F806A9
:1023D00074D5880572D56F78506820F4E06050603D
:1023E00000210091206841690091206800F002F905
:1023F00000F022F921684868020528D50FF201682B
:10240000222F18BF2A2F10D0606B00F0FAF8606BF3
:1024100001F098F801281AD0606BC0F83480606B26
:1024200001F030F898B1606B0FE0A06B00F0E9F8B4
:10243000A06B01F087F8012809D0A06BC0F83480A8
:10244000A06B01F01FF810B1A06B416B8847608D45
:1024500098B1206841694A0702D50069FFF7A5FCD9
:10246000206841694A0602D50069FFF79EFC608D2D
:1024700018B1686840F004006860686818B12046C8
:10248000BDE8F64160E12A2F05D12063282169705B
:10249000204601F06BF86878282807D1E66200F042
:1024A000D9F82046BDE8F64101F061B8206B22283A
:1024B00018BF222F60D100F0CDF84BE007F00400E8
:1024C000212B18BF292B2CD13B061CD54E051AD524
:1024D000C8B96978608D00284ED0606A03781361AE
:1024E000606A421C626200F068F808BF292943D183
:1024F00000F095F821202063282169702046BDE86E
:10250000F64101F035B8002836D0890534D5608D04
:10251000002831D0606A01781161606A411C6162F3
:1025200028E07B061BD54E0519D5C0B96978608DAA
:1025300010B31069626A1070606A431C636200F035
:102540003CF808BF2A2917D100F069F8222020633F
:10255000282169702046BDE8F64101F007B858B15E
:10256000890509D5608D38B11069616A0870606AA3
:10257000421C6262FFF71EFCBDE8F381A8680004FC
:10258000C00D00F006007047506820F48060506075
:102590007047506820F4E06050601121216370475B
:1025A00000915369009391690091704721680A680E
:1025B000084642F4007202607047608D421E6285D8
:1025C000608D002870470021009153690093916944
:1025D0000091009A216808680A467047226853698A
:1025E000009392690092009870471046016821F4A8
:1025F000806170470268014642F001020A6000985B
:102600007047026853686385608D18B1686840F050
:1026100004006860486820F40060486070472068E3
:10262000416821F480614160704720680169606AF7
:102630000170616A4A1C70472068016821F480615A
:102640000160704720680169606A0170616A4A1C14
:10265000626270470020206320216970A870704773
:102660000020009021684A6900927047506820F469
:10267000E06050602068016841F400710160002052
:10268000206320216970A8784028704710B500F1B8
:102690003D0300F148021C78916889B900685168CF
:1026A000012905D11368DBB203619068801C05E045
:1026B00011680904090E01619068401C906010BD0A
:1026C0009168012904D113680068DBB203610AE054
:1026D0009168022933D1222C09D101680B68084680
:1026E00043F4807303609168491C916010BD418D73
:1026F00061B1212C0AD1416A03680A781A61416AE2
:102700004A1C4262418D4A1E428510BD418D0029FE
:1027100008BF212C17D101684A6822F4E0624A60A0
:10272000002401680A6842F400720A600021016313
:1027300020221A705C70BDE8104000F007BEBDE8B2
:102740001040FFF770B910BD38B5044604F13D05DF
:1027500028786978102914BF4029222804D12168DB
:102760000A6822F400620A6000F02801282903D1D7
:102770000020206329700BE0226851680A0505D407
:10278000602803D020202870002169700020206379
:10279000206841680A0523D5416821F40061416041
:1027A000606B0FF25D2190F82120012A09D041636E
:1027B000606B00F067FE002825D000F056F8606BD3
:1027C0000BE0A06B4163A06B00F05CFED8B1206809
:1027D00000F034F800F049F8A06B416B884712E034
:1027E0002A78602A0AD1202129700022226400F070
:1027F00025F800F033F800F0BCFE04E000F01EF80D
:10280000204600F0A5FD206C10F00F0F01D000F065
:102810001FF82878216C4A070ED528280CD16C485F
:10282000E062002121632020287000226A70204687
:10283000BDE8324000F09BBE31BD000041694A0650
:1028400005D50069616A0870606A421C626270475F
:102850002068416821F4E0614160704720680168A8
:10286000490849000160204670472068016849080E
:10287000490001602020287070472DE9F843044684
:102880002068DDF82080099FD0F800C04CF4807CDF
:10289000894615461E46C0F800C000974346FFF71C
:1028A000ABFA38B1FFF7E7FA44BF4FF40070206489
:1028B000032026E02068DFF81C1209F0FE09C0F8AA
:1028C00010903B464246FFF7C4F8A0B9FFF7C8FA9C
:1028D00000F019F800F01EF840B9012E0DD0216863
:1028E000280A08613A4600F014F830B1206C042838
:1028F00001D1FFF7A0F8012003E02068EDB20561E7
:102900000020BDE8F2833A4689690091414600986B
:102910007047414620467BE12DE9F84F054628687F
:10292000DDF828800B9F0C46FFF7B8FA164628689A
:10293000D0F800C04CF4807C9946C0F800C000F08C
:1029400052F800284FF4007A2ED12968DFF884B1BC
:1029500004F0FE00086100F041F8002834D1009036
:1029600029684A690092FFF7CEFF00F035F870B988
:10297000B9F1010F05D02968300A086100F02AF882
:1029800028B92868F6B2066100F024F830B1286C46
:10299000042819D1286800F02EF815E02868FFF700
:1029A0006FFA00F020F838B128680168CA0548BFFE
:1029B000C5F840A0032008E0286844F00104E4B210
:1029C000046100F00BF800B10120BDE8F28F0000B7
:1029D0000000FFFF3A464146284619E13B46424681
:1029E00059462846ACE00097434600224FF00111BB
:1029F000284671E03068016841F400710160704759
:102A00007CB5002100911925416A314801F13D0250
:102A10004FF47A7613780468B4FBF5F5B5FBF6F657
:102A2000232046430096009838B10098401E00903D
:102A30000C6820688505F6D403E0086C40F020009F
:102A40000864486B08B100248462886B08B10024D4
:102A500084620868046824F4806404600020488567
:102A6000486B08B100244463886B08B100244463B8
:102A700008680468640864000460107860280AD15B
:102A8000202313700024547000220A640846BDE815
:102A9000764000F06EBD03F02803282B0ED10868A5
:102AA000036843F00103036028230868046844F4C2
:102AB0008064046000200863137003E0202010701D
:102AC000002454700846BDE8764000F041BC000088
:102AD0001C000020020001002DE9F8430F46089C6D
:102AE0000646904699463D0C3068E9B201290CBF74
:102AF0004069806900F071F80CBF0120002040455A
:102B00001CD119F1010FEFD000F01AFC001B814518
:102B100002D3B9F1000FE7D13068E9B201290CBF47
:102B20004069806900F059F80CBF01200020404541
:102B3000DAD100F05FF80120BDE8F2830020FBE766
:102B40002DE9F0410F460646144698463D0CE8B282
:102B500001281CD130684169394089B2B8B281423C
:102B60001CD03168486941051AD5306800F03AF840
:102B700032685061002106F13C003163202242702E
:102B80008170426842F00402426001701DE03068CA
:102B90008169394089B2B8B28142E2D1002015E0A2
:102BA00014F1010FD3D000F0CBFBA0EB080084425E
:102BB00001D3002CCBD1E9B23068012908D140699A
:102BC00000F00BF8C6D000F015F80120BDE8F08148
:102BD000806900F002F8DAD0F5E7384080B2B9B287
:102BE000884270470268014642F400720A606FF43E
:102BF0008060704700203063202106F13C000022F5
:102C000041708270416841F020014160027070475C
:102C100070B505460C46164628684169080617D463
:102C2000284600F071F818B914F1010FF4D001E052
:102C3000012070BD00F084FB801B844201D3002C76
:102C4000EAD1286841690806E6D400F025F8EFE7E4
:102C5000002070BD70B505460C46164628684169CF
:102C6000480717D4284600F04FF818B914F1010F9F
:102C7000F4D001E0012070BD00F062FB801B8442B3
:102C800001D3002CEAD1286841694807E6D400F056
:102C900003F8EFE7002070BD002105F13C00296337
:102CA000202242708170426842F02002426001702E
:102CB000704770B505460C461646286841694A06B5
:102CC00020D44169CA060FD56FF010014161002080
:102CD0002863202105F13C00002241708270416888
:102CE00041600270012070BD00F02AFB801B84420D
:102CF00001D3002CE1D1286841694806DDD4FFF7F3
:102D0000CBFFEFE7002070BD10B501684A6953059D
:102D10000DD56FF480644C61002101633C302023A9
:102D200043708170436843F004034360017012F400
:102D3000806018BF0120C0B210BDF0B40246106818
:102D400095681318506803EB5004C00748BF4D4402
:102D5000A3422DD013F8016B16F0030004BF13F843
:102D6000010BC01C31090F2907D113F8011B0F31CA
:102D700003E013F8017B05F8017B401EF9D100291F
:102D8000E6D013F8010BC6F38106032E08BF13F833
:102D9000016B00EB0620404228440026B71E8F42FC
:102DA0001EBF10F8017B05F8017B761CF6D1CFE73A
:102DB000F0BC02F10C007047254A2648264980B530
:102DC000426000234FF4804201608360C36002616F
:102DD00043618361C3610362FEF788FD18B1BDE8FA
:102DE000014000F04EBD01BD18B585B0044610226B
:102DF000002101A800F047FD21681748814224D135
:102E0000164C216841F008012160C021206800F0C3
:102E100008000090122200981148019102920121AD
:102E2000049101A900F03EFD606840F4001060606C
:102E30000022606800F400100090002100981F201C
:102E400000F036FE1F2000F050FE06B010BD00005E
:102E5000801A060008170020005400401810024095
:102E6000000C01402DE9F843040016D02078DFF86B
:102E70007064C10713D5706800F00C00042807D0F7
:102E8000706800F00C00082841D17068C1033ED57D
:102E90003068810303D56068002800F064812078E1
:102EA000DFF84C74810719D5706810F00C0F07D04B
:102EB000706800F00C00082861D17068C1035ED40E
:102EC0003068810703D52069012840F04C813168C2
:102ED000606921F0F80141EAC001316021780807FA
:102EE00040F18180A069DFF80C14002800F0A68072
:102EF00001220A6000F024FA0546706A810763D453
:102F000000F01EFA401B0228F7D903202EE160686A
:102F1000B0F5803F04D1306840F48030306014E078
:102F200008B930680AE0B0F5A02F306806D140F447
:102F300080203060316841F4803105E020F4803039
:102F40003060316821F480213160606858B100F050
:102F5000F7F9054630688103A1D400F0F1F9401B70
:102F60006528F7D3D1E700F0EBF905463068810317
:102F700095D500F0E5F9401B6528F7D3C5E7206932
:102F8000A8B10121396000F0DBF9054630688107FE
:102F900005D400F0D5F9401B0228F7D9B5E7306811
:102FA000616920F0F80040EAC100306096E73860BF
:102FB00000F0C6F90546316888078FD500F0C0F9E2
:102FC000401B0228F7D9A0E7DFF818030168C908F9
:102FD0004FF47A72B1FBF2F2009200BF0098411EEA
:102FE00000280091F9D1207841076ED5F0690025BD
:102FF000C10009D4F06940F08050F0610125F0690A
:1030000000F0805000900098DFF8EC82D8F80000C3
:10301000C10520D4D8F8000040F48070C8F8000042
:1030200000F08EF98146D8F80000C10513D400F0F5
:1030300087F9A0EB09006528F5D366E7086000F082
:103040007FF90546706A8107CDD500F079F9401BFC
:103050000228F7D959E7E068012808D008B9306A92
:1030600009E00528306A06D140F004003062306A79
:1030700040F0010005E0400840003062306A20F076
:103080000400306241F28938E06860B100F058F91C
:103090008146306A810713D400F052F9A0EB090091
:1030A0004045F6D331E700F04BF98146306A81079D
:1030B00006D500F045F9A0EB09004045F6D324E71A
:1030C0001DB1F06920F08050F061E06900284CD01B
:1030D000716801F00C01082938D002282AD100F0CB
:1030E00047F805463068810105D500F029F9401BF5
:1030F0000228F7D909E7206AB0F5803F05D1716849
:10310000A06821F40031014371607268206A616A2D
:1031100022F4741202430A437260012000F029F87D
:1031200004463068810120D400F00AF9001B02280F
:10313000F7D9EAE600F01CF804463068810114D59E
:1031400000F0FEF8001B0228F7D9DEE601280AD0BD
:103150007068226A00F48031914202BF00F470105E
:10316000616A884201D0012000E00020BDE8F283BE
:103170000020386600F0E4B82DE9F04104008846EC
:103180004ED05E4E00F077F802D200F06FF847D1D3
:103190002068534D810712D5400703D5696841F473
:1031A000E06169602078010703D5686840F46050E9
:1031B00068606968A06821F0F001014369602178C6
:1031C000C80725D56068012802D129688A0303E071
:1031D0000228296802D18A0102D421E08A071FD57A
:1031E0006968890840EA8100686000F0A9F807462C
:1031F0006868616800F00C00B0EB810F08D000F047
:103200009FF8C01B41F289318842F1D303202BE0A3
:10321000306800F00700804504D200F027F801D0A4
:10322000012021E02078410705D56A68E06822F492
:10323000E06202436A602178080706D56968206960
:1032400021F4605141EAC001696000F019F86A6830
:103250002B49244BC2F30312895CC84018602348F1
:10326000006800F06DFC0020BDE8F0813168C908FD
:1032700048EAC1013160306800F0070040457047FE
:10328000204919480A6802F00C03082B00D0704747
:1032900010B500BF1EA4C2F38343D203E35C08D57C
:1032A000096858431EA3C1F340415A5CB0FBF2F0D9
:1032B00010BD18461449484310BD0A48114A006819
:1032C00013681249C3F3022206E006480D4A00685B
:1032D00013680E49C3F3C222895CC84070470000DE
:1032E000001002401C00002000127A00180000208C
:1032F0000000424280044242007000400020024030
:1033000088C400080410024000093D00F8C5000808
:1033100002030405060708090A0B0C0D0E0F101016
:10332000010203681AB95A1E0260084670471978EC
:1033300011B94FF0FF307047591C01601878704781
:1033400001484068704700BF100000207047704778
:10335000704770477047704730B508B9012030BDDD
:103360000268DFF8BC118A18142400F13803B2FB9C
:10337000F4F4A400DFF8AC119C605960022280F8DC
:10338000212001680C684168826805686FF30D149C
:103390000C43C168144302690C43416914438269B8
:1033A0000C43C16914430C432C6000221A600123B2
:1033B00080F8213080F82020002030BDF8B5044688
:1033C000002594F82000012801D10220F2BD01203F
:1033D00084F8200094F82160012E29D1022004F104
:1033E0002C0684F821000027F7602068D0F800C080
:1033F0004FEA5C074FEA470CC0F800C0204600F0D7
:10340000A4F82168306820B10A6842F00E020A6010
:1034100008E0086820F0040008602068016841F0B6
:103420000A0101602068016841F00101016002E0C9
:1034300084F8205002252846F2BD10B590F82110DE
:10344000022900F1380206D004231360002180F81D
:103450002010012010BD01680B6823F00E030B60E3
:10346000012301680C68640864000C60916852686C
:103470008B405360012180F82110002280F8202029
:10348000002010BD38B590F821200024022A00F158
:10349000340103D00420486001243EE00268136830
:1034A00023F00E0313600268DFF87C3015686D08A6
:1034B0006D00156002689A4208BF012222D0DFF831
:1034C0006C309A4208BF10221CD0DFF864309A4258
:1034D00008BF4FF4807215D0DFF858309A4208BF09
:1034E0004FF480520ED0DFF850309A4208BF4FF4AC
:1034F000803207D0DFF844309A420CBF4FF480127C
:103500004FF08072DFF838301A60012280F82120F5
:1035100080F82040096801B18847204632BD00008C
:10352000F8FFFDBF00000240080002401C000240FE
:103530003000024044000240580002406C0002404B
:103540000400024090F82100704770B5046CC66B0F
:103550000125A5407560046863604068102802D1A9
:10356000A260E16070BDA160E26070BD704770470D
:103570007047704738B58D4CA04210D18C4D28460D
:1035800000F06EFB4FF48071284600F015FC2946D0
:103590002046BDE838404FF4807200F0A1BC31BD38
:1035A0002DE9F04F89B001F045F800F025F901F060
:1035B00053F801F0DDF8FFF7FFFB01F0E9F801F047
:1035C000F3F801F07BF901F0EFF901F017FA01F0DF
:1035D0006DFA7849784A049105921021774AADF83E
:1035E000181001924FF4805275490291ADF80C20E9
:1035F00004AB93E8070001F0C1FA01AB93E80700C0
:1036000001F0BCFA04A807C801F074FB01A807C8C0
:1036100001F070FB6B4D05F19004204601F072FB48
:10362000204600F0C4FA01F0D1FB674C204601F0BF
:103630005FFC3221204601F080FC204601F079FD3C
:10364000044601F08FFE04E001F08CFEC82001F07A
:10365000A9FF01F0AFFE0028F6D0A0B201F0FBFFF9
:10366000C82001F09FFF002001F0D9FE0446002091
:103670000021002205F1400329541A54401C40281F
:10368000FADB204602F0B3F805F1940670B9002782
:103690003168F8B288421AD200F09AF8079808996F
:1036A00001EBC001012068547F1CF1E700270AE00C
:1036B00000F08EF80799089A05F1400002EBC1026C
:1036C000012181547F1C3268F8B29042F0D3384C0B
:1036D0004FF48071204600F06FFB4FF4807221465A
:1036E00032483A4F00F0FCFB00F078F800F07CF82C
:1036F00041E0401E4ED13368CDF80080DBB24A462F
:103700005946504602F012F93368CDF80080C9F1ED
:103710000109DBB25FFA89F25146584602F006F918
:10372000002000210022002305F1400E03EBC0041D
:1037300015F804C01EF804409C40A2180CFA03FCC3
:103740005B1C082B6144EFDB2B18401C03F8801F27
:1037500008281A72E5DB00F041F800F045F801F0A6
:1037600042FB4FF47A71B0FBF1F0716888423CBFC4
:10377000081A01F017FF01F030FB4FF07E5001F006
:103780004EFE804602F033F80446404602F035F81B
:10379000814608200821002C19BFAA4605F1400BDC
:1037A00005F1400AAB46491EF5D1A2E7F417002007
:1037B000341400205816002000080140B0160020E4
:1037C000000C01403415002080180020B4150020A2
:1037D00001232246F9B207A801F04ABF04A807C88E
:1037E0000097002301F063BA05F18800009001A959
:1037F00007C9002301F05BBA18B593B0282109A8C6
:1038000000F0DAFA142104A800F0D6FA6846002184
:1038100000220023002480E81E00012109910B9260
:103820004FF480310A911191012302224FF480114B
:103830000D931092129109A8FFF714FB08B100F044
:1038400020F8022105910F204FF480610490079128
:1038500006940894012104A8FFF78EFC08B100F03B
:1038600010F8122000904FF480414FF48002029132
:103870000392684602F0EEF808B100F002F814B0C6
:1038800010BD72B6FEE710B5044610460A46014662
:10389000204602F0B9F9204610BD0268531C0360AF
:1038A000117070472DE9F8474FF0000E0024664A6A
:1038B000664BDFF89C814FF00F0982460DE01768D8
:1038C0003840106007E0C2F804C04D68ED03F6D53B
:1038D0001068074317600EF1010E0F6837FA0EF0FB
:1038E00000F0AC80012000FA0EFC0CEA07076745E7
:1038F000F1D1486838B301281AD002281DD0032816
:103900002ED0112816D012281AD0524DA8421CBF12
:10391000514DA84217D0514DA8421CBF504DA8424E
:1039200011D0504DA8421CBF4F4DA8420BD018E0FB
:10393000CC6816E0CC68241D13E0CC68083410E095
:10394000CC680C340DE0886808B9042409E001282B
:1039500019BF0824CAF814C00824CAF810C000E02F
:103960000024B7F5807F03D250464FEA8E0C05E065
:10397000AEF108050AF104004FEA850C056809FA62
:103980000CF6B54304FA0CF646EA050CC0F800C084
:103990004868C0009FD5D8F8000040F00100C8F882
:1039A0000000D8F8005005F0010500954FEA8E059B
:1039B00000984FEA9E0053F8206005F00C0C09FABD
:1039C0000CF526EA0505294EB24508BF00260ED0A3
:1039D000274EB24508BF012609D0264EB24508BF82
:1039E000022604D0244EB2450CBF0326042606FA54
:1039F0000CF646EA050C43F820C0F8434D68D2F8AF
:103A000008C0ED024CBF47EA0C0C00EA0C0CC2F8EF
:103A100008C04D68D2F80CC0AD024CBF47EA0C0C90
:103A200000EA0C0CC2F80CC04D68D2F804C0AD031B
:103A30004CBF47EA0C0C00EA0C0C44E7BDE8F187E8
:103A400002B9090401617047000401400800014007
:103A50001810024000001110000012100000211088
:103A60000000221000003110000032100008014058
:103A7000000C014000100140001401400901020047
:103A800002D4284881547047274B02F00F021A4491
:103A900002F8041C7047254B19684FF6FF0200021C
:103AA000114000F4E0600843214908431860704762
:103AB00070B51E4B1C68C4F302230124C3F1070533
:103AC000052D2EBF0F2504FA05F56D1E1E1D072EB0
:103AD00034BF0023DB1E2940994004FA03F3BDE8FC
:103AE00070405B1E1A401143C8E7010007D4012251
:103AF00000F01F010F4B8A40400943F82020704717
:103B0000401EB0F1807F01D3012070470A490B4A63
:103B100048600023F02010708B60072008600020B0
:103B20007047000000E400E018ED00E00CED00E05C
:103B30000000FA0500E100E010E000E023ED00E005
:103B400038B50D4D0D4B2A7804464FF47A7118683C
:103B5000B1FBF2F2B0FBF2F0FFF7D2FF50B9102C3C
:103B600008D2002221464FF0FF30FFF7A1FFAC60E2
:103B7000002032BD012032BD100000201C000020BA
:103B800010B5044602F074F8C1B22046BDE81040FA
:103B900002F0AAB810B5044602F06AF82146BDE862
:103BA0001040C2B24FF6FF735B4800F048B95B4962
:103BB0000860704710B500BF5DA42046FFF7EAFF1C
:103BC0002046BDE81040DBE780B590B0024600BF5C
:103BD00061A104E080B590B0024600BF62A16846D2
:103BE00002F09AF86846FFF7D5FF6846FFF7C8FF6E
:103BF00011B000BD494908680022026001F0ABF82D
:103C0000BFF34F8F464947480A6802F4E062024317
:103C10000A60BFF34F8F00BFFDE710B50446412C8B
:103C200008D23E490868446001F095F82046BDE896
:103C30001040C9E710E010B50446A4F1140040F2AA
:103C4000D531884208D2354A1068846001F083F883
:103C50002046BDE81040BDE7BDE81040AAE70000DF
:103C600070B58AB00446202102A800F0A5F86B4682
:103C70000DF1080241A1204602F06EF8022846D15B
:103C80009DF800000FF2101541A63F281DD100BF7E
:103C90003DA100F04AF838B927A42046FFF77AFF83
:103CA0002046FFF76DFF34E01C48046800F03CF844
:103CB00018B96068FFF788FF2BE0294600F035F857
:103CC00038BBA068FFF786FF23E001AB0DF10802C7
:103CD00034A1204602F040F8022818D134A100F0A7
:103CE00024F828B90198012811D1FFF783FF10E0CB
:103CF00000F01AF818B90198FFF78FFF09E029467C
:103D000000F013F828B90198FFF795FF01E0FFF7DD
:103D100051FF0AB070BD0000F4170020E018002029
:103D20000CED00E00400FA05314602A802F028B8C4
:103D30004552524F520D0A0044657369676E6564BF
:103D4000204279204D61784459690D0A323032346D
:103D50002F30320D0A00000041542B53414E444E87
:103D6000554D3D25640D0A0041542B4652414D45A9
:103D700054494D453D25640D0A00000041542B2552
:103D80005B5E3D5D3D256300494E464F00000000EF
:103D900053414E444E554D004652414D4554494DB8
:103DA0004500000041542B255B5E3D5D3D256400D0
:103DB0005245494E49540000002201F0EFBF2E0049
:103DC00038B5040001D1012032BD00F01BF808B95C
:103DD00000F01CF800F01FF800F027F8FFE7416141
:103DE00000F001F832BD2068C16841F40051C160A3
:103DF00000206860202169702020A8700021616384
:103E00000020704704F14005687870470021297050
:103E1000204600F06ABD242068702068C16821F443
:103E20000051C160204600F0BDBB2068016921F44B
:103E3000904101612068416921F02A0170472DE914
:103E4000FC4106460D4696F84100202814461F46C0
:103E50003FD10DB1200001D101203BE00020706472
:103E6000212186F84110FFF76BFAB4848046F48470
:103E700000F032F804BF306900281ABF2C46002534
:103E800000240CE03068002C12BF14F8011B35F838
:103E9000021BC1F308014160F08C411EF1844346CE
:103EA000F08C0097002807D000228021304600F0D7
:103EB0003AFA0028E6D005E000224021304600F022
:103EC00032FA08B1032005E0202086F841000020E6
:103ED00000E00220BDE8F681B068B0F5805F704771
:103EE00038B5044694F84200202809D109B11000E1
:103EF00001D1012032BD00F005F800F05FFA07E0C3
:103F0000022032BD012020630023636320467047F6
:103F100001001BD1206B012817D1002200922368D9
:103F20001D6800952068426800920098226802F19E
:103F30000C0353E8002F206800F10C0542F010023A
:103F400045E800200028F1D100E00121084632BDFB
:103F5000216801F1140252E8001F206800F11403E7
:103F600021F0400143E8001000287047F8B50446EE
:103F700025682A6828460146C6684B6912F00F0F6B
:103F800002F0200106F0200007D1002918BF002808
:103F90005DD02046BDE8F2409CE2DF0702D416F473
:103FA000907F54D0D50705D5F60503D5656C45F04F
:103FB00001056564550705D5DE0703D5656C45F039
:103FC00002056564950705D5DE0703D5656C45F0E8
:103FD00004056564120706D508B9DA0703D5636CD2
:103FE00043F008036364626C002A2FD000291EBFCF
:103FF0000028204600F06EFA20684069616C0A07CC
:1040000001D440061DD5204600F040FA20684169E1
:10401000480611D5FFF79CFFFCD1E06B60B10FF2B1
:10402000A5414163E06BFFF72DFA00280ED0E06B4D
:10403000416BBDE8F44008472046BDE8F24001F07E
:10404000C6BE204601F0C3FE00206064F1BD206BB7
:10405000012804F1410340F09180D00600D5F1061B
:1040600040F18C80002200922968009122685068FB
:104070000090009920684269500642D5E16B0868BB
:10408000406880B20028E1D0A28D9042DEDAE0855F
:10409000886920282DD0216801F10C0050E8001F0C
:1040A000226802F10C0521F4807145E80010002817
:1040B000F1D100F0A2F8490800F11405490045E8E3
:1040C00000100028F5D100F098F800F1140521F057
:1040D000400145E800100028F5D12020587000214B
:1040E000216300F090F800F055F9FAD1E06BFFF78A
:1040F000A4F902206063A18DE08D091A89B22046DF
:1041000038E0A08DE18D411AE08D00281CBF88B2F7
:10411000002871D02246106800F10C0454E8004FCA
:1041200000F10C0624F4907446E800400028F2D117
:10413000106800F1140454E8004F640800F11406FC
:10414000640046E800400028F2D120205870002387
:104150001363106800F10C0353E8003F00F10C05F5
:1041600023F0100345E800300028F2D1022050630C
:1041700089B21046BDE8F440FFF7FCB910062BD514
:10418000310629D51878212836D1A068B0F5805F8E
:1041900004BF2069002809D1206A01882A46C1F39A
:1041A00008015160206A811C216205E0206A411CDF
:1041B0002162226800785060E08C401EE08480B26A
:1041C000D0B92068C16821F08001C1602068C16851
:1041D00041F04001C160F1BD50060DD571060BD50F
:1041E0002846C16821F04001C16020462021197095
:1041F000BDE8F24001F0ECBDF1BD206800F1140112
:1042000051E8001F7047206800F10C0151E8001FC1
:1042100000F10C03704710B500F023F813D400210F
:10422000C18500F02AF800F022F8FAD100F02EF84B
:10423000FCD100F038F8202180F84210026B012AEE
:1042400001D100F0A1F900214163026B012A04D1E0
:10425000818DBDE81040FFF78DB9BDE8104001F039
:10426000B8BD0146486A09680A689306704722F497
:10427000807244E8002100297047026802F10C01B5
:1042800051E8002F036803F10C047047016801F145
:10429000140252E8002F520801F11404520044E8BD
:1042A000002100297047016801F1140252E8002F33
:1042B00001F1140422F0400244E800210029F2D167
:1042C0007047406A01214163026B012A18BF01F067
:1042D00081BD818D4908FFF74DB9000038B5446AAA
:1042E0002068406904F141052978212906D1010699
:1042F00004D50022E284204600F0AEF82168486927
:104300006978222906D1400604D50021E18520469E
:1043100000F0BCF8606C40F0100060642046BDE81E
:10432000324001F054BD2DE9F041069C05460E4691
:1043300090461F46286801683140B1420CBF0120F9
:10434000002040451BD114F1010FF3D024B1FEF73A
:10435000F7FFC01B8442EDD200F014F821F4D071B5
:1043600000F01AF8F8D100F01BF805F14000202108
:1043700041702022827000210170032000E00020A3
:10438000BDE8F081286800F10C0151E8001F00F140
:104390000C03704721F0100143E80010002870471B
:1043A000286800F1140151E8001F490800F11403C6
:1043B000490043E800100028F2D170477CB504465C
:1043C0001346A162A38500206064222284F8422063
:1043D0009348E26B9062E26B9248D062E26B924843
:1043E00010630020E56B68630A462668E06B311DA8
:1043F000FEF7E4FF00210091226813680093206813
:1044000041680091009A206930B100F014F841F43D
:104410008071FFF7C1FFF8D100F016F841F00101FB
:10442000FFF7BAFFF8D100F00FF841F04001FFF7B5
:10443000B3FFF8D176BD216801F10C0050E8001FF0
:10444000226802F10C037047206800F1140151E862
:10445000001F00F11403704710B500F00FF822F0B0
:10446000C00200F007F8F8D1202180F8411010BDFB
:1044700042F0400244E8002100297047016801F140
:104480000C0252E8002F01F10C04704710B5FFF741
:10449000F5FF22F49072FFF7EDFFF8D1FFF7F6FE7B
:1044A000FCD1016B012906D1FFF7E7FE22F01002D3
:1044B000FFF7E0FFF8D1202180F8421000220263CC
:1044C00010BD0000406A0021C1850022C28401F0B5
:1044D0007EBC00001CB590F84210222952D18168A0
:1044E000826AB1F5805F0AD1016969B903685968C8
:1044F000C1F308011180826A911C81620FE00029DA
:1045000004BF0169002902D10368596803E001680A
:10451000496801F07F011170816A4A1C8262C18D75
:10452000491EC18589B259BB0168CA6822F02002C0
:10453000CA600168CA6822F48072CA6001684A6968
:10454000520852004A61202180F842100022426342
:10455000016B012912D1026300F016F8026811689C
:10456000CB0607D5002400941268009203685968AE
:104570000091009A818DFEF7FDFF01E001F029FC1A
:10458000002016BD022016BD016801F10C0252E8A0
:10459000002F01F10C0422F0100244E80021002950
:1045A000F2D1704710B5044622681169E06821F421
:1045B000405101431161D3681C49A0680B40216937
:1045C000034360690B430343D3605169A06921F43D
:1045D00040710143516116498A4202D1FEF775FECE
:1045E00001E0FEF76AFE6268192148439200B0FBC1
:1045F000F2F16423B1FBF3F26FF0630000FB0211F0
:1046000009013231B1FBF3F000F0F00101EB0211CE
:10461000226800F00F004018906010BD00000000FC
:1046200017420008C3420008DD420008F3E9FFFF1B
:104630000038014080B50748016841F01001016071
:104640000320FFF728FA0F20FFF77AFA01F0C4FBE6
:10465000002002BD0020024078B585B01022002164
:104660006846FFF710F93648364C0168364D41F080
:10467000100101604FF48076026802F0100204928B
:104680000499026842F020020260036803F02003EC
:1046900004930499026842F004020260036803F084
:1046A000040304930499026842F0080202600022A5
:1046B000006800F0080004904FF4887104982046C8
:1046C000FFF7BEF900224FF480512846FFF7B8F9F2
:1046D0004FF4604100F03EF81C48FFF7E3F848F261
:1046E0004D0100F037F82046FFF7DCF8102100F00C
:1046F00036F82046FFF7D6F844F63F6100F02AF876
:104700002846FFF7CFF84FF4805100F028F82846EC
:10471000FFF7C8F8112101910122022103910292B1
:10472000009669462046FFF7BDF80949019100222D
:104730000292009669462846FFF7B4F806B070BDAD
:104740001810024000080140000C01400010014018
:1047500000001110009103220192694670470091F8
:1047600001220192002102910222039269467047C0
:10477000064881B0016841F001010160006800F065
:1047800001000090009801B0704700BF1410024073
:1047900080B54348434901604FF48272182100F00C
:1047A0000FF800B11DE001BD80B53F483F490160F1
:1047B0004FF48272102100F003F800B111E001BD46
:1047C0004260C16100234FF400720A218360C3601C
:1047D000036143618261036243628362C16201F0EB
:1047E0001DBBBDE80140FFF74CB818B585B00446C5
:1047F000102200216846FFF746F8206800F04BF8C9
:104800001DD1086840F4805008600A6802F48052A4
:10481000049204980A6842F004020A6002220968BD
:1048200001F004010491A0210498214800F02CF823
:10483000002200212320FFF73BF9232020E01B4A20
:1048400090421FD1486840F480404860486800F4B6
:104850008040049004980A6842F008020A6002222C
:10486000096801F0080104914FF4204104981148AF
:1048700000F00AF8002200212420FFF719F9242073
:10488000FFF733F906B010BD0091019203210391A7
:104890006946FFF707B8034A07499042704700008E
:1048A0005816002000300140B016002000380040AB
:1048B00000080140000C01401810024080B5344847
:1048C000344901604FF4E13200230C2142608360DF
:1048D000C360036141618361C361FFF771FA18B17D
:1048E000BDE80140FEF7CDBF01BD30B585B004463F
:1048F000102200216846FEF7C6FF21682548814244
:1049000044D12548254D016841F480410160026889
:1049100002F4804204920499026842F004020260A8
:104920004FF40071006800F0040004900222049823
:10493000009101920321039128466946FEF7B2FFD8
:104940004FF4806000210090019102912846694651
:10495000FEF7A8FF124D1348286000218020E86070
:104960006960A96029616961A961E9612846FEF76A
:10497000F3FC08B1FEF785FFE5636C6200220021BD
:104980002520FFF795F82520FFF7AFF805B030BDDB
:10499000F4170020003801401810024000080140C0
:1049A0003C1800205800024010B5104C104900225D
:1049B000204601F057FC08B1FEF763FF0D49204681
:1049C00001F063FC08B1FEF75CFF0B49204601F0E3
:1049D000ADFE08B1FEF755FF204601F05EFC18B1B0
:1049E000BDE81040FEF74DBF10BD00BF500D0020C8
:1049F000400100202C000020300100201FB50C22B7
:104A000000216846FEF73FFF0021244CA16021737E
:104A10004FF4602122482060E16100202075606031
:104A200001212161204600F0E9F908B1FEF729FFD4
:104A3000012000900190002202926946204600F079
:104A40007BFB08B1FEF71DFF1FBD18B585B00446FE
:104A50001022002101A8FEF716FF216810488142AC
:104A60001AD11048016841F4007101600323026803
:104A700002F4007200920099026842F0040202609F
:104A80000222006800F00400009000990192029355
:104A900001A90548FEF706FF06B010BD80180020EA
:104AA00000240140181002400008014010B586B0F3
:104AB0001022002102A8FEF7E6FE08220021684627
:104AC000FEF7E1FE1C4C1D48206047214FF6FF70A9
:104AD0000022E0606160A2602261A261204601F0D4
:104AE00065FE08B1FEF7CDFE4FF48050029002A99A
:104AF000204601F0C3FE08B1FEF7C3FE002100917D
:104B000001912046694601F08BFF08B1FEF7B9FE1E
:104B100006B010BD81B000680849884209D1084834
:104B2000026842F002020260006800F00200009099
:104B3000009801B070470000AC170020000400404E
:104B40001C10024037B582B00C460898BDF81050D2
:104B50008DF801008DF80030002229462046FEF72E
:104B60006FFF0298FF230222694601F0ACF901228F
:104B700029462046FEF764FF05B030BD1FB582B060
:104B8000002400940C23FFF7DDFF02A807C800945F
:104B90000923FFF7D7FF0820009002A907C90A23BD
:104BA000FFF7D0FF0720009002A907C90B23FFF7EA
:104BB000C9FF02A907C900940F23FFF7C3FF012013
:104BC000009002A907C90C23FFF7BCFF02A807C881
:104BD00006B0BDE8104038B584B001AD002485E8CA
:104BE0000700002300F005F8E0B20828F9DB05B063
:104BF00030BD95E807000093641CE3B2A2E7FCB562
:104C0000012804D020D303283AD01ED3F3BD0020BE
:104C100000230DF80030C0F10706CD5C1DF8004000
:104C2000F54005F001059D402C435B1C0DF800404C
:104C3000072BF2DD401C0728EADD00201DF80030BC
:104C40000B54401C0728F9DDF3BD002043420DF151
:104C500007050024EC540DF107050F5CEE5CE740FE
:104C600007F00107C4F10705AF403E430DF1070708
:104C7000641CFE54072CEEDD401C0728DDDCE5E754
:104C80000020CD1D00230DF800305E42AF5D1DF801
:104C90000040C74007F001079F403C435B1C0DF8F4
:104CA0000040072BF1DD401C0728C6DCEAE737B5DA
:104CB00084B01C46FFF78FFFE0B20428A8BF002491
:104CC0000A98002101AD425C6A54491C0829FADBAC
:104CD00001A9E0B2FFF793FF0024285D009004A92A
:104CE00007C9631CDBB2FFF72DFF641C082CF4DB43
:104CF00007B030BD1CB50024FFE700940F23FFF779
:104D000021FF13BD38B5C0B00446FF224FF48071B7
:104D1000684601F03FF82A4D002055F8041B83B285
:104D20004DF82310401C81B24029F6DB684600F0A4
:104D30000DF8012906D0234800F008F8204600F0BD
:104D40000AF801E000F002F841B030BD90E82E0012
:104D500084E82E00704778B5C1B0054601F0CDFE5D
:104D60000020009000211848154C01600122C2600B
:104D70008460694601F03CFFF8B9FF224FF480716E
:104D800001A801F007F895E84E0001A8002580E889
:104D90004E0001A8A9B250F821200023214602208C
:104DA00001F070FE48B96D1C241DA8B24028F0DB4C
:104DB00001F0B3FE012042B070BDFF20FBE7000010
:104DC00000FC000800000020D018002000E00000D7
:104DD00009490A68002050627047074802680021AC
:104DE000516201F0F0BC10B5034C204601F011FDFA
:104DF0002168486A10BD0000AC170020F8B50446D1
:104E000000270026002C71D004F12405686828B919
:104E10000021A96028702046FFF717FE204600F009
:104E20005DFA6968CA065DD401005BD1696821F446
:104E3000885141F0020169606368E269217B134394
:104E4000A26843EA4103B2F5807F14BF012A4FF400
:104E50008077227D012A0FD131B9A169491E47EA25
:104E6000413747F4006707E0696841F02001696055
:104E7000A96841F00101A96021684A6822F46942E9
:104E800017434F602268DFF81C1497680F401F43D8
:104E90009760A168B1F5807F18BF012902D126690A
:104EA000761E36052168CA6A22F470021643CE6265
:104EB0002468DFF8F413A2680A409A4207D100235D
:104EC000AB6001216A6861F301026A60F2BD686843
:104ED00020F0020040F010006860A86840F0010077
:104EE000A86003E0686840F0100068600120F2BD2F
:104EF000F8B500F0F4F801D10220F2BD00F0DFF8BF
:104F0000010019D16A68DFF8A41300F0DCF80DD1B4
:104F10000F6817F4702F09D000F0C2F800F0C7F83E
:104F200046BFAB6823F00603002302E000F0B1F8AF
:104F3000F4E700F0DAF8E0E0A8E02DE9FC410546EE
:104F4000002000900C46FEF7FBF980462868816837
:104F5000CA0505F1240707D5786840F0200078607D
:104F60000021397001208FE04168CA051CD4C06A55
:104F700010F4700F18D1286801688A0769D414F1F9
:104F8000010FF8D02CB1FEF7DBF9A0EB080084424A
:104F9000F1D2286801688A07EDD4786840F00400EF
:104FA00078600021397052E0022000F0C1FD2968CC
:104FB000DFF8FC62D1F810C0DFF8F822DFF8F83231
:104FC0001CEA060F02BFD1F80CC0DFF8F0621CEA41
:104FD000060F09D1D1F810C01CEA030F05BFC9683C
:104FE00011422926142612E0D1F810C01CEA030F42
:104FF00004BFCB68134207D00B69DFF8C422134209
:1050000004BFC968114201D1542600E0FC26DFF834
:10501000B4120A68B2FBF0F0464302E00099491C62
:1050200000910098B04214D214F1010FF6D02CB1C7
:10503000FEF786F9A0EB08008442EFD20098B04258
:10504000ECD2796841F004017960002038700320C7
:105050001AE028686FF0120101607A6842F4007269
:105060007A60286800F05FF804BF287B00280AD126
:10507000786820F4807078607868C10403D4786818
:1050800040F0010078600020BDE8F6810021297021
:10509000F2BD6F6827F480176F60766877057047F8
:1050A0006E6846F480166E600F687E05704703D503
:1050B0006E6863F30D366E606B68DE047047012026
:1050C00028702046B7E00A4042F480726A600123EB
:1050D0002668DFF8F421DFF8F411964270470446A1
:1050E00004F12405287801287047AB6000262E7053
:1050F0006FF0020325682B60704723689C6804F4F6
:105100006024B4F5602F09D1934203D1096811F4EA
:10511000702F03D1996841F4A00102E0996841F42D
:1051200080119960F2BD816801F46021B1F5602FB2
:1051300070470068C06C7047F8B5002300930A46BA
:1051400000F1240300211C78012C01D10220F2BDC2
:1051500001241C701F27546815680668072C08D2A4
:10516000641E04EB8404D6F834C000F05EF8756366
:1051700012E00D2C08D2E41F04EB8404D6F830C0F2
:1051800000F053F8356307E00D3C04EB8404D6F8D7
:105190002CC000F04AF8F562072716689468056885
:1051A0000A2E08D30A3E06EB4606D5F80CC000F0DE
:1051B00036F8EC6006E006EB4606D5F810C000F0C5
:1051C0002EF82C611468102C18BF112C23D1006804
:1051D0003F4CA0421AD13F4805682C021BD40568F9
:1051E00045F4000505601068102814D1354A3A4D81
:1051F0001468B4FBF5F50A20454300950098002893
:105200001EBF0098401E0090F8D104E001215868AC
:1052100040F020005860002018700846F2BDB740EA
:105220002CEA0707B4403C437047A7402CEA070725
:10523000A5403D43704738B50446002000902068E3
:105240008168CA072CD48168234A41F0010181603A
:105250001C480168B1FBF2F2009202E00098401E87
:10526000009000980028F9D1FEF76AF8054600F092
:1052700059F815D4FEF764F8401B0328F7D300F063
:1052800051F8F4D404F124000022416841F01001E7
:105290004160816841F0010181600270012032BDEE
:1052A000002032BDFDF7E1FFFE0E1FFFFEFDFFFFF8
:1052B00024499224922449009224491224499200BC
:1052C000499224001C0000200028014004240140D1
:1052D000002401400824014040420F0038B5044634
:1052E00020688168CA071BD5816849084900816028
:1052F000FEF726F8054600F015F811D5FEF720F860
:10530000401B0328F7D300F00DF8F4D5A16A41F053
:105310001001A162E06A40F00100E062012032BDAC
:10532000002032BD20688168C807704703B583B08C
:1053300002461F20012104AB029001910093D0216D
:1053400001237448FCF7A4FB05B000BDE0B5FF23C2
:1053500001920293009102460123D1216D48FCF78E
:1053600037FC07BD80B5642000F01CF980216B205C
:10537000FFF7DCFF642000F015F900216B20FFF738
:10538000D5FF00216A20FFF7D1FF00212320FFF77E
:10539000CDFF07211920FFF7C9FF06211A20FFF7CB
:1053A000C5FF01211C20FFF7C1FFBDE80440182103
:1053B0001B20BBE780B500208DF800000122694664
:1053C0007520FFF7C3FF9DF80000682805D000BFD7
:1053D0006DA001F077FC002002BD012002BD1CB5CC
:1053E0000446062269463B20FFF7B0FF9DF8000007
:1053F0009DF8011001EB002121809DF802209DF80D
:10540000031001EB022100F004F801EB0021A18060
:1054100013BD61809DF804009DF8051070477CB5B0
:1054200006466846FFF7DBFFBDF9020001F05EFCAF
:10543000394901F06DFC01F0F7FC0446BDF90000AC
:105440000D4601F053FC344901F062FC01F0ECFC24
:1054500022462B4601F00CFD01F098FD01F0E4FC22
:1054600000222E4B01F0C6FD2D4A2E4B01F098FE76
:1054700004460D46304601F0D7FC22462B4601F08B
:10548000B3FF01F083FD03E02748214602F0DCF87A
:10549000264902F091F90446F6D9254E25493246AF
:1054A00000F058F80025002831D13246224900F09A
:1054B0004FF808B101252AE03246002100F048F8F3
:1054C00008B1022523E032461C4900F041F808B13A
:1054D00003251CE032461A4900F03AF808B10425C9
:1054E00015E03246174900F033F808B105250EE003
:1054F0003246154900F02CF808B1062507E032467F
:10550000124900F025F8002814BF07250825284671
:1055100076BD00000817002000FC7F460080664032
:10552000F1D4C853FB2109400000B4C30100B443C7
:105530000000B4410000B44200003442000034C214
:105540000000B4C2000007C300003443000007435A
:105550002046FFE770B504460D46164628463146FC
:1055600002F0E2F80146204602F026F909D8284662
:10557000314602F069F8214602F01EF901D80120F7
:1055800070BD002070BD00004D50553630353020C4
:10559000646563746563746564206572726F7221FB
:1055A0000D0A000038B50446FDF7CAFE14F1010FDC
:1055B000054602D0044908780419FDF7C1FE401BD6
:1055C000A042FAD331BD00BF10000020F0B424493E
:1055D000244AD1F8807056681078234C234D6FF020
:1055E000004320BB082005FB064637461E46B7FB96
:1055F000F6F6401E03FB1676F5D10F46102005FB8C
:1056000006469C46B6FBFCFC03FB1C663E601E4641
:1056100057F804CB05FB0C4CBCFBF6F603FB16C697
:10562000401E47F8046BEAD1CF6F0120107005FBD4
:1056300006461C4607F01F07B6FBF4F451F8270096
:1056400003FB146641F82760C1F88000566020F023
:105650004040F0BC7047034900220A704860704720
:10566000D4150020900100205FF36E3C0D661900F8
:105670002DE9F047ADF5007D82460D4616461F46E2
:10568000FFF7A4FFF6B2044604EBD4704010A4EB7D
:105690004004B00806EB507222F00702B61A072E3B
:1056A000E4B2EDB22C4950D8DFE806F004060F133F
:1056B0001C202934684625E000F050F802D101F59D
:1056C00000712CE001F580612FE0684601F5C061B2
:1056D00018E000F043F802D101F500611FE001F588
:1056E000206122E0684601F540610BE000F036F8E9
:1056F00002D101F5606112E001F5805115E06846C4
:1057000001F5905100F02EF801A85DF8358050F8B1
:1057100035901AE000F022F805D101F5A05100F013
:1057200021F8012C05E001F5B05100F01BF8FFB2A3
:10573000012F05D101A95DF8358051F8359004E0BD
:1057400001A95DF8359051F83580CAE900890DF559
:10575000007DBDE8F0870000EC000008F8B20028EA
:10576000684670474FF4007202F03AB82DE9F041F4
:1057700090B00446884616461F4608A8A5A12022D8
:1057800002F02EF84FEA0D00AAA1202202F028F81C
:1057900008A9FFB251F82700051935607A1C5DF899
:1057A00027C0901002EB5070C44420F00700C6F8E8
:1057B00004C0A2EB000E51F82E000519B5607F1E43
:1057C0005DF82EC0B81007EB5070C44420F00700FD
:1057D000C6F80CC0381A51F820100C1934615DF865
:1057E000200000EB0802726110B0BDE8F0810428CF
:1057F00001DA0020704701207047042801DA0120F7
:10580000704700207047D2B2042A05DA082808BF82
:10581000082907D00020704710F1010F08BF11F1CF
:10582000010FF7D1012070472DE9FE4317461D46B1
:10583000EAB2042AB4BF4FF000094FF001090A9EF2
:1058400004468846FFF7DFFFD8B13A46D0B2484554
:1058500017D104F1080000F029F8C41A08F1080073
:1058600000F024F8C11A0B980090C2F101020196D1
:10587000EBB2D2B22046FFF7D7FF012814D00020A8
:1058800012E0082C38BFB8F1080F09D2082108200F
:1058900008EBC403F75C012F02D0401EF8D101E0F1
:1058A000012001E0491EF2D1BDE8FE83811000EB2A
:1058B000517323F0070370472DE9F843DDF820C04A
:1058C000BCF1040FB4BF0026012614461D468046D5
:1058D00089460A9F624620462946FFF794FFD8B1C1
:1058E0000998B04218D104F108010B988A1001EB15
:1058F0005273002223F00703CC1A09EBC80305F109
:105900000801FA548A1001EB5272A4EBE20301EB96
:10591000C3010122425407E009EBC8030020F854F8
:1059200005EBC40501227A55BDE8F1832DE9F84F56
:105930008EB00446189E0D469246FFF747FE00EBD8
:10594000D0714910A0EB4107FFF740FE0321FFB2E1
:1059500090FBF1F202EB42020797821A0DF1200B45
:105960008DF8102000279DF810303246F9B205A8B6
:10597000FFF77EFE0598069901EBC001605C0128E7
:105980003CD1DDE90501334608AAFFF7EFFE01959A
:10599000DDE9080100F039F881460195DBE90201F3
:1059A00000F033F880460195DBE9040100F02DF8A2
:1059B000B9F1000F03D10395DDE9082316E0B8F132
:1059C000000F02D1012805D109E0B8F1010F08BF8D
:1059D000002808D050EA080010D1079818B903959C
:1059E000DBE9022302E00395DBE904230294CDF80E
:1059F00004A00096DDE90501FFF75EFF7F1CF8B209
:105A00004028B0DB0FB0BDE8F08F0094334652461B
:105A10000AE7000001000000010000000000000093
:105A2000FFFFFFFFFFFFFFFFFFFFFFFF0000000082
:105A30000100000000000000010000000100000063
:105A40000100000000000000FFFFFFFFFFFFFFFF5D
:105A5000FFFFFFFF2DE9FC410646604D3078C1078E
:105A600050D5A8690024C10009D4A86940F080502D
:105A7000A8610124A86900F0805000900098584F58
:105A80003868C10511D4386840F480703860FDF77B
:105A900057FC80463868C10507D4FDF751FCA0EBE0
:105AA00008006528F6D303203FE0E86910F4407051
:105AB0001EBF716801F44071884218D04949E869F5
:105AC00001220A60002320F440700B60E861C007E7
:105AD0000DD5FDF735FC0746E869810707D4FDF7CA
